:040000006F20807A73
:10000400000000000000000090000020FA0800201A
:10001400A9BDF9F5940000200000000000000000D4
:10002400960000209800002000000000000000005E
:100034009A000020000000009C0000200000000046
:100044009E0000202603002054030020A40000206A
:10005400A6000020A8000020AA000020AC00002078
:10006400AE000020B0000020C60000205E01002089
:1000740076090020B8000020BA000020BC0000204F
:10008400BE000020F60100208E020020C4000020E3
:1000940001A001A001A001A001A001A001A001A054
:1000A40001A001A001A001A001A001A001A001A044
:1000B40001A001A001A001A001A001A001A001A034
:1000C40001A001A001A037370040834747009946AB
:1000D4004111BD8B638ED70231476386E706114712
:1000E4006390E704A3030100174600000346C65EBD
:1000F40037370040834771006317F6022C00174519
:1001040000001305E59F97C000E0E780A09309A8CD
:100114008347570093F7F70F2304F10083478100C7
:1001240041017300203083477100834687000C0827
:10013400AE97238CD7FE83477100850793F7F70F9B
:10014400A303F10045BF2800972001E0E780402584
:100154001375F50FA303A1000346710045B73737A4
:1001640000408347474099464111BD8B638ED702B7
:1001740031476386E70611476390E704A303010050
:100184001746000003466655373700408347710021
:100194006317F6022C00174500001305A59797C0B6
:1001A40000E0E780208A09A88347574093F7F70FB8
:1001B4002304F10083478100410173002030834709
:1001C4007100834687400C08AE97238CD7FE834783
:1001D4007100850793F7F70FA303F10045BF2800CB
:1001E400972001E0E780802D1375F50FA303A1008C
:1001F4000346710045B73747004083474780994617
:100204004111BD8B638ED70231476386E7061147E0
:100214006390E704A3030100174600000346D64B8E
:1002240037470040834771006317F6022C001745D7
:1002340000001305658F97C000E0E780A08009A83F
:100244008347578093F7F70F2304F1008347810016
:1002540041017300203083477100834687800C0876
:10026400AE97238CD7FE83477100850793F7F70F6A
:10027400A303F10045BF2800972001E0E780C035C3
:100284001375F50FA303A1000346710045B7374763
:100294000040834747C099464111BD8B638ED70206
:1002A40031476386E70611476390E704A30301001F
:1002B40017560000034626833747004083477100E2
:1002C4006317F6022C00174500001305258797B025
:1002D40000E0E780207709A8834757C093F7F70F1A
:1002E4002304F100834781004101730020308347D8
:1002F4007100834687C00C08AE97238CD7FE8347D2
:100304007100850793F7F70FA303F10045BF280099
:10031400972001E0E780003E1375F50FA303A100C9
:100324000346710045B7411122C637140040835774
:10033400C40993F7074099CBA1450145971001E003
:10034400E78060A193070040231EF4083244410172
:1003540073002030B717004003D7E70903D7E70934
:100364009316170163D50604175700000347C79374
:100374000507975600002389E692175700001307D4
:1003840067871843136707409756000023A4E6863F
:100394001167239FE70803A7470C916613161701FB
:1003A4006359060003A7C70C558F23A6E70C7300F7
:1003B400203003A7870C558F23A4E70CCDBF975794
:1003C400000093872783984393760740B9C241116D
:1003D40022C406C63E849317470163C107028D45B4
:1003E4000945971001E0E7800097914517550000F3
:1003F40003457582977001E0E780408C1C40B24051
:10040400224493F7F7BF174700002325F77E4101E5
:10041400828082804111814601468145114506C68C
:10042400EF00A077B727004011472383E780B7F791
:1004340000E003A707D16D9B23A8E7D003A707D14A
:100444005D9B23A8E7D07300501001000100B24067
:10045400410182804111814681450146114506C60C
:100464002D2FB727004011472383E780B71700409B
:1004740003C7E70283C5E70483D78703916613772D
:10048400F70F93E5350063E5D700719B13671700F9
:10049400B7170040130670052380C704930680FA3B
:1004A4002380D70401000100238207022380C704AC
:1004B4002380D704010001002387E7022387B704C0
:1004C4002380C7042380D7040100010003C7B704B5
:1004D40013670702A385E7042380070437F700E0C6
:1004E400832507D193E545002328B7D0832507D179
:1004F400DD992328B7D07300501001000100238038
:10050400C7042380D7040100010003C7B70413778D
:10051400F70DA385E70423800704B24041018280DC
:100524000111B7F5070022CC8146E1052A840A8629
:10053400194506CE26CA02C023120100B92DB717E9
:10054400004003C7E70283C5E70483D787039166A6
:100554001377F70F93E5350063E5D700719B1367B5
:100564001700B7170040130670052380C7049306CD
:1005740080FA2380D704010001002382070223802C
:10058400C7042380D704010001002387E7022387DF
:10059400B70423800704B7F500E003A705D1136768
:1005A400470023A8E5D003D5070265771107137523
:1005B4000560418D598D4205418101002380C704A6
:1005C4002380D7040100010003C7F70037F40700B4
:1005D400B7F400E013670704A387E70003C7B70471
:1005E400610413670702A385E7042390A70283A786
:1005F40004D1DD9B23A8F4D0730050100100010046
:1006040013056004352E81463000A285194502C4C5
:1006140023160100592322478247E31AF7FCB71730
:100624000040130770052380E704130780FA238032
:10063400E7040100010003C7B7041377F70DA3858E
:10064400E70423800704F2406244D24405618280B7
:1006540001114EC681460146AA898145114506CE3F
:1006640022CC26CA4AC8152BB716004083C7E60217
:1006740003C7E60483D68603116693F7F70F13675F
:10068400370063E5C600F19B93E717003714004079
:100694001309700523002405930480FA23009404AD
:1006A4000100010023020402230024052300940412
:1006B400010001002307F4022307E40423000404D7
:1006C400130550025920B7F700E003A707D11367B9
:1006D400470023A8E7D02300240523009404010045
:1006E40001000347F40013670704A307E400230091
:1006F400240523009404010001002567B3E9E900FF
:100704002310340303A707D15D9B23A8E7D073000C
:100714005010010001008146014681451145B5296B
:10072400230024052300940401000100834764048A
:1007340093E717002303F40423000404F240624403
:10074400D2444249B24905618280B71700409306FA
:1007540070052380D704130780FA2380E70401007F
:10076400010003C6B7041376F60DA385C7042380DE
:100774000704137605024DC203C6A700118A1DE2C1
:100784002380D7042380E7040100010003C7A700E6
:10079400136747002385E7009307004B010001001E
:1007A400FD17EDFFB7170040930670052380D704AB
:1007B400130780FA2380E704010001007D89239454
:1007C400A700010001000100010023800704238029
:1007D400D7042380E704010001000100010037274A
:1007E400004093061005A303D78023800704B7179E
:1007F4000040130770052380E704130780FA238061
:10080400E7040100010003C7B70413670708A385C1
:10081400E7042380070482801376050441C603C6D7
:10082400A700418A1DE22380D7042380E704010046
:10083400010003C7A700136707012385E700930797
:10084400007D01000100FD17EDFFB717004093067E
:1008540070052380D704130780FA2380E70401007E
:1008640001001376F501136606042394C700010002
:10087400010001000100238007042380D70413062C
:1008840060042380E7046318C500010001003727D2
:100894000040894689BF01000100372700409306C4
:1008A400200591B72380D7042380E70401000100C9
:1008B40003D787001367070C2394E7000DBF41118A
:1008C400814601468145114506C6C12CB717004033
:1008D400130770052380E704130780FA2380E704D5
:1008E4000100010003C76704136717002383E704AB
:1008F40023800704B240410182808146014681453C
:100904001145612CB7170040930670052380D70466
:10091400130780FA2380E704010001007D56239623
:10092400C7022380D7042380E7040100010003C722
:100934006704136717002383E7042380070401A0D7
:10094400BD473305F50201007D1575FD8280411117
:1009540022C426C206C6AA84014463179400B24086
:10096400224492444101828005041305803E4204DE
:10097400C13F4180DDB7B717004013070003238848
:10098400E702854717470000232CF7347300203013
:10099400397122DC4ED656D237140040E57AB7F9C5
:1009A400070026DA52D45AD05ECE06DE4AD862CC8C
:1009B4002A8B916B93040404130A7005910AE109CC
:1009C4008347E4020347E4048356840393F7F70F51
:1009D4001367370063E57601F19B93E717002380E3
:1009E4004401130980FA2380240101000100230239
:1009F4000402238044012380240101000100230711
:100A0400F4022307E4042380040037F700E083277B
:100A140007D193E747002328F7D08357040293F7BD
:100A24000760B3E76701B3E75701C207C183010059
:100A34002380440123802401010001008346F40043
:100A4400130CB40493E60604A307D4008346B40449
:100A540093E60602A305D4042310F402832707D1E6
:100A6400DD9B2328F7D0730050100100010013050B
:100A74006004F9353000CE858146194502C4231639
:100A84000100212A1146974500009385E525280099
:100A940011231DD5930770052380F40023802401BE
:100AA4000100010083470C0093F7F70D2300FC00BD
:100AB40023800400F2506254D2544259B259225A4B
:100AC400925A025BF24B624C21618280411106C64C
:100AD400AD2DF53097C000E0E780601DD5BF23033E
:100AE400048015472303E48001002302A48082804C
:100AF40083076480E3CE07FE230304808280830798
:100B04006480E3CE07FE03454480828083076480CB
:100B1400E3CE07FE2302A4808280411126C44AC288
:100B24004EC006C61377F50BAD47AA892E899544A6
:100B34006306F70019456537653F8D444E85453793
:100B4400FD59FD1463983401B240A244124982490C
:100B540041018280135509011375F50F453F2209A0
:100B6400CDB7011126CC06CEB70408005137154580
:100B7400BD37713769372AC6A53F324593771500CB
:100B840089EB136515001375F50FF240E244056116
:100B94008280FD14E9FC0145CDBF397126DC4ADAB7
:100BA4004ED852D656D45AD25ED006DE62CE66CC29
:100BB400B7E700E07D5783AA070022C603AA4700CF
:100BC40023A0E71823A2E718B717004013077005FE
:100BD4002380E704130780FA2380E70483C74704CC
:100BE400930B75FFB684E20793FBFB0F8546AA8936
:100BF4002E8B328937240040E187015763FA76014E
:100C04006308D5008946130700026313D500015712
:100C1400D98F93F7F70FB71C00402382FC041147C8
:100C24002303E4801305F00F5D3D094CD135636D5A
:100C34007C11B7050700DA9537870700795563F209
:100C4400E504B3879500636EF702370B0800A947E4
:100C540033EB65016399F90689E48144513D2685A6
:100C64000DA0DA850945553D05090345F9FFFD1435
:100C7400050B693D81C49377FB0FFDF7DD3569FDF5
:100C84007D55B7170040130770052380E704130749
:100C940080FA2380E70403C74704418B2382E704D7
:100CA400F250B7E700E023A0571123A24711E25402
:100CB40032445259C259325AA25A125B825B724C64
:100CC400E24C21618280A5476395F9068569130981
:100CD400F00FB3069900B3742B01B6941349F9FFCE
:100CE400B3749900856B33796901416B9387F9FF7C
:100CF400B3F7270199E363FC340193D94900C14751
:100D0400E3E637FF99BF0569C1697D19D9B71305B2
:100D1400800D63886901130500026384790113055A
:100D24001008CA85DD3B353D21DD4E99B38434413D
:100D3400D9B7DA852D45D533CA94E30099F205096C
:100D44007D3BA30FA9FED5BF9387F9FF93F7F70F58
:100D54006361FC0C83C71C0413073008631FF7048A
:100D640037070800636BEB04B3079B00B70610005A
:100D740063F5D704334BEB0089476393F906898005
:100D8400D549E38C04ECDA850945413B1109032775
:100D9400C9FF91472320E48003076480E34E07FEE4
:100DA40023033481FD17EDFBFD14110B81C49377EC
:100DB400FB0FE9FF7D3371F5E1B5B717004003C7B9
:100DC4005704B70708001377070219E3B78707002A
:100DD4007955E378FBEA33079B00E3FFE7F855B561
:100DE4008547E382F9F2DA852D45053B9389F4FFC3
:100DF400E38504E6293393F7390091EB83260480D5
:100E04000327090093074900E39AE6E43E89CE8468
:100E1400F1BFB5476396F9001305900BC93135BD91
:100E2400B1471305B00AE38BF9FE99476391F904BE
:100E3400B7050800B365BB002D45C53181448D4B12
:100E4400A149753963967401832704802320F9002E
:100E54008504E39834FF8327048013172B0163551B
:100E640007002312F900D5BB2322F900FDB39D47E7
:100E74006399F90281451305B0044531BD4423202B
:100E8400090023220900FD599D3993F77400CA977C
:100E940003C70700FD14398D2380A700E39634FFB0
:100EA4006DBBA1476392F9046D398144630D0B0056
:100EB4008D479304C0036308FB0093040005630497
:100EC4008B01930440041375C507E30895D81945AD
:100ED400393139390545213126850D3909453D31E9
:100EE4004931E31C05D669BB91476399F9001305A1
:100EF4006006F536F53E130590090DB7E38F09D466
:100F0400F154A9BB19CD91CD09CE81473387F500A2
:100F1400834607003307F50085072300D700E3174E
:100F2400F6FE828019C991C909CA910583A7C5FF34
:100F340011057D16232EF5FEC5BF828001C919C691
:100F44002A960505A30FB5FEE31DA6FE8280814700
:100F54003307F5000307070019E33E858280850700
:100F6400C5BF01112E8626CAAA841315060193054E
:100F7400F004418122CC06CE32C6EF1040592A84B7
:100F840001C53246A685BD3F2285F2406244D24463
:100F940005618280854715C18DC105C28147B306AD
:100FA400F5003387F50083C60600034707006398FE
:100FB400E6008507E315F6FE85473E858280814776
:100FC400EDBF9307F6FFBE952A966313C500828092
:100FD400FD1583C715000505A30FF5FEFDB7AA8708
:100FE400014581CF09CE3E96850703C7F7FF6317F6
:100FF400B700E39BC7FE054582808280014582805D
:101004007971975700009387A75822D4804306D656
:1010140026D24AD04ECE52CC56CA5AC85EC662C4F4
:101024005DCC37C9C901814B175A0000130ACA5A4B
:1010340097540000938404561309F937975A000013
:10104400938ACA4FB709C0A8370B40578357240067
:1010540095E35C44639D0B0017570000232AF75265
:10106400032CC4002285EF10A057628499A823A6FC
:10107400FB00FDB783270A008297838664011C4422
:1010840063DB06063307F5406367E90897570000FA
:1010940023AE074A8355240003450400976001E00A
:1010A400E780C0C15C405844A9CF1444B6978386F6
:1010B400640163C5060063E33701DA971CC4A28B9D
:1010C4003A8449F497570000938747479C4B094754
:1010D4006378F706F917175700002329F746B2502B
:1010E400225492540259F249624AD24A424BB24BB8
:1010F400224C45618280E377F5F83387F9402A97DB
:1011040061B763970B009757000023A3E74889BF93
:1011140023A6EB00B1B7D85009CF63DF06003385AF
:10112400A74083A70A016376F5009757000023AF11
:10113400A740A28B404471B7E3F3A7FECE97C5B78F
:101144009757000023A4074059BF411122C41754E4
:1011540000001304A4411C4006C626C24AC091C71D
:1011640082979757000023A307405C4091C382975E
:101174001C406391071C9757000083C7B75D858B9C
:101184009DC797570000A387075C175700000347C4
:10119400975C954763FDE700EF0010379757000011
:1011A40083C7775BF5178A07A2979C4382971759E1
:1011B40000001309E95D8347C900918B99C3EF10BF
:1011C40060281C4491C38297975400009384043C84
:1011D400984017560000034676369757000083C799
:1011E400E73593961700BA9683D60600D5CA975763
:1011F400000083C7A73463EFC70A97570000238F03
:1012040007321C40639807129757000083C7D754CE
:1012140091CF9757000083C7175489EB9757000065
:10122400A38C075297B002E0E780E0BF9757000015
:101234009387873A9C43638F070EB707C0A8175755
:1012440000002325F7306D3B9757000093878734C0
:10125400DC53EDC3175700001307472E184B97575D
:10126400000083C777346367F70C17570000034700
:10127400974E954763E0E70C8347C900918BDDEBFC
:1012840090409756000083C6762B63CBD70A22443E
:10129400B240924402494101175301E06700237FA1
:1012A400850793F7F70F975600002389F628E3E69E
:1012B400C7F235BF86073E97835507002310070002
:1012C400975700002392072C975700009387C7294C
:1012D4009C43175500000345652613172500BA974C
:1012E4009C4382979757000083D7072A175700001B
:1012F4000347C72493C7F7FF7D8D931717009840C2
:101304003E97835707005D8D2310A7009757000071
:1013140083C7C72291C78507175700002300F72208
:1013240017570000034787219757000083C71721E9
:10133400E375F7ECB24022449244024941018280B1
:10134400139717003297035707006DF7850735BFCA
:10135400AD6737C70040BD072326F7200F100000F4
:10136400975700009387871DC84F83278726BD663C
:10137400BD0693C7F7FF99836A052326D7205D8DA1
:1013840082804111B7170040985F3AC6945F324794
:10139400E39CE6FE32454101828082800327851169
:1013A40063000712411122C406C68347C500834562
:1013B400C5042A8493F7C70F2306F50083469700D4
:1013C4000356C70013958601618563F1C508635A06
:1013D40005060345870093F6F607A304D7000546E0
:1013E40093E627006314C50093E617002306D40090
:1013F4005C4389075CC3A30AB400032504112E8649
:101404004C43090501368327841103465401D44310
:1014140003D7C700B296118FD4C32396E700894738
:10142400A30DF400034744039757000083C7A7178D
:101434006378F7048347C40093E707012306F400A5
:1014440081A093E717002306F40075B79376F60F8F
:10145400635D050203458700854513E62700631491
:10146400B50013E617002306C400A30AD400A3049E
:1014740007008547A30DF400832784119C43DDF303
:10148400B240224401454101828093E717002306BC
:10149400F400A30AD400A3040700032504114C4359
:1014A40009058D348327841103465401D44303D79B
:1014B400C700B296118FD4C32396E7008D475DBF52
:1014C4000545828097570000938707279C43411165
:1014D40022C406C6858B2A84C5EF4165130525F50C
:1014E400975002E0E78080A745C58347A5002315F0
:1014F400F50083270412BDE72320A4122322A4129B
:1015040085472310F40423200500834764015441D4
:101514002316F5000347D4002304E5000547A3047C
:10152400E500175700001307A722184F1385170269
:1015340015811C437D151375F50F9CC25C43DCC2F9
:101544001C479CC65C47DCC61C4B9CCA5C4BDCCA73
:101554001C4F9CCE5C4FDCCE19CD9386060213073C
:101564000702C1BF8327441288C38357040423227C
:10157400A412850779B79757000083D7A72A850750
:10158400175700002310F72AB240224441018280F9
:101594008347C40023090400054593C74700230675
:1015A400F400DDB78347850193F7E70FD5EF834751
:1015B4009501DDEB034625018346C50009CA834531
:1015C400450317570000034717FE63E7E50013F7C9
:1015D400060141CF014709C6C18A0357651C81C66C
:1015E4008356A51C369751C31307C712175500001D
:1015F400035545F7B335A70237460F0041111306CB
:101604000624814622C426C206C67D543305A70299
:10161400975003E0E78020249757000083C717F909
:10162400B384A700975700009387471F03A70709B0
:101634008327070963F387003E84184375FB975794
:101644000000938767F99C43829781476364A400F1
:10165400B307A440B2402244B3B7970093C717001E
:1016640092443E854101828081473E858280797122
:1016740026D206D622D44AD04ECE52CC56CA5AC806
:101684005EC68347350303447513AA843E941374DA
:10169400F40F9307400263F687001304B4FD137438
:1016A400F40F03AA841383AAC413A38B841222867F
:1016B4005285D685975003E0E7806014058915E5C7
:1016C40003CBD41201498149337B6403930B500249
:1016D4004A865285D685975003E0E78040120589F3
:1016E40015C5639169031374F90F238B8412B250E7
:1016F400225492540259F249624AD24A424BB24BA2
:10170400456182808509E20993D989410509E3117C
:1017140079FDE1BF832785090356E503797193D6E3
:101724000701BD8EC206C182358E1357764093578A
:101734005640898B058B5D8F93573640918B5D8F17
:1017440093571640A18B5D8F93171600C18B5D8F45
:101754009317360093F707025D8F9317560093553E
:10176400860093F707041E065D8F1376F60F518FDC
:1017740093D7554013D63540118A898BD18F13D610
:101784007540D18F13D61540218AD18F1396150039
:10179400418AD18F1396350013760602D18F1396A2
:1017A4005500137606049E05D18F93F5F50FCD8F62
:1017B400A20745465D8F3307C70222D42A8426D266
:1017C40052CC56CA032A8413832AC4135AC806D691
:1017D40036974207418393577740135557400989F9
:1017E400858BC98F135537401189C98F13551740FD
:1017F4002189C98F131517004189C98F1315370023
:1018040013750502C98F1315570093558700137577
:1018140005041E07C98F1377F70FD98F13D53540E9
:1018240013D755401189098B498F13D57540498FBA
:1018340013D515402189498F139515004189498F86
:101844001395350013750502498F139555001375CB
:1018540005049E05498F93F5F50F4D8F2207D98F07
:10186400B387C7024AD04ECE5EC662C4B697C207DB
:10187400C18313D7774013D557400989058B498F06
:1018840013D537401189498F13D517402189498FC2
:10189400139517004189498F139537001375050275
:1018A400498F1395570093D58700137505049E0738
:1018B400498F93F7F70FD98F13D5354013D7554078
:1018C4001189098B498F13D57540498F13D515405C
:1018D4002189498F139515004189498F1395350046
:1018E40013750502498F13955500137505049E055C
:1018F400498F93F5F50F4D8F2207D98FB387C70210
:10190400130650025285D685B697BD8E9394060170
:10191400C18033F6C402137BF60F975003E0E780CF
:1019240000EE05890DED8347D41201498149B38442
:101934009702130C5002C1804A865285D68597506F
:1019440003E0E780C0EB0589937BF90F11C563863B
:101954003403850993F9F90F0509E31F89FD230B66
:101964006413B250225492540259F249624AD24A40
:10197400424BB24B224C456182805E8BCDB7011144
:1019840097570000938787E922CC03A4470B26CA04
:1019940006CE2AC42EC6854419E40145F2406244A9
:1019A400D244056182808347910003471400858BEC
:1019B4006304F7000044CDB719469305A10013054D
:1019C4002400EFF02FDDE31795FE0545C1BF01119B
:1019D40022CC17540000130464D918402AC62EC41C
:1019E40032C206CE3C4B93F7F7F73CCB97A002E00C
:1019F400E7802040184097560000938666D43C4BFD
:101A040093E707083CCB9C423245A24523A007003C
:101A1400034715000348250022074208429703485C
:101A240005004297034835006208429798D7034758
:101A340055000348650022074208429703484500C1
:101A440042970348750062084297D8D70347950028
:101A54000348A5002207420842970348850042979D
:101A64000348B5006208429798DB0347D500034852
:101A7400E5002207420842970348C5000345F500E4
:101A8400429762052A97D8DB03C7150003C52500D2
:101A9400220742052A9703C505002A9703C5350086
:101AA40062052A9798CF03C7550003C5650022072E
:101AB40042052A9703C545002A9703C575006205A8
:101AC4002A97D8CF03C7950003C5A500220742056E
:101AD4002A9703C585002A9703C5B50062052A978E
:101AE40098D303C7D50003C5E500220742052A970A
:101AF40003C5C50083C5F5002A97E2052E97D8D300
:101B0400D843759BD8C3D84313671700D8C39843E9
:101B14001367170098C3124698425C43858BD1E73C
:101B24001C4F01452300F6009C429C4FA183A30057
:101B3400F6009C429C4FC1832301F6009C429C4FBB
:101B4400E183A301F6009C42D84F2302E600D84F5C
:101B54002183A302E600D84F41832303E600D84F34
:101B64006183A303E60098532304E600985321837A
:101B7400A304E600985341832305E6009853618348
:101B8400A305E600D8532306E600D8532183A30611
:101B9400E600D85341832307E600DC53E183A3071F
:101BA400F600F2406244056182800100B5B7175720
:101BB4000000130727B91443411122C49C5E4AC094
:101BC40006C6998326C2858B3A84175900001309E7
:101BD40029B7D1CB9C5E97540000938464B793F7E4
:101BE400F7F99CDE175700000347E7B69307000890
:101BF400631BF700832709009C4393F707041757D7
:101C04000000230AF7B483C7040093F707049DC3B5
:101C1400975700009387479C9C43829797570000EF
:101C240023A0A7B483C7040093F7F70B175700004A
:101C34002300F7B283C7440093F707048DE7854771
:101C440017570000A308F7B097570000938707B20F
:101C54009C43096798C7130700FC97560000238B21
:101C6400E6AED844F8D31C40985F1183058B09CBAA
:101C7400985F3D9B98DF054797560000238CE6ACA0
:101C8400985F1D83058B11CB985F1377F7F798DF67
:101C9400854717570000230FF7AA83270900D84365
:101CA4000583058B19C7D843759BD8C3D843799B43
:101CB400D8C3B2402244924402494101828039711E
:101CC40006DE16DC1ADA1ED82AD62ED432D236D044
:101CD4003ACE3ECC42CA46C872C676C47AC27EC0E8
:101CE400F935F250E2525253C2533255A2551256AC
:101CF40082567247E2475248C248324EA24E124FB1
:101D0400824F21617300203097570000938707A604
:101D14009443975700009387A7A303C70700058B35
:101D240011CB97570000238707A297570000A3837E
:101D340007A2828003C71700058B65F7F85271FF6D
:101D440083C75700DDB7175800001308A89F03275F
:101D540008001C5F9583858BD1E709C61C5BBD8396
:101D64002300F60085CA83270800985B460793572B
:101D740067016356070093E707C0C207C18303974F
:101D84000600C207C18709C7BA970947B3C7E70264
:101D94002390F60085CD834715008DCB9756000020
:101DA40083C6669B93F606041387970089478DCAFA
:101DB4003A9503470500854699471376F70663115C
:101DC400D60262076187B947634C0700832708007E
:101DD4009C5FED838D8B17570000A300F798814714
:101DE4003E8582808547EDBF411122C406C6175443
:101DF40000001304A497184049E9AE877453FDFE0C
:101E04003E85B285975700002385079497A002E08A
:101E1400E78020D4975700009387C7929C43B70666
:101E240080009843558F98C3D857719BD8D797573C
:101E34000000A381079297570000A38B07901C40D2
:101E4400094798C3B7F700E003A707D16D9B23A800
:101E5400E7D003A707D15D9B23A8E7D073005010F8
:101E64001440175700001307A78E83472700858B5C
:101E740089EB83473700858BD9C797570000238B9D
:101E8400078CB2402244410182808D476310F502E1
:101E9400975700009387078B9C43B70680009843AD
:101EA400558F98C3D857719BD8D75DBF8547E31921
:101EB400F5FAB567BD075CC70F1000001C40096741
:101EC400094698C7130700F8975600002384E6884C
:101ED40017570000130707871443984231830D8B6B
:101EE4006319C7001307E043F8D33D673D07D8C71C
:101EF40085BF984231830D8B01E713076019EDB755
:101F04001307E01BD5B7FC52ADF3A5BF5D7152DCDE
:101F1400175A0000130A0A8303270A0086C6A2C4BC
:101F2400A6C2CAC04EDE1C43975900009389C988D3
:101F3400175900001309898393F7F7E793E7070814
:101F44001CC383A609003707CEFF7D179C461306E2
:101F540080022A84F98F9CC683270900130700088E
:101F64002800B8CBAE8493051008EFE03FFD97A09E
:101F740002E0E78000E897A002E0E78000F583270D
:101F84000A009376F41F370FFCFF23A40700984B35
:101F94004E88CA881367F70398CBF84F130510F8D7
:101FA400D285137707E0558FF8CF9843F576FD1661
:101FB400758F98C39843B7063300B70204001377AC
:101FC400F7E798C398439303401F7D1F1377F7E700
:101FD4001367071098C303A70900930F800285496C
:101FE4001C47D58F1CC7832709001307900D3400A5
:101FF400B8CB114901471353370026938347030095
:1020040013767700B3D7C740858BDDCF9C41832EF1
:102014000800239C07042390070603AECE02137E18
:10202400DEFF23A6CE0383AE0700137EF70793FEDD
:102034000EF833EECE0123A0C70103AE4702336E80
:102044005E0023A2C70383AE0800014E23A27E06CE
:1020540003DA070663074E0303AE0703038A060089
:10206400135EFE00620E135E8E416358CA0103AE16
:102074000703135EFE002380C60103DE0706137EFA
:10208400FE0F03AA4E0663060A0003DA8705E37F00
:1020940049FB03AE4702337EEE0123A2C7038387C5
:1020A4000600635CF400034E03003396C900134634
:1020B400F6FF3376C6012300C3003E8663D3A70030
:1020C4002A8613158601618505071377F70F8506A0
:1020D400E313F7F3B640264496440649F259625A8C
:1020E4006161828097460000938646689C42D84787
:1020F4001316170163550602984713161701635008
:1021040006027D57B8D71747000013072743584FD7
:102114000507174600002321E644116798C798472E
:102124000D83058B1DC317470000034787621367A0
:10213400170017460000230EE660130700F8174641
:1021440000002309E660214798C79847058B09CF0B
:10215400174700000347D75F1367170017460000AF
:10216400A308E65E054798C798470983058B09E7E6
:1021740098470583058B31CF98471746000013060F
:10218400265D174500001305E55B0983058B630392
:1021940007101841184331830D8B75EBAC4B184E67
:1021A40093F5050203471700CDCD79EF13077006A9
:1021B400D8CF03470600136717001746000023090A
:1021C400E658114798C718415C57F19B93E71700ED
:1021D4005CD79C4298479316370163D6060297460C
:1021E400000083C6E66AC18A174700001307076325
:1021F400C5CE0347470713670702974600002389A4
:10220400E668056798C798479316270163D10602C5
:1022140017470000034707546207618763570700A5
:102224000547974600002387E652096798C79847F1
:102234009316070163D606029746000083C65665C7
:10224400858A174700001307675DADCE034757071C
:102254001367270097460000A38CE662216798C79E
:10226400828029D785456315B7001307B00689B75F
:1022740089456315B7001307F0061DBF8D45631527
:10228400B700130730072DB71307500715B7130707
:10229400600739BF0347360013671700174600006D
:1022A400A309E64A094739BF834647070946BD8A59
:1022B4006388C600034747078D463D8BE313D7F475
:1022C400114725BF83465707918AC9DA0347570741
:1022D4001367870041B7397106DE16DC1ADA1ED897
:1022E4002AD62ED432D236D03ACE3ECC42CA46C8B2
:1022F40072C676C47AC27EC0F533F250E2525253AB
:10230400C2533255A255125682567247E24752487A
:10231400C248324EA24E124F824F216173002030C8
:10232400174700001307C7448346B70197470000C7
:1023340083C7D7464C4BB697FD8B33D7F5009746EA
:102344000000A387F64297460000A389F644058B54
:1023540015EF174700000347B744B3F7E702814678
:1023640001471305000233D6E500058A1378F70FF9
:1023740019CA6397D70097470000A38B073F828051
:10238400850693F6F60F0507E31FA7FC828097479F
:102394000000938767249C43011122CC4EC606CECD
:1023A40026CA4AC852C456C28297974700009387E8
:1023B400273E804781496305A406BE8497470000F1
:1023C4009387471D038767013E8963550706018D7F
:1023D400135455009747000083C7273B9379F501B1
:1023E400636DF402370AC0A8B70A4057153F9C44EE
:1023F4009746000083C66639139756003E978307B5
:102404006901158C63C507006363470156979747B5
:10241400000023A3E738E37BD4FC1604B36934013A
:10242400F24062444E85D2444249B249224A924A19
:1024340005618280E37D85F8B707C0A833848740AF
:10244400229579B797470000938707199C43411158
:1024540022C406C626C28297974700009387473353
:1024640080476309A406BE849747000093878712B8
:102474008387670163D80704018D13545500974778
:10248400000083C787306367F404593D9844974735
:10249400000083C7872F9396570036971D8C974665
:1024A400000023ABE62EE372F4FE2244B2409244D1
:1024B400174500000345D52B8145410117A302E0D0
:1024C4006700C3E7E37A85FAB707C0A83384874077
:1024D400229565B7B24022449244410182809747D5
:1024E40000009387672D9843B75702009387079F8F
:1024F40083260709139656006358060083260709A6
:102504001396660063440600FD17FDF3828071C5CF
:10251400AA870145E9C58D07C207C183F19BC2079C
:10252400C18313074003636FF702174700001307C3
:10253400A72E0843174700001307872D14436398F9
:10254400A602174700001307E704185B014541CBB7
:102554004111C20706C60545DD8D0297B24001450B
:1025640041018280174700001307C72AD9B70357D0
:10257400650035E303574500636FF704B306F7407E
:102584002146637CD60203280500938687001D8FAD
:10259400AA966117174600000356A6FA2392E6008E
:1025A40023A006012393060014C12312F500130788
:1025B40086FF974600002396E6F82313B500974557
:1025C400000083D505F8B387F54017470000231AA8
:1025D400F7F62105828008419DB7014582808280FB
:1025E4000DC1974700009387272303A3070097474C
:1025F40000009387E72183A8070081469A8763E355
:102604001701828003A80700636DF50A636BA80AAB
:1026140013878700E367E5FE03D667002167050794
:102624006317E60003C7C1950507238EE194974518
:1026340000009385A5F003D6470003D765002393D4
:10264400070032974207418317450000231BE5EE3C
:10265400638A6702174500001305C51B084163031D
:10266400F50203D5660019ED83D7460023A00601C1
:1026740021073E9621062392C60097470000239225
:10268400E7ECB6879843E30E17F797460000938666
:1026940066189442E307D7F683566700BDF283D6E3
:1026A4004700035647001843A106B2962392D70069
:1026B40098C383D76500A107174700002313F7E8E1
:1026C4008280BE86C28725BF011197470000938789
:1026D400E71422CC03A4C70B26CA4AC84EC606CEAA
:1026E400AA8413092500854915C083C7140003472C
:1026F4003400858B6304F700405CFDB719469305ED
:1027040044004A85EFE01F89E31835FF2285F24033
:102714006244D2444249B2490561828041119747DB
:1027240000009387A70F22C403A4C70B26C24AC084
:1027340006C693042500054901E82285B2402244D7
:102744009244024941018280A6851305A402974060
:1027540003E0E78000C0E30225FF405CF1BF4111C4
:10276400974700009387870B22C403A4C70B26C294
:102774004AC006C693042500054901E82285B240F3
:1027840022449244024941018280A6851305A40192
:10279400974003E0E780E0BBE30225FF405CF1BF24
:1027A80097110020938181B11761002013010185E1
:1027B8001305400097E5FF1F938545841706002001
:1027C8001306C6FD63FAC5008322050023A0550041
:1027D80011059105E3EAC5FE170504001305C5DBDD
:1027E80097050020938585FB1386018563FAC5004C
:1027F8008322050023A0550011059105E3EAC5FED3
:1028080013850185974500209385C5126377B50028
:10281800232005001105E36DB5FEFD42739002BC4F
:102828008D4273904280B72200009382828873A001
:10283800023097D2FF1F9382627C93E2320073903A
:102848005230970201009382023073901234730061
:1028580020303D432A876373C3029377F700BDEFA7
:10286800ADE5937606FF3D8ABA960CC34CC30CC7F8
:102878004CC74107E36BD7FE11E28280B306C34021
:102888008A069702000096966780A6002307B7007D
:10289800A306B7002306B700A305B7002305B700B2
:1028A800A304B7002304B700A303B7002303B700AA
:1028B800A302B7002302B700A301B7002301B700A2
:1028C800A300B7002300B700828093F5F50F939615
:1028D8008500D58D93960501D58D61B79396270010
:1028E8009702000096968682E78086FA9680C1173E
:1028F8001D8F3E96E374C3F8A5B73367B500FD5343
:102908000D8B79E7B7877F7F9387F7F7104194415D
:10291800B372F6003363F600BE92B3E262006397C7
:10292800720C6318D6065041D441B372F600336373
:10293800F600BE92B3E262006398720A631BD60483
:1029480010459445B372F6003363F600BE92B3E2C5
:1029580062006391720A631ED6025045D445B37271
:10296800F6003363F600BE92B3E26200639A72081F
:102978006311D60210499449B372F6003363F60026
:10298800BE92B3E26200639372085105D105E30F6A
:10299800D6F61317060193970601631CF700135721
:1029A800060193D706013305F7409375F50F91E9B2
:1029B80082804183C1833305F7409375F50F91E118
:1029C80082801377F70F93F7F70F3305F74082806C
:1029D8000346050083C60500050585056313D60073
:1029E80065FA3305D640828011059105E312D6FEBB
:1029F800014582802105A105E31CD6FC01458280A2
:102A08003105B105E316D6FC014582804105C105B3
:102A1800E310D6FC01458280014711464148B38640
:102A2800E5008147B308F50083C808008507C1069B
:102A380023A816FFE398C7FE11071105E31107FF46
:102A48008280935785019CC19357054193F7F70FEF
:102A5800DCC19357854093F7F70F1375F50F9CC5A5
:102A6800C8C582801C414111130705013EC05C4165
:102A78003EC21C453EC45C453EC6939725001408DB
:102A8800B69783A707FF85051105232EF5FE8D89C7
:102A9800E315E5FE41018280397122DC4166138429
:102AA800819D06DE26DA4AD84ED652D456D25AD05E
:102AB8005ECE93050501A2863708FF007D168307C1
:102AC8000500034735001105E207D98F0307D5FF35
:102AD8009106420733770701D98F0307E5FF2207DD
:102AE800718FD98F23AEF6FEE39BA5FC81499144F3
:102AF800930A010117BB0300130B4BA397BB0300F9
:102B0800938B4BA0130AC00293F7340003290400E7
:102B18004844BDE78A85353785450A85A1370A8740
:102B28001C43110793F6F70093F7070FDA97B69748
:102B380083C70700232EF7FEE394EAFE0245924777
:102B48006205C2075D8DB2475D8DA247A2075D8D04
:102B580093972900DE979C4385093D8D33452501D0
:102B680008C885041104E39144FBF2506254D2541E
:102B78004259B259225A925A025BF24B2161828021
:102B88003345A90008C8F1BF797122D426D24AD0AA
:102B98004ECE52CC56CA06D62A8A9399450001448D
:102BA800938A819D13090101C144B3073401D69763
:102BB80088438A85793533078A008A871443904386
:102BC80091074107B18E2328D7FEE39927FF110407
:102BD800E31D94FCB250225492540259F249624ABD
:102BE800D24A45618280397122DC1304050106DE70
:102BF80022878147C1460C433306F10011070CC2F6
:102C08004C4710083E960CC24C4F10103E960CC212
:102C18009107E392D7FE85450A85A93589450808B5
:102C280091358D4508103D3D81474147B306F10078
:102C380094421104232ED4FE1408BE96944254C420
:102C48001410BE969442910754CCE391E7FEF250DB
:102C580062542161828006059377051089C7137530
:102C6800F50F1345B5018280411106C6ED37B24014
:102C78004101D5B781471148C1483386F500B306ED
:102C8800F500014703AE06003303E60005072300FD
:102C9800C301C106E31807FF9107E39017FF82807D
:102CA8009306050117B603001306468813050505A4
:102CB800138706FF1C43110793F5F70093F7070FD7
:102CC800B297AE9783C70700232EF7FEE394E6FE7C
:102CD800C106E31FD5FC8280411122C406C626C264
:102CE80085472E846301F50289476318F50022445D
:102CF800B24092442E854101B9BF8D47631BF50050
:102D08002E85913F298C2285B2402244924441016C
:102D18008280A5476315F5002E85B937DDB7AD4725
:102D2800631AF5002E8589373D37AA842285253711
:102D3800258DC9BFB5476316F5002E853537AA849A
:102D4800FDB7B947E311F5FC2E85393FAA84213731
:102D5800A98C228509373344950075B76382051419
:102D680093F7F500639E07121571D6C3AA8A3285B8
:102D7800A2CDA6CB86CFCAC9CEC7D2C5DAC15EDF7F
:102D880062DD66DB6AD96ED73284AE84EF70E31AEF
:102D9800C147631EF500228501330149130A010664
:102DA80097BB0300938B8B8C294C63419902FE409F
:102DB8006E44DE444E49BE492E4A9E4A0E4BFA5B8B
:102DC8006A5CDA5C4A5DBA5D2D618280338B2A01C8
:102DD8000C105A859131814508107D3385490810BA
:102DE800C135081009351C10D2863E8710434107AB
:102DF800C10623A8C6FE032647FF23AAC6FE03264C
:102E080087FF23ACC6FE0326C7FF23AEC6FEE31F1B
:102E1800EAFC17B703001307678103280700832D0F
:102E28004700032D8700832CC700528413860701AF
:102E38000C4042853ECE3ACC32CA42C8713D0C485D
:102E48002AC66E85513DB2460C501104A98E6A857A
:102E580036C65935B2464C54A98E668536C6AD3D40
:102E6800B246F2475246358D88C3910742486247B9
:102E7800E310F6FC4107B287E391EBFACE85081020
:102E880085091933E39D89F50810193D0810A13B00
:102E9800A9450810D539DA850810E93B410931B749
:102EA80082809307F00F6384F60A2D71232A91100C
:102EB80023282111B28423263111130600102E89EC
:102EC800AA89930530020A85232E1110232C81101C
:102ED80036844132A2852685EFC000591317850034
:102EE800935785003365F7002310A100A685228635
:102EF80013053100930434002301810093F4F40F87
:102F0800EF60832C93F6F40089C64D04158C9374F6
:102F1800F40F1C02A697A6850A8517A603001306B8
:102F2800E674238007F01D3D26868A854E85EF606E
:102F3800A329230099008320C1110324811183242C
:102F48004111032901118329C110156182808280F2
:102F5800130101DD23248122232291222A84AE84B5
:102F6800130620038145280023261122DD302686FA
:102F7800A2856818EFC030201305D103EF60F37BFA
:102F880093150501C1811305D103EFC0502B97B5E7
:102F980003009385E5971305D103EFC0206F1DC586
:102FA800054597B5030093852597EFC0A04F1725D2
:102FB8000020034585C4EF5070558320C1220324A7
:102FC80081228324412213010123828097B50300C3
:102FD8009385C5951305D103EFC0406B19CD97B5FF
:102FE8000300938525950545EFC0C04B17250020A4
:102FF8000345A5C0EF505054C9B797B50300938552
:1030080065941305D103EFC060680DC13717004000
:103018008327C70AA16697B5030093852593D58FA3
:103028002326F70A2545EFC0E04741BF97B50300BF
:10303800938585921305D103EFC0406511CD3717ED
:1030480000408327870AA16697B5030093854591B9
:10305800D58F2324F70AF9B797B503009385C59050
:103068001305D103EFC0806211CD371700408327C5
:10307800C70A97B503009385E58F93E707202326B2
:10308800F70A4DB797B503009385C58F1305D1038C
:10309800EFC0C05F11CD371700408327870A97B567
:1030A80003009385E58E93E707202324F70A9DBF45
:1030B80097B503009385C58E1305D103EFC0005D56
:1030C80011CD371700408327870A896697B5030013
:1030D8009385C58DD58F2324F70AA9B797B5030023
:1030E8009385858D1305D103EFC0405A11CD37174D
:1030F80000408327C70A896697B503009385858CA6
:10310800D58F2326F70A39BF97B503009385458CD9
:103118001305D103EFC0805711C937170040832723
:10312800870CA166D58F2324F70C41BD97B5030002
:103138009385858A1305D103EFC0405511C9371708
:1031480000408327C70CA166D58F2326F70CB5B599
:1031580097B503009385C5881305D103EFC00053C5
:1031680011C59727002023A907AA81BD97B5030099
:103178009385C5871305D103EFC0405101C5EF60A2
:10318800C07E25BD97B50300938505871305D10338
:10319800EFC0C04F01C5EF60F00205B597B5030059
:1031A800938545861305D103EFC0404E01C5EF60F6
:1031B800201C21B597B50300938585851305D10398
:1031C800EFC0C04C01C5EF90302CC5BB97B50300CC
:1031D800938585841305D103EFC0404B09C5054588
:1031E800EF90A03DD9BB97B5030093856583130580
:1031F800D103EFC0A04919C10145DDB797B5030058
:10320800938585821305D103EFC04048E31705DA9B
:1032180097B503009385C5811305D103EFC0004717
:10322800E31D05D897B50300938505811305D103E0
:10323800EFC0C04501CDB716004083A7860C0567CF
:1032480013070780D98F23A4F60C85BB97A5030025
:103258009385057F1305D103EFC0404301CDB71611
:10326800004083A7C60C056713070780D98F23A6DC
:10327800F60CA1B397A503009385057D1305D1032B
:10328800EFC0C04001C913059107EF503371EFF04B
:10329800705B25B397A503009385857B1305D10340
:1032A800EFC0C03E01C5EFF0305D01BB97A503003C
:1032B8009385C57A1305D103EFC0403D01C5EFF0F2
:1032C800F064E5B997A503009385C5791305D10383
:1032D800EFC0C03B09CD1946930591072800EF5070
:1032E800B36E280023070100EF003005F9B197A558
:1032F80003009385A5771305D103EFC0203909C5CD
:103308001145EFD0804D55B997A503009385857673
:103318001305D103EFC0803701CDEF50907E2A8688
:1033280097A50300938585752545EFC0E02D71B1FC
:1033380097A50300938505751305D103EFC00035E4
:1033480015C5130661004C0013052100EF50D06C21
:1033580003176100831641000316210097A5030097
:103368009385C5722545EFC0202A81B997A503002A
:103378009385C5721305D103EFC0403131C50307EA
:103388009107930700036315F7000545EF7070690F
:1033980003079107930710036315F7000945EF70BA
:1033A800506803079107930720036315F7000D453D
:1033B800EF7030670307910793073003E31FF7BEE9
:1033C8001145EF701066D5BE0346D103A547130615
:1033D80006FD1376F60FE3E2C7BE97270020238683
:1033E800C78297A503009385A56B01453DBF411191
:1033F80006C6EF701014B240AA8617A70300130779
:10340800E72C17160020130666C697A503009385B8
:10341800252D114541016FC0201F317122DD4AD988
:1034280006DF26DB4ED752D556D35AD103470500BF
:10343800930710042A892E84631AF73A0347150064
:10344800930740056314F73A034725009307E005FF
:10345800631EF7382E86AA852545EFC0C00F1306D0
:10346800D003A2854A85EFC0A028AA84635A050024
:103478003546A2854A85EFC0A027AA84634505087A
:103488009389D4FF9307100363CF37074E869305BC
:1034980039006808EF60532E1C11BE9917AA030063
:1034A800130A8A3D238E09F6D28A81494D4B83251A
:1034B8004A006808EFC0801D0DC18E09D69983D7D0
:1034C80009004947636FF70017A703001307471B55
:1034D8008A07BA979C43BA9782878509210AE39895
:1034E80069FD97A5030093856538254581A2930555
:1034F800F4FF858D13851400C20581460146C181FC
:103508004A95EF20B043FA506A54DA544A59BA59E6
:103518002A5A9A5A0A5B296182809305F4FF858D9D
:1035280013851400C205C1814A951D34E9BF1306ED
:10353800F4FF058E138514004206418297B50300F7
:103548009385C5E84A95EFC0202817140020130476
:10355800E46939C597A503009385C5198808EF6004
:10356800B31C8808EF60731D1316050141828C088F
:10357800170500201305055CEF80703197A503003F
:103588009385051A1145EFB0F0711C40414593E74A
:10359800170017170020232BF764EFC0D02DA5B70D
:1035A80097A50300938585181145EFB0B06F7D5539
:1035B800EFC0502F1C40F99B171700202328F762F3
:1035C80099B7353589B71306F4FF058E13851400AE
:1035D8004206418297B50300938545DF4A95EFC0BF
:1035E800A01E171400201304646021C51C4097A571
:1035F800030093856514880893E7170017170020C0
:103608002326F75EEF6053128808EF601313131632
:1036180005018C084182170500201305A551EF808C
:10362800102797A503009385E5121145EFB0906721
:10363800D9BD97A503009385A5128808EF60D30E1E
:103648008808EF60930F131605018C08418217054F
:1036580000201305254EEF8090231C4097A50300FA
:103668009385C511F99B171700202321F75875BFBB
:10367800EF70406B9717002093874757A84FEF507C
:10368800D308AE862A8697A503009385E50F1145D2
:10369800EFB090778DBDEF501013B5B517B6030096
:1036A800130646D397A503009385C50E1145EFB0C1
:1036B800B07591BDEF70406E97A503009385450ED8
:1036C8002DF597A503009385A50E85B70945EF90BD
:1036D800C050AA84EF5073032A86AE86254597A565
:1036E80003009385250EEFB0307297A703009387E8
:1036F80027008843A68517140020130424AFEF5031
:1037080063162320A422EF70307103250422EF50A2
:10371800C37FAE862A8697A503009385650B85BF70
:1037280081450D45EF604013EF70E05F2A8697A54D
:1037380003009385A50C9DBF81451945EF60C01115
:10374800814513055002EF60201197A5030093856A
:10375800E50B1D45EF604010EF70405D2AC6EF7025
:10376800A05DB2462A87171600201306269097A553
:1037780003009385E5091145EFB0106969B3171780
:103788000020035767C897160020938646B017167F
:1037980000201306A68D97A503009385A509E1BF10
:1037A8008547171700202309F7C6EF70F06697A51D
:1037B80003009385650995BD171700200347C7C502
:1037C800854797A503009385A508E310F7E6C5B7D5
:1037D8009717002093878741E84BEF500373AE8615
:1037E8002A8697A503009385250755B50146A28526
:1037F8004A85EF50706901BBB1472300F5009387F4
:103808001600A300F5002301B5002A878D4711C2D1
:10381800B9EE0146814605069375F60F63EBF5048C
:103828003306F70013852700850793F7F70F230062
:10383800D600BA971375F50FB5462380D7002A9797
:103848002300070082803305B6000345050085057F
:103858002380A70013F5F50F9307350093F7F70FAB
:10386800BA97E362D5FE8D0693F7F60F5DB78145EB
:10387800D5B7B305C70083C50500AE9693F6F60F16
:1038880059BF797122D42304B1002A84A304C1004A
:103898008946300093050008680006D6B13F131624
:1038A80005016C0022854182EFF0806EB2502254EF
:1038B800456182801D71A2CCCAC8D2C4D6C2DAC002
:1038C8005EDE62DC66DA6AD886CEA6CACEC66ED658
:1038D8002A842E89328A02CC231E01008147314C6A
:1038E800B54C454D97AA0300938A8A2917AB030064
:1038F800130B8B2D971B0020938B4B2F63E14703F2
:10390800F6406644D6444649B649264A964A064B86
:10391800F25B625CD25C425DB25D256182803307F6
:10392800F90083460700639D860D93864700E3D917
:1039380046FD8349170093843700B386340163D169
:10394800460DCA9683C60600639C960B81460146BF
:10395800B305D70083C51500850693F6F60F2E9696
:103968001376F60FE3F6D9FEB306370183C62600B1
:103978006398C6088907B30DF90083C70D009387BC
:10398800070693F7F70F6369FD068A07D6979C43E6
:10399800D697828705469305000A2285DD35A9A8B2
:1039A80005469305100AD5BF05469305200AF5B7C5
:1039B80019462C0833059900EFB0706A1946971517
:1039C8000020938545A82808230F010097D0FF1FE2
:1039D800E780005C85476319F5022285EFF0907651
:1039E80083C50D0022850546693D97A5030093858B
:1039F80025202545EFB0102BB387340193F7F70F37
:103A0800850793F7F70FDDBD83C50D0022850146B5
:103A18008D3D97160020938606A3300897A50300CE
:103A28009385851E2545EFB0303EF9B783463700AC
:103A380085476390F60605453AC6EF801038324749
:103A4800054583474700171700202307F720EFC0D5
:103A5800D05513051002EFC000621145EF50B07F3A
:103A680083A70B0093E70701171700202320F718F7
:103A7800EFA08071171600200346061E97A50300C5
:103A88009385451A2545EFB03038054683C50D00A6
:103A980029B7EFC050531945EF50D07D7D55EFC081
:103AA8006060971700202389071A83A70B0097A542
:103AB80003009385A51A2545BD9B171700202327CA
:103AC800F712EFB07034D1B7834737001547FD17A9
:103AD80093F7F70F636DF7028A07DA979C43DA9733
:103AE80082870545EFC02059854717070020A30F97
:103AF800F76E170600200346766F97A50300938597
:103B080065172545EFB05030EF701031BDBF054542
:103B1800EFC060568947D1BF0545EFC0C0558D47F6
:103B2800E9B79147D9B70545EFC0E054954775BF48
:103B38000545EFC0405499474DBF1D71AA851946E8
:103B4800480086CEA2CC231201002303010002C440
:103B580002C602C802CA02CCEFB0F0548D4650002B
:103B68009305A00A28004939131605012A846C0810
:103B780028004182EFB0B04E980893171400BA9706
:103B88007408228697A50300938585052545238615
:103B980007FCEFB07027F64066442561828041112A
:103BA80022C421649305048099460146254506C62A
:103BB80097D0FF1FE78020FE930504802244B2407F
:103BC8009946138601852945410117D3FF1F6700D0
:103BD80083FC99E10145828075DD011152C403DA45
:103BE800418526CA93548A008504A204C204C18070
:103BF80056C2B38A4441C20A22CC4AC82E862E84B1
:103C08002A8997A5030093852516254593DA0A0185
:103C18004EC606CE93890185EFB0101F63ED8A0862
:103C280083D5418593F7F50FB1CF8D6783D541854E
:103C380093870780A2864A86BE95294597D0FF1F9D
:103C4800E78060F51375F50F29ED83D749001566F0
:103C5800A297239AF18403D7418583D721856309E5
:103C6800F70063F3E700B297998F13960701418233
:103C7800254597A503009385A510EFB0F018137597
:103C8800F40F0DA08D6793870780930600100146F7
:103C9800BE95254597D0FF1FE780E0EF1375F50F18
:103CA80049D50145F2406244D2444249B249224AC8
:103CB800924A05618280B3079440D297C207C183B4
:103CC800A18303C74900850793F7F70F93968700E9
:103CD80011EB9386170093740AF0A206C204C20679
:103CE800C180C18283D7218563F6F40033879600AB
:103CF800E3C9E7FA0D6A130A0A800146B38544014D
:103D0800254597D0FF1FE78000E91375F50F51F996
:103D180083D54185A2864A86D29505B7411122C42A
:103D28001384018522858145194606C697D0FF1F51
:103D3800E78080209307B0FA2300F4008D352244F1
:103D4800B24097A503009385A5FA254541016FB0B8
:103D58006075A16541119946138601859385058093
:103D68002D4506C697D0FF1FE780E0E203C701850F
:103D78009307B00A6303F7005537B24083D64185ED
:103D880003D6218597A50300938545F7254541016D
:103D98006FB0900783D781A80145638C071003D5BE
:103DA800A1A86366F50023A401A801458280338594
:103DB800A740D1473355F5021375F50F01E5239454
:103DC80001A88280130101BD2324814223261142C8
:103DD8002322914223202143232E3141232C414188
:103DE800232A514195471374F50F63F3A70015442F
:103DF800228697A50300938565FA2545EFB0D00084
:103E0800014981449389C1A8514AA14A9377F90F7E
:103E180003D5A1A8170700200347E75363E98704E0
:103E2800D1473304F4022A94239581A8A147631C3F
:103E3800F706A6850808EF40C01D03D7A1A883D7B9
:103E480081A805456364F70023A401A88320C14223
:103E58000324814283244142032901428329C14129
:103E6800032A8141832A4141130101438280B30718
:103E780049031408AA97CE9733859600631E570105
:103E8800BE85EF4080382317A1008357E10005095C
:103E9800BE94C204C1809DBFAA851306E1003E8579
:103EA800EF907021DDB726860C080145EF60001001
:103EB80069B78280011106CE22CC26CA4AC84EC6EE
:103EC80091E901442285F2406244D2444249B24910
:103ED80005618280AA8975D583D7418503D6218556
:103EE8002E849564638AC7006374F60015673A9652
:103EF8001D8E93140601C180268697A5030093851D
:103F080025DC2545EFB04070938714F06356F40024
:103F18009307F00F63EA970097A503009385C5DB25
:103F28002545EFB0606E71BF83D441853387840027
:103F3800956763C7E700A2854E8561398D3159B70A
:103F4800156933099940420913590901CA854E85F3
:103F5800493125D9ED75A695A295C205239A018404
:103F6800C18133852901D1BF83D681A881EA97A56C
:103F780003009385E5DC25456FB0C05203D6A1A8A0
:103F88004111918E97A50300938585DC254506C6CA
:103F9800EFB08067138781A88355070083D7A1A84E
:103FA8001385C1A89D8DC2053E95C1812137B240B8
:103FB80023A401A841018280411183D781A822C48A
:103FC80026C206C6AE971307401FAA842E84635ADA
:103FD800F700593F97A50300938545D42545EFB0D1
:103FE800604C83D781A81385C1A82286A6853E95F3
:103FF800EF50831D03D681A8229642062244B24080
:10400800924441822394C1A897A50300938585D241
:10401800254541016FB0405F011126CA06CE22CC6A
:104028004AC84EC652C456C2814459C1D1C183D769
:10403800218503D44185638D870663F587081D8C28
:1040480042044180AE892A89228697A50300938578
:10405800A5C30145EFB0405BA28463F38900CE8419
:10406800C2040D6A83D7218503D74185C180938A0D
:104078000185130A0A8063FAE704A6864A86B3858F
:1040880047012D4597D0FF1FE780E0B083D72A006E
:10409800A6972399F184EFF09FB083D6418503D684
:1040A800218597A50300938565BF2545EFB0C055C9
:1040B800F240624426854249D244B249224A924A91
:1040C8000561828015673A949DBF15671D8FB3857A
:1040D800470163D5E400A6864A8665B79569B38922
:1040E800F9406D743E94C20993D909012694CE868D
:1040F8004A8642042D4597D0FF1FE780C0A941801A
:10410800A28633063901D2852D452399018497D09B
:10411800FF1FE78040A883D72A003E942399818413
:104128009DBF397126DA4AD84ED652D456D25AD0C3
:1041380006DE22DC62CE66CC2A89EF5013609374C7
:10414800F50F8149254BE54A17AA0300130A8ACAC5
:1041580091ECF25062544E85D2544259B259225AC7
:10416800925A025B724CE24C21618280034709003B
:10417800930707FD93F7F70F637CFB009307F7F9A5
:1041880093F7F70F63E2FA06930797FA93F7F70F97
:10419800139487016184FD14230089002685EF406C
:1041A800C35E2A86AE8603250A0083254A0093F457
:1041B800F40F0509EFF0D0272AC422852EC6EF4058
:1041C800C35C2246B246EF30F30C2A8C4E85AE8C87
:1041D800EF40C3622A86AE866285E685EF207320AB
:1041E800EF40E354AA89ADB79306F7FB93F6F60FB1
:1041F8008147E3EFDAF8930797FC49BF411122C4DE
:1042080006C6830795022A8499C713059502EF40CD
:10421800F378238DA1068307D41291CB1305D4120A
:10422800EF407377EF40335993878104C8D3B24086
:10423800224441018280011126CA9304150022CC30
:1042480097A503009385C5C02A84268506CE4AC84B
:104258004EC6EFB0A04B631E051097A503009385CB
:1042680065BF2685EFB0804A6302050E8544830743
:10427800D4036386070C13059402EF403372854913
:104288001379F50F1305D4036387340F8947638CBB
:10429800F418EF40B370A38EA106631A390179466A
:1042A80081451385F109238B0184EFE08FDA8307B9
:1042B800D40885C31305D408EF40536E03C761853E
:1042C80093071700238BF18493878104BA97A38BF4
:1042D800A7048307D40D85C31305D40DEF40136CD1
:1042E80003C7618593071700238BF18493878104A3
:1042F800BA97A38BA7048307D41285C31305D412D6
:10430800EF40D36903C7618593071700238BF184B6
:1043180093878104BA97A38BA7048307D41785C30F
:104328001305D417EF40936703C7618593071700F8
:10433800238BF18493878104BA97A38BA704F24057
:104348006244D2444249B2490561828097A503007C
:10435800938585B02685EFB0603BE31905F0268587
:1043680097A50300938585AFEFB0403A8944E310E1
:1043780005F08144EDBDEF407362238FA106631AF7
:1043880099007946814513851108238B0184EFE054
:104398004FCC8307D40885C31305D408EF401360B6
:1043A80003C7618593071700238BF18493878104E2
:1043B800BA97A38CA7028307D40D85C31305D40D20
:1043C800EF40D35D03C7618593071700238BF18402
:1043D80093878104BA97A38CA7028307D41285C355
:1043E8001305D412EF40935B03C761859307170049
:1043F800238BF18493878104BA97A38CA702830740
:10440800D417E38E07F21305D417EF40335903C7C7
:10441800618593071700238BF18493878104BA97EA
:10442800A38CA70229BFEF407357A38FA10601BF32
:10443800411122C406C6830795072A8499C7130524
:104448009507EF40B355A38DA1068307D40899C7F4
:104458001305D408EF409354238EA1068307540B09
:1044680091CB1305540BEF401353EF40D33493878C
:10447800810488D7B240224441018280411122C47C
:1044880006C6030715058147014419C703444505B6
:10449800130404FD1374F40F0307550619C7130515
:1044A8005506EF40B34F9377F50F1374B40F0D47CC
:1044B8006311E4021D47637EF70097070020938786
:1044C800E7729C4337072000D98F17070020232F56
:1044D800F770B240224441018280011126CA814608
:1044E800B284014652C456C206CE22CC4AC84EC631
:1044F8002A8AAE8AEF30233D41CD9307E0046386D4
:10450800F400930730056395F40897A9030093898D
:10451800E99103A6090083A649005285D685EF30A4
:10452800635737949800EF408320130404682A895E
:1045380033758502EF40832C03A6090083A6490042
:10454800EF20335D97A703009387C78E9043D4432A
:10455800EF20335C2A8A33558902AE8AEF40032A5A
:104568002A86AE865285D685EF20A36713073005C5
:10457800AE876395E400B7070080AD8FF2406244D0
:10458800D2444249B249224A924ABE850561828094
:1045980001458147E5B7011126CA8146B284014623
:1045A80052C456C206CE22CC4AC84EC62A8AAE8A01
:1045B800EF30633141CD930750046386F4009307CD
:1045C80070056395F40897A903009389298603A6C3
:1045D800090083A649005285D685EF30A34B37944E
:1045E8009800EF40C314130404682A8933758502C0
:1045F800EF40C32003A6090083A64900EF207351AA
:1046080097A70300938707839043D443EF20735001
:104618002A8A33558902AE8AEF40431E2A86AE861F
:104628005285D685EF20E35B13077005AE87639547
:10463800E400B7070080AD8FF2406244D24442499B
:10464800B249224A924ABE85056182800145814766
:10465800E5B7135785009357050113D8850093765E
:10466800F50F01111377F70F93F7F70F618593F59E
:10467800F50F1378F80F99C211C3B9E3230CD100D1
:10468800A30CE100230DF100A30DA1000345910146
:10469800834781010347A1012205A30E01014207B7
:1046A800C98F230EB1000345B101D98F0347D1014A
:1046B8008345C101620522075D8DD98D0561828020
:1046C80032951375F50F13138501135383415D4616
:1046D8006357660861463363C30285071376D70FAD
:1046E800114593F7F70F6305A6002545631AA60041
:1046F8007946637FF60205071377F70F85470DA8FC
:1047080009466312C7041386067D93084006B368FA
:1047180016036385080013F5360011C51305001943
:104728003366A60219EE75466374F60085470D4791
:10473800230CD100A30CE100230DF100A30D6100AF
:10474800B1B77146D5B77D46E374F6FEB147E314B9
:10475800F7FA850693F6F60F85470547D1BFE35963
:1047680003FC6105FD171313850193F7F70F135326
:104778008341DDFF7D171377F70F1146F947E309EA
:10478800C7FA1946E306C7FA2546E303C7FA2D46D2
:10479800E300C7FA89476316F7021386067D930775
:1047A8004006B367F60291C793F83600F547E381F0
:1047B80008F893070019B367F60293B71700F107D3
:1047C80085BFFD4735F7FD1693F6F60F31478DB7D0
:1047D80083471500034705000111A2075D8F834732
:1047E80025008346350083454500C207D98F034716
:1047F800550022CC170400201304449F03062420EC
:10480800E206220733E5F600D98D06CE993513580E
:1048180085001356050193D7850013F7F50F93F715
:10482800F70F935685011376F60F9375F80F1375E6
:10483800F50FEF80401783471400054793F7B70F2C
:104848006397E7006244F24005616F804025F240BB
:10485800624405618280497123248116138481048E
:104868008307340083C8D10403C8C10403C7A10463
:1048780083C6910403C68104979503009385056058
:104888004810232611162322911623202117232EA0
:104898003115EF5003654810EF50236A18485C48FB
:1048A800030604033AC03EC2030814035C441844D8
:1048B8005410979503009385655E3695EF506362B3
:1048C8004810EF5083675C103E9583076400179685
:1048D80003001306265A89C71796030013060659BC
:1048E80097A503009385C50BEF50A35F4810EF50C1
:1048F800C364544C104C5C10979503009385055B7A
:104908003E95EF50035E4810EF50236303063403CF
:104918005C103E95979503009385055AEF50635CAC
:104928004810EF50836103072403AA8448503ACE05
:1049380013848104EF40635D72475C10AE862A865B
:10494800979503009385455833859700EF50635931
:104958004810EF50835E5C1003C6C10797950300AB
:10496800938505583E95EF50C3574810EF50E35CC8
:104978005C10979503009385A5573E95EF50C35A51
:1049880013896106A28497A903009389E90003C6E5
:10499800740519CA481032CEEF50235A72465C107B
:1049A800CE853E95EF50E3538504E39224FF4810EB
:1049B800EF50A3585C10979503009385E5533E95F7
:1049C800EF50835697A40300938404FD0346940391
:1049D80019CA481032CEEF50435672465C10A6856D
:1049E8003E95EF5003500504E31224FF4C10254573
:1049F800EFA0502B8320C11603248116832441166F
:104A0800032901168329C11575618280411122C4C9
:104A180006C626C2830755012A84B9C7A9469387C3
:104A280007FDB387D70203476501130707FDBA9748
:104A3800A385F1040307750183478501130707FD63
:104A48003307D702938707FD3E972386E104830740
:104A580095010347A501938707FDB387D70213077D
:104A680007FDBA97A386F1048307940281CB130745
:104A780010046390E71485472387F1048307D40360
:104A88009384810499C71305D403EF40C37088C485
:104A9800CCC40306140509CA8844CC44238CC10637
:104AA800EFF0BFA388C4CCC48307540699C7130585
:104AB8005406EF40436E88C8CCC80306940709CA59
:104AC8008848CC48A38CC106EFF0FFAC88C8CCC896
:104AD8008307D40899CF1305D408EF40C36B979781
:104AE8000300938727389043D443EF20B37A88CCC8
:104AF800CCCC8307140A99C71305140AEF40036A3C
:104B08002394A1068307540BB9C7A946938707FDC9
:104B1800B387D7020347640B130707FDBA972385AA
:104B2800F1040307740B8347840B130707FD33074E
:104B3800D702938707FD3E97A384E1048307940B6C
:104B48000347A40B938707FDB387D702130707FD15
:104B5800BA972384F10483853400856703C6C104AA
:104B6800938707E11307C0033307E60283C6D1041E
:104B7800B387F502BA97B69723AAF106170700205C
:104B88001307C7061C433A8413F5870039E10385E8
:104B980064000547631FE50203C7A10411EF8844B9
:104BA800CC4401468146EF20135205E923870104CE
:104BB800B9A023870104D9B5FDD175D2EDD293E709
:104BC800870013858104170700202321F702EFF0DF
:104BD8003FC083876400E1F7D1BF8848CC480146CD
:104BE8008146EF20534E79D183C7A104E1D3130640
:104BF800800793858104138501FDEF40E35C03C5BD
:104C080001C89D4705053365F5021306800793859E
:104C180081042380A1C8930780073305F502938791
:104C280081C83E95EF40435AEFF0FFC25C582244DA
:104C3800B2409244170700202328F7FE1306800786
:104C480081451385810441016FD0BFC00171232CB8
:104C5800811E232A911E1306101E2A84AE84680022
:104C68008145232E111E2328211FEFD09FBE814589
:104C78008147014701465148CD485D436341960845
:104C880099C12306F1001306A002A6852285EFA08C
:104C980030268347C10051473386A440B387E702D3
:104CA8009305150078007D16A29585073305F70052
:104CB800EF4083511306A002A685228503491400FC
:104CC800EFA01023894763C4A7080345C100D14753
:104CD8003305F5027C0005053E95EFF08FC4631D92
:104CE800A904194697950300938545151305D10026
:104CF800EFA0902D2DC56800EFF05FD135A8B30661
:104D0800C40003C50600930665FD93F6D60F91EA25
:104D1800850793F7F70F6361F30285450147050699
:104D2800B1BFB3860703130E011FF296BA96A38E7E
:104D3800A6E00507E3D5E8FE8320C11F0324811FF1
:104D48008324411F0329011F130101208280330797
:104D5800F4000347070085073349E900ADB7194652
:104D6800979503009385C50D1305D100EFA0D025B5
:104D780039E91946979503009385C50C1305D100A9
:104D8800EFA090240DED1946979503009385C50B68
:104D98001305D100EFA0502319ED1946979503008C
:104DA8009385C50A1305D100EFA0102251D56800DC
:104DB800EFF0CFEC51B76800EFF0EFC7B5BF680070
:104DC800EFF00FE795BF6800EFF04FC3B5B7757107
:104DD80022C526C34AC1CEDED2DCD6DADAD806C767
:104DE800AA892E89814401448147130A4002854AD1
:104DF800354B139704014183636C2701BA402A4459
:104E08009A440A49F659665AD65A465B49618280DD
:104E1800338799000347070063004703639C5701E2
:104E2800631D67019C18A297A2856800238E07F866
:104E3800313D8147850475BF01449C18A29705043C
:104E48001374F40F238EE7F893373406E5B741114E
:104E580006C6138501C883470500130780078145E7
:104E6800B387E70213068007A1073E95EFD07F9E20
:104E7800B2408145114541016FB0E016138501C864
:104E88008347050013078007B387E702A1073E950C
:104E98008280138501FD8280397126DA9794030098
:104EA8009384C4F262CC66CA328CB68C9040D440EB
:104EB80006DE22DC4AD84ED652D456D25AD05ECE1E
:104EC8006AC842C046C2179403001304A4F03AC447
:104ED8003EC6EF20333C10405440179D0300130D8D
:104EE800EDEFEF2003432247B2479040D4402A8A8F
:104EF800AE8A3A85BE85EF20F33910405440EF2042
:104F080043412A89AE892A86AE865285D685EF30F6
:104F1800E30303260D0083264D00EF20B337EFE0AF
:104F2800103C2A8BAE8B5285D685EFE030322A8A28
:104F3800AE8A4A85CE85EFE07031024892482A89C8
:104F48004286C686AE896285E685EF3023009040AA
:104F5800D440EF20333410405440EF20833B0326E5
:104F68000D0083264D00EF20F332EFE050372A84FE
:104F7800AE844A86CE865285D685EF20B331228606
:104F8800A686EF2033312286A686EF20B3302A8406
:104F9800AE845A86DE865A85DE85EF20B32F2A86B0
:104FA800AE862285A685EF10D343EFE0D07AEFE0F6
:104FB800503C2A86AE86EF10D3429797030093871A
:104FC80067E29043D443EF20F32C9797030093872D
:104FD800E7E19043D443EF20F32BF2506254D254CC
:104FE8004259B259225A925A025BF24B624CD24C45
:104FF800424D2161828018419387010C104598C366
:1050080003574500544590C72392E7005855104967
:10501800D4C7544998CF979503009385A5DF0547D2
:10502800254590CBD4CB238EE7006FA0A047238ED5
:10503800010C82801305800783C701C8B387A702C4
:10504800938601C87D55B385F6000387E5003DCBFF
:10505800197186DEA2DCA6DA03C6C10D1387010C1E
:1050680019EAA1073385F60079377955F650665461
:10507800D65409618280032887008328C7005C4BC7
:105088009049184BD449884DCC4D39352A86AE867F
:105098002A84AE84680097950300938565D1EF4014
:1050A80053646C002545EFA0E03F17F5FF1F03454B
:1050B800F51DEF30836D2286A686EF205312132547
:1050C80005006DB782809707002083C7C7B281CFDC
:1050D80097F7FF1F83D7C731FD17C207C18313078F
:1050E800A0036375F70023AC018482805971CECE8A
:1050F8009389818583A70900D6CA938A01C8850741
:10510800A2D4A6D2D2CCDAC8DEC6E2C4E6C2EAC0CD
:1051180086D6CAD023ACF18483C401C8014A130CD3
:1051280080075684979C0300938C4CCD054D9D4B6E
:10513800154B3389840356998307E900E1CF03A609
:105148000C0083A64C000325090283254902EF20A1
:1051580013096341050C83470904638DA70B931753
:105168001A005808BA97035789022390E7007C0071
:10517800D29723809700050A9904B3E47403E31ACD
:105188006AFB0357C10183574101998F13D7F74130
:10519800B98F998F939407011307400BC180635807
:1051A800F70093078016B3849740C204C18026860F
:1051B80097950300938505C50810EF4093520C108E
:1051C8002545EFA0202E938714FFC207C183794796
:1051D800636BF70A0349D100130A80078545014527
:1051E80033094903210922994A86EF80D05883441C
:1051F800F10085450145B3844403A104A2942686A1
:10520800EF807057CA850D45EF306002A6850D45C1
:10521800EF30E00183A7090017F7FF1F0357471D69
:1052280063E5E704013D85476311F50493048007AE
:1052380003C601C833069602854501452106229614
:10524800EF80705383C501C8B38595020D45A1054C
:10525800A295EF20D07D03C501C83305950221052D
:105268002295EFF05FD923AC0184B65026549654AA
:105278000659F649664AD64A464BB64B264C964CD2
:10528800064D656182809307D002E3F597F8834B5A
:10529800C100930A80078545B38B5B030145138CD6
:1052A8008B00229C6286EF80104D034BD100854510
:1052B8000145330B5B03A29B210B229B5A86EF808F
:1052C800904B034AE10085450145330A5A03210AF8
:1052D800229A5286EF80304A0349F10085450145FC
:1052E80033095903210922994A86EF80D04883441B
:1052F800010185450145B3845403A104A29426867F
:10530800EF807047E2850D45EF207072DA850D4514
:10531800EF20F071D2850D45EF207071CA850D45DB
:10532800EF20F070A6850D45EF20707083C701C887
:10533800B38A570303A74B03A29A83A74A03E31B25
:10534800F7EC85472380FA04F1B5411106C6EF90C2
:10535800C054B24041016F90401D411106C622C49D
:1053680005476303E6042A8419CA0947630DE6045E
:1053780091476307F606B24022444101828097A50F
:105388000300938565E51145EFA0C011A28511457D
:10539800EFA040112244B24097A50300938585E50C
:1053A800114541016FA00010F9D69042EF40504CD2
:1053B8002244B2400146975500009385E5D13D450A
:1053C80041016F300071C5DA2244C8C2B24003C53A
:1053D800A6002394B6003686954541016F80B03902
:1053E8002244B24041016F30602F557113066009A5
:1053F8008145281086C7EFD0CFC5581093063102D3
:105408001306210293051102930751021305610245
:10541800EF70405397F7FF1F9387477D9C43BD9BD1
:1054280017F7FF1F2324F77CEFF05FA5030305039D
:105438009305E00483566102034711028347210262
:105448000348310283484102034E510217C6030044
:10545800130686D26316B30017A603001306464840
:10546800830E150313035004032F8500832FC500F3
:1054780097A503009385C54663866E0097C503000C
:10548800938585CF03230501832345017AC41ACC6C
:105498001ECE7EC672C02EC832C297950300938571
:1054A800A52E17F6FF1F130666BC2810EF407323BE
:1054B800EF80504E2810EF4053289387C1859043C2
:1054C800931505019386010E2810C1817935BE40D8
:1054D80069618280717122D526D34AD12A842E89A6
:1054E800B284814513066009280006D7EFD06FB64D
:1054F80023AE218581C89C4023A0F10E83C7A40058
:105508002385F10E8307D403B9EB97F7FF1F83C7F1
:1055180057CE6397070C0545EFB0202997950300F0
:10552800938585A92545EF90F0770545EF40A05272
:1055380097F7FF1F9387876B9C4393E7070117F73C
:10554800FF1F2325F76AEF80304497F7FF1F238555
:105558000770BA502A549A540A594D618280130729
:10556800F003E384E7FA1304D4032285EF301343EE
:105578008947E3DCA7F82285EF30534297F7FF1FEE
:10558800238CA76C0545EFB0402213051002EFA04D
:10559800902E1145EF40204C17F6FF1F0346C66BAF
:1055A80097850300938505682800EF40931328002A
:1055B800EF40B318131605012C0041822545EF90E2
:1055C80090792800EF4073179387C185904393150E
:1055D80005019386010EC1812800EFF01FD895BF01
:1055E80005470545639CE700EFB0201C0545EFA083
:1055F8009028979503009385659D2DB7EFB0E01A25
:105608000545EFB0801D0545EFA0F02697950300EE
:105618009385459D01BF411122C42A848307D40381
:1056280006C626C22E8589C71307F003639CE702C6
:1056380097F7FF1F83C777C517F7FF1F1307D7C152
:1056480097F6FF1F938636BE17F6FF1F130696BA06
:1056580097950300938545A42244B24092444101A2
:105668006F40330897F7FF1FA38607B897F7FF1F08
:10567800A38B07BA97F7FF1FA38007BE0347040051
:105688008547AE8463FAE7009305D40317F5FF1F37
:10569800130555B6EF4053098307940791CF034785
:1056A8000400894763FAE7009305940717F5FF1F7D
:1056B800130575B7EF4053078307540B91CF034782
:1056C80004008D4763FAE7009305540B17F5FF1F95
:1056D800130595B8EF4053058307140F91CF03477F
:1056E8000400914763FAE7001305140FEF30132BFA
:1056F80097F7FF1FA38BA7B801469745000093852E
:10570800A52C13052003EF30C03CEF50F07097F73D
:10571800FF1F83C797B717F7FF1F1307F7B397F64E
:10572800FF1F938656B017F6FF1F1306B6AC979562
:1057380003009385A599268505B7411126C206C69B
:1057480022C4034705008947AE8463F7E70293053F
:10575800D5032A841306200317F5FF1F130585A216
:10576800EF40930113059407EF30532397F7FF1F7A
:10577800239CA7A6EF50D064EF50906897F6FF1FC0
:1057880083D686A617F6FF1F1306C69F97950300B4
:10579800938585F62685EF40C374854797F5FF1FE7
:1057A8009385C58C17F5FF1F1305859C17F7FF1FF9
:1057B800A304F792EF40437797F5FF1F938595A3CE
:1057C80017F5FF1F13056591EF40037697F5FF1F47
:1057D800938575A517F5FF1F13054593EF40C3740F
:1057E80097F5FF1F938555A717F5FF1F13052595F7
:1057F800EF40837397850300938545ED17F5FF1FE9
:105808001305659BEF404372EF50905B0146974547
:1058180000009385C5157945EF30A02B2244B2408E
:105828009244014697750000938545A61305000527
:1058380041016F30002A411122C426C24AC006C65F
:105848008307D503AE84179903001309A9B917F480
:10585800FF1F1304A43989C71307F0036391E704F2
:1058680017F5FF1F034585A2EF20337203260900B1
:1058780083264900EF10F329EF30E37368CCEF304B
:10588800C368AE862A8697950300938525B6224479
:10589800B24002492685924441016F408364130552
:1058A800D503EF30B30F97F7FF1F2381A79E13751A
:1058B800F50FEF20936D0326090083264900EF10AA
:1058C8005325EF30436F68CCEF501055684CEF30DC
:1058D800C363AE862A8697950300938525B345BF93
:1058E800AA870387D7032E8509C79306F003631594
:1058F800D70297F7FF1F83C7B78F179603001306C2
:10590800A6AB89E717960300130686AB97950300A5
:10591800938585AC6F40E35C41111385D70306C6B8
:1059280022C42E84EF30930797F7FF1FA382A78C1A
:10593800EF50904E97F7FF1F83C7978B97950300FB
:10594800938585A889E797950300938565A822859F
:105958002244B24041016F40235D411126C206C670
:10596800AA8422C48387D4032E8589C71307F0032A
:105978006396E70497F7FF1F83C7B78705476385D3
:10598800E70289CB09476386E702B2402244924482
:105998004101828097950300938585AB2244B240EC
:1059A800924441016F404358979503009385C5ACD5
:1059B800F5B7979503009385E5AECDB79384D403E7
:1059C8002E842685979503009385C5B0EF40035D27
:1059D8001DC1894717F7FF1FA30DF780979503008F
:1059E800938585B32285EF4023542244B2409244E4
:1059F80041016F5070422685EF30437A1375F50FD9
:105A080097E7FF1FA387A77E854797950300938590
:105A1800A5AEE309F5FC97950300938525AC79D1EC
:105A28008947E30DF5FA17E7FF1FA304F77C97955D
:105A380003009385A5B07DB741112E859795030086
:105A4800938545B306C6EF40234E014697450000AF
:105A58009385E5F17945EF30C007B2400146977567
:105A680000009385A5821305000541016F3060068B
:105A7800411122C426C206C68307D503AE8417E4A3
:105A8800FF1F1304A47689C71307F003639BE7027B
:105A98008306242017960300130606CA63D6060059
:105AA80017A603001306C6E326859795030093857A
:105AB800E5C8EF4003432244B240924441016F904D
:105AC800D07A1305D503EF30636D97F7FF1F238056
:105AD800A792EF9090790306242097950300938569
