:040000006F20007DF0
:1000040000000000000000009000002022090020F1
:10001400A9BDF9F5940000200000000000000000D4
:10002400960000209800002000000000000000005E
:100034009A000020000000009C0000200000000046
:100044009E0000201603002044030020A40000208A
:10005400A6000020A8000020AA000020AC00002078
:10006400AE000020B0000020C60000205A0100208D
:100074009E090020B8000020BA000020BC00002027
:10008400BE000020EE01002082020020C4000020F7
:1000940001A001A001A001A001A001A001A001A054
:1000A40001A001A001A001A001A001A001A001A044
:1000B40001A001A001A001A001A001A001A001A034
:1000C40001A001A001A037370040834747009946AB
:1000D4004111BD8B638CD70231476384E706114716
:1000E400639EE702A303010017460000034606557A
:1000F40037370040834771006315F6022C001385DF
:10010400017797D000E0E780E08609A8834757008D
:1001140093F7F70F2304F100834781004101730033
:10012400203083477100834687000C08AE97238CE8
:10013400D7FE83477100850793F7F70FA303F100F8
:1001440055BF2800973001E0E780C07A1375F50F9A
:10015400A303A1000346710055B737370040834716
:10016400474099464111BD8B638CD7023147638464
:10017400E7061147639EE702A30301001746000048
:100184000346E64B37370040834771006315F60298
:100194002C001385417897C000E0E780A07D09A872
:1001A4008347574093F7F70F2304F10083478100F7
:1001B40041017300203083477100834687400C0857
:1001C400AE97238CD7FE83477100850793F7F70F0B
:1001D400A303F10055BF2800974001E0E780408366
:1001E4001375F50FA303A1000346710055B73747F4
:1001F40000408347478099464111BD8B638CD702E9
:1002040031476384E7061147639EE702A3030100B5
:100214001746000003469642374700408347710063
:100224006315F6022C001385817997C000E0E780FE
:10023400607409A88347578093F7F70F2304F100EC
:100244008347810041017300203083477100834656
:1002540087800C08AE97238CD7FE834771008507EF
:1002640093F7F70FA303F10055BF2800974001E06F
:10027400E780C08B1375F50FA303A100034671003B
:1002840055B737470040834747C099464111BD8B56
:10029400638CD70231476384E7061147639EE70204
:1002A400A3030100174600000346266A37470040AF
:1002B400834771006315F6022C001385C17A97C039
:1002C40000E0E780206B09A8834757C093F7F70F36
:1002D4002304F100834781004101730020308347E8
:1002E4007100834687C00C08AE97238CD7FE8347E2
:1002F4007100850793F7F70FA303F10055BF28009A
:10030400974001E0E78040941375F50FA303A10023
:100314000346710055B7411122C637140040835774
:10032400C40993F7074099CBA1450145971001E013
:10033400E780201993070040231EF408324441014A
:1003440073002030B717004003D7E70903D7E70944
:100354009316170163D50604175700000347C78097
:100364000507975600002381E6801747000013070E
:10037400E7711843136707409746000023A8E67007
:100384001167239FE70803A7470C9166131617010B
:100394006359060003A7C70C558F23A6E70C730007
:1003A400203003A7870C558F23A4E70CCDBF411140
:1003B40022C4174400001304646D1C4006C613F7DE
:1003C40007401DCB13974701634107028D4509453B
:1003D400971001E0E780E00E9145174500000345C2
:1003E400256D978001E0E780E0FE1C4093F7F7BF9E
:1003F40017470000232CF768974700009387877AF4
:100404009C438DCB1C401397470163410702A945C8
:100414000945971001E0E780C00A9145174500009F
:1004240003450569978001E0E780C0FA974700001B
:1004340023AA0776B24022444101828041118146B9
:1004440001468145114506C6EF00A077B727004055
:1004540011472383E780B7F700E003A707D16D9B1B
:1004640023A8E7D003A707D15D9B23A8E7D0730097
:10047400501001000100B2404101828041118146C7
:1004840081450146114506C62D2FB7270040114767
:100494002383E780B717004003C7E70283C5E70457
:1004A40083D7870391661377F70F93E5350063E5E8
:1004B400D700719B13671700B71700401306700528
:1004C4002380C704930680FA2380D7040100010027
:1004D400238207022380C7042380D704010001007C
:1004E4002387E7022387B7042380C7042380D70424
:1004F4000100010003C7B70413670702A385E704DB
:100504002380070437F700E0832507D193E54500EE
:100514002328B7D0832507D1DD992328B7D07300CA
:100524005010010001002380C7042380D704010078
:10053400010003C7B7041377F70DA385E7042380ED
:100544000704B240410182800111B7F5070022CCB3
:100554008146E1052A840A86194506CE26CA02C0C8
:1005640023120100B92DB717004003C7E70283C562
:10057400E70483D7870391661377F70F93E5350074
:1005840063E5D700719B13671700B7170040130684
:1005940070052380C704930680FA2380D7040100E2
:1005A4000100238207022380C7042380D7040100AB
:1005B40001002387E7022387B70423800704B7F5E4
:1005C40000E003A705D11367470023A8E5D003D5AE
:1005D40007026577110713750560418D598D420532
:1005E400418101002380C7042380D7040100010056
:1005F40003C7F70037F40700B7F400E013670704F4
:10060400A387E70003C7B704610413670702A38540
:10061400E7042390A70283A704D1DD9B23A8F4D089
:10062400730050100100010013056004352E81464B
:100634003000A285194502C423160100592322471C
:100644008247E31AF7FCB7170040130770052380AD
:10065400E704130780FA2380E7040100010003C7BD
:10066400B7041377F70DA385E70423800704F2404A
:100674006244D2440561828001114EC6814601461E
:10068400AA898145114506CE22CC26CA4AC8152B13
:10069400B716004083C7E60203C7E60483D6860381
:1006A400116693F7F70F1367370063E5C600F19BF4
:1006B40093E717003714004013097005230024053D
:1006C400930480FA2300940401000100230204022D
:1006D4002300240523009404010001002307F402ED
:1006E4002307E40423000404130550025920B7F738
:1006F40000E003A707D11367470023A8E7D023002E
:10070400240523009404010001000347F400136747
:100714000704A307E4002300240523009404010034
:1007240001002567B3E9E9002310340303A707D1C7
:100734005D9B23A8E7D0730050100100010081469F
:10074400014681451145B52923002405230094045D
:10075400010001008347640493E717002303F404B2
:1007640023000404F2406244D2444249B249056180
:100774008280B7170040930670052380D7041307BF
:1007840080FA2380E7040100010003C6B70413764E
:10079400F60DA385C70423800704137605024DC212
:1007A40003C6A700118A1DE22380D7042380E7042F
:1007B4000100010003C7A700136747002385E70072
:1007C4009307004B01000100FD17EDFFB717004030
:1007D400930670052380D704130780FA2380E70467
:1007E400010001007D892394A7000100010001009C
:1007F4000100238007042380D7042380E704010039
:100804000100010001003727004093061005A303EF
:10081400D78023800704B71700401307700523808F
:10082400E704130780FA2380E7040100010003C7EB
:10083400B70413670708A385E704238007048280AD
:100844001376050441C603C6A700418A1DE223802E
:10085400D7042380E7040100010003C7A70013673E
:1008640007012385E7009307007D01000100FD17C0
:10087400EDFFB7170040930670052380D7041307D4
:1008840080FA2380E704010001001376F501136662
:1008940006042394C7000100010001000100238025
:1008A40007042380D704130660042380E704631835
:1008B400C5000100010037270040894689BF0100B7
:1008C4000100372700409306200591B72380D70401
:1008D4002380E7040100010003D787001367070C96
:1008E4002394E7000DBF411181460146814511451E
:1008F40006C6C12CB7170040130770052380E70410
:10090400130780FA2380E7040100010003C767048A
:10091400136717002383E70423800704B2404101CF
:1009240082808146014681451145612CB7170040FC
:10093400930670052380D704130780FA2380E70405
:10094400010001007D562396C7022380D70423802B
:10095400E7040100010003C767041367170023833A
:10096400E7042380070401A0BD473305F502010015
:100974007D1575FD8280411122C426C206C6AA8453
:10098400014463179400B24022449244410182809E
:1009940005041305803E4204C13F4180DDB7B7170B
:1009A4000040130700032388E70285471747000028
:1009B4002328F71E73002030397122DC4ED656D21C
:1009C40037140040E57AB7F9070026DA52D45AD032
:1009D4005ECE06DE4AD862CC2A8B916B9304040463
:1009E400130A7005910AE1098347E4020347E4040A
:1009F4008356840393F7F70F1367370063E5760193
:100A0400F19B93E7170023804401130980FA2380A4
:100A140024010100010023020402238044012380F5
:100A24002401010001002307F4022307E4042380C6
:100A3400040037F700E0832707D193E74700232812
:100A4400F7D08357040293F70760B3E76701B3E76E
:100A54005701C207C183010023804401238024017C
:100A6400010001008346F400130CB40493E6060469
:100A7400A307D4008346B40493E60602A305D40472
:100A84002310F402832707D1DD9B2328F7D07300BA
:100A940050100100010013056004F9353000CE85C3
:100AA4008146194502C423160100212A114697459F
:100AB40000009385650F280011231DD59307700549
:100AC4002380F400238024010100010083470C00EB
:100AD40093F7F70D2300FC0023800400F2506254C6
:100AE400D2544259B259225A925A025BF24B624C86
:100AF40021618280411106C6AD2D553897D000E0A2
:100B0400E78000FCD5BF2303048015472303E4805A
:100B140001002302A480828083076480E3CE07FE61
:100B240023030480828083076480E3CE07FE0345A9
:100B34004480828083076480E3CE07FE2302A4807E
:100B44008280411126C44AC24EC006C61377F50BF3
:100B5400AD47AA892E8995446306F7001945653780
:100B6400653F8D444E854537FD59FD146398340126
:100B7400B240A244124982494101828013550901BD
:100B84001375F50F453F2209CDB7011126CC06CECA
:100B9400B704080051371545BD37713769372AC680
:100BA400A53F32459377150089EB1365150013753E
:100BB400F50FF240E24405618280FD14E9FC014531
:100BC400CDBF397126DC4ADA4ED852D656D45AD221
:100BD4005ED006DE62CE66CCB7E700E07D5783AA1E
:100BE400070022C603AA470023A0E71823A2E71898
:100BF400B7170040130770052380E704130780FA32
:100C04002380E70483C74704930B75FFB684E20788
:100C140093FBFB0F8546AA892E8B3289372400402B
:100C2400E187015763FA76016308D5008946130703
:100C340000026313D5000157D98F93F7F70FB71C40
:100C440000402382FC0411472303E4801305F00FC2
:100C54005D3D094CD135636D7C11B7050700DA950C
:100C640037870700795563F2E504B3879500636E0F
:100C7400F702370B0800A94733EB65016399F906BE
:100C840089E48144513D26850DA0DA850945553D09
:100C940005090345F9FFFD14050B693D81C49377EC
:100CA400FB0FFDF7DD3569FD7D55B71700401307D0
:100CB40070052380E704130780FA2380E70403C741
:100CC4004704418B2382E704F250B7E700E023A0F6
:100CD400571123A24711E25432445259C259325A8D
:100CE400A25A125B825B724CE24C21618280A5475E
:100CF4006395F90685691309F00FB3069900B37477
:100D04002B01B6941349F9FFB3749900856B3379B9
:100D14006901416B9387F9FFB3F7270199E363FCFA
:100D2400340193D94900C147E3E637FF99BF056908
:100D3400C1697D19D9B71305800D6388690113054D
:100D440000026384790113051008CA85DD3B353D33
:100D540021DD4E99B3843441D9B7DA852D45D53395
:100D6400CA94E30099F205097D3BA30FA9FED5BF00
:100D74009387F9FF93F7F70F6361FC0C83C71C0497
:100D840013073008631FF70437070800636BEB048D
:100D9400B3079B00B706100063F5D704334BEB0091
:100DA40089476393F9068980D549E38C04ECDA8595
:100DB4000945413B11090327C9FF91472320E480DA
:100DC40003076480E34E07FE23033481FD17EDFB24
:100DD400FD14110B81C49377FB0FE9FF7D3371F58B
:100DE400E1B5B717004003C75704B70708001377E6
:100DF400070219E3B78707007955E378FBEA33075D
:100E04009B00E3FFE7F855B58547E382F9F2DA85FD
:100E14002D45053B9389F4FFE38504E6293393F7D5
:100E2400390091EB832604800327090093074900C6
:100E3400E39AE6E43E89CE84F1BFB5476396F900B0
:100E44001305900BC93135BDB1471305B00AE38BC7
:100E5400F9FE99476391F904B7050800B365BB002F
:100E64002D45C53181448D4BA14975396396740173
:100E7400832704802320F9008504E39834FF832723
:100E8400048013172B01635507002312F900D5BB07
:100E94002322F900FDB39D476399F90281451305A7
:100EA400B0044531BD442320090023220900FD5923
:100EB4009D3993F77400CA9703C70700FD14398D51
:100EC4002380A700E39634FF6DBBA1476392F90426
:100ED4006D398144630D0B008D479304C00363088F
:100EE400FB009304000563048B0193044004137511
:100EF400C507E30895D819453931393905452131F4
:100F040026850D3909453D314931E31C05D669BBB8
:100F140091476399F90013056006F536F53E13050C
:100F240090090DB7E38F09D4F154A9BB19CD91CD24
:100F340009CE81473387F500834607003307F50060
:100F440085072300D700E317F6FE828019C991C9EB
:100F540009CA910583A7C5FF11057D16232EF5FE49
:100F6400C5BF828001C919C62A960505A30FB5FE1F
:100F7400E31DA6FE828081473307F50003070700BF
:100F840019E33E8582808507C5BF01112E8626CAD6
:100F9400AA84131506019305F004418122CC06CEE0
:100FA40032C6EF1040592A8401C53246A685BD3F9A
:100FB4002285F2406244D24405618280854715C18E
:100FC4008DC105C28147B306F5003387F50083C69A
:100FD4000600034707006398E6008507E315F6FE5D
:100FE40085473E8582808147EDBF9307F6FFBE9516
:100FF4002A966313C5008280FD1583C71500050575
:10100400A30FF5FEFDB7AA87014581CF09CE3E9611
:10101400850703C7F7FF6317B700E39BC7FE0545C2
:10102400828082800145828079719757000093877E
:10103400274222D4804306D626D24AD04ECE52CC62
:1010440056CA5AC85EC662C45DCC37C9C901814B51
:10105400175A0000130A4A44975400009384843FAB
:101064001309F937975A0000938A4A39B709C0A877
:10107400370B40578357240095E35C44639D0B0072
:10108400175700002326F73C032CC4002285EF10D9
:10109400A057628499A823A6FB00FDB783270A0002
:1010A4008297838664011C4463DB06063307F5409C
:1010B4006367E9089757000023AA0734835524007F
:1010C40003450400977001E0E780C0305C40584459
:1010D400A9CF1444B6978386640163C5060063E30D
:1010E4003701DA971CC4A28B3A8449F4975700005D
:1010F4009387C7309C4B09476378F706F91717574E
:1011040000002325F730B250225492540259F24978
:10111400624AD24A424BB24B224C45618280E37709
:10112400F5F83387F9402A9761B763970B0097570F
:10113400000023AFE73089BF23A6EB00B1B7D85036
:1011440009CF63DF06003385A74083A70A016376CE
:10115400F5009757000023ABA72AA28B404471B730
:10116400E3F3A7FECE97C5B79757000023A0072A3D
:1011740059BF411122C4175400001304242B1C40EE
:1011840006C626C24AC091C782979757000023AF6C
:1011940007285C4091C382971C406391071C9757B2
:1011A400000083C73747858B9DC797570000A383EB
:1011B40007461757000003471746954763FDE700A6
:1011C400EF0010379757000083C7F744F5178A07D5
:1011D400A2979C43829717590000130969478347D4
:1011E400C900918B99C3EF1060281C4491C3829766
:1011F40097540000938484259840175600000346B2
:10120400F61F9757000083C7671F93961700BA9677
:1012140083D60600D5CA9757000083C7271E63EFFD
:10122400C70A97570000238B071C1C4063980712BA
:101234009757000083C7573E91CF9757000083C745
:10124400973D89EB97570000A388073C97C002E0BD
:10125400E780E02E97570000938707249C43638F11
:10126400070EB707C0A8175700002321F71A6D3BD4
:10127400975700009387071EDC53EDC317570000F0
:101284001307C717184B9757000083C7F71D6367E9
:10129400F70C1757000003471738954763E0E70C2E
:1012A4008347C900918BDDEB90409756000083C6BD
:1012B400F61463CBD70A2244B24092440249410156
:1012C400177301E0670023EE850793F7F70F97562E
:1012D40000002385F612E3E6C7F235BF86073E9782
:1012E400835507002310070097570000239E071417
:1012F40097570000938747139C43175500000345F5
:10130400E50F13172500BA979C438297975700005F
:1013140083D78713175700000347470E93C7F7FF78
:101324007D8D9317170098403E97835707005D8D76
:101334002310A7009757000083C7470C91C7850760
:1013440017570000230CF70A175700000347070B31
:101354009757000083C7970AE375F7ECB24022441D
:101364009244024941018280139717003297035730
:1013740007006DF7850735BFAD6737C70040BD0768
:101384002326F7200F1000009757000093870707C4
:10139400C84F83278726BD66BD0693C7F7FF998389
:1013A4006A052326D7205D8D82804111B71700403E
:1013B400985F3AC6945F3247E39CE6FE32454101AA
:1013C400828082800327851163000712411122C4A1
:1013D40006C68347C5008345C5042A8493F7C70F0F
:1013E4002306F500834697000356C700139586012C
:1013F400618563F1C508635A05060345870093F6C2
:10140400F607A304D700054693E627006314C50036
:1014140093E617002306D4005C4389075CC3A30A40
:10142400B400032504112E864C4309050136832795
:10143400841103465401D44303D7C700B296118FD5
:10144400D4C32396E7008947A30DF400034744035C
:101454009757000083C727016378F7048347C400C4
:1014640093E707012306F40081A093E717002306FE
:10147400F40075B79376F60F635D050203458700A4
:10148400854513E627006314B50013E61700230609
:10149400C400A30AD400A30407008547A30DF400E5
:1014A400832784119C43DDF3B2402244014541016A
:1014B400828093E717002306F400A30AD400A30450
:1014C4000700032504114C4309058D348327841137
:1014D40003465401D44303D7C700B296118FD4C333
:1014E4002396E7008D475DBF05458280975700002E
:1014F400938787109C43411122C406C6858B2A8496
:10150400C5EF4165130525F5976002E0E780801675
:1015140045C58347A5002315F50083270412BDE7BD
:101524002320A4122322A41285472310F404232089
:1015340005008347640154412316F5000347D40092
:101544002304E5000547A304E5001757000013072B
:10155400270C184F1385170215811C437D1513752D
:10156400F50F9CC25C43DCC21C479CC65C47DCC6CE
:101574001C4B9CCA5C4BDCCA1C4F9CCE5C4FDCCE23
:1015840019CD9386060213070702C1BF83274412AD
:1015940088C3835704042322A412850779B7975775
:1015A400000083D72714850717570000231CF71260
:1015B400B2402244410182808347C40023090400CD
:1015C400054593C747002306F400DDB7834785012B
:1015D40093F7E70FD5EF83479501DDEB034625012C
:1015E4008346C50009CA83454503175700000347CE
:1015F40097E763E7E50013F7060141CF014709C602
:10160400C18A0357651C81C68356A51C369751C3EE
:101614001307C712175500000355C5E0B335A702D9
:1016240037460F00411113060624814622C426C200
:1016340006C67D543305A702977003E0E780209324
:101644009757000083C797E2B384A7009757000019
:101654009387C70803A707098327070963F387004C
:101664003E84184375FB975700009387E7E29C4339
:10167400829781476364A400B307A440B240224424
:10168400B3B7970093C7170092443E854101828007
:1016940081473E858280797126D206D622D44AD0EB
:1016A4004ECE52CC56CA5AC85EC68347350303444D
:1016B4007513AA843E941374F40F9307400263F6DF
:1016C40087001304B4FD1374F40F03AA841383AACC
:1016D400C413A38B841222865285D685977003E0A7
:1016E400E7806083058915E503CBD412014981495C
:1016F400337B6403930B50024A865285D6859770D8
:1017040003E0E7804081058915C56391690313747B
:10171400F90F238B8412B250225492540259F24985
:10172400624AD24A424BB24B456182808509E20942
:1017340093D989410509E31179FDE1BF832785091F
:101744000356E503797193D60701BD8EC206C182A3
:10175400358E1357764093575640898B058B5D8F92
:1017640093573640918B5D8F93571640A18B5D8FB5
:1017740093171600C18B5D8F9317360093F70702FA
:101784005D8F931756009355860093F707041E0642
:101794005D8F1376F60F518F93D7554013D635408E
:1017A400118A898BD18F13D67540D18F13D61540EA
:1017B400218AD18F13961500418AD18F1396350053
:1017C40013760602D18F13965500137606049E05F0
:1017D400D18F93F5F50FCD8FA20745465D8F330763
:1017E400C70222D42A8426D252CC56CA032A84138E
:1017F400832AC4135AC806D636974207418393579F
:101804007740135557400989858BC98F1355374045
:101814001189C98F135517402189C98F13151700D2
:101824004189C98F1315370013750502C98F131524
:10183400570093558700137505041E07C98F137746
:10184400F70FD98F13D5354013D755401189098B1C
:10185400498F13D57540498F13D515402189498F78
:10186400139515004189498F1395350013750502A9
:10187400498F13955500137505049E05498F93F5FB
:10188400F50F4D8F2207D98FB387C7024AD04ECEAA
:101894005EC662C4B697C207C18313D7774013D517
:1018A40057400989058B498F13D537401189498FD2
:1018B40013D517402189498F139517004189498F02
:1018C4001395370013750502498F1395570093D567
:1018D4008700137505049E07498F93F7F70FD98F77
:1018E40013D5354013D755401189098B498F13D52A
:1018F4007540498F13D515402189498F13951500DB
:101904004189498F1395350013750502498F139545
:101914005500137505049E05498F93F5F50F4D8FFA
:101924002207D98FB387C702130650025285D68582
:10193400B697BD8E93940601C18033F6C402137B1F
:10194400F60F976003E0E780005D05890DED83479E
:10195400D41201498149B3849702130C5002C18007
:101964004A865285D685976003E0E780C05A058988
:10197400937BF90F11C563863403850993F9F90F35
:101984000509E31F89FD230B6413B25022549254BA
:101994000259F249624AD24A424BB24B224C456147
:1019A40082805E8BCDB7011197570000938707D3D0
:1019B40022CC03A4470B26CA06CE2AC42EC68544CD
:1019C40019E40145F2406244D244056182808347B0
:1019D400910003471400858B6304F7000044CDB7DE
:1019E40019469305A10013052400EFF02FDDE3173A
:1019F40095FE0545C1BF011122CC17540000130404
:101A0400E4C218402AC62EC432C206CE3C4B93F719
:101A1400F7F73CCB97C002E0E78020AF1840975619
:101A240000009386E6BD3C4B93E707083CCB9C4201
:101A34003245A24523A007000347150003482500AB
:101A4400220742084297034805004297034835009D
:101A54006208429798D70347550003486500220758
:101A640042084297034845004297034875006208BC
:101A74004297D8D7034795000348A5002207420898
:101A840042970348850042970348B500620842978D
:101A940098DB0347D5000348E50022074208429734
:101AA4000348C5000345F500429762052A97D8DB31
:101AB40003C7150003C52500220742052A9703C55D
:101AC40005002A9703C5350062052A9798CF03C7F6
:101AD400550003C56500220742052A9703C5450042
:101AE4002A9703C5750062052A97D8CF03C79500C6
:101AF40003C5A500220742052A9703C585002A9736
:101B040003C5B50062052A9798D303C7D50003C55A
:101B1400E500220742052A9703C5C50083C5F500E1
:101B24002A97E2052E97D8D3D843759BD8C3D843B8
:101B340013671700D8C398431367170098C3124656
:101B440098425C43858BD1E71C4F01452300F60086
:101B54009C429C4FA183A300F6009C429C4FC183EE
:101B64002301F6009C429C4FE183A301F6009C42B2
:101B7400D84F2302E600D84F2183A302E600D84FB2
:101B840041832303E600D84F6183A303E6009853FF
:101B94002304E60098532183A304E6009853418369
:101BA4002305E60098536183A305E600D853230672
:101BB400E600D8532183A306E600D85341832307C4
:101BC400E600DC53E183A307F600F24062440561BA
:101BD40082800100B5B7175700001307A7A214436A
:101BE400411122C49C5E4AC006C6998326C2858BD5
:101BF4003A84175900001309A9A0D1CB9C5E9754CD
:101C040000009384E4A093F7F7F99CDE17570000D3
:101C1400034767A093070008631BF70083270900A5
:101C24009C4393F70704175700002306F79E83C7C6
:101C3400040093F707049DC3975700009387C78553
:101C44009C4382979757000023ACA79C83C704004A
:101C540093F7F70B17570000230CF79A83C7440038
:101C640093F707048DE7854717570000A304F79AF5
:101C7400975700009387879B9C43096798C713076E
:101C840000FC975600002387E698D844F8D31C40FC
:101C9400985F1183058B09CB985F3D9B98DF0547BF
:101CA400975600002388E696985F1D83058B11CB19
:101CB400985F1377F7F798DF854717570000230BD2
:101CC400F79483270900D8430583058B19C7D843A4
:101CD400759BD8C3D843799BD8C3B240224492445D
:101CE400024941018280397106DE16DC1ADA1ED8F7
:101CF4002AD62ED432D236D03ACE3ECC42CA46C8A8
:101D040072C676C47AC27EC0F935F250E25252539A
:101D1400C2533255A255125682567247E247524870
:101D2400C248324EA24E124F824F216173002030BE
:101D3400975700009387878F9443975700009387A2
:101D4400278D03C70700058B11CB9757000023830A
:101D5400078C97570000A38F078A828003C7170058
:101D6400058B65F7F85271FF83C75700DDB7175825
:101D7400000013082889032708001C5F9583858BBE
:101D8400D1E709C61C5BBD832300F60085CA8327FF
:101D94000800985B4607935767016356070093E76B
:101DA40007C0C207C18303970600C207C18709C7DA
:101DB400BA970947B3C7E7022390F60085CD834756
:101DC40015008DCB9756000083C6E68493F606046F
:101DD4001387970089478DCA3A95034705008546BE
:101DE40099471376F7066311D60262076187B947EC
:101DF400634C0700832708009C5FED838D8B175786
:101E04000000A30CF78081473E8582808547EDBFA3
:101E1400411122C406C6175400001304248118403B
:101E240049E9AE877453FDFE3E85B28597470000AD
:101E34002381077E97B002E0E780204397470000A4
:101E44009387477C9C43B70680009843558F98C37B
:101E5400D857719BD8D797470000A38D077A974727
:101E64000000A387077A1C40094798C3B7F700E02E
:101E740003A707D16D9B23A8E7D003A707D15D9BD8
:101E840023A8E7D07300501014401747000013072D
:101E9400277883472700858B89EB83473700858B19
:101EA400D9C79747000023870776B24022444101EF
:101EB40082808D476310F5029747000093878774EB
:101EC4009C43B70680009843558F98C3D857719B9D
:101ED400D8D75DBF8547E319F5FAB567BD075CC779
:101EE4000F1000001C400967094698C7130700F843
:101EF400974600002380E672174700001307877097
:101F04001443984231830D8B6319C7001307E043D0
:101F1400F8D33D673D07D8C785BF984231830D8B01
:101F240001E713076019EDB71307E01BD5B7FC529F
:101F3400ADF3A5BF5D7152DC174A0000130A8A6C29
:101F440003270A0086C6A2C4A6C2CAC04EDE1C432A
:101F54009749000093894972174900001309096DD4
:101F640093F7F7E793E707081CC383A6090037072D
:101F7400CEFF7D179C46130680022A84F98F9CC6E7
:101F840083270900130700082800B8CBAE84930503
:101F94001008EFE03FFD97B002E0E780005797B0EC
:101FA40002E0E780006483270A009376F41F370F6A
:101FB400FCFF23A40700984B4E88CA881367F703D5
:101FC40098CBF84F130510F8D285137707E0558F97
:101FD400F8CF9843F576FD16758F98C39843B706E6
:101FE4003300B70204001377F7E798C398439303C9
:101FF400401F7D1F1377F7E71367071098C303A7E4
:102004000900930F800285491C47D58F1CC783277D
:1020140009001307900D3400B8CB1149014713533D
:10202400370026938347030013767700B3D7C7405E
:10203400858BDDCF9C41832E0800239C07042390CD
:10204400070603AECE02137EDEFF23A6CE0383AEC5
:102054000700137EF70793FE0EF833EECE0123A09C
:10206400C70103AE4702336E5E0023A2C70383AEEB
:102074000800014E23A27E0603DA070663074E0317
:1020840003AE0703038A0600135EFE00620E135EAE
:102094008E416358CA0103AE0703135EFE0023801A
:1020A400C60103DE0706137EFE0F03AA4E0663066F
:1020B4000A0003DA8705E37F49FB03AE4702337E58
:1020C400EE0123A2C70383870600635CF400034E7A
:1020D40003003396C9001346F6FF3376C601230086
:1020E400C3003E8663D3A7002A8613158601618543
:1020F40005071377F70F8506E313F7F3B640264475
:1021040096440649F259625A6161828097460000FA
:102114009386C6519C42D84713161701635506028D
:10212400984713161701635006027D57B8D717470F
:1021340000001307A72C584F050717460000232D4E
:10214400E62C116798C798470D83058B1DC3174765
:1021540000000347074C1367170017460000230AC3
:10216400E64A130700F8174600002305E64A21470C
:1021740098C79847058B09CF17470000034757496D
:102184001367170017460000A304E648054798C7DD
:1021940098470983058B09E798470583058B31CF59
:1021A4009847174600001306A64617450000130576
:1021B40065450983058B6303071018411843318370
:1021C4000D8B75EBAC4B184E93F5050203471700C6
:1021D400CDCD79EF13077006D8CF034706001367F8
:1021E4001700174600002305E642114798C7184117
:1021F4005C57F19B93E717005CD79C429847931672
:10220400370163D606029746000083C66654C18A26
:10221400174700001307874CC5CE034747071367CA
:102224000702974600002385E652056798C798473A
:102234009316270163D10602174700000347873D21
:1022440062076187635707000547974600002383A9
:10225400E63C096798C798479316070163D60602B8
:102264009746000083C6D64E858A17470000130799
:10227400E746ADCE0347570713672700974600008C
:10228400A388E64C216798C7828029D785456315C2
:10229400B7001307B00689B789456315B70013075C
:1022A400F0061DBF8D456315B700130730072DB722
:1022B4001307500715B71307600739BF03473600E4
:1022C4001367170017460000A305E634094739BF12
:1022D400834647070946BD8A6388C6000347470704
:1022E4008D463D8BE313D7F4114725BF834657072B
:1022F400918AC9DA034757071367870041B73971D1
:1023040006DE16DC1ADA1ED82AD62ED432D236D0FD
:102314003ACE3ECC42CA46C872C676C47AC27EC0A1
:10232400F533F250E2525253C2533255A25512566B
:1023340082567247E2475248C248324EA24E124F6A
:10234400824F216173002030174700001307472E86
:102354008346B7019747000083C757304C4BB69765
:10236400FD8B33D7F50097460000A383F62C9746E0
:102374000000A385F62E058B15EF174700000347D1
:10238400372EB3F7E702814601471305000233D61F
:10239400E500058A1378F70F19CA6397D7009747A2
:1023A4000000A38707298280850693F6F60F0507A8
:1023B400E31FA7FC8280974700009387E70D9C43A7
:1023C400011122CC4EC606CE26CA4AC852C456C2F1
:1023D4008297974700009387A72780478149630521
:1023E400A406BE84974700009387C7060387670146
:1023F4003E8963550706018D135455009747000025
:1024040083C7A7249379F501636DF402370AC0A842
:10241400B70A4057153F9C449746000083C6E622FE
:10242400139756003E9783076901158C63C507000F
:102434006363470156979747000023AFE720E37B88
:10244400D4FC1604B3693401F24062444E85D2448C
:102454004249B249224A924A05618280E37D85F865
:10246400B707C0A833848740229579B797470000FF
:10247400938787029C43411122C406C626C28297D1
:10248400974700009387C71C80476309A406BE844E
:1024940097470000938707FC8387670163D8070485
:1024A400018D135455009747000083C7071A6367CB
:1024B400F404593D98449747000083C7071993963D
:1024C400570036971D8C9746000023A7E618E37241
:1024D400F4FE2244B24092441745000003455515CA
:1024E4008145410117B302E06700C356E37A85FAD8
:1024F400B707C0A833848740229565B7B240224409
:10250400924441018280974700009387E7169843DD
:10251400B75702009387079F83260709139656002F
:102524006358060083260709139666006344060071
:10253400FD17FDF3828071C5AA870145E9C58D07A2
:10254400C207C183F19BC207C18313074003636FB2
:10255400F70217470000130727180843174700001E
:102564001307071714436398A602174700001307BD
:1025740067EE185B014541CB4111C20706C605450C
:10258400DD8D0297B240014541018280174700006A
:1025940013074714D9B70357650035E303574500BC
:1025A400636FF704B306F7402146637CD602032821
:1025B4000500938687001D8FAA96611717460000B1
:1025C400035626E42392E60023A006012393060083
:1025D40014C12312F500130786FF974600002392C7
:1025E400E6E22313B5009745000083D585E1B38760
:1025F400F540174700002316F7E0210582800841C3
:102604009DB70145828082800DC197470000938762
:10261400A70C03A30700974700009387670B83A8C1
:10262400070081469A8763E31701828003A80700A5
:10263400636DF50A636BA80A13878700E367E5FEF9
:1026440003D66700216705076317E60003C7819671
:1026540005072384E19697450000938525DA03D680
:10266400470003D76500239307003297420741834D
:10267400174500002317E5D8638A67021745000051
:102684001305450508416303F50203D5660019EDFA
:1026940083D7460023A0060121073E9621062392F4
:1026A400C60097470000239EE7D4B6879843E30EFD
:1026B40017F7974600009386E6019442E307D7F69E
:1026C40083566700BDF283D647000356470018437C
:1026D400A106B2962392D70098C383D76500A107B9
:1026E40017470000231FF7D08280BE86C28725BF0C
:1026F400011197470000938767FE22CC03A4C70B00
:1027040026CA4AC84EC606CEAA841309250085499E
:1027140015C083C7140003473400858B6304F70096
:10272400405CFDB71946930544004A85EFE01F89D4
:10273400E31835FF2285F2406244D2444249B2494B
:1027440005618280411197470000938727F922C4CD
:1027540003A4C70B26C24AC006C693042500054934
:1027640001E82285B2402244924402494101828018
:10277400A6851305A402975003E0E780002FE30227
:1027840025FF405CF1BF411197470000938707F58F
:1027940022C403A4C70B26C24AC006C6930425005C
:1027A400054901E82285B24022449244024941018C
:1027B4008280A6851305A401975003E0E780E02AF0
:0827C400E30225FF405CF1BFB8
:1027D00097110020938181B117610020130181823C
:1027E0001305400097E5FF1F9385C581170600205C
:1027F0001306C6FD63FAC5008322050023A0550019
:1028000011059105E3EAC5FE172504001305C5E48B
:1028100097050020938585FB1386018563FAC50023
:102820008322050023A0550011059105E3EAC5FEAA
:102830001385018597450020938545FC6377B50096
:10284000232005001105E36DB5FEFD42739002BC27
:102850008D4273904280B72200009382828873A0D9
:10286000023097D2FF1F9382E27993E23200739095
:102870005230972201009382C28273901234730007
:1028800020303D432A876373C3029377F700BDEF7F
:10289000ADE5937606FF3D8ABA960CC34CC30CC7D0
:1028A0004CC74107E36BD7FE11E28280B306C340F9
:1028B0008A069702000096966780A6002307B70055
:1028C000A306B7002306B700A305B7002305B7008A
:1028D000A304B7002304B700A303B7002303B70082
:1028E000A302B7002302B700A301B7002301B7007A
:1028F000A300B7002300B700828093F5F50F9396ED
:102900008500D58D93960501D58D61B793962700E7
:102910009702000096968682E78086FA9680C11715
:102920001D8F3E96E374C3F8A5B73367B500FD531A
:102930000D8B79E7B7877F7F9387F7F71041944135
:10294000B372F6003363F600BE92B3E2620063979F
:10295000720C6318D6065041D441B372F60033634B
:10296000F600BE92B3E262006398720A631BD6045B
:1029700010459445B372F6003363F600BE92B3E29D
:1029800062006391720A631ED6025045D445B37249
:10299000F6003363F600BE92B3E26200639A7208F7
:1029A0006311D60210499449B372F6003363F600FE
:1029B000BE92B3E26200639372085105D105E30F42
:1029C000D6F61317060193970601631CF7001357F9
:1029D000060193D706013305F7409375F50F91E98A
:1029E00082804183C1833305F7409375F50F91E1F0
:1029F00082801377F70F93F7F70F3305F740828044
:102A00000346050083C60500050585056313D6004A
:102A100065FA3305D640828011059105E312D6FE92
:102A2000014582802105A105E31CD6FC0145828079
:102A30003105B105E316D6FC014582804105C1058B
:102A4000E310D6FC01458280014711464148B38618
:102A5000E5008147B308F50083C808008507C10673
:102A600023A816FFE398C7FE11071105E31107FF1E
:102A70008280935785019CC19357054193F7F70FC7
:102A8000DCC19357854093F7F70F1375F50F9CC57D
:102A9000C8C582801C414111130705013EC05C413D
:102AA0003EC21C453EC45C453EC6939725001408B3
:102AB000B69783A707FF85051105232EF5FE8D899F
:102AC000E315E5FE41018280397122DC4166138401
:102AD000419E06DE26DA4AD84ED652D456D25AD075
:102AE0005ECE93050501A2863708FF007D16830799
:102AF0000500034735001105E207D98F0307D5FF0D
:102B00009106420733770701D98F0307E5FF2207B4
:102B1000718FD98F23AEF6FEE39BA5FC81499144CA
:102B2000930A010117CB0300130B4B1297CB030041
:102B3000938B4B0F130AC00293F734000329040050
:102B40004844BDE78A85353785450A85A1370A8718
:102B50001C43110793F6F70093F7070FDA97B69720
:102B600083C70700232EF7FEE394EAFE024592474F
:102B70006205C2075D8DB2475D8DA247A2075D8DDC
:102B800093972900DE979C4385093D8D33452501A8
:102B900008C885041104E39144FBF2506254D254F6
:102BA0004259B259225A925A025BF24B21618280F9
:102BB0003345A90008C8F1BF797122D426D24AD082
:102BC0004ECE52CC56CA06D62A8A93994500014465
:102BD000938A419E13090101C144B3073401D6977A
:102BE00088438A85793533078A008A87144390435E
:102BF00091074107B18E2328D7FEE39927FF1104DF
:102C0000E31D94FCB250225492540259F249624A94
:102C1000D24A45618280397122DC1304050106DE47
:102C200022878147C1460C433306F10011070CC2CD
:102C30004C4710083E960CC24C4F10103E960CC2EA
:102C40009107E392D7FE85450A85A935894508088D
:102C500091358D4508103D3D81474147B306F10050
:102C600094421104232ED4FE1408BE96944254C4F8
:102C70001410BE969442910754CCE391E7FEF250B3
:102C800062542161828006059377051089C7137508
:102C9000F50F1345B5018280411106C6ED37B240EC
:102CA0004101D5B781471148C1483386F500B306C5
:102CB000F500014703AE06003303E60005072300D5
:102CC000C301C106E31807FF9107E39017FF828055
:102CD0009306050117C60300130646F713050505FD
:102CE000138706FF1C43110793F5F70093F7070FAF
:102CF000B297AE9783C70700232EF7FEE394E6FE54
:102D0000C106E31FD5FC8280411122C406C626C23B
:102D100085472E846301F50289476318F500224434
:102D2000B24092442E854101B9BF8D47631BF50027
:102D30002E85913F298C2285B24022449244410144
:102D40008280A5476315F5002E85B937DDB7AD47FD
:102D5000631AF5002E8589373D37AA8422852537E9
:102D6000258DC9BFB5476316F5002E853537AA8472
:102D7000FDB7B947E311F5FC2E85393FAA84213709
:102D8000A98C228509373344950075B763820514F1
:102D900093F7F500639E07121571D6C3AA8A328590
:102DA000A2CDA6CB86CFCAC9CEC7D2C5DAC15EDF57
:102DB00062DD66DB6AD96ED73284AE84EF80F309B8
:102DC000C147631EF500228501330149130A01063C
:102DD00097CB0300938B8BFB294C63419902FE40F8
:102DE0006E44DE444E49BE492E4A9E4A0E4BFA5B63
:102DF0006A5CDA5C4A5DBA5D2D618280338B2A01A0
:102E00000C105A859131814508107D338549081091
:102E1000C135081009351C10D2863E871043410782
:102E2000C10623A8C6FE032647FF23AAC6FE032623
:102E300087FF23ACC6FE0326C7FF23AEC6FEE31FF3
:102E4000EAFC17C70300130767F003280700832D68
:102E50004700032D8700832CC70052841386070187
:102E60000C4042853ECE3ACC32CA42C8713D0C4835
:102E70002AC66E85513DB2460C501104A98E6A8552
:102E800036C65935B2464C54A98E668536C6AD3D18
:102E9000B246F2475246358D88C391074248624791
:102EA000E310F6FC4107B287E391EBFACE850810F8
:102EB00085091933E39D89F50810193D0810A13BD8
:102EC000A9450810D539DA850810E93B410931B721
:102ED00082809307F00F6384F60A2D71232A9110E4
:102EE00023282111B28423263111130600102E89C4
:102EF000AA89930530020A85232E1110232C8110F4
:102F000036844132A2852685EFD00048131785000C
:102F1000935785003365F7002310A100A68522860C
:102F200013053100930434002301810093F4F40F5E
:102F3000EF70931B93F6F40089C64D04158C9374BF
:102F4000F40F1C02A697A6850A8517C60300130670
:102F5000E6E3238007F01D3D26868A854E85EF70C7
:102F6000B318230099008320C11103248111832405
:102F70004111032901118329C110156182808280CA
:102F8000130101CD23248132232291322A84AE847D
:102F9000130620038145480023261132DD302686A2
:102FA000A2856809EFD0700D1305D109EF80E36A9F
:102FB00093150501C1811305D109EFD0901897C56C
:102FC00003009385E5061305D109EFD0605C1DC5AC
:102FD000054597C5030093852506EFD0A03E17252C
:102FE0000020034595ABEF6040668320C132032487
:102FF00081328324413213010133828097C503005B
:103000009385C5041305D109EFD0805819CD97C514
:103010000300938525040545EFD0C03A172500200D
:103020000345B5A7EF602065C9B797C50300938531
:1030300065031305D109EFD0A0550DC13717004026
:103040008327C70AA16697C5030093852502D58FFC
:103050002326F70A2545EFD0E03641BF97C5030088
:10306000938585011305D109EFD0805211CD371713
:1030700000408327870AA16697C503009385450012
:10308000D58F2324F70AF9B797C503009385C5FFA9
:103090001305D109EFD0C04F11CD3717004083275A
:1030A000C70A97C503009385E5FE93E7072023260B
:1030B000F70A4DB797C503009385C5FE1305D109DF
:1030C000EFD0004D11CD371700408327870A97C5F1
:1030D00003009385E5FD93E707202324F70A9DBFAE
:1030E00097C503009385C5FD1305D109EFD0404A6C
:1030F00011CD371700408327870A896697C50300DB
:103100009385C5FCD58F2324F70AA9B797C503007B
:10311000938585FC1305D109EFD0804711CD371772
:1031200000408327C70A896697C50300938585FBFE
:10313000D58F2326F70A39BF97C50300938545FB32
:103140001305D109EFD0C04411C9371700408327B8
:10315000870CA166D58F2324F70C41BD97C50300CA
:10316000938585F91305D109EFD0804211C937172E
:1031700000408327C70CA166D58F2326F70CB5B571
:1031800097C503009385C5F71305D109EFD04040DB
:1031900011C59727002023A3079281BD97C503007F
:1031A0009385C5F61305D109EFD0803E01C5EF70B8
:1031B000202A25BD97C50300938505F61305D1097F
:1031C000EFD0003D01C5EF70C02E05B597C50300D7
:1031D000938545F51305D109EFD0803B01C5EF700C
:1031E000401B21B597C50300938585F41305D109CC
:1031F000EFD0003A01C5EFA0D00AC5BB97C50300C8
:10320000938585F31305D109EFD0803809C50545AD
:10321000EFA08020D9BB97C50300938565F2130505
:10322000D109EFD0E03619C10145DDB797C50300DC
:10323000938585F11305D109EFD08035E31705DAC1
:1032400097C503009385C5F01305D109EFD040342D
:10325000E31D05D897C50300938505F01305D10933
:10326000EFD0003301CDB716004083A7860C056769
:1032700013070780D98F23A4F60C85BB97C50300DD
:10328000938505EE1305D109EFD0803001CDB71637
:10329000004083A7C60C056713070780D98F23A6B4
:1032A000F60CA1B397C50300938505EC1305D1096E
:1032B000EFD0002E01C91305D10EEF702360EF107F
:1032C000813025B397C50300938585EA1305D1099D
:1032D000EFD0002C01C5EF10413201BB97C50300B0
:1032E0009385C5E91305D109EFD0802A01C5EF10F8
:1032F000013AE5B997C503009385C5E81305D109DF
:10330000EFD0002901CD19469305D10E4800EF708A
:10331000A35D4800230501003125C1B997C503000D
:103320009385C5E61305D109EFD0802609C511455F
:10333000EFE060405DB997C503009385A5E51305EF
:10334000D109EFD0E02401CDEF60B0112A8697C5F6
:1033500003009385A5E42545EFD0801B79B197C57F
:103360000300938525E41305D109EFD060220DC534
:103370003018930521000A85EF60C076031781039A
:10338000831621000316010097C50300938505E20B
:103390002545EFD0E01791B997C50300938505E265
:1033A0001305D109EFD0C01E01C5EF00D17935B9A1
:1033B00097F50300938545EE1305D109EFD0401D25
:1033C0000DC13D469305D10E17150020130545C0CC
:1033D000EF70835197170020A38307C0EF90201749
:1033E00029B197C503009385A5DD1305D109EFD059
:1033F000201A0DC92C1805461305D10EEFD0205BFD
:103400000348B1038347A103034791038346810324
:103410000306D10E97C50300938505DB2545EFD044
:10342000200FE1B697C50300938505DB1305D1098D
:10343000EFD0001601C94145EFE0C02A1945EF80E1
:10344000904B65B60346D109A547130606FD1376D2
:10345000F60FE3ECC7B897170020A388C76497C599
:103460000300938525D8CDBD411106C6EF80C06607
:10347000B240AA8617C70300130747971716002004
:10348000130606B597C5030093858597114541013D
:103490006FD00008317122DD4AD906DF26DB4ED716
:1034A00052D556D35AD103470500930710042A89F1
:1034B0002E846315F73A0347150093074005631FF1
:1034C000F738034725009307E0056319F7382E8680
:1034D000AA852545EFC070791306D003A2854A85D9
:1034E000EFD04011AA84635A05003546A2854A856B
:1034F000EFD04010AA84634505089389D4FF930751
:10350000100363CF37074E86930539006808EF80B4
:10351000A3181C11BE9917CA0300130AEAA7238E29
:1035200009F6D28A81494D4B83254A006808EFD0BD
:1035300020060DC18E09D69983D709004947636FCC
:10354000F70017C703001307A7858A07BA979C439C
:10355000BA9782878509210AE39869FD97C5030018
:103560009385C5A225452DAA9305F4FF858D138566
:103570001400C20581460146C1814A95EF20D07AE8
:10358000FA506A54DA544A59BA592A5A9A5A0A5B72
:10359000296182809305F4FF858D13851400C2058F
:1035A000C1814A95EFF0DF9DE1BF1306F4FF058E60
:1035B000138514004206418297C503009385C562B6
:1035C0004A95EFD0A010171400201304244C29C5ED
:1035D00097C50300938505848808EF80E306880873
:1035E000EF80A3071316050141828C081385C17A69
:1035F000EF90B01397C50300938585841145EFC004
:10360000705C1C40414593E7170017170020232FDB
:10361000F746EFD07030ADB797C5030093850583AB
:103620001145EFC0305A7D55EFD0F0311C40F99B69
:1036300017170020232CF744A1B73D3591B7130687
:10364000F4FF058E138514004206418297C50300DE
:10365000938585594A95EFD060071714002013040D
:10366000E44231C11C4097B503009385E57E88088C
:1036700093E7170017170020232AF740EF70D37C39
:103680008808EF70937D131605018C08418213851D
:10369000C17AEF90900997B503009385A57D1145F8
:1036A000EFC05052F1BD97B503009385657D880842
:1036B000EF7093798808EF70537A131605018C0820
:1036C00041821385C17AEF9050061C4097B50300E4
:1036D0009385C57CF99B171700202329F73AC1B7BA
:1036E000EF80A03E971700209387473AE84FEF609E
:1036F000D373AE862A8697B503009385E57A114584
:10370000EFC01061B5BDEF6060259DBD17C6030019
:103710001306064E97B503009385C5791145EFC092
:10372000305FB9BDEF80C04197B5030093854579FF
:103730003DF597B503009385A57995B70945EFA0A9
:10374000602BAA84EF60736E2A86AE86254597B5F6
:10375000030093852579EFC0B05B97B7030093878B
:10376000276B8843A685171400201304649EEF601E
:1037700073012320A422EF80905803250422EF60D8
:10378000D36AAE862A8697B503009385657685BF92
:1037900081450D45EF60D02BEF8040332A8697B5E9
:1037A00003009385A5779DBF81451945EF60502A99
:1037B000814513055002EF60B02997B5030093854A
:1037C000E5761D45EF60D028EF80A0302AC6EF8057
:1037D0000031B2462A87170600201306667F97B588
:1037E00003009385E5741145EFC0905251BB171744
:1037F00000200357A7B7971600209386869F1706C9
:1038000000201306E67C97B503009385A574E1BFFD
:103810008547171700202303F7B6EF80504E97B562
:10382000030093856574A5BD17170020034707B5EE
:10383000854797B503009385A573E312F7E6C5B7EF
:103840009717002093878724A84FEF60135EAE86FA
:103850002A8697B503009385257255B50146A28542
:103860004A85EF60A07C29BBB1472300F500938710
:103870001600A300F5002301B5002A878D4711C269
:10388000B9EE0146814605069375F60F63EBF50424
:103890003306F70013852700850793F7F70F2300FA
:1038A000D600BA971375F50FB5462380D7002A972F
:1038B0002300070082803305B60003450500850517
:1038C0002380A70013F5F50F9307350093F7F70F43
:1038D000BA97E362D5FE8D0693F7F60F5DB7814583
:1038E000D5B7B305C70083C50500AE9693F6F60FAE
:1038F00059BF797122D42304B1002A84A304C100E2
:103900008946300093050008680006D6B13F1316BB
:1039100005016C0022854182EF00713EB2502254B5
:10392000456182801D71AA851946480086CEA2CCC9
:10393000231201002303010002C402C602C802CA06
:1039400002CCEFC090668D4650009305A00A280077
:10395000213F131605012A846C0828004182EFC01C
:103960005060980893171400BA977408228697C578
:103970000300938525951545238607FCEFC0503934
:10398000F6406644256182801171A6DB1306C003F0
:10399000AA8481450A8586DFA2DDCAD9EFE07FEEE1
:1039A0001306C00381456818EFE0BFED13068007DA
:1039B0008145A818EFE0FFEC2685EF10615E19ED58
:1039C000268697C50300938525A61545EFC050347C
:1039D000FE506E54DE544E591161828093070003ED
:1039E0002300F1000A878147970500209385455EF3
:1039F000BD463386B700034606008507050723004A
:103A0000C700E398D7FE9717002083C7C713230882
:103A1000F100C54685C71717002013072707C547BC
:103A2000930600028345B70B3306F1008507230098
:103A3000B6000507E398D7FE930600020A869305B1
:103A400000086818153513190501135909014A862C
:103A50006C182A842685EF00912A4A86AC186818CB
:103A6000EFC030509C1906043E94B418268697C5C2
:103A700003009385E59D1545230404F8EFC0502904
:103A800081BF1171A6DB1306C003AA8481450A8594
:103A900086DFA2DDCAD9EFE0DFDE1306C003814571
:103AA0006818EFE01FDE130680078145A818EFE0D5
:103AB0005FDD2685EF10C14E19ED268697C5030000
:103AC000938585961545EFC0B024FE506E54DE54A4
:103AD0004E5911618280930710032300F10097C7AC
:103AE00003009387E7928C4397170020938707FA88
:103AF000A84FEF603305EF60F32D420541819357E6
:103B00008500A300F1002301A100EFA0E06097076A
:103B100000209387E74B83D747069946A301A1006E
:103B200013978700A183D98F0A8693050008681828
:103B30002312F100153B13190501135909012A84B9
:103B40004A866C182685EF00911B4A86AC186818C7
:103B5000EFC03041931714009819BA97B418228611
:103B600097C503009385058B2545238407F8EFC08F
:103B7000301AA1BF2D71232A911023282111232649
:103B80003111AA84AE89328981451306C0036800C9
:103B9000232E1110232C81103684EFE09FCE1306C4
:103BA000C0038145A800EFE0DFCD130690078145F3
:103BB0004801EFE01FCD2685EF10813E0DE52686FA
:103BC00097C50300938545861545EFC07014832083
:103BD000C111032481118324411103290111832977
:103BE000C11015618280930720033D469715002080
:103BF000938575F54E852306F100EF70332751E16B
:103C000097170020238187F4171600201306B6F3B8
:103C100097B503009385056C1545EFC0700F22859D
:103C2000CA85EF00912A05449717002083C7A7F1A2
:103C300099C3EFE020628946700093050008A80050
:103C4000A3068100153113190501135909014A868C
:103C5000AC002A842685EF00910A4A864C01A80010
:103C6000EFC030301C0206043E945401268697B5FE
:103C700003009385A5711545230204F8EFC0500990
:103C8000B9B79717002083C707ECA5E739C0854768
:103C9000171700202309F7EA17170020130707DF7B
:103CA0008147BD463386F9000346060085070507B0
:103CB000230DC70AE398D7FE97170020238D07E846
:103CC00017160020130636E897B503009385856321
:103CD000A1B717160020130616E797B503009385C2
:103CE000A5641545EFC0D002CA850145EF00F11D5E
:103CF00025BF17160020130616E597B50300938518
:103D0000E5651545EFC0D000CA850145EF00F11B00
:103D1000014419BF1D71A2CCCAC8D6C286CEA6CA9C
:103D2000CEC6D2C4DAC05EDE62DC66DA6AD86ED68F
:103D30002A842E89B28A02CC231E0100EF00D11CF6
:103D400093178501E18763D90702228697B503009F
:103D5000938545651545EFC0A07BF6406644D64483
:103D60004649B649264A964A064BF25B625CD25CEB
:103D7000425DB25D256182809374F50F2685EF1058
:103D800001212AC68147354C971C0020938C0CD00A
:103D9000130B1003130D2003930DA00AE3FF57FB31
:103DA0003306F90003470600B146631CD706938526
:103DB0004700E3D455FB034A160093893700338745
:103DC0004901635057074A9703470700631B87055C
:103DD000014781463305E6000345150005071377C3
:103DE000F70FAA9693F6F60FE376EAFE330746013D
:103DF000034727006317D70203A78C03B24689073E
:103E0000B30BF900239AE60003C70B006300670BAE
:103E1000636DEB00930700036306F708D29993F7ED
:103E2000F90F850793F7F70F95BF6304A709E31709
:103E3000B7FF19462C0833053901EFC09012194617
:103E400097050020938565562808230F010097D019
:103E5000FF1FE780E01605476313E5022285EF1098
:103E6000810D83C50B0022850546EFF09FA897B50D
:103E700003009385A5561545EFC0C05445B783C5CB
:103E80000B0022850146EFF0DFA6970600209386FF
:103E9000C651300897B503009385C5551545EFC049
:103EA0002067ADBF2285EFF03FAE8DBF2285D13EAA
:103EB000B5B783463600CA95268622856539B9BFCF
:103EC000411122C421649305048099460146254589
:103ED00006C697D0FF1FE78000CF930504802244D9
:103EE000B2409946138601852945410117D3FF1F2A
:103EF000670063CD99E10145828075DD011152C4EF
:103F000003DA418526CA93548A008504A204C204B8
:103F1000C18056C2B38A4441C20A22CC4AC82E8606
:103F20002E842A8997B5030093850562254593DA87
:103F30000A014EC606CE93890185EFC0605D63ED30
:103F40008A0883D5418593F7F50FB1CF8D6783D567
:103F5000418593870780A2864A86BE95294597D0DA
:103F6000FF1FE78040C61375F50F29ED83D7490081
:103F70001566A297239AF18403D7418583D72185BB
:103F80006309F70063F3E700B297998F139607016F
:103F90004182254597B503009385855CEFC0405766
:103FA0001375F40F0DA08D6793870780930600109B
:103FB0000146BE95254597D0FF1FE780C0C0137509
:103FC000F50F49D50145F2406244D2444249B24915
:103FD000224A924A05618280B3079440D297C20771
:103FE000C183A18303C74900850793F7F70F939611
:103FF000870011EB9386170093740AF0A206C2049F
:10400000C206C180C18283D7218563F6F40033875D
:104010009600E3C9E7FA0D6A130A0A800146B385E0
:104020004401254597D0FF1FE780E0B91375F50FD0
:1040300051F983D54185A2864A86D29505B74111AB
:1040400022C41384018522858145194606C697D06E
:10405000FF1FE78060F19307B0FA2300F4008D356D
:104060002244B24097B5030093858546254541011A
:104070006FC04035A165411199461386018593852E
:1040800005802D4506C697D0FF1FE780C0B303C744
:1040900001859307B00A6303F7005537B24083D612
:1040A000418503D6218597B5030093852543254592
:1040B00041016FC0E04583D741A90145638F0710D7
:1040C00003D561A96366F50023AA01A80145828092
:1040D0003385A740D1473355F5021375F50F01E538
:1040E000239A01A88280130101BD23248142232643
:1040F00011422322914223202143232E3141232C9C
:104100004141232A514195471374F50F63F3A700EA
:104110001544228697B50300938545462545EFC093
:10412000203F01498144938981A9514AA14A93774B
:10413000F90F03D561A9170700200347071863EC9F
:104140008704D1473304F4022A94239B81A8A14712
:10415000631FF706A6850808EF40C07A03D761A958
:1041600083D741A96364F70023AA01A88320C14231
:104170000324814203D541A98324414203290142FA
:104180008329C141032A8141832A41413335A0005B
:10419000130101438280B30749031408AA97CE97FD
:1041A00033859600631E5701BE85EF4030152317F7
:1041B000A1008357E1000509BE94C204C18085BFF8
:1041C000AA851306E1003E85EFA0C054DDB7268620
:1041D0000C080145EF60D02451B78280011106CE52
:1041E00022CC26CA4AC84EC691E901442285F24033
:1041F0006244D2444249B24905618280AA8975D598
:1042000083D7418503D621852E849564638AC700B0
:104210006374F60015673A961D8E93140601C180EB
:10422000268697B503009385A5272545EFC0402E28
:10423000938714F06356F4009307F00F63EA970036
:1042400097B50300938545272545EFC0602C71BFC6
:1042500083D4418533878400956763C7E700A285CF
:104260004E854939B13959B7156933099940420921
:1042700013590901CA854E85B53925D9ED75A6951D
:10428000A295C205239A0184C18133852901D1BF3A
:1042900083D641A981EA97B5030093856528254512
:1042A0006FC0401203D661A94111918E97B50300EA
:1042B00093850528254506C6EFC08025138741A9AB
:1042C0008355070083D761A9138581A99D8DC205F8
:1042D0003E95C1812137B24023AA01A841018280C5
:1042E000411183D741A922C426C206C6AE9713073F
:1042F0000020AA842E84635AF700593F97B5030023
:104300009385C51F2545EFC0E00B83D741A91385D1
:1043100081A92286A6853E95EF60035D03D641A95B
:10432000229642062244B24092444182239AC1A876
:1043300097B503009385051E254541016FC0401DBB
:10434000011126CA06CE22CC4AC84EC652C456C255
:10435000814459C1D1C183D7218503D44185638D5F
:10436000870663F587081D8C42044180AE892A893F
:10437000228697B503009385250F0145EFC04019AC
:10438000A28463F38900CE84C2040D6A83D7218599
:1043900003D74185C180938A0185130A0A8063FA95
:1043A000E704A6864A86B38547012D4597D0FF1FAF
:1043B000E780608183D72A00A6972399F184EFF0E4
:1043C0003FB083D6418503D6218597B503009385F9
:1043D000E50A2545EFC0C013F240624426854249F4
:1043E000D244B249224A924A0561828015673A94C2
:1043F0009DBF15671D8FB385470163D5E400A68671
:104400004A8665B79569B389F9406D743E94C209CF
:1044100093D909012694CE864A8642042D4597C039
:10442000FF1FE780407A4180A28633063901D2859A
:104430002D452399018497C0FF1FE780C07883D75B
:104440002A003E94239981849DBF9387018503D5DB
:10445000270083D747001D8D1335150082803971E1
:1044600026DA4AD84ED652D456D25AD006DE22DCAC
:1044700062CE66CC2A89EF70431E9374F50F814992
:10448000254BE54A17BA0300130ACA1491ECF250FF
:1044900062544E85D2544259B259225A925A025B02
:1044A000724CE24C2161828003470900930707FDAB
:1044B00093F7F70F637CFB009307F7F993F7F70F78
:1044C00063E2FA06930797FA93F7F70F13948701BD
:1044D0006184FD14230089002685EF50131D2A8670
:1044E000AE8603250A0083254A0093F4F40F0509DC
:1044F000EF0011662AC422852EC6EF50131B2246F8
:10450000B246EF40334B2A8C4E85AE8CEF501321D0
:104510002A86AE866285E685EF30B35EEF503313B0
:10452000AA89ADB79306F7FB93F6F60F8147E3EF41
:10453000DAF8930797FC49BF411122C406C68307E6
:1045400095022A8499C713059502EF6023372389C2
:10455000A1088307D41291CB1305D412EF60A335C1
:10456000EF60631793870106C8D3B240224441012C
:104570008280011126CA9304150022CC97B503004E
:104580009385050B2A84268506CE4AC84EC6EFC001
:104590002008631E051097B503009385A50926859D
:1045A000EFC000076302050E85448307D4036386CA
:1045B000070C13059402EF60633085491379F50FFA
:1045C0001305D4036387340F8947638CF418EF60B5
:1045D000E32EA38AA108631A390179468145138520
:1045E000710B238B0184EFE0CFA98307D40885C327
:1045F0001305D408EF60832C03C761859307170068
:10460000238BF18493870106BA97A38BA7048307B2
:10461000D40D85C31305D40DEF60432A03C761850C
:1046200093071700238BF18493870106BA97A38B16
:10463000A7048307D41285C31305D412EF6003289F
:1046400003C7618593071700238BF18493870106C5
:10465000BA97A38BA7048307D41785C31305D41770
:10466000EF60C32503C7618593071700238BF1848F
:1046700093870106BA97A38BA704F2406244D24401
:104680004249B2490561828097B503009385C5FA16
:104690002685EFB0F077E31905F0268597B503007E
:1046A0009385C5F9EFB0D0768944E31005F08144D5
:1046B000EDBDEF60A320238BA108631A9900794612
:1046C000814513859109238B0184EFE08F9B83073C
:1046D000D40885C31305D408EF60431E03C7618562
:1046E00093071700238BF18493870106BA97A38C55
:1046F000A7028307D40D85C31305D40DEF60031CF7
:1047000003C7618593071700238BF1849387010604
:10471000BA97A38CA7028307D41285C31305D412BA
:10472000EF60C31903C7618593071700238BF184DA
:1047300093870106BA97A38CA7028307D417E38E49
:1047400007F21305D417EF60631703C7618593075A
:104750001700238BF18493870106BA97A38CA702D5
:1047600029BFEF60A315A38BA10801BF411122C48B
:1047700006C6830795072A8499C713059507EF6036
:10478000E313A389A1088307D40899C71305D408A4
:10479000EF60C312238AA1088307540B91CB130542
:1047A000540BEF604311EF5013739387010688D7C2
:1047B000B240224441018280411122C406C603074F
:1047C00015058147014419C703444505130404FD39
:1047D0001374F40F0307550619C713055506EF6048
:1047E000E30D9377F50F1374B40F0D476311E402D3
:1047F0001D47637EF70097070020938727299C4376
:1048000037072000D98F170700202321F728B2404F
:10481000224441018280011126CA8146B2840146A8
:1048200052C456C206CE22CC4AC84EC62A8AAE8A86
:10483000EF40637B41CD9307E0046386F400930768
:1048400030056395F40897B90300938929DC03A622
:10485000090083A649005285D685EF40B3153794E9
:104860009800EF50C35E130404682A8933758502EB
:10487000EF50C36A03A6090083A64900EF40631BFB
:1048800097B70300938707D99043D443EF40631A47
:104890002A8A33558902AE8AEF5043682A86AE864B
:1048A0005285D685EF30F32513073005AE87639523
:1048B000E400B7070080AD8FF2406244D244424921
:1048C000B249224A924ABE850561828001458147EC
:1048D000E5B7011126CA8146B284014652C456C2C8
:1048E00006CE22CC4AC84EC62A8AAE8AEF40A36FB3
:1048F00041CD930750046386F400930770056395D8
:10490000F40897B90300938969D003A6090083A628
:1049100049005285D685EF40F30937949800EF504F
:104920000353130404682A8933758502EF50035F2B
:1049300003A6090083A64900EF40A30F97B7030021
:10494000938747CD9043D443EF40A30E2A8A335533
:104950008902AE8AEF50835C2A86AE865285D68560
:10496000EF30331A13077005AE876395E400B7077D
:104970000080AD8FF2406244D2444249B249224A9B
:10498000924ABE850561828001458147E5B713578C
:1049900085009357050113D885009376F50F011113
:1049A0001377F70F93F7F70F618593F5F50F1378EA
:1049B000F80F99C211C3B9E3230CD100A30CE10095
:1049C000230DF100A30DA10003459101834781014F
:1049D0000347A1012205A30E01014207C98F230E3F
:1049E000B1000345B101D98F0347D1018345C1010E
:1049F000620522075D8DD98D056182803295137520
:104A0000F50F13138501135383415D466357660801
:104A100061463363C30285071376D70F114593F7B9
:104A2000F70F6305A6002545631AA6007946637F44
:104A3000F60205071377F70F85470DA8094663129D
:104A4000C7041386067D93084006B3681603638582
:104A5000080013F5360011C5130500193366A602C8
:104A600019EE75466374F60085470D47230CD10097
:104A7000A30CE100230DF100A30D6100B1B7714655
:104A8000D5B77D46E374F6FEB147E314F7FA850621
:104A900093F6F60F85470547D1BFE35903FC61053F
:104AA000FD171313850193F7F70F13538341DDFFB0
:104AB0007D171377F70F1146F947E309C7FA19462F
:104AC000E306C7FA2546E303C7FA2D46E300C7FA13
:104AD00089476316F7021386067D93074006B3677E
:104AE000F60291C793F83600F547E38108F893077B
:104AF0000019B367F60293B71700F10785BFFD47AA
:104B000035F7FD1693F6F60F31478DB7834715003D
:104B1000034705000111A2075D8F834725008346E7
:104B2000350083454500C207D98F0347550022CC85
:104B300017F4FF1F1304C46103062420E2062207B2
:104B400033E5F600D98D06CE9935135885001356F6
:104B5000050193D7850013F7F50F93F7F70F9356D9
:104B600085011376F60F9375F80F1375F50FEF8027
:104B7000304583471400054793F7B70F6397E70065
:104B80006244F24005616F803053F2406244056137
:104B9000828049712324811613840106830734001F
:104BA00083C8510603C8410603C7210683C6110600
:104BB00003C6010697B50300938545AA481023262E
:104BC00011162322911623202117232E3115EF6071
:104BD00053234810EF60732818485C480306040309
:104BE0003AC03EC2030814035C441844541097B5FD
:104BF00003009385A5A83695EF60B3204810EF60B9
:104C0000D3255C103E958307640017B60300130696
:104C100066A489C717B60300130646A397B5030019
:104C20009385855FEF60F31D4810EF601323544CAC
:104C3000104C5C1097B50300938545A53E95EF6039
:104C4000531C4810EF607321030634035C103E953B
:104C500097B50300938545A4EF60B31A4810EF6041
:104C6000D31F03072403AA8448503ACE13840106B5
:104C7000EF50B31B72475C10AE862A8697B50300CF
:104C8000938585A233859700EF60B3174810EF60D6
:104C9000D31C5C1003C6410997B50300938545A258
:104CA0003E95EF6013164810EF60331B5C1097B50C
:104CB00003009385E5A13E95EF6013191389E10781
:104CC000A28497B903009389A9E303C6740519CA9E
:104CD000481032CEEF60731872465C10CE853E9558
:104CE000EF6033128504E39224FF4810EF60F3165F
:104CF0005C1097B503009385259E3E95EF60D31415
:104D000097B403009384C4DF0346940319CA481080
:104D100032CEEF60931472465C10A6853E95EF602C
:104D2000530E0504E31224FF4C102545EFB08069B3
:104D30008320C116032481168324411603290116FA
:104D40008329C11575618280411122C406C626C21D
:104D5000830755012A84B9C7A946938707FDB387FE
:104D6000D70203476501130707FDBA97A381F10630
:104D70000307750183478501130707FD3307D70232
:104D8000938707FD3E972382E1068307950103473A
:104D9000A501938707FDB387D702130707FDBA97CD
:104DA000A382F1068307940281CB1307100463905A
:104DB000E71485472383F1068307D4039384010610
:104DC00099C71305D403EF50132F88C4CCC403062E
:104DD000140509CA8844CC442388C108EFF0BFA356
:104DE00088C4CCC48307540699C713055406EF50F2
:104DF000932C88C8CCC80306940709CA8848CC48B5
:104E0000A388C108EFF0FFAC88C8CCC88307D408DA
:104E100099CF1305D408EF50132A97B7030093874F
:104E200067829043D443EF40E33888CCCCCC8307EF
:104E3000140A99C71305140AEF5053282390A108A8
:104E40008307540BB9C7A946938707FDB387D702D9
:104E50000347640B130707FDBA972381F106030785
:104E6000740B8347840B130707FD3307D70293871F
:104E700007FD3E97A380E1068307940B0347A40B2D
:104E8000938707FDB387D702130707FDBA972380DF
:104E9000F10683853400856703C64106938707E1E1
:104EA0001307C0033307E60283C65106B387F50232
:104EB000BA97B69723A6F10817070020130707BD76
:104EC0001C433A8413F5870039E1038564000547E4
:104ED000631FE50203C7210611EF8844CC44014655
:104EE0008146EF40431005E923830106B9A02383DF
:104EF0000106D9B5FDD175D2EDD293E787001385B0
:104F00000106170700202323F7B8EFF03FC083877F
:104F10006400E1F7D1BF8848CC4801468146EF40A4
:104F2000830C79D183C72106E1D3130680079385CB
:104F30000106138581FEEF50331B03C581C99D47D0
:104F400005053365F5021306800793850106238C5A
:104F5000A1C8930780073305F502938701CA3E95E0
:104F6000EF509318EFF0FFC21C5C2244B240924411
:104F700017070020232CF7B41306800781451385FB
:104F8000010641016FD0FF8F0171232C811E232A5E
:104F9000911E1306101E2A84AE8468008145232EBC
:104FA000111E2328211FEFD0DF8D81458147014746
:104FB00001465148CD485D436341960899C1230697
:104FC000F1001306A002A6852285EFB0A0628347F8
:104FD000C10051473386A440B387E702930515000B
:104FE00078007D16A29585073305F700EF50D30FA3
:104FF0001306A002A685228503491400EFB0805F46
:10500000894763C4A7080345C100D1473305F502AA
:105010007C0005053E95EFF08FC4631DA904194679
:1050200097A503009385855F1305D100EFB0006A53
:105030002DC56800EFF05FD135A8B306C40003C5E5
:105040000600930665FD93F6D60F91EA850793F760
:10505000F70F6361F302854501470506B1BFB386CB
:105060000703130E011FF296BA96A38EA6E005075A
:10507000E3D5E8FE8320C11F0324811F8324411F41
:105080000329011F1301012082803307F400034725
:10509000070085073349E900ADB7194697A5030016
:1050A000938505581305D100EFB0406239E91946E0
:1050B00097A50300938505571305D100EFB0006154
:1050C0000DED194697A50300938505561305D100EC
:1050D000EFB0C05F19ED194697A5030093850555FC
:1050E0001305D100EFB0805E51D56800EFF0CFEC32
:1050F00051B76800EFF0EFC7B5BF6800EFF00FE7FA
:1051000095BF6800EFF04FC3B5B7757122C526C3D0
:105110004AC1CEDED2DCD6DADAD806C7AA892E8911
:10512000814401448147130A4002854A354B139755
:1051300004014183636C2701BA402A449A440A4916
:10514000F659665AD65A465B496182803387990080
:105150000347070063004703639C5701631D670112
:105160009C18A297A2856800238E07F8313D8147DD
:10517000850475BF01449C18A29705041374F40FAD
:10518000238EE7F893373406E5B7411106C6138539
:1051900081C983470500130780078145B387E7026C
:1051A00013068007A1073E95EFD0AFEDB2408145D1
:1051B000214541016FB0906D138581C9834705007A
:1051C00013078007B387E702A1073E958280138506
:1051D00081FE8280397126DA97A403009384043D0E
:1051E00062CC66CA328CB68C9040D44006DE22DC9B
:1051F0004AD84ED652D456D25AD05ECE6AC842C091
:1052000046C217A403001304E43A3AC43EC6EF3082
:10521000737A1040544017AD0300130D2D3AEF3050
:1052200053012247B2479040D4402A8AAE8A3A8539
:10523000BE85EF30337810405440EF30837F2A89A9
:10524000AE892A86AE865285D685EF402342032654
:105250000D0083264D00EF30F375EFF0507A2A8B66
:10526000AE8B5285D685EFF070702A8AAE8A4A8559
:10527000CE85EFF0B06F024892482A894286C686F2
:10528000AE896285E685EF40633E9040D440EF30C2
:10529000737210405440EF30C37903260D0083260B
:1052A0004D00EF303371EFF090752A84AE844A865A
:1052B000CE865285D685EF30F36F2286A686EF30F4
:1052C000736F2286A686EF30F36E2A84AE845A86E8
:1052D000DE865A85DE85EF30F36D2A86AE8622851E
:1052E000A685EF300302EF000139EFF0907A2A86AD
:1052F000AE86EF30030197A703009387A72C904356
:10530000D443EF30336B97A703009387272C904348
:10531000D443EF30336AF2506254D2544259B259F6
:10532000225A925A025BF24B624CD24C424D21619E
:10533000828018419387810D104598C3035745001B
:10534000544590C72392E70058551049D4C7544993
:1053500098CF97A503009385E5290547254590CB70
:10536000D4CB238EE7006FB0E005238A010E828044
:105370001305800783C781C9B387A702938681C9B4
:105380007D55B385F6000387E50025CF197186DECC
:10539000A2DCA6DA03C6410F1387810D19EAA10723
:1053A0003385F60079377955F6506654D65409613D
:1053B0008280032887008328C7005C4B9049184BE4
:1053C000D449884DCC4DEFF0FFE02A86AE862A8482
:1053D000AE84680097A503009385851BEF60632268
:1053E0006C002545EFA0107E17F5FF1F034555E023
:1053F000EF40B32B2286A686EF30735013250500AD
:1054000065B7828097F7FF1F83C7F76881CF97F74B
:10541000FF1F83D727F4FD17C207C1831307A0031B
:105420006375F70023AC018482805971CECE9389D5
:10543000818583A70900D6CA938A81C98507A2D42A
:10544000A6D2D2CCDAC8DEC6E2C4E6C2EAC086D6AC
:10545000CAD023ACF18483C481C9014A130C8007EC
:10546000568497AC0300938C6C17054D9D4B154BE0
:105470003389840356998307E900E1CF03A60C0022
:1054800083A64C000325090283254902EF303347E8
:105490006341050C83470904638DA70B93171A001A
:1054A0005808BA97035789022390E7007C00D297E7
:1054B00023809700050A9904B3E47403E31A6AFB96
:1054C0000357C10183574101998F13D7F741B98F12
:1054D000998F939407011307400BC1806358F7001D
:1054E00093078016B3849740C204C180268697A58F
:1054F00003009385250F0810EF60A3100C102545BD
:10550000EFA0506C938714FFC207C1837947636C87
:10551000F70A0349D100130A80078545014533097D
:105520004903210922994A86EF90700B8344F100C8
:1055300085450145B3844403A104A2942686EF90D7
:10554000100ACA850D45EF30A05DA6850D45EF30E8
:10555000205D83A7090017F7FF1F0357A7DF63E646
:10556000E704EFF0FFE085476311F504930480073B
:1055700003C681C933069602854501452106229658
:10558000EF90F00583C581C9B38595020D45A1054E
:10559000A295EF30E05803C581C933059502210576
:1055A0002295EFF01FD923AC0184B65026549654AF
:1055B0000659F649664AD64A464BB64B264C964C97
:1055C000064D656182809307D002E3F497F8834B20
:1055D000C100930A80078545B38B5B030145138C9B
:1055E0008B00229C6286EF90807F034BD100854523
:1055F0000145330B5B03A29B210B229B5A86EF9044
:10560000007E034AE10085450145330A5A03210A19
:10561000229A5286EF90A07C0349F100854501450E
:1056200033095903210922994A86EF90407B83442C
:10563000010185450145B3845403A104A294268643
:10564000EF90E079E2850D45EF30804DDA850D452C
:10565000EF30004DD2850D45EF30804CCA850D45A9
:10566000EF30004CA6850D45EF30804B83C781C9D4
:10567000B38A570303A74B03A29A83A74A03E31AEB
:10568000F7EC85472380FA04E9B5914763E5C70E37
:1056900017A70300130707050A063A961C42317143
:1056A00022DD4AD94ED706DF26DBBA973684AE898B
:1056B0002A89828797B50300938545731145EFA02A
:1056C0007050CA851145EFA0F04F97B50300938540
:1056D000A5731145EFA0104FFA506A54DA544A5995
:1056E000BA5929618280EDDA9042EF50C05D0146DF
:1056F00097550000938545633D45EF307051E9BFF4
:10570000E1DE2314B40048C003C5A60036869545E3
:10571000EF90E06CD1B7E9D21306C009814548008B
:10572000EFD02F9693078009CE8463F4370193045A
:1057300080094A8697B503009385056F48008D045C
:10574000EF50336CC204C1801C11A6975000A6868E
:1057500097B503009385C56D2545238207F6EFA015
:10576000305B0345B40026864C00EFE05059ADB7DE
:10577000EF30B00A95B78280411106C6EFA08003D2
:10578000B24041016F90D0475D71A6C297D4FF1F10
:105790009384C4359C40A2C486C67D54638087042C
:1057A000AA856800EF50536AEF9090216800EF508F
:1057B000D36A9387C18590439315050197E6FF1F30
:1057C0009386867FC1816800EFF03FEC03C504003B
:1057D000EF30705497D7FF1F23AA8730B640264476
:1057E00096446161828097D7FF1F93872730984343
:1057F000FD576301F702411117B5030013054580FA
:1058000006C65937B240FD5717D7FF1F2320F72E82
:1058100041018280FD5717D7FF1F2329F72C828073
:105820005571130660098145281086C7EFD06F8532
:105830009307510258109306310213062102930573
:10584000110213056102EF709071EFF0FF960303F0
:1058500005039305E0048356610203471102834761
:1058600021020348310283484102034E510217E6E8
:1058700003001306A6976316B30017C603001306AA
:10588000E697830E150313035004032F8500832F1F
:10589000C50097C503009385659663866E0097E5FE
:1058A00003009385A59403230501832345017AC44E
:1058B0001ACC1ECE7EC672C02EC832C297A5030077
:1058C0009385856E17E6FF1F130686702810EF502C
:1058D0005353EF9000782810EF5033589387018688
:1058E0009043931505019386810F2810C181EFF035
:1058F000DFD9BE4069618280411106C623A0B1860E
:1059000001CA1C4223ACF10E8347A6002381F1108B
:1059100083071505B9E30545EFB0D0340545EFB071
:1059200090610545EFB0407F97A50300938505EA98
:105930002545EFA030290545EFB0D05A97F7FF1F56
:105940009387C7149C43B24093E7070117F7FF1FE3
:10595000232EF71241016F90006F1307F003E38CC1
:10596000E7FA13051505EF4073758947E3D5A7FAE4
:10597000B24041018280411122C42A848307140568
:1059800006C626C22E8589C71307F003639CE7026B
:1059900097F7FF1F83C7B78517F7FF1F13071782F6
:1059A00097E6FF1F9386767E17E6FF1F1306D67ACB
:1059B00097A503009385C5EC2244B240924441016F
:1059C0006F50334497E7FF1FA388077897E7FF1FBF
:1059D000A38D077A97E7FF1FA382077E0347040082
:1059E0008547AE8463FAE7009305140517E5FF1FAA
:1059F00013059576EF5053458307140A91CF03475B
:105A00000400894763FAE7009305140A17E5FF1FAE
:105A10001305B577EF5053438307140F91CF034716
:105A200004008D4763FAE7009305140F17E5FF1F85
:105A30001305D578EF5053418307141491CF0347D2
:105A40000400914763FAE70013051414EF4013674D
:105A500097E7FF1FA38DA778014697550000938510
:105A600085A513052003EF30B01AEF60502997E7A2
:105A7000FF1F83C7D77717E7FF1F1307377497E612
:105A8000FF1F9386967017E6FF1F1306F66C97A507
:105A90000300938525E2268505B7411126C206C677
:105AA00022C4034705008947AE8463F7E7029305E4
:105AB00015052A841306200317E5FF1F1305C56289
:105AC000EF50933D1305140AEF40535F97E7FF1F14
:105AD000239EA766EF60301DEF60F02097E6FF1F62
