:04C000006F20007D30
:10C004000000000000000000900000202209002031
:10C01400A9BDF9F594000020000000000000000014
:10C02400960000209800002000000000000000009E
:10C034009A000020000000009C0000200000000086
:10C044009E0000201603002044030020A4000020CA
:10C05400A6000020A8000020AA000020AC000020B8
:10C06400AE000020B0000020C60000205A010020CD
:10C074009E090020B8000020BA000020BC00002067
:10C08400BE000020EE01002082020020C400002037
:10C0940001A001A001A001A001A001A001A001A094
:10C0A40001A001A001A001A001A001A001A001A084
:10C0B40001A001A001A001A001A001A001A001A074
:10C0C40001A001A001A037370040834747009946EB
:10C0D4004111BD8B638CD70231476384E706114756
:10C0E400639EE702A3030100174600000346064FC0
:10C0F40037370040834771006315F6022C0013851F
:10C104000172978001E0E780401809A8834757002F
:10C1140093F7F70F2304F100834781004101730073
:10C12400203083477100834687000C08AE97238C28
:10C13400D7FE83477100850793F7F70FA303F10038
:10C1440055BF280097F001E0E78020E61375F50F4E
:10C15400A303A1000346710055B737370040834756
:10C16400474099464111BD8B638CD70231476384A4
:10C17400E7061147639EE702A30301001746000088
:10C184000346E64537370040834771006315F602DE
:10C194002C0013854173978001E0E780000F09A804
:10C1A4008347574093F7F70F2304F1008347810037
:10C1B40041017300203083477100834687400C0897
:10C1C400AE97238CD7FE83477100850793F7F70F4B
:10C1D400A303F10055BF280097F001E0E780A0EE2B
:10C1E4001375F50FA303A1000346710055B7374734
:10C1F40000408347478099464111BD8B638CD70229
:10C2040031476384E7061147639EE702A3030100F5
:10C21400174600000346963C3747004083477100A9
:10C224006315F6022C0013858174978001E0E78082
:10C23400C00509A88347578093F7F70F2304F1003B
:10C244008347810041017300203083477100834696
:10C2540087800C08AE97238CD7FE8347710085072F
:10C2640093F7F70FA303F10055BF280097F001E0FF
:10C27400E78020F71375F50FA303A10003467100AF
:10C2840055B737470040834747C099464111BD8B96
:10C29400638CD70231476384E7061147639EE70244
:10C2A400A3030100174600000346266437470040F5
:10C2B400834771006315F6022C001385C1759780BE
:10C2C40001E0E78080FC09A8834757C093F7F70F84
:10C2D4002304F10083478100410173002030834728
:10C2E4007100834687C00C08AE97238CD7FE834722
:10C2F4007100850793F7F70FA303F10055BF2800DA
:10C3040097F001E0E780A0FF1375F50FA303A100E8
:10C314000346710055B7411122C6371400408357B4
:10C32400C40993F7074099CBA145014597D001E093
:10C33400E780C09993070040231EF408324441016A
:10C3440073002030B717004003D7E70903D7E70984
:10C354009316170163D50604174700000347877A2D
:10C36400050797460000238FE67817470000130758
:10C37400E76B1843136707409746000023A8E66A53
:10C384001167239FE70803A7470C9166131617014B
:10C394006359060003A7C70C558F23A6E70C730047
:10C3A400203003A7870C558F23A4E70CCDBF411180
:10C3B40022C417440000130464671C4006C613F724
:10C3C40007401DCB13974701634107028D4509457B
:10C3D40097D001E0E780808F914517450000034521
:10C3E4001567973002E0E780406A1C4093F7F7BF77
:10C3F40017470000232CF762974700009387477480
:10C404009C438DCB1C401397470163410702A94508
:10C41400094597D001E0E780608B914517450000FE
:10C424000345F562973002E0E780206697470000F5
:10C4340023A80770B2402244410182804111814601
:10C4440001468145114506C6EF00A077B727004095
:10C4540011472383E780B7F700E003A707D16D9B5B
:10C4640023A8E7D003A707D15D9B23A8E7D07300D7
:10C47400501001000100B240410182804111814607
:10C4840081450146114506C62D2FB72700401147A7
:10C494002383E780B717004003C7E70283C5E70497
:10C4A40083D7870391661377F70F93E5350063E528
:10C4B400D700719B13671700B71700401306700568
:10C4C4002380C704930680FA2380D7040100010067
:10C4D400238207022380C7042380D70401000100BC
:10C4E4002387E7022387B7042380C7042380D70464
:10C4F4000100010003C7B70413670702A385E7041B
:10C504002380070437F700E0832507D193E545002E
:10C514002328B7D0832507D1DD992328B7D073000A
:10C524005010010001002380C7042380D7040100B8
:10C53400010003C7B7041377F70DA385E70423802D
:10C544000704B240410182800111B7F5070022CCF3
:10C554008146E1052A840A86194506CE26CA02C008
:10C5640023120100B92DB717004003C7E70283C5A2
:10C57400E70483D7870391661377F70F93E53500B4
:10C5840063E5D700719B13671700B71700401306C4
:10C5940070052380C704930680FA2380D704010022
:10C5A4000100238207022380C7042380D7040100EB
:10C5B40001002387E7022387B70423800704B7F524
:10C5C40000E003A705D11367470023A8E5D003D5EE
:10C5D40007026577110713750560418D598D420572
:10C5E400418101002380C7042380D7040100010096
:10C5F40003C7F70037F40700B7F400E01367070434
:10C60400A387E70003C7B704610413670702A38580
:10C61400E7042390A70283A704D1DD9B23A8F4D0C9
:10C62400730050100100010013056004352E81468B
:10C634003000A285194502C423160100592322475C
:10C644008247E31AF7FCB7170040130770052380ED
:10C65400E704130780FA2380E7040100010003C7FD
:10C66400B7041377F70DA385E70423800704F2408A
:10C674006244D2440561828001114EC6814601465E
:10C68400AA898145114506CE22CC26CA4AC8152B53
:10C69400B716004083C7E60203C7E60483D68603C1
:10C6A400116693F7F70F1367370063E5C600F19B34
:10C6B40093E717003714004013097005230024057D
:10C6C400930480FA2300940401000100230204026D
:10C6D4002300240523009404010001002307F4022D
:10C6E4002307E40423000404130550025920B7F778
:10C6F40000E003A707D11367470023A8E7D023006E
:10C70400240523009404010001000347F400136787
:10C714000704A307E4002300240523009404010074
:10C7240001002567B3E9E9002310340303A707D107
:10C734005D9B23A8E7D073005010010001008146DF
:10C74400014681451145B52923002405230094049D
:10C75400010001008347640493E717002303F404F2
:10C7640023000404F2406244D2444249B2490561C0
:10C774008280B7170040930670052380D7041307FF
:10C7840080FA2380E7040100010003C6B70413768E
:10C79400F60DA385C70423800704137605024DC252
:10C7A40003C6A700118A1DE22380D7042380E7046F
:10C7B4000100010003C7A700136747002385E700B2
:10C7C4009307004B01000100FD17EDFFB717004070
:10C7D400930670052380D704130780FA2380E704A7
:10C7E400010001007D892394A700010001000100DC
:10C7F4000100238007042380D7042380E704010079
:10C804000100010001003727004093061005A3032F
:10C81400D78023800704B7170040130770052380CF
:10C82400E704130780FA2380E7040100010003C72B
:10C83400B70413670708A385E704238007048280ED
:10C844001376050441C603C6A700418A1DE223806E
:10C85400D7042380E7040100010003C7A70013677E
:10C8640007012385E7009307007D01000100FD1700
:10C87400EDFFB7170040930670052380D704130714
:10C8840080FA2380E704010001001376F5011366A2
:10C8940006042394C7000100010001000100238065
:10C8A40007042380D704130660042380E704631875
:10C8B400C5000100010037270040894689BF0100F7
:10C8C4000100372700409306200591B72380D70441
:10C8D4002380E7040100010003D787001367070CD6
:10C8E4002394E7000DBF411181460146814511455E
:10C8F40006C6C12CB7170040130770052380E70450
:10C90400130780FA2380E7040100010003C76704CA
:10C91400136717002383E70423800704B24041010F
:10C9240082808146014681451145612CB71700403C
:10C93400930670052380D704130780FA2380E70445
:10C94400010001007D562396C7022380D70423806B
:10C95400E7040100010003C767041367170023837A
:10C96400E7042380070401A0BD473305F502010055
:10C974007D1575FD8280411122C426C206C6AA8493
:10C98400014463179400B2402244924441018280DE
:10C9940005041305803E4204C13F4180DDB7B7174B
:10C9A4000040130700032388E70285471747000068
:10C9B4002326F71873002030397122DC4ED656D264
:10C9C40037140040E57AB7F9070026DA52D45AD072
:10C9D4005ECE06DE4AD862CC2A8B916B93040404A3
:10C9E400130A7005910AE1098347E4020347E4044A
:10C9F4008356840393F7F70F1367370063E57601D3
:10CA0400F19B93E7170023804401130980FA2380E4
:10CA14002401010001002302040223804401238035
:10CA24002401010001002307F4022307E404238006
:10CA3400040037F700E0832707D193E74700232852
:10CA4400F7D08357040293F70760B3E76701B3E7AE
:10CA54005701C207C18301002380440123802401BC
:10CA6400010001008346F400130CB40493E60604A9
:10CA7400A307D4008346B40493E60602A305D404B2
:10CA84002310F402832707D1DD9B2328F7D07300FA
:10CA940050100100010013056004F9353000CE8503
:10CAA4008146194502C423160100212A11469745DF
:10CAB400000093852509280011231DD593077005CF
:10CAC4002380F400238024010100010083470C002B
:10CAD40093F7F70D2300FC0023800400F250625406
:10CAE400D2544259B259225A925A025BF24B624CC6
:10CAF40021618280411106C6AD2D5538979001E021
:10CB0400E780608DD5BF2303048015472303E480A9
:10CB140001002302A480828083076480E3CE07FEA1
:10CB240023030480828083076480E3CE07FE0345E9
:10CB34004480828083076480E3CE07FE2302A480BE
:10CB44008280411126C44AC24EC006C61377F50B33
:10CB5400AD47AA892E8995446306F70019456537C0
:10CB6400653F8D444E854537FD59FD146398340166
:10CB7400B240A244124982494101828013550901FD
:10CB84001375F50F453F2209CDB7011126CC06CE0A
:10CB9400B704080051371545BD37713769372AC6C0
:10CBA400A53F32459377150089EB1365150013757E
:10CBB400F50FF240E24405618280FD14E9FC014571
:10CBC400CDBF397126DC4ADA4ED852D656D45AD261
:10CBD4005ED006DE62CE66CCB7E700E07D5783AA5E
:10CBE400070022C603AA470023A0E71823A2E718D8
:10CBF400B7170040130770052380E704130780FA72
:10CC04002380E70483C74704930B75FFB684E207C8
:10CC140093FBFB0F8546AA892E8B3289372400406B
:10CC2400E187015763FA76016308D5008946130743
:10CC340000026313D5000157D98F93F7F70FB71C80
:10CC440000402382FC0411472303E4801305F00F02
:10CC54005D3D094CD135636D7C11B7050700DA954C
:10CC640037870700795563F2E504B3879500636E4F
:10CC7400F702370B0800A94733EB65016399F906FE
:10CC840089E48144513D26850DA0DA850945553D49
:10CC940005090345F9FFFD14050B693D81C493772C
:10CCA400FB0FFDF7DD3569FD7D55B7170040130710
:10CCB40070052380E704130780FA2380E70403C781
:10CCC4004704418B2382E704F250B7E700E023A036
:10CCD400571123A24711E25432445259C259325ACD
:10CCE400A25A125B825B724CE24C21618280A5479E
:10CCF4006395F90685691309F00FB3069900B374B7
:10CD04002B01B6941349F9FFB3749900856B3379F9
:10CD14006901416B9387F9FFB3F7270199E363FC3A
:10CD2400340193D94900C147E3E637FF99BF056948
:10CD3400C1697D19D9B71305800D6388690113058D
:10CD440000026384790113051008CA85DD3B353D73
:10CD540021DD4E99B3843441D9B7DA852D45D533D5
:10CD6400CA94E30099F205097D3BA30FA9FED5BF40
:10CD74009387F9FF93F7F70F6361FC0C83C71C04D7
:10CD840013073008631FF70437070800636BEB04CD
:10CD9400B3079B00B706100063F5D704334BEB00D1
:10CDA40089476393F9068980D549E38C04ECDA85D5
:10CDB4000945413B11090327C9FF91472320E4801A
:10CDC40003076480E34E07FE23033481FD17EDFB64
:10CDD400FD14110B81C49377FB0FE9FF7D3371F5CB
:10CDE400E1B5B717004003C75704B7070800137726
:10CDF400070219E3B78707007955E378FBEA33079D
:10CE04009B00E3FFE7F855B58547E382F9F2DA853D
:10CE14002D45053B9389F4FFE38504E6293393F715
:10CE2400390091EB83260480032709009307490006
:10CE3400E39AE6E43E89CE84F1BFB5476396F900F0
:10CE44001305900BC93135BDB1471305B00AE38B07
:10CE5400F9FE99476391F904B7050800B365BB006F
:10CE64002D45C53181448D4BA149753963967401B3
:10CE7400832704802320F9008504E39834FF832763
:10CE8400048013172B01635507002312F900D5BB47
:10CE94002322F900FDB39D476399F90281451305E7
:10CEA400B0044531BD442320090023220900FD5963
:10CEB4009D3993F77400CA9703C70700FD14398D91
:10CEC4002380A700E39634FF6DBBA1476392F90466
:10CED4006D398144630D0B008D479304C0036308CF
:10CEE400FB009304000563048B0193044004137551
:10CEF400C507E30895D81945393139390545213134
:10CF040026850D3909453D314931E31C05D669BBF8
:10CF140091476399F90013056006F536F53E13054C
:10CF240090090DB7E38F09D4F154A9BB19CD91CD64
:10CF340009CE81473387F500834607003307F500A0
:10CF440085072300D700E317F6FE828019C991C92B
:10CF540009CA910583A7C5FF11057D16232EF5FE89
:10CF6400C5BF828001C919C62A960505A30FB5FE5F
:10CF7400E31DA6FE828081473307F50003070700FF
:10CF840019E33E8582808507C5BF01112E8626CA16
:10CF9400AA84131506019305F004418122CC06CE20
:10CFA40032C6EF1040592A8401C53246A685BD3FDA
:10CFB4002285F2406244D24405618280854715C1CE
:10CFC4008DC105C28147B306F5003387F50083C6DA
:10CFD4000600034707006398E6008507E315F6FE9D
:10CFE40085473E8582808147EDBF9307F6FFBE9556
:10CFF4002A966313C5008280FD1583C715000505B5
:10D00400A30FF5FEFDB7AA87014581CF09CE3E9651
:10D01400850703C7F7FF6317B700E39BC7FE054502
:10D0240082808280014582807971975700009387BE
:10D03400E73B22D4804306D626D24AD04ECE52CCE9
:10D0440056CA5AC85EC662C45DCC37C9C901814B91
:10D05400175A0000130A0A3E975400009384443977
:10D064001309F937975A0000938A0A33B709C0A8FD
:10D07400370B40578357240095E35C44639D0B00B2
:10D08400175700002324F736032CC4002285EF1021
:10D09400A057628499A823A6FB00FDB783270A0042
:10D0A4008297838664011C4463DB06063307F540DC
:10D0B4006367E9089757000023A8072E83552400C7
:10D0C40003450400973002E0E780209C5C4058440C
:10D0D400A9CF1444B6978386640163C5060063E34D
:10D0E4003701DA971CC4A28B3A8449F4975700009D
:10D0F4009387872A9C4B09476378F706F9171757D4
:10D1040000002323F72AB250225492540259F249C0
:10D11400624AD24A424BB24B224C45618280E37749
:10D12400F5F83387F9402A9761B763970B0097574F
:10D13400000023ADE72A89BF23A6EB00B1B7D8507E
:10D1440009CF63DF06003385A74083A70A0163760E
:10D15400F5009757000023A9A724A28B404471B778
:10D16400E3F3A7FECE97C5B79757000023AE072277
:10D1740059BF411122C4175400001304E4241C4075
:10D1840006C626C24AC091C782979757000023ADAE
:10D1940007225C4091C382971C406391071C9757F8
:10D1A400000083C7F740858B9DC797570000A38174
:10D1B4000740175700000347D73F954763FDE70033
:10D1C400EF0010379757000083C7B73EF5178A075B
:10D1D400A2979C438297175900001309294183475A
:10D1E400C900918B99C3EF1060281C4491C38297A6
:10D1F400975400009384441F984017560000034638
:10D20400B6199757000083C7271993961700BA9643
:10D2140083D60600D5CA9757000083C7E71763EF84
:10D22400C70A97570000238907161C406398071202
:10D234009757000083C7173891CF9757000083C7CB
:10D24400573789EB97570000A3860736978003E08A
:10D25400E780409A975700009387C71D9C43638FCC
:10D26400070EB707C0A817570000232FF7126D3B0E
:10D27400975700009387C717DC53EDC31757000077
:10D2840013078711184B9757000083C7B7176367B5
:10D29400F70C175700000347D731954763E0E70CB5
:10D2A4008347C900918BDDEB90409756000083C6FD
:10D2B400B60E63CBD70A2244B240924402494101DC
:10D2C400172302E067008359850793F7F70F9756F2
:10D2D40000002383F60CE3E6C7F235BF86073E97CA
:10D2E400835507002310070097570000239C070E5F
:10D2F400975700009387070D9C431755000003457B
:10D30400A50913172500BA979C43829797570000E5
:10D3140083D7470D175700000347070893C7F7FF44
:10D324007D8D9317170098403E97835707005D8DB6
:10D334002310A7009757000083C7070691C78507E6
:10D3440017570000230AF704175700000347C704C0
:10D354009757000083C75704E375F7ECB2402244A3
:10D364009244024941018280139717003297035770
:10D3740007006DF7850735BFAD6737C70040BD07A8
:10D384002326F7200F100000975700009387C7004B
:10D39400C84F83278726BD66BD0693C7F7FF9983C9
:10D3A4006A052326D7205D8D82804111B71700407E
:10D3B400985F3AC6945F3247E39CE6FE32454101EA
:10D3C400828082800327851163000712411122C4E1
:10D3D40006C68347C5008345C5042A8493F7C70F4F
:10D3E4002306F500834697000356C700139586016C
:10D3F400618563F1C508635A05060345870093F602
:10D40400F607A304D700054693E627006314C50076
:10D4140093E617002306D4005C4389075CC3A30A80
:10D42400B400032504112E864C43090501368327D5
:10D43400841103465401D44303D7C700B296118F15
:10D44400D4C32396E7008947A30DF400034744039C
:10D454009757000083C7E7FA6378F7048347C4004B
:10D4640093E707012306F40081A093E7170023063E
:10D47400F40075B79376F60F635D050203458700E4
:10D48400854513E627006314B50013E61700230649
:10D49400C400A30AD400A30407008547A30DF40025
:10D4A400832784119C43DDF3B240224401454101AA
:10D4B400828093E717002306F400A30AD400A30490
:10D4C4000700032504114C4309058D348327841177
:10D4D40003465401D44303D7C700B296118FD4C373
:10D4E4002396E7008D475DBF05458280975700006E
:10D4F4009387470A9C43411122C406C6858B2A841C
:10D50400C5EF4165130525F5972003E0E780E08129
:10D5140045C58347A5002315F50083270412BDE7FD
:10D524002320A4122322A41285472310F4042320C9
:10D5340005008347640154412316F5000347D400D2
:10D544002304E5000547A304E5001757000013076B
:10D55400E705184F1385170215811C437D151375B4
:10D56400F50F9CC25C43DCC21C479CC65C47DCC60E
:10D574001C4B9CCA5C4BDCCA1C4F9CCE5C4FDCCE63
:10D5840019CD9386060213070702C1BF83274412ED
:10D5940088C3835704042322A412850779B79757B5
:10D5A400000083D7270E850717570000231CF70CAC
:10D5B400B2402244410182808347C400230904000D
:10D5C400054593C747002306F400DDB7834785016B
:10D5D40093F7E70FD5EF83479501DDEB034625016C
:10D5E4008346C50009CA834545031757000003470E
:10D5F40057E163E7E50013F7060141CF014709C688
:10D60400C18A0357651C81C68356A51C369751C32E
:10D614001307C71217550000035585DAB335A7025F
:10D6240037460F00411113060624814622C426C240
:10D6340006C67D543305A702972004E0E78080FEE8
:10D644009757000083C757DCB384A700975700009F
:10D654009387C70203A707098327070963F3870092
:10D664003E84184375FB975700009387A7DC9C43BF
:10D67400829781476364A400B307A440B240224464
:10D68400B3B7970093C7170092443E854101828047
:10D6940081473E858280797126D206D622D44AD02B
:10D6A4004ECE52CC56CA5AC85EC68347350303448D
:10D6B4007513AA843E941374F40F9307400263F61F
:10D6C40087001304B4FD1374F40F03AA841383AA0C
:10D6D400C413A38B841222865285D685972004E036
:10D6E400E780C0EE058915E503CBD41201498149D1
:10D6F400337B6403930B50024A865285D685972068
:10D7040004E0E780A0EC058915C5639169031374EF
:10D71400F90F238B8412B250225492540259F249C5
:10D72400624AD24A424BB24B456182808509E20982
:10D7340093D989410509E31179FDE1BF832785095F
:10D744000356E503797193D60701BD8EC206C182E3
:10D75400358E1357764093575640898B058B5D8FD2
:10D7640093573640918B5D8F93571640A18B5D8FF5
:10D7740093171600C18B5D8F9317360093F707023A
:10D784005D8F931756009355860093F707041E0682
:10D794005D8F1376F60F518F93D7554013D63540CE
:10D7A400118A898BD18F13D67540D18F13D615402A
:10D7B400218AD18F13961500418AD18F1396350093
:10D7C40013760602D18F13965500137606049E0530
:10D7D400D18F93F5F50FCD8FA20745465D8F3307A3
:10D7E400C70222D42A8426D252CC56CA032A8413CE
:10D7F400832AC4135AC806D63697420741839357DF
:10D804007740135557400989858BC98F1355374085
:10D814001189C98F135517402189C98F1315170012
:10D824004189C98F1315370013750502C98F131564
:10D83400570093558700137505041E07C98F137786
:10D84400F70FD98F13D5354013D755401189098B5C
:10D85400498F13D57540498F13D515402189498FB8
:10D86400139515004189498F1395350013750502E9
:10D87400498F13955500137505049E05498F93F53B
:10D88400F50F4D8F2207D98FB387C7024AD04ECEEA
:10D894005EC662C4B697C207C18313D7774013D557
:10D8A40057400989058B498F13D537401189498F12
:10D8B40013D517402189498F139517004189498F42
:10D8C4001395370013750502498F1395570093D5A7
:10D8D4008700137505049E07498F93F7F70FD98FB7
:10D8E40013D5354013D755401189098B498F13D56A
:10D8F4007540498F13D515402189498F139515001B
:10D904004189498F1395350013750502498F139585
:10D914005500137505049E05498F93F5F50F4D8F3A
:10D924002207D98FB387C702130650025285D685C2
:10D93400B697BD8E93940601C18033F6C402137B5F
:10D94400F60F972004E0E78060C805890DED834752
:10D95400D41201498149B3849702130C5002C18047
:10D964004A865285D685972004E0E78020C605893B
:10D97400937BF90F11C563863403850993F9F90F75
:10D984000509E31F89FD230B6413B25022549254FA
:10D994000259F249624AD24A424BB24B224C456187
:10D9A40082805E8BCDB7011197570000938707CD16
:10D9B40022CC03A4470B26CA06CE2AC42EC685440D
:10D9C40019E40145F2406244D244056182808347F0
:10D9D400910003471400858B6304F7000044CDB71E
:10D9E40019469305A10013052400EFF02FDDE3177A
:10D9F40095FE0545C1BF011122CC17540000130444
:10DA0400A4BC18402AC62EC432C206CE3C4B93F79F
:10DA1400F7F73CCB977003E0E780801A18409756DD
:10DA240000009386A6B73C4B93E707083CCB9C4287
:10DA34003245A24523A007000347150003482500EB
:10DA440022074208429703480500429703483500DD
:10DA54006208429798D70347550003486500220798
:10DA640042084297034845004297034875006208FC
:10DA74004297D8D7034795000348A50022074208D8
:10DA840042970348850042970348B50062084297CD
:10DA940098DB0347D5000348E50022074208429774
:10DAA4000348C5000345F500429762052A97D8DB71
:10DAB40003C7150003C52500220742052A9703C59D
:10DAC40005002A9703C5350062052A9798CF03C736
:10DAD400550003C56500220742052A9703C5450082
:10DAE4002A9703C5750062052A97D8CF03C7950006
:10DAF40003C5A500220742052A9703C585002A9776
:10DB040003C5B50062052A9798D303C7D50003C59A
:10DB1400E500220742052A9703C5C50083C5F50021
:10DB24002A97E2052E97D8D3D843759BD8C3D843F8
:10DB340013671700D8C398431367170098C3124696
:10DB440098425C43858BD1E71C4F01452300F600C6
:10DB54009C429C4FA183A300F6009C429C4FC1832E
:10DB64002301F6009C429C4FE183A301F6009C42F2
:10DB7400D84F2302E600D84F2183A302E600D84FF2
:10DB840041832303E600D84F6183A303E60098533F
:10DB94002304E60098532183A304E60098534183A9
:10DBA4002305E60098536183A305E600D8532306B2
:10DBB400E600D8532183A306E600D8534183230704
:10DBC400E600DC53E183A307F600F24062440561FA
:10DBD40082800100B5B7175700001307679C1443F0
:10DBE400411122C49C5E4AC006C6998326C2858B15
:10DBF4003A84175900001309699AD1CB9C5E975453
:10DC040000009384A49A93F7F7F99CDE1757000059
:10DC14000347279A93070008631BF700832709002B
:10DC24009C4393F70704175700002304F79883C70E
:10DC3400040093F707049DC3974700009387877FE9
:10DC44009C4382979757000023AAA79683C7040092
:10DC540093F7F70B17570000230AF79483C7440080
:10DC640093F707048DE7854717570000A302F7943D
:10DC740097570000938747959C43096798C71307F4
:10DC840000FC975600002385E692D844F8D31C4044
:10DC9400985F1183058B09CB985F3D9B98DF0547FF
:10DCA400975600002386E690985F1D83058B11CB61
:10DCB400985F1377F7F798DF854717570000230914
:10DCC400F78E83270900D8430583058B19C7D843EA
:10DCD400759BD8C3D843799BD8C3B240224492449D
:10DCE400024941018280397106DE16DC1ADA1ED837
:10DCF4002AD62ED432D236D03ACE3ECC42CA46C8E8
:10DD040072C676C47AC27EC0F935F250E2525253DA
:10DD1400C2533255A255125682567247E2475248B0
:10DD2400C248324EA24E124F824F216173002030FE
:10DD34009757000093874789944397570000938728
:10DD4400E78603C70700058B11CB97570000238193
:10DD5400078697570000A38D0784828003C71700A6
:10DD6400058B65F7F85271FF83C75700DDB7175865
:10DD740000001308E882032708001C5F9583858B45
:10DD8400D1E709C61C5BBD832300F60085CA83273F
:10DD94000800985B4607935767016356070093E7AB
:10DDA40007C0C207C18303970600C207C18709C71A
:10DDB400BA970947B3C7E7022390F60085CD834796
:10DDC40015008DCB9746000083C6A67E93F6060405
:10DDD4001387970089478DCA3A95034705008546FE
:10DDE40099471376F7066311D60262076187B9472C
:10DDF400634C0700832708009C5FED838D8B1747D6
:10DE04000000A30AF77A81473E8582808547EDBFEB
:10DE1400411122C406C6174400001304E47A1840D2
:10DE240049E9AE877453FDFE3E85B28597470000ED
:10DE3400238F0776977003E0E78080AE9747000052
:10DE4400938707769C43B70680009843558F98C301
:10DE5400D857719BD8D797470000A38B077497476F
:10DE64000000A38507741C40094798C3B7F700E076
:10DE740003A707D16D9B23A8E7D003A707D15D9B18
:10DE840023A8E7D07300501014401747000013076D
:10DE9400E77183472700858B89EB83473700858BA0
:10DEA400D9C79747000023850770B2402244410137
:10DEB40082808D476310F502974700009387476E71
:10DEC4009C43B70680009843558F98C3D857719BDD
:10DED400D8D75DBF8547E319F5FAB567BD075CC7B9
:10DEE4000F1000001C400967094698C7130700F883
:10DEF40097460000238EE66A174700001307476A17
:10DF04001443984231830D8B6319C7001307E04310
:10DF1400F8D33D673D07D8C785BF984231830D8B41
:10DF240001E713076019EDB71307E01BD5B7FC52DF
:10DF3400ADF3A5BF5D7152DC174A0000130A4A66AF
:10DF440003270A0086C6A2C4A6C2CAC04EDE1C436A
:10DF5400974900009389096C174900001309C966A1
:10DF640093F7F7E793E707081CC383A6090037076D
:10DF7400CEFF7D179C46130680022A84F98F9CC627
:10DF840083270900130700082800B8CBAE84930543
:10DF94001008EFE03FFD977003E0E78060C29770E0
:10DFA40003E0E78060CF83270A009376F41F370FDE
:10DFB400FCFF23A40700984B4E88CA881367F70315
:10DFC40098CBF84F130510F8D285137707E0558FD7
:10DFD400F8CF9843F576FD16758F98C39843B70626
:10DFE4003300B70204001377F7E798C39843930309
:10DFF400401F7D1F1377F7E71367071098C303A724
:10E004000900930F800285491C47D58F1CC78327BD
:10E0140009001307900D3400B8CB1149014713537D
:10E02400370026938347030013767700B3D7C7409E
:10E03400858BDDCF9C41832E0800239C070423900D
:10E04400070603AECE02137EDEFF23A6CE0383AE05
:10E054000700137EF70793FE0EF833EECE0123A0DC
:10E06400C70103AE4702336E5E0023A2C70383AE2B
:10E074000800014E23A27E0603DA070663074E0357
:10E0840003AE0703038A0600135EFE00620E135EEE
:10E094008E416358CA0103AE0703135EFE0023805A
:10E0A400C60103DE0706137EFE0F03AA4E066306AF
:10E0B4000A0003DA8705E37F49FB03AE4702337E98
:10E0C400EE0123A2C70383870600635CF400034EBA
:10E0D40003003396C9001346F6FF3376C6012300C6
:10E0E400C3003E8663D3A7002A8613158601618583
:10E0F40005071377F70F8506E313F7F3B6402644B5
:10E1040096440649F259625A61618280974600003A
:10E114009386864B9C42D847131617016355060213
:10E12400984713161701635006027D57B8D717474F
:10E13400000013076726584F050717460000232BD6
:10E14400E626116798C798470D83058B1DC31747AB
:10E1540000000347C745136717001746000023084C
:10E16400E644130700F8174600002303E64421475A
:10E1740098C79847058B09CF1747000003471743F3
:10E184001367170017460000A302E642054798C725
:10E1940098470983058B09E798470583058B31CF99
:10E1A40098471746000013066640174500001305FC
:10E1B400253F0983058B63030710184118433183F6
:10E1C4000D8B75EBAC4B184E93F505020347170006
:10E1D400CDCD79EF13077006D8CF03470600136738
:10E1E4001700174600002303E63C114798C718415F
:10E1F4005C57F19B93E717005CD79C4298479316B2
:10E20400370163D606029746000083C6664EC18A6C
:10E214001747000013078746C5CE03474707136710
:10E224000702974600002385E64C056798C7984780
:10E234009316270163D106021747000003474737A7
:10E2440062076187635707000547974600002381EB
:10E25400E636096798C798479316070163D60602FE
:10E264009746000083C6D648858A174700001307DF
:10E27400E740ADCE034757071367270097460000D2
:10E28400A388E646216798C7828029D78545631508
:10E29400B7001307B00689B789456315B70013079C
:10E2A400F0061DBF8D456315B700130730072DB762
:10E2B4001307500715B71307600739BF0347360024
:10E2C4001367170017460000A303E62E094739BF5A
:10E2D400834647070946BD8A6388C6000347470744
:10E2E4008D463D8BE313D7F4114725BF834657076B
:10E2F400918AC9DA034757071367870041B7397111
:10E3040006DE16DC1ADA1ED82AD62ED432D236D03D
:10E314003ACE3ECC42CA46C872C676C47AC27EC0E1
:10E32400F533F250E2525253C2533255A2551256AB
:10E3340082567247E2475248C248324EA24E124FAA
:10E34400824F21617300203017470000130707280C
:10E354008346B7019747000083C7172A4C4BB697EB
:10E36400FD8B33D7F50097460000A381F626974628
:10E374000000A383F628058B15EF17470000034719
:10E38400F727B3F7E702814601471305000233D6A6
:10E39400E500058A1378F70F19CA6397D7009747E2
:10E3A4000000A38507238280850693F6F60F0507F0
:10E3B400E31FA7FC8280974700009387A7079C432D
:10E3C400011122CC4EC606CE26CA4AC852C456C231
:10E3D40082979747000093876721804781496305A7
:10E3E400A406BE84974700009387870003876701CC
:10E3F4003E8963550706018D135455009747000065
:10E4040083C7671E9379F501636DF402370AC0A8C8
:10E41400B70A4057153F9C449746000083C6A61C84
:10E42400139756003E9783076901158C63C507004F
:10E434006363470156979747000023ADE71AE37BD0
:10E44400D4FC1604B3693401F24062444E85D244CC
:10E454004249B249224A924A05618280E37D85F8A5
:10E46400B707C0A833848740229579B7974700003F
:10E47400938747FC9C43411122C406C626C2829757
:10E48400974700009387871680476309A406BE84D4
:10E49400974700009387C7F58387670163D807040C
:10E4A400018D135455009747000083C7C713636752
:10E4B400F404593D98449747000083C7C7129396C4
:10E4C400570036971D8C9746000023A5E612E37289
:10E4D400F4FE2244B2409244174500000345150F50
:10E4E40081454101177303E0670023C2E37A85FA8B
:10E4F400B707C0A833848740229565B7B240224449
:10E50400924441018280974700009387A710984363
:10E51400B75702009387079F83260709139656006F
:10E5240063580600832607091396660063440600B1
:10E53400FD17FDF3828071C5AA870145E9C58D07E2
:10E54400C207C183F19BC207C18313074003636FF2
:10E55400F702174700001307E711084317470000A5
:10E564001307C71014436398A60217470000130744
:10E5740027E8185B014541CB4111C20706C6054592
:10E58400DD8D0297B24001454101828017470000AA
:10E594001307070ED9B70357650035E30357450042
:10E5A400636FF704B306F7402146637CD602032861
:10E5B4000500938687001D8FAA96611717460000F1
:10E5C4000356E6DD2392E60023A00601239306000A
:10E5D40014C12312F500130786FF97460000239009
:10E5E400E6DC2313B5009745000083D545DBB387EC
:10E5F400F540174700002314F7DA2105828008410B
:10E604009DB70145828082800DC1974700009387A2
:10E61400670603A30700974700009387270583A88D
:10E62400070081469A8763E31701828003A80700E5
:10E63400636DF50A636BA80A13878700E367E5FE39
:10E6440003D66700216705076317E60003C7C19572
:10E654000507238EE194974500009385E5D303D6FF
:10E66400470003D76500239307003297420741838D
:10E67400174500002315E5D2638A67021745000099
:10E68400130505FF08416303F50203D5660019ED80
:10E6940083D7460023A0060121073E962106239234
:10E6A400C60097470000239CE7CEB6879843E30E45
:10E6B40017F7974600009386A6FB9442E307D7F624
:10E6C40083566700BDF283D64700035647001843BC
:10E6D400A106B2962392D70098C383D76500A107F9
:10E6E40017470000231DF7CA8280BE86C28725BF54
:10E6F400011197470000938767F822CC03A4C70B46
:10E7040026CA4AC84EC606CEAA84130925008549DE
:10E7140015C083C7140003473400858B6304F700D6
:10E72400405CFDB71946930544004A85EFE01F8914
:10E73400E31835FF2285F2406244D2444249B2498B
:10E7440005618280411197470000938727F322C413
:10E7540003A4C70B26C24AC006C693042500054974
:10E7640001E82285B2402244924402494101828058
:10E77400A6851305A402971004E0E780609AE302DB
:10E7840025FF405CF1BF411197470000938707EFD5
:10E7940022C403A4C70B26C24AC006C6930425009C
:10E7A400054901E82285B2402244924402494101CC
:10E7B4008280A6851305A401971004E0E7804096A3
:08E7C400E30225FF405CF1BFF8
:10E7D0009751FF1F938181B117A1FF1F1301818200
:10E7E00017E5FFFF130545829725FF1F9385858158
:10E7F0001746FF1F130686FD63FAC5008322050036
:10E8000023A0550011059105E3EAC5FE1715040084
:10E810001305850E9745FF1F938545FB13860185DC
:10E8200063FAC5008322050023A055001105910558
:10E83000E3EAC5FE138501859785FF1F938505F6DD
:10E840006377B500232005001105E36DB5FEFD4299
:10E85000739002BC8D4273904280B7220000938275
:10E86000828873A002309712FF1F9382A27993E2ED
:10E87000320073905230971201009382E2ED739050
:10E880001234730020303D432A876373C3029377A9
:10E89000F700BDEFADE5937606FF3D8ABA960CC34F
:10E8A0004CC30CC74CC74107E36BD7FE11E2828013
:10E8B000B306C3408A069702000096966780A600BA
:10E8C0002307B700A306B7002306B700A305B700C8
:10E8D0002305B700A304B7002304B700A303B700C0
:10E8E0002303B700A302B7002302B700A301B700B8
:10E8F0002301B700A300B7002300B700828093F57F
:10E90000F50F93968500D58D93960501D58D61B74A
:10E91000939627009702000096968682E78086FAF3
:10E920009680C1171D8F3E96E374C3F8A5B7336771
:10E93000B500FD530D8B79E7B7877F7F9387F7F796
:10E9400010419441B372F6003363F600BE92B3E215
:10E9500062006397720C6318D6065041D441B372BB
:10E96000F6003363F600BE92B3E262006398720A67
:10E97000631BD60410459445B372F6003363F6006A
:10E98000BE92B3E262006391720A631ED6025045E2
:10E99000D445B372F6003363F600BE92B3E2620070
:10E9A000639A72086311D60210499449B372F60053
:10E9B0003363F600BE92B3E26200639372085105BE
:10E9C000D105E30FD6F61317060193970601631CD2
:10E9D000F7001357060193D706013305F7409375E7
:10E9E000F50F91E982804183C1833305F740937528
:10E9F000F50F91E182801377F70F93F7F70F330547
:10EA0000F74082800346050083C60500050585059D
:10EA10006313D60065FA3305D6408280110591054F
:10EA2000E312D6FE014582802105A105E31CD6FC38
:10EA3000014582803105B105E316D6FC014582808F
:10EA40004105C105E310D6FC01458280014711460E
:10EA50004148B386E5008147B308F50083C8080044
:10EA60008507C10623A816FFE398C7FE1107110505
:10EA7000E31107FF8280935785019CC1935705419D
:10EA800093F7F70FDCC19357854093F7F70F137592
:10EA9000F50F9CC5C8C582801C41411113070501B3
:10EAA0003EC05C413EC21C453EC45C453EC6939799
:10EAB00025001408B69783A707FF85051105232EA7
:10EAC000F5FE8D89E315E5FE41018280397122DC76
:10EAD00041661384819D06DE26DA4AD84ED652D48A
:10EAE00056D25AD05ECE93050501A2863708FF00A4
:10EAF0007D1683070500034735001105E207D98F0E
:10EB00000307D5FF9106420733770701D98F030723
:10EB1000E5FF2207718FD98F23AEF6FEE39BA5FC9C
:10EB200081499144930A010117BB0300130B4B7DEC
:10EB300097BB0300938B4B7A130AC00293F7340000
:10EB4000032904004844BDE78A85353785450A8591
:10EB5000A1370A871C43110793F6F70093F7070FB5
:10EB6000DA97B69783C70700232EF7FEE394EAFEF1
:10EB7000024592476205C2075D8DB2475D8DA2478F
:10EB8000A2075D8D93972900DE979C4385093D8DF3
:10EB90003345250108C885041104E39144FBF25074
:10EBA0006254D2544259B259225A925A025BF24BE1
:10EBB000216182803345A90008C8F1BF797122D450
:10EBC00026D24AD04ECE52CC56CA06D62A8A93991D
:10EBD00045000144938A819D13090101C144B30793
:10EBE0003401D69788438A85793533078A008A8726
:10EBF0001443904391074107B18E2328D7FEE39930
:10EC000027FF1104E31D94FCB25022549254025980
:10EC1000F249624AD24A45618280397122DC13048A
:10EC2000050106DE22878147C1460C433306F10009
:10EC300011070CC24C4710083E960CC24C4F1010E6
:10EC40003E960CC29107E392D7FE85450A85A93509
:10EC50008945080891358D4508103D3D814741475C
:10EC6000B306F10094421104232ED4FE1408BE967C
:10EC7000944254C41410BE969442910754CCE3912C
:10EC8000E7FEF250625421618280060593770510F9
:10EC900089C71375F50F1345B5018280411106C66A
:10ECA000ED37B2404101D5B781471148C14833869D
:10ECB000F500B306F500014703AE06003303E60096
:10ECC00005072300C301C106E31807FF9107E3907E
:10ECD00017FF82809306050117B6030013064662EC
:10ECE00013050505138706FF1C43110793F5F7006D
:10ECF00093F7070FB297AE9783C70700232EF7FE4F
:10ED0000E394E6FEC106E31FD5FC8280411122C4D4
:10ED100006C626C285472E846301F502894763181B
:10ED2000F5002244B24092442E854101B9BF8D477F
:10ED3000631BF5002E85913F298C2285B240224429
:10ED4000924441018280A5476315F5002E85B937AD
:10ED5000DDB7AD47631AF5002E8589373D37AA84A4
:10ED600022852537258DC9BFB5476316F5002E8549
:10ED70003537AA84FDB7B947E311F5FC2E85393F35
:10ED8000AA842137A98C228509373344950075B7A9
:10ED90006382051493F7F500639E07121571D6C3BD
:10EDA000AA8A3285A2CDA6CB86CFCAC9CEC7D2C584
:10EDB000DAC15EDF62DD66DB6AD96ED73284AE848B
:10EDC000EF701375C147631EF500228501330149B9
:10EDD000130A010697BB0300938B8B66294C634192
:10EDE0009902FE406E44DE444E49BE492E4A9E4A78
:10EDF0000E4BFA5B6A5CDA5C4A5DBA5D2D6182801B
:10EE0000338B2A010C105A859131814508107D33CE
:10EE100085490810C135081009351C10D2863E8777
:10EE200010434107C10623A8C6FE032647FF23AAB5
:10EE3000C6FE032687FF23ACC6FE0326C7FF23AE0C
:10EE4000C6FEE31FEAFC17B703001307675B03283E
:10EE50000700832D4700032D8700832CC7005284B1
:10EE6000138607010C4042853ECE3ACC32CA42C8D6
:10EE7000713D0C482AC66E85513DB2460C501104B6
:10EE8000A98E6A8536C65935B2464C54A98E668518
:10EE900036C6AD3DB246F2475246358D88C391071E
:10EEA00042486247E310F6FC4107B287E391EBFA70
:10EEB000CE85081085091933E39D89F50810193DA1
:10EEC0000810A13BA9450810D539DA850810E93B9F
:10EED000410931B782809307F00F6384F60A2D71E0
:10EEE000232A911023282111B284232631111306DD
:10EEF00000102E89AA89930530020A85232E11104D
:10EF0000232C811036844132A2852685EFC0F0493A
:10EF100013178500935785003365F7002310A10070
:10EF2000A685228613053100930434002301810055
:10EF300093F4F40FEF70A30693F6F40089C64D0422
:10EF4000158C9374F40F1C02A697A6850A8517B634
:10EF500003001306E64E238007F01D3D26868A85B2
:10EF60004E85EF70C303230099008320C111032451
:10EF7000811183244111032901118329C1101561D5
:10EF800082808280130101D72324812823229128A3
:10EF90002A84AE84130620038145480023261128C5
:10EFA000DD302686A2856809EFD0800E1305D109D1
:10EFB000EF70135693150501C1811305D109EFD0E8
:10EFC000A01997B503009385E5711305D109EFC02A
:10EFD000905D1DC5054597B5030093852571EFC06C
:10EFE00090401765FF1F034545A5EF60C03583209E
:10EFF000C128032481288324412813010129828008
:10F0000097B503009385C56F1305D109EFC0B059BB
:10F0100019CD97B503009385256F0545EFC0B03C2A
:10F020001765FF1F034565A1EF60A034C9B797B509
:10F0300003009385656E1305D109EFC0D0560DC14D
:10F04000371700408327C70AA16697B50300938549
:10F05000256DD58F2326F70A2545EFC0D03841BF4F
:10F0600097B503009385856C1305D109EFC0B053A4
:10F0700011CD371700408327870AA16697B5030093
:10F080009385456BD58F2324F70AF9B797B503000D
:10F090009385C56A1305D109EFC0F05011CD37171C
:10F0A00000408327C70A97B503009385E56993E776
:10F0B00007202326F70A4DB797B503009385C56946
:10F0C0001305D109EFC0304E11CD3717004083270B
:10F0D000870A97B503009385E56893E70720232403
:10F0E000F70A9DBF97B503009385C5681305D1093D
:10F0F000EFC0704B11CD371700408327870A896610
:10F1000097B503009385C567D58F2324F70AA9B760
:10F1100097B50300938585671305D109EFC0B04803
:10F1200011CD371700408327C70A896697B50300BA
:10F1300093858566D58F2326F70A39BF97B50300D7
:10F14000938545661305D109EFC0F04511C93717FE
:10F1500000408327870CA166D58F2324F70C41BD7F
:10F1600097B50300938585641305D109EFC0B043BB
:10F1700011C9371700408327C70CA166D58F2326F6
:10F18000F70CB5B597B503009385C5621305D10992
:10F19000EFC0704111C59767FF1F23AF078A81BD7C
:10F1A00097B503009385C5611305D109EFC0B03F42
:10F1B00001C5EF60706E25BD97B5030093850561AD
:10F1C0001305D109EFC0303E01C5EF60107305B5DE
:10F1D00097B50300938545601305D109EFC0B03C96
:10F1E00001C5EF60306121B597B503009385855F58
:10F1F0001305D109EFC0303B01C5EFA0E01BC5BB33
:10F2000097B503009385855E1305D109EFC0B0392A
:10F2100009C50545EF90B031D9BB97B5030093857B
:10F22000655D1305D109EFC0103819C10145DDB77F
:10F2300097B503009385855C1305D109EFC0B036FF
:10F24000E31705DA97B503009385C55B1305D1096C
:10F25000EFC07035E31D05D897B503009385055BB6
:10F260001305D109EFC0303401CDB716004083A794
:10F27000860C056713070780D98F23A4F60C85BB7E
:10F2800097B50300938505591305D109EFC0B03137
:10F2900001CDB716004083A7C60C0567130707808A
:10F2A000D98F23A6F60CA1B397B503009385055714
:10F2B0001305D109EFC0302F01C91305910DEF607F
:10F2C000534BEF00B11B25B397B5030093858555CC
:10F2D0001305D109EFC0302D01C5EF00711D01BB31
:10F2E00097B503009385C5541305D109EFC0B02B22
:10F2F00001C5EF003125E5B997B503009385C553E6
:10F300001305D109EFC0302A01CD19469305910D9F
:10F310004800EF60D348480023050100E12BC1B944
:10F3200097B503009385C5511305D109EFC0B027E8
:10F3300009C51145EFD0303D5DB997B50300938500
:10F34000A5501305D109EFC0102601CDEF60A064D0
:10F350002A8697B503009385A54F2545EFC0701DFC
:10F3600079B197B503009385254F1305D109EFC0F7
:10F3700090230DC53018930521000A85EF60C04920
:10F3800003178103831621000316010097B50300BC
:10F390009385054D2545EFC0D01991B997B5030068
:10F3A0009385054D1305D109EFC0F01F01C5EF008E
:10F3B000E16435B997B503009385C54B1305D109B1
:10F3C000EFC0701E0DC92C1805461305910DEFC036
:10F3D000705F0348B1038347A1030347910383464A
:10F3E00081030306910D97B50300938525492545B3
:10F3F000EFC03014EDBE97B5030093852549130582
:10F40000D109EFC0501A01C94145EFD0702B194501
:10F41000EF806061E9BE0346D109A547130606FDEA
:10F420001376F60FE3E5C7BC9757FF1F238FC7601E
:10F4300097B503009385454615B7411106C6EF8081
:10F440000007B240AA8617B70300130767051756CF
:10F45000FF1F130626B297B503009385A505114536
:10F4600041016FC0100D317122DD4AD906DF26DB64
:10F470004ED752D556D35AD10347050093071004EF
:10F480002A892E846314F73A034715009307400531
:10F49000631EF738034725009307E0056318F73824
:10F4A0002E86AA852545EFC0607E1306D003A2856F
:10F4B0004A85EFC09015AA84635A05003546A28597
:10F4C0004A85EFC09014AA84634505089389D4FF48
:10F4D0009307100363CF37074E86930539006808FA
:10F4E000EF70F3061C11BE9917BA0300130A0A162F
:10F4F000238E09F6D28A81494D4B83254A0068083C
:10F50000EFC0700A0DC18E09D69983D7090049470B
:10F51000636FF70017B703001307C7F38A07BA979B
:10F520009C43BA9782878509210AE39869FD97B5BC
:10F5300003009385E510254525AA9305F4FF858DE5
:10F5400013851400C20581460146C1814A95EF200A
:10F55000506FFA506A54DA544A59BA592A5A9A5A88
:10F560000A5B296182809305F4FF858D1385140061
:10F57000C205C1814A953934E9BF1306F4FF058EEF
:10F58000138514004206418297C50300938545CF39
:10F590004A95EFC010151754FF1F1304244929C5BD
:10F5A00097B50300938545F28808EF704375880886
:10F5B000EF7003761316050141828C081385C1751F
:10F5C000EF90002897B503009385C5F21145EFC071
:10F5D00080611C40414593E717001757FF1F232701
:10F5E000F744EFD0C034B5B797B50300938545F124
:10F5F0001145EFC0405F7D55EFD040361C40F99B70
:10F600001757FF1F2324F742A9B7053D99B71306E3
:10F61000F4FF058E138514004206418297C503004E
:10F62000938505C64A95EFC0D00B1754FF1F1304EE
:10F63000E43F31C11C4097B50300938525ED880850
:10F6400093E717001757FF1F2322F73EEF70236B36
:10F650008808EF70E36B131605018C08418213854F
:10F66000C175EF90E01D97B503009385E5EB11455B
:10F67000EFC06057F9BD97B503009385A5EB8808E7
:10F68000EF70E3678808EF70A368131605018C0814
:10F6900041821385C175EF90A01A1C4097B50300F5
:10F6A000938505EBF99B1757FF1F2321F738C1B747
:10F6B000EF70105F9757FF1F93874737A84FEF6092
:10F6C0002362AE862A8697B50300938525E9114506
:10F6D000EFC02066BDBDEF50707BA5BD17C603000F
:10F6E000130686BA97B50300938505E81145EFC068
:10F6F000406485B5EF70506197B50300938585E749
:10F700003DF597B503009385E5E795B70945EF907B
:10F71000D03FAA84EF60C35C2A86AE86254597B5A4
:10F720000300938565E7EFC0C06097B70300938738
:10F7300067D98843A6851754FF1F1304A49BEF5075
:10F74000D36F2320A422EF80E06E03250422EF6014
:10F750002359AE862A8697B503009385A5E485BF15
:10F7600081450D45EF60E074EF70B0532A8697B580
:10F7700003009385E5E59DBF81451945EF60607302
:10F78000814513055002EF60C07297B50300938561
:10F7900025E51D45EF60E071EF7010512AC6EF704E
:10F7A0007051B2462A871746FF1F1306A67C97B5ED
:10F7B0000300938525E31145EFC0A05759BB1757A8
:10F7C000FF1F0357E7B49756FF1F9386C69C174643
:10F7D000FF1F1306267A97B503009385E5E2E1BF84
:10F7E00085471757FF1F230DF7B2EF80A06497B529
:10F7F00003009385A5E2A5BD1757FF1F034747B236
:10F80000854797B503009385E5E1E312F7E6C5B7B1
:10F810009757FF1F93878721E84BEF60634CAE86B5
:10F820002A8697B50300938565E055B50146A28504
:10F830004A85EF60C04531BBB1472300F50093878F
:10F840001600A300F5002301B5002A878D4711C2D9
:10F85000B9EE0146814605069375F60F63EBF50494
:10F860003306F70013852700850793F7F70F23006A
:10F87000D600BA971375F50FB5462380D7002A979F
:10F880002300070082803305B60003450500850587
:10F890002380A70013F5F50F9307350093F7F70FB3
:10F8A000BA97E362D5FE8D0693F7F60F5DB78145F3
:10F8B000D5B7B305C70083C50500AE9693F6F60F1E
:10F8C00059BF797122D42304B1002A84A304C10052
:10F8D0008946300093050008680006D6B13F13162C
:10F8E00005016C0022854182EF00C12CB2502254E8
:10F8F000456182801D71AA851946480086CEA2CC3A
:10F90000231201002303010002C402C602C802CA76
:10F9100002CCEFC0E06A8D4650009305A00A280093
:10F92000213F131605012A846C0828004182EFC08C
:10F93000A064980893171400BA977408228697B5A4
:10F940000300938565031545238607FCEFC0603EE1
:10F95000F6406644256182801171A6DB1306C00360
:10F96000AA8481450A8586DFA2DDCAD9EFE0BFF10E
:10F970001306C00381456818EFE0FFF01306800707
:10F980008145A818EFE03FF02685EF00D14C19ED36
:10F99000268697B50300938565141545EFC0603939
:10F9A000FE506E54DE544E5911618280930700035D
:10F9B0002300F1000A8781479745FF1F9385855BE8
:10F9C000BD463386B70003460600850705072300BA
:10F9D000C700E398D7FE9757FF1F83C7A7102308D8
:10F9E000F100C54685C71757FF1F13072704C547F2
:10F9F000930600028345970B3306F1008507230029
:10FA0000B6000507E398D7FE930600020A86930521
:10FA100000086818153513190501135909014A869C
:10FA20006C182A842685EF00E1184A86AC186818FD
:10FA3000EFC080549C1906043E94B418268697B5EE
:10FA400003009385250C1545230404F8EFC0602EB0
:10FA500081BF1171A6DB1306C003AA8481450A8504
:10FA600086DFA2DDCAD9EFE01FE21306C00381459D
:10FA70006818EFE05FE1130680078145A818EFE002
:10FA80009FE02685EF00313D19ED268697B50300EE
:10FA90009385C5041545EFC0C029FE506E54DE5451
:10FAA0004E5911618280930710032300F10097B72C
:10FAB0000300938727018C439757FF1F938707F70E
:10FAC000E84BEF509373EF60431C4205418193571D
:10FAD0008500A300F1002301A100EF905075974726
:10FAE000FF1F9387274983D747069946A301A100A3
:10FAF00013978700A183D98F0A8693050008681899
:10FB00002312F100153B13190501135909012A8429
:10FB10004A866C182685EF00E1094A86AC186818F9
:10FB2000EFC08045931714009819BA97B41822862D
:10FB300097B50300938545F92545238407F8EFC061
:10FB4000401FA1BF2D71232A9110232821112326A4
:10FB50003111AA84AE89328981451306C003680039
:10FB6000232E1110232C81103684EFE0DFD11306F1
:10FB7000C0038145A800EFE01FD11306900781451F
:10FB80004801EFE05FD02685EF00F12C0DE52686D9
:10FB900097B50300938585F41545EFC08019832040
:10FBA000C1110324811183244111032901118329E7
:10FBB000C11015618280930720033D469755FF1FB2
:10FBC000938555F24E852306F100EF70831551E1C0
:10FBD0009757FF1F238887F01756FF1F130696F0CD
:10FBE00097B50300938545DA1545EFC0801422854B
:10FBF000CA85EF00E11805449757FF1F83C787EEBA
:10FC000099C3EFD0D05A8946700093050008A80028
:10FC1000A3068100153113190501135909014A86FC
:10FC2000AC002A842685EFF0F0784A864C01A800C3
:10FC3000EFC080341C0206043E945401268697B51A
:10FC400003009385E5DF1545230204F8EFC0600E3D
:10FC5000B9B79757FF1F83C7E7E8A5E739C08547BE
:10FC60001757FF1F2300F7E81757FF1F130707DC7D
:10FC70008147BD463386F900034606008507050720
:10FC8000230CC70AE398D7FE9757FF1F238407E684
:10FC90001756FF1F130616E597B503009385C5D1C8
:10FCA000A1B71756FF1F1306F6E397B50300938518
:10FCB000E5D21545EFC0E007CA850145EF00410CCC
:10FCC00025BF1756FF1F1306F6E197B5030093856E
:10FCD00025D41545EFC0E005CA850145EF00410A6E
:10FCE000014419BF1D71A2CCCAC8D6C286CEA6CA0D
:10FCF000CEC6D2C4DAC05EDE62DC66DA6AD86ED600
:10FD00002A842E89B28A02CC231E0100EF00210B27
:10FD100093178501E18763D90702228697B503000F
:10FD2000938585D31545EFC0C000F6406644D644A0
:10FD30004649B649264A964A064BF25B625CD25C5B
:10FD4000425DB25D256182809374F50F2685EF00D8
:10FD5000710F2AC68147354C975CFF1F938C0CCDE1
:10FD6000130B1003130D2003930DA00AE3FF57FBA1
:10FD70003306F90003470600B146631CD706938596
:10FD80004700E3D455FB034A1600938937003387B5
:10FD90004901635057074A9703470700631B8705CC
:10FDA000014781463305E600034515000507137733
:10FDB000F70FAA9693F6F60FE376EAFE33074601AD
:10FDC000034727006317D70203A74C03B2468907EE
:10FDD000B30BF900239AE60003C70B006300670B1F
:10FDE000636DEB00930700036306F708D29993F75E
:10FDF000F90F850793F7F70F95BF6304A709E3177A
:10FE0000B7FF19462C0833053901EFC0E016194633
:10FE10009745FF1F9385A5532808230F01009710CE
:10FE2000FF1FE780E01905476313E5022285EF0015
:10FE3000E17B83C50B0022850546EFF09FA897B5AF
:10FE400003009385E5C41545EFB0F05945B783C568
:10FE50000B0022850146EFF0DFA69746FF1F938631
:10FE6000064F300897B50300938505C41545EFB0DC
:10FE7000506CADBF2285EFF03FAE8DBF2285D13EE5
:10FE8000B5B783463600CA95268622856539B9BF3F
:10FE9000411122C4216493050480994601462545F9
:10FEA00006C69710FF1FE78000D293050480224406
:10FEB000B240994613860185294541011713FF1F5A
:10FEC000670063D099E10145828075DD011152C45C
:10FED00003DA418526CA93548A008504A204C20429
:10FEE000C18056C2B38A4441C20A22CC4AC82E8677
:10FEF0002E842A8997B50300938545D0254593DA4A
:10FF00000A014EC606CE93890185EFB0906263ED7B
:10FF10008A0883D5418593F7F50FB1CF8D6783D5D7
:10FF2000418593870780A2864A86BE95294597100A
:10FF3000FF1FE78040C91375F50F29ED83D74900EE
:10FF40001566A297239AF18403D7418583D721852B
:10FF50006309F70063F3E700B297998F13960701DF
:10FF60004182254597B503009385C5CAEFB0705C03
:10FF70001375F40F0DA08D6793870780930600100B
:10FF80000146BE9525459710FF1FE780C0C3137536
:10FF9000F50F49D50145F2406244D2444249B24985
:10FFA000224A924A05618280B3079440D297C207E1
:10FFB000C183A18303C74900850793F7F70F939681
:10FFC000870011EB9386170093740AF0A206C2040F
:10FFD000C206C180C18283D7218563F6F4003387CE
:10FFE0009600E3C9E7FA0D6A130A0A800146B38551
:10FFF000440125459710FF1FE780E0BC1375F50FFE
:020000021000EC
:1000000051F983D54185A2864A86D29505B741111B
:1000100022C41384018522858145194606C697109E
:10002000FF1FE78060F49307B0FA2300F4008D35DA
:100030002244B24097B503009385C5B425454101DC
:100040006FB0703AA1654111994613860185938579
:1000500005802D4506C69710FF1FE780C0B603C771
:1000600001859307B00A6303F7005537B24083D682
:10007000418503D6218597B50300938565B1254554
:1000800041016FB0104B83D781A80145638F0710E2
:1000900003D5A1A86366F50023A401A801458280C9
:1000A0003385A740D1473355F5021375F50F01E5A8
:1000B000239401A88280130101BD232481422326B9
:1000C00011422322914223202143232E3141232C0C
:1000D0004141232A514195471374F50F63F3A7005B
:1000E0001544228697B50300938585B42545EFB066
:1000F0005044014981449389C1A8514AA14A937748
:10010000F90F03D5A1A81747FF1F0347471563EC55
:100110008704D1473304F4022A94239581A8A14788
:10012000631FF706A6850808EF40804D03D7A1A8F6
:1001300083D781A86364F70023A401A88320C14268
:100140000324814203D581A883244142032901422B
:100150008329C141032A8141832A41413335A000CB
:10016000130101438280B30749031408AA97CE976D
:1001700033859600631E5701BE85EF40E067231765
:10018000A1008357E1000509BE94C204C18085BF68
:10019000AA851306E1003E85EF903069DDB726861B
:1001A0000C080145EF60005851B78280011106CE5E
:1001B00022CC26CA4AC84EC691E901442285F240A3
:1001C0006244D2444249B24905618280AA8975D508
:1001D00083D7418503D621852E849564638AC70021
:1001E0006374F60015673A961D8E93140601C1805C
:1001F000268697B503009385E5952545EFB07033C6
:10020000938714F06356F4009307F00F63EA9700A6
:1002100097B50300938585952545EFB0903171BF63
:1002200083D4418533878400956763C7E700A2853F
:100230004E854939B13959B7156933099940420991
:1002400013590901CA854E85B53925D9ED75A6958D
:10025000A295C205239A0184C18133852901D1BFAA
:1002600083D681A881EA97B503009385A596254595
:100270006FB0701703D6A1A84111918E97B50300F6
:1002800093854596254506C6EFB0B02A138781A809
:100290008355070083D7A1A81385C1A89D8DC205EA
:1002A0003E95C1812137B24023A401A8410182803B
:1002B000411183D781A822C426C206C6AE97130770
:1002C0000020AA842E84635AF700593F97B5030093
:1002D0009385058E2545EFB0101183D781A813852E
:1002E000C1A82286A6853E95EF50734B03D681A800
:1002F000229642062244B240924441822394C1A8ED
:1003000097B503009385458C254541016FB0702258
:10031000011126CA06CE22CC4AC84EC652C456C2C5
:10032000814459C1D1C183D7218503D44185638DCF
:10033000870663F587081D8C42044180AE892A89AF
:10034000228697A503009385657D0145EFB0701E59
:10035000A28463F38900CE84C2040D6A83D7218509
:1003600003D74185C180938A0185130A0A8063FA05
:10037000E704A6864A86B38547012D459710FF1FDF
:10038000E780608483D72A00A6972399F184EFF051
:100390003FB083D6418503D6218597A50300938579
:1003A00025792545EFB0F018F24062442685424990
:1003B000D244B249224A924A0561828015673A9432
:1003C0009DBF15671D8FB385470163D5E400A686E1
:1003D0004A8665B79569B389F9406D743E94C20940
:1003E00093D909012694CE864A8642042D4597006A
:1003F000FF1FE780407D4180A28633063901D28508
:100400002D45239901849700FF1FE780C07B83D788
:100410002A003E94239981849DBF9387018503D54B
:10042000270083D747001D8D133515008280397151
:1004300026DA4AD84ED652D456D25AD006DE22DC1C
:1004400062CE66CC2A89EF60B30C9374F50F8149B4
:10045000254BE54A17BA0300130A4A8391ECF25080
:1004600062544E85D2544259B259225A925A025B72
:10047000724CE24C2161828003470900930707FD1B
:1004800093F7F70F637CFB009307F7F993F7F70FE8
:1004900063E2FA06930797FA93F7F70F139487012D
:1004A0006184FD14230089002685EF50630B2A86A2
:1004B000AE8603250A0083254A0093F4F40F05094C
:1004C000EF0061542AC422852EC6EF5063092246EC
:1004D000B246EF4083392A8C4E85AE8CEF50630FC5
:1004E0002A86AE866285E685EF30034DEF508301A4
:1004F000AA89ADB79306F7FB93F6F60F8147E3EFB2
:10050000DAF8930797FC49BF411122C406C6830756
:1005100095022A8499C713059502EF5093252385E8
:10052000A1088307D41291CB1305D412EF501324E2
:10053000EF50D30593878105C8D3B24022444101CF
:100540008280011126CA9304150022CC97A50300CE
:10055000938585792A84268506CE4AC84EC6EFB093
:10056000900C631E051097A50300938525782685BA
:10057000EFB0700B6302050E85448307D4036386D6
:10058000070C13059402EF50D31E85491379F50F1C
:100590001305D4036387340F8947638CF418EF5035
:1005A000531DA386A108631A390179468145138535
:1005B000F10A238B0184EFE00FAD8307D40885C3D4
:1005C0001305D408EF50F31A03C76185930717008A
:1005D000238BF18493878105BA97A38BA7048307A4
:1005E000D40D85C31305D40DEF50B31803C761852F
:1005F00093071700238BF18493878105BA97A38B08
:10060000A7048307D41285C31305D412EF507316C1
:1006100003C7618593071700238BF18493878105B6
:10062000BA97A38BA7048307D41785C31305D417E0
:10063000EF50331403C7618593071700238BF184B0
:1006400093878105BA97A38BA704F2406244D244F2
:100650004249B2490561828097A5030093854569A7
:100660002685EFB0407CE31905F0268597A50300A9
:1006700093854568EFB0207B8944E31005F0814401
:10068000EDBDEF50130F2387A108631A9900794637
:10069000814513851109238B0184EFE0CF9E8307E9
:1006A000D40885C31305D408EF50B30C03C7618584
:1006B00093071700238BF18493878105BA97A38C46
:1006C000A7028307D40D85C31305D40DEF50730A19
:1006D00003C7618593071700238BF18493878105F6
:1006E000BA97A38CA7028307D41285C31305D4122B
:1006F000EF50330803C7618593071700238BF184FC
:1007000093878105BA97A38CA7028307D417E38E3A
:1007100007F21305D417EF50D30503C7618593077C
:100720001700238BF18493878105BA97A38CA702C6
:1007300029BFEF501304A387A10801BF411122C4B0
:1007400006C6830795072A8499C713059507EF50B6
:100750005302A385A1088307D40899C71305D408B9
:10076000EF5033012386A1088307540B91CB130567
:10077000540BEF50A37FEF5063619387810588D7B7
:10078000B240224441018280411122C406C60307BF
:1007900015058147014419C703444505130404FDA9
:1007A0001374F40F0307550619C713055506EF50C8
:1007B000437C9377F50F1374B40F0D476311E40274
:1007C0001D47637EF7009747FF1F938727269C43AB
:1007D00037072000D98F1747FF1F2329F724B2407E
:1007E000224441018280011126CA8146B284014619
:1007F00052C456C206CE22CC4AC84EC62A8AAE8AF7
:10080000EF30D36941CD9307E0046386F40093078A
:1008100030056395F40897A903009389A94A03A6B4
:10082000090083A649005285D685EF40030437941A
:100830009800EF40334D130404682A89337585020C
:10084000EF40335903A6090083A64900EF30D309CE
:1008500097A70300938787479043D443EF30D3088B
:100860002A8A33558902AE8AEF40B3562A86AE866D
:100870005285D685EF30431413073005AE87639554
:10088000E400B7070080AD8FF2406244D244424991
:10089000B249224A924ABE8505618280014581475C
:1008A000E5B7011126CA8146B284014652C456C238
:1008B00006CE22CC4AC84EC62A8AAE8AEF30135ED4
:1008C00041CD930750046386F40093077005639548
:1008D000F40897A903009389E93E03A6090083A6BB
:1008E00049005285D685EF30537837949800EF4011
:1008F0007341130404682A8933758502EF40734DF0
:1009000003A6090083A64900EF30037E97A70300E2
:100910009387C73B9043D443EF30037D2A8A3355F6
:100920008902AE8AEF40F34A2A86AE865285D68582
:10093000EF30830813077005AE876395E400B707AF
:100940000080AD8FF2406244D2444249B249224A0B
:10095000924ABE850561828001458147E5B71357FC
:1009600085009357050113D885009376F50F011183
:100970001377F70F93F7F70F618593F5F50F13785A
:10098000F80F99C211C3B9E3230CD100A30CE10005
:10099000230DF100A30DA1000345910183478101BF
:1009A0000347A1012205A30E01014207C98F230EAF
:1009B000B1000345B101D98F0347D1018345C1017E
:1009C000620522075D8DD98D056182803295137590
:1009D000F50F13138501135383415D466357660872
:1009E00061463363C30285071376D70F114593F72A
:1009F000F70F6305A6002545631AA6007946637FB5
:100A0000F60205071377F70F85470DA8094663120D
:100A1000C7041386067D93084006B36816036385F2
:100A2000080013F5360011C5130500193366A60238
:100A300019EE75466374F60085470D47230CD10007
:100A4000A30CE100230DF100A30D6100B1B77146C5
:100A5000D5B77D46E374F6FEB147E314F7FA850691
:100A600093F6F60F85470547D1BFE35903FC6105AF
:100A7000FD171313850193F7F70F13538341DDFF20
:100A80007D171377F70F1146F947E309C7FA19469F
:100A9000E306C7FA2546E303C7FA2D46E300C7FA83
:100AA00089476316F7021386067D93074006B367EE
:100AB000F60291C793F83600F547E38108F89307EB
:100AC0000019B367F60293B71700F10785BFFD471A
:100AD00035F7FD1693F6F60F31478DB783471500AE
:100AE000034705000111A2075D8F83472500834658
:100AF000350083454500C207D98F0347550022CCF6
:100B00001734FF1F1304045F03062420E2062207A4
:100B100033E5F600D98D06CE993513588500135666
:100B2000050193D7850013F7F50F93F7F70F935649
:100B300085011376F60F9375F80F1375F50FEF8097
:100B4000805983471400054793F7B70F6397E70071
:100B50006244F24005616F808067F2406244056143
:100B60008280497123248116138481058307340010
:100B700083C8D10503C8C10503C7A10583C6910574
:100B800003C6810597A503009385C5184810232641
:100B900011162322911623202117232E3115EF60E1
:100BA000A3114810EF60C31618485C4803060403FD
:100BB0003AC03EC2030814035C441844541097A57D
:100BC0000300938525173695EF60030F4810EF60FB
:100BD00023145C103E958307640017A603001306D8
:100BE000E61289C717A603001306C61197B50300BE
:100BF000938505C9EF60430C4810EF606311544CB6
:100C0000104C5C1097A503009385C5133E95EF60CB
:100C1000A30A4810EF60C30F030634035C103E952F
:100C200097A503009385C512EF6003094810EF6094
:100C3000230E03072403AA8448503ACE1384810567
:100C4000EF50030A72475C10AE862A8697A5030010
:100C50009385051133859700EF6003064810EF6018
:100C6000230B5C1003C6C10897A503009385C5102C
:100C70003E95EF6063044810EF6083095C1097A510
:100C80000300938565103E95EF6063071389610744
:100C9000A28497A903009389295103C6740519CA30
:100CA000481032CEEF60C30672465C10CE853E958A
:100CB000EF6083008504E39224FF4810EF60430552
:100CC0005C1097A503009385A50C3E95EF60230368
:100CD00097A403009384444D0346940319CA481013
:100CE00032CEEF60E30272465C10A6853E95EF506F
:100CF000B37C0504E31224FF4C102545EFA0B06E31
:100D00008320C1160324811683244116032901166A
:100D10008329C11575618280411122C406C626C28D
:100D2000830755012A84B9C7A946938707FDB3876E
:100D3000D70203476501130707FDBA97A38DF10496
:100D40000307750183478501130707FD3307D702A2
:100D5000938707FD3E97238EE104830795010347A0
:100D6000A501938707FDB387D702130707FDBA973D
:100D7000A38EF1048307940281CB130710046390C0
:100D8000E7148547238FF1048307D40393848105F7
:100D900099C71305D403EF50631D88C4CCC4030660
:100DA000140509CA8844CC442384C108EFF0BFA3CA
:100DB00088C4CCC48307540699C713055406EF5062
:100DC000E31A88C8CCC80306940709CA8848CC48E7
:100DD000A384C108EFF0FFAC88C8CCC88307D4084F
:100DE00099CF1305D408EF50631897A70300938792
:100DF000E7F09043D443EF30532788CCCCCC830723
:100E0000140A99C71305140AEF50A316239CA106D0
:100E10008307540BB9C7A946938707FDB387D70249
:100E20000347640B130707FDBA97238DF1040307EB
:100E3000740B8347840B130707FD3307D70293878F
:100E400007FD3E97A38CE1048307940B0347A40B93
:100E5000938707FDB387D702130707FDBA97238C43
:100E6000F10483853400856703C6C105938707E1D4
:100E70001307C0033307E60283C6D105B387F50223
:100E8000BA97B69723A2F1081747FF1F130707BAAF
:100E90001C433A8413F5870039E103856400054754
:100EA000631FE50203C7A10511EF8844CC44014646
:100EB0008146EF30A37E05E9238F0104B9A0238F7B
:100EC0000104D9B5FDD175D2EDD293E78700138522
:100ED00081051747FF1F232BF7B4EFF03FC083872F
:100EE0006400E1F7D1BF8848CC4801468146EF3025
:100EF000E37A79D183C7A105E1D3130680079385EF
:100F00008105138501FEEF50830903C501C99D4783
:100F100005053365F502130680079385810523884F
:100F2000A1C8930780073305F502938781C93E95D1
:100F3000EF50E306EFF0FFC25C582244B240924407
:100F40001747FF1F2322F7B2130680078145138539
:100F5000810541016FD03F930171232C811E232A0B
:100F6000911E1306101E2A84AE8468008145232E2C
:100F7000111E2328211FEFD01F9181458147014772
:100F800001465148CD485D436341960899C1230607
:100F9000F1001306A002A6852285EFA01067834703
:100FA000C10051473386A440B387E702930515007B
:100FB00078007D16A29585073305F700EF40337E54
:100FC0001306A002A685228503491400EFA0F06352
:100FD000894763C4A7080345C100D1473305F5021B
:100FE0007C0005053E95EFF08FC4631DA9041946EA
:100FF00097A50300938505CE1305D100EFA0706E71
:101000002DC56800EFF05FD135A8B306C40003C555
:101010000600930665FD93F6D60F91EA850793F7D0
:10102000F70F6361F302854501470506B1BFB3863B
:101030000703130E011FF296BA96A38EA6E00507CA
:10104000E3D5E8FE8320C11F0324811F8324411FB1
:101050000329011F1301012082803307F400034795
:10106000070085073349E900ADB7194697A5030086
:10107000938585C61305D100EFA0B06639E91946FE
:1010800097A50300938585C51305D100EFA0706572
:101090000DED194697A50300938585C41305D1006E
:1010A000EFA0306419ED194697A50300938585C319
:1010B0001305D100EFA0F06251D56800EFF0CFEC3E
:1010C00051B76800EFF0EFC7B5BF6800EFF00FE76A
:1010D00095BF6800EFF04FC3B5B7757122C526C341
:1010E0004AC1CEDED2DCD6DADAD806C7AA892E8982
:1010F000814401448147130A4002854A354B1397C6
:1011000004014183636C2701BA402A449A440A4986
:10111000F659665AD65A465B4961828033879900F0
:101120000347070063004703639C5701631D670182
:101130009C18A297A2856800238E07F8313D81474D
:10114000850475BF01449C18A29705041374F40F1D
:10115000238EE7F893373406E5B7411106C61385A9
:1011600001C983470500130780078145B387E7025C
:1011700013068007A1073E95EFD0EFF0B2408145FE
:10118000214541016FB0E071138501C98347050016
:1011900013078007B387E702A1073E958280138576
:1011A00001FE8280397126DA97A40300938484AB10
:1011B00062CC66CA328CB68C9040D44006DE22DC0B
:1011C0004AD84ED652D456D25AD05ECE6AC842C001
:1011D00046C217A40300130464A93AC43EC6EF3004
:1011E000C3681040544017AD0300130DADA8EF20A5
:1011F000B36F2247B2479040D4402A8AAE8A3A85DC
:10120000BE85EF30836610405440EF20F36D2A898D
:10121000AE892A86AE865285D685EF309330032676
:101220000D0083264D00EF304364EFF0A0682A8B59
:10123000AE8B5285D685EFF0C05E2A8AAE8A4A858B
:10124000CE85EFF0005E024892482A894286C68623
:10125000AE896285E685EF30D32C9040D440EF30E4
:10126000C36010405440EF20336803260D008326EE
:101270004D00EF30835FEFF0E0632A84AE844A864E
:10128000CE865285D685EF30435E2286A686EF3025
:10129000C35D2286A686EF30435D2A84AE845A86DB
:1012A000DE865A85DE85EF30435C2A86AE8622854F
:1012B000A685EF206370EFF07027EFF0E0682A86D4
:1012C000AE86EF20636F97A703009387279B904319
:1012D000D443EF30835997A703009387A79A90438D
:1012E000D443EF308358F2506254D2544259B25929
:1012F000225A925A025BF24B624CD24C424D21610F
:10130000828018419387010D104598C3035745000B
:10131000544590C72392E70058551049D4C7544903
:1013200098CF97A50300938565980547254590CBF1
:10133000D4CB238EE7006FA0100B2386010E828092
:101340001305800783C701C9B387A702938601C924
:101350007D55B385F6000387E50025CF197186DE3C
:10136000A2DCA6DA03C6C10E1387010D19EAA10794
:101370003385F60079377955F6506654D6540961AD
:101380008280032887008328C7005C4B9049184B54
:10139000D449884DCC4DEFF0FFE02A86AE862A84F2
:1013A000AE84680097A503009385C589EF50D310DC
:1013B0006C002545EFA030031735FF1F034595DD71
:1013C000EF40031A2286A686EF30C33E13250500A0
:1013D00065B782809737FF1F83C7E76581CF97374F
:1013E000FF1F83D767F1FD17C207C1831307A0034F
:1013F0006375F70023AC018482805971CECE938946
:10140000818583A70900D6CA938A01C98507A2D41A
:10141000A6D2D2CCDAC8DEC6E2C4E6C2EAC086D61C
:10142000CAD023ACF18483C401C9014A130C8007DC
:10143000568497AC0300938CEC85054D9D4B154B62
:101440003389840356998307E900E1CF03A60C0092
:1014500083A64C000325090283254902EF3083351A
:101460006341050C83470904638DA70B93171A008A
:101470005808BA97035789022390E7007C00D29757
:1014800023809700050A9904B3E47403E31A6AFB06
:101490000357C10183574101998F13D7F741B98F82
:1014A000998F939407011307400BC1806358F7008D
:1014B00093078016B3849740C204C180268697950F
:1014C00003009385A57D0810EF50037F0C10254580
:1014D000EFA06071938714FFC207C1837947636CE3
:1014E000F70A0349D100130A8007854501453309EE
:1014F0004903210922994A86EF90C01F8344F100D5
:1015000085450145B3844403A104A2942686EF9047
:10151000601ECA850D45EF306030A6850D45EF3061
:10152000E02F83A709001737FF1F0357E7DC63E6A7
:10153000E704EFF0FFE085476311F50493048007AB
:1015400003C601C933069602854501452106229648
:10155000EF90401A83C501C9B38595020D45A105D9
:10156000A295EF30A02B03C501C9330595022105D3
:101570002295EFF01FD923AC0184B650265496541F
:101580000659F649664AD64A464BB64B264C964C07
:10159000064D656182809307D002E3F497F8834B90
:1015A000C100930A80078545B38B5B030145138C0B
:1015B0008B00229C6286EF90E013034BD10085459F
:1015C0000145330B5B03A29B210B229B5A86EF90B4
:1015D0006012034AE10085450145330A5A03210A96
:1015E000229A5286EF9000110349F100854501458A
:1015F00033095903210922994A86EF90A00F8344A9
:10160000010185450145B3845403A104A2942686B3
:10161000EF90400EE2850D45EF304020DA850D4514
:10162000EF30C01FD2850D45EF30401FCA850D45F4
:10163000EF30C01EA6850D45EF30401E83C701C99F
:10164000B38A570303A74B03A29A83A74A03E31A5B
:10165000F7EC85472380FA04E9B5914763E5C70EA7
:1016600017970300130787730A063A961C423171D5
:1016700022DD4AD94ED706DF26DBBA973684AE89FB
:101680002A89828797B50300938545C61145EFA047
:101690008055CA851145EFA0005597B50300938585
:1016A000A5C61145EFA02054FA506A54DA544A599D
:1016B000BA5929618280EDDA9042EF50A0110146BB
:1016C00097550000938525173D45EF303024E9BF3D
:1016D000E1DE2314B40048C003C5A6003686954554
:1016E000EF904001D1B7E9D21306C0098145480007
:1016F000EFD06F9993078009CE8463F43701930488
:1017000080094A8697B50300938505C248008D0479
:10171000EF50835AC204C1801C11A6975000A686C0
:1017200097B503009385C5C02545238207F6EFA032
:1017300040600345B40026864C00EFE0A047ADB7FB
:10174000EF30605D95B78280411106C6EF90701250
:10175000B24041016F90A05A55711306600981454E
:10176000281086C7EFD02F92930751025810930686
:101770003102130621029305110213056102EF7075
:10178000700FEFF07FA0030305039305E004835679
:101790006102034711028347210203483102834853
:1017A0004102034E510217D60300130666CE63169C
:1017B000B30017B60300130666F2830E1503130376
:1017C0005004032F8500832FC50097B50300938530
:1017D000E5F063866E0097D50300938565CB032300
:1017E0000501832345017AC41ACC1ECE7EC672C081
:1017F0002EC832C297A50300938585E41726FF1FE4
:10180000130646772810EF50234BEF90E015281071
:10181000EF5003509387C18590439315050193863C
:10182000010F2810C181EFF05FE3BE406961828043
:10183000411106C623AEB18401CA1C4223A8F10E91
:101840008347A600238DF10E8307D503B9E3054531
:10185000EFB0A0420545EFB0006B0545EFB0200D9D
:1018600097950300938545612545EFA0C037054551
:10187000EFB000659737FF1F9387471B9C43B2402B
:1018800093E707011737FF1F2322F71A41016F90D3
:10189000E00C1307F003E38CE7FA1305D503EF40E0
:1018A000436D8947E3D5A7FAB240410182804111D7
:1018B00022C42A848307D40306C626C22E8589C77C
:1018C0001307F003639CE7029737FF1F83C7778CEA
:1018D0001737FF1F1307D7889736FF1F9386368564
:1018E0001736FF1F130696819795030093850564AD
:1018F0002244B240924441016F50033C9727FF1F9E
:10190000A38E077E9737FF1FA38307829737FF1F9A
:10191000A3880784034704008547AE8463FAE70081
:101920009305D4031725FF1F1305557DEF50233D65
:101930008307940791CF03470400894763FAE700C0
:10194000930594071725FF1F1305757EEF50233B62
:101950008307540B91CF034704008D4763FAE700D8
:101960009305540B1725FF1F1305957FEF5023395F
:101970008307140F91CF03470400914763FAE700F0
:101980001305140FEF40E35E9737FF1FA383A78073
:101990000146974500009385857613052003EF30B7
:1019A000E076EF6020499727FF1F83C7977E1727B0
:1019B000FF1F1307F77A9726FF1F93865677172680
:1019C000FF1F1306B6739795030093856559268507
:1019D00005B7411126C206C622C403470500894740
:1019E000AE8463F7E7029305D5032A841306200328
:1019F0001725FF1F13058569EF50633513059407FD
:101A0000EF4023579727FF1F2394A76EEF60003DF9
:101A1000EF60C0409726FF1F83D6866D1726FF1FF5
:101A20001306C66697A50300938585B82685EF50F3
:101A3000A32885479725FF1F9385C5531725FF1FAB
:101A4000130585631727FF1FA30CF758EF50232BAF
:101A50009725FF1F9385956A1725FF1F1305655866
:101A6000EF50E3299725FF1F9385756C1725FF1FFE
:101A70001305455AEF50A3289725FF1F9385556EF0
:101A80001725FF1F1305255CEF506327979503006B
:101A9000938505A11725FF1F13056562EF502326C7
:101AA000EF60C03305661306062C93050002173558
:101AB000FF1F0345D5F9EF20410F2244B240924465
:101AC0000D661735FF1F034595F81306062093058D
:101AD000000441016F20610D411122C426C24AC099
