:04C000006F20007D30
:10C004000000000000000000900000202209002031
:10C01400A9BDF9F594000020000000000000000014
:10C02400960000209800002000000000000000009E
:10C034009A000020000000009C0000200000000086
:10C044009E0000201603002044030020A4000020CA
:10C05400A6000020A8000020AA000020AC000020B8
:10C06400AE000020B0000020C60000205A010020CD
:10C074009E090020B8000020BA000020BC00002067
:10C08400BE000020EE01002082020020C400002037
:10C0940001A001A001A001A001A001A001A001A094
:10C0A40001A001A001A001A001A001A001A001A084
:10C0B40001A001A001A001A001A001A001A001A074
:10C0C40001A001A001A037370040834747009946EB
:10C0D4004111BD8B638CD70231476384E706114756
:10C0E400639EE702A30301001746000003460655BA
:10C0F40037370040834771006315F6022C0013851F
:10C104000177979001E0E780209309A883475700BF
:10C1140093F7F70F2304F100834781004101730073
:10C12400203083477100834687000C08AE97238C28
:10C13400D7FE83477100850793F7F70FA303F10038
:10C1440055BF2800970002E0E780A08D1375F50F16
:10C15400A303A1000346710055B737370040834756
:10C16400474099464111BD8B638CD70231476384A4
:10C17400E7061147639EE702A30301001746000088
:10C184000346E64B37370040834771006315F602D8
:10C194002C0013854178979001E0E780E08909A895
:10C1A4008347574093F7F70F2304F1008347810037
:10C1B40041017300203083477100834687400C0897
:10C1C400AE97238CD7FE83477100850793F7F70F4B
:10C1D400A303F10055BF2800970002E0E7802096F2
:10C1E4001375F50FA303A1000346710055B7374734
:10C1F40000408347478099464111BD8B638CD70229
:10C2040031476384E7061147639EE702A3030100F5
:10C2140017460000034696423747004083477100A3
:10C224006315F6022C0013858179979001E0E7806D
:10C23400A08009A88347578093F7F70F2304F100E0
:10C244008347810041017300203083477100834696
:10C2540087800C08AE97238CD7FE8347710085072F
:10C2640093F7F70FA303F10055BF2800970002E0EE
:10C27400E780A09E1375F50FA303A1000346710088
:10C2840055B737470040834747C099464111BD8B96
:10C29400638CD70231476384E7061147639EE70244
:10C2A400A3030100174600000346266A37470040EF
:10C2B400834771006315F6022C001385C17A9780B9
:10C2C40001E0E780607709A8834757C093F7F70F29
:10C2D4002304F10083478100410173002030834728
:10C2E4007100834687C00C08AE97238CD7FE834722
:10C2F4007100850793F7F70FA303F10055BF2800DA
:10C30400970002E0E78020A71375F50FA303A100AF
:10C314000346710055B7411122C6371400408357B4
:10C32400C40993F7074099CBA145014597D001E093
:10C33400E780E02193070040231EF40832444101C2
:10C3440073002030B717004003D7E70903D7E70984
:10C354009316170163D50604175700000347078196
:10C364000507975600002383E6801747000013074C
:10C37400E7711843136707409746000023A8E67047
:10C384001167239FE70803A7470C9166131617014B
:10C394006359060003A7C70C558F23A6E70C730047
:10C3A400203003A7870C558F23A4E70CCDBF411180
:10C3B40022C4174400001304646D1C4006C613F71E
:10C3C40007401DCB13974701634107028D4509457B
:10C3D40097D001E0E780A017914517450000034579
:10C3E400256D974002E0E780C0111C4093F7F7BF2A
:10C3F40017470000232CF768974700009387C77AF4
:10C404009C438DCB1C401397470163410702A94508
:10C41400094597D001E0E780801391451745000056
:10C4240003450569974002E0E780A00D97470000A7
:10C4340023AC0776B24022444101828041118146F7
:10C4440001468145114506C6EF00A077B727004095
:10C4540011472383E780B7F700E003A707D16D9B5B
:10C4640023A8E7D003A707D15D9B23A8E7D07300D7
:10C47400501001000100B240410182804111814607
:10C4840081450146114506C62D2FB72700401147A7
:10C494002383E780B717004003C7E70283C5E70497
:10C4A40083D7870391661377F70F93E5350063E528
:10C4B400D700719B13671700B71700401306700568
:10C4C4002380C704930680FA2380D7040100010067
:10C4D400238207022380C7042380D70401000100BC
:10C4E4002387E7022387B7042380C7042380D70464
:10C4F4000100010003C7B70413670702A385E7041B
:10C504002380070437F700E0832507D193E545002E
:10C514002328B7D0832507D1DD992328B7D073000A
:10C524005010010001002380C7042380D7040100B8
:10C53400010003C7B7041377F70DA385E70423802D
:10C544000704B240410182800111B7F5070022CCF3
:10C554008146E1052A840A86194506CE26CA02C008
:10C5640023120100B92DB717004003C7E70283C5A2
:10C57400E70483D7870391661377F70F93E53500B4
:10C5840063E5D700719B13671700B71700401306C4
:10C5940070052380C704930680FA2380D704010022
:10C5A4000100238207022380C7042380D7040100EB
:10C5B40001002387E7022387B70423800704B7F524
:10C5C40000E003A705D11367470023A8E5D003D5EE
:10C5D40007026577110713750560418D598D420572
:10C5E400418101002380C7042380D7040100010096
:10C5F40003C7F70037F40700B7F400E01367070434
:10C60400A387E70003C7B704610413670702A38580
:10C61400E7042390A70283A704D1DD9B23A8F4D0C9
:10C62400730050100100010013056004352E81468B
:10C634003000A285194502C423160100592322475C
:10C644008247E31AF7FCB7170040130770052380ED
:10C65400E704130780FA2380E7040100010003C7FD
:10C66400B7041377F70DA385E70423800704F2408A
:10C674006244D2440561828001114EC6814601465E
:10C68400AA898145114506CE22CC26CA4AC8152B53
:10C69400B716004083C7E60203C7E60483D68603C1
:10C6A400116693F7F70F1367370063E5C600F19B34
:10C6B40093E717003714004013097005230024057D
:10C6C400930480FA2300940401000100230204026D
:10C6D4002300240523009404010001002307F4022D
:10C6E4002307E40423000404130550025920B7F778
:10C6F40000E003A707D11367470023A8E7D023006E
:10C70400240523009404010001000347F400136787
:10C714000704A307E4002300240523009404010074
:10C7240001002567B3E9E9002310340303A707D107
:10C734005D9B23A8E7D073005010010001008146DF
:10C74400014681451145B52923002405230094049D
:10C75400010001008347640493E717002303F404F2
:10C7640023000404F2406244D2444249B2490561C0
:10C774008280B7170040930670052380D7041307FF
:10C7840080FA2380E7040100010003C6B70413768E
:10C79400F60DA385C70423800704137605024DC252
:10C7A40003C6A700118A1DE22380D7042380E7046F
:10C7B4000100010003C7A700136747002385E700B2
:10C7C4009307004B01000100FD17EDFFB717004070
:10C7D400930670052380D704130780FA2380E704A7
:10C7E400010001007D892394A700010001000100DC
:10C7F4000100238007042380D7042380E704010079
:10C804000100010001003727004093061005A3032F
:10C81400D78023800704B7170040130770052380CF
:10C82400E704130780FA2380E7040100010003C72B
:10C83400B70413670708A385E704238007048280ED
:10C844001376050441C603C6A700418A1DE223806E
:10C85400D7042380E7040100010003C7A70013677E
:10C8640007012385E7009307007D01000100FD1700
:10C87400EDFFB7170040930670052380D704130714
:10C8840080FA2380E704010001001376F5011366A2
:10C8940006042394C7000100010001000100238065
:10C8A40007042380D704130660042380E704631875
:10C8B400C5000100010037270040894689BF0100F7
:10C8C4000100372700409306200591B72380D70441
:10C8D4002380E7040100010003D787001367070CD6
:10C8E4002394E7000DBF411181460146814511455E
:10C8F40006C6C12CB7170040130770052380E70450
:10C90400130780FA2380E7040100010003C76704CA
:10C91400136717002383E70423800704B24041010F
:10C9240082808146014681451145612CB71700403C
:10C93400930670052380D704130780FA2380E70445
:10C94400010001007D562396C7022380D70423806B
:10C95400E7040100010003C767041367170023837A
:10C96400E7042380070401A0BD473305F502010055
:10C974007D1575FD8280411122C426C206C6AA8493
:10C98400014463179400B2402244924441018280DE
:10C9940005041305803E4204C13F4180DDB7B7174B
:10C9A4000040130700032388E70285471747000068
:10C9B400232AF71E73002030397122DC4ED656D25A
:10C9C40037140040E57AB7F9070026DA52D45AD072
:10C9D4005ECE06DE4AD862CC2A8B916B93040404A3
:10C9E400130A7005910AE1098347E4020347E4044A
:10C9F4008356840393F7F70F1367370063E57601D3
:10CA0400F19B93E7170023804401130980FA2380E4
:10CA14002401010001002302040223804401238035
:10CA24002401010001002307F4022307E404238006
:10CA3400040037F700E0832707D193E74700232852
:10CA4400F7D08357040293F70760B3E76701B3E7AE
:10CA54005701C207C18301002380440123802401BC
:10CA6400010001008346F400130CB40493E60604A9
:10CA7400A307D4008346B40493E60602A305D404B2
:10CA84002310F402832707D1DD9B2328F7D07300FA
:10CA940050100100010013056004F9353000CE8503
:10CAA4008146194502C423160100212A11469745DF
:10CAB40000009385A50F280011231DD59307700549
:10CAC4002380F400238024010100010083470C002B
:10CAD40093F7F70D2300FC0023800400F250625406
:10CAE400D2544259B259225A925A025BF24B624CC6
:10CAF40021618280411106C6AD2D5538979001E021
:10CB0400E7804008D5BF2303048015472303E4804E
:10CB140001002302A480828083076480E3CE07FEA1
:10CB240023030480828083076480E3CE07FE0345E9
:10CB34004480828083076480E3CE07FE2302A480BE
:10CB44008280411126C44AC24EC006C61377F50B33
:10CB5400AD47AA892E8995446306F70019456537C0
:10CB6400653F8D444E854537FD59FD146398340166
:10CB7400B240A244124982494101828013550901FD
:10CB84001375F50F453F2209CDB7011126CC06CE0A
:10CB9400B704080051371545BD37713769372AC6C0
:10CBA400A53F32459377150089EB1365150013757E
:10CBB400F50FF240E24405618280FD14E9FC014571
:10CBC400CDBF397126DC4ADA4ED852D656D45AD261
:10CBD4005ED006DE62CE66CCB7E700E07D5783AA5E
:10CBE400070022C603AA470023A0E71823A2E718D8
:10CBF400B7170040130770052380E704130780FA72
:10CC04002380E70483C74704930B75FFB684E207C8
:10CC140093FBFB0F8546AA892E8B3289372400406B
:10CC2400E187015763FA76016308D5008946130743
:10CC340000026313D5000157D98F93F7F70FB71C80
:10CC440000402382FC0411472303E4801305F00F02
:10CC54005D3D094CD135636D7C11B7050700DA954C
:10CC640037870700795563F2E504B3879500636E4F
:10CC7400F702370B0800A94733EB65016399F906FE
:10CC840089E48144513D26850DA0DA850945553D49
:10CC940005090345F9FFFD14050B693D81C493772C
:10CCA400FB0FFDF7DD3569FD7D55B7170040130710
:10CCB40070052380E704130780FA2380E70403C781
:10CCC4004704418B2382E704F250B7E700E023A036
:10CCD400571123A24711E25432445259C259325ACD
:10CCE400A25A125B825B724CE24C21618280A5479E
:10CCF4006395F90685691309F00FB3069900B374B7
:10CD04002B01B6941349F9FFB3749900856B3379F9
:10CD14006901416B9387F9FFB3F7270199E363FC3A
:10CD2400340193D94900C147E3E637FF99BF056948
:10CD3400C1697D19D9B71305800D6388690113058D
:10CD440000026384790113051008CA85DD3B353D73
:10CD540021DD4E99B3843441D9B7DA852D45D533D5
:10CD6400CA94E30099F205097D3BA30FA9FED5BF40
:10CD74009387F9FF93F7F70F6361FC0C83C71C04D7
:10CD840013073008631FF70437070800636BEB04CD
:10CD9400B3079B00B706100063F5D704334BEB00D1
:10CDA40089476393F9068980D549E38C04ECDA85D5
:10CDB4000945413B11090327C9FF91472320E4801A
:10CDC40003076480E34E07FE23033481FD17EDFB64
:10CDD400FD14110B81C49377FB0FE9FF7D3371F5CB
:10CDE400E1B5B717004003C75704B7070800137726
:10CDF400070219E3B78707007955E378FBEA33079D
:10CE04009B00E3FFE7F855B58547E382F9F2DA853D
:10CE14002D45053B9389F4FFE38504E6293393F715
:10CE2400390091EB83260480032709009307490006
:10CE3400E39AE6E43E89CE84F1BFB5476396F900F0
:10CE44001305900BC93135BDB1471305B00AE38B07
:10CE5400F9FE99476391F904B7050800B365BB006F
:10CE64002D45C53181448D4BA149753963967401B3
:10CE7400832704802320F9008504E39834FF832763
:10CE8400048013172B01635507002312F900D5BB47
:10CE94002322F900FDB39D476399F90281451305E7
:10CEA400B0044531BD442320090023220900FD5963
:10CEB4009D3993F77400CA9703C70700FD14398D91
:10CEC4002380A700E39634FF6DBBA1476392F90466
:10CED4006D398144630D0B008D479304C0036308CF
:10CEE400FB009304000563048B0193044004137551
:10CEF400C507E30895D81945393139390545213134
:10CF040026850D3909453D314931E31C05D669BBF8
:10CF140091476399F90013056006F536F53E13054C
:10CF240090090DB7E38F09D4F154A9BB19CD91CD64
:10CF340009CE81473387F500834607003307F500A0
:10CF440085072300D700E317F6FE828019C991C92B
:10CF540009CA910583A7C5FF11057D16232EF5FE89
:10CF6400C5BF828001C919C62A960505A30FB5FE5F
:10CF7400E31DA6FE828081473307F50003070700FF
:10CF840019E33E8582808507C5BF01112E8626CA16
:10CF9400AA84131506019305F004418122CC06CE20
:10CFA40032C6EF1040592A8401C53246A685BD3FDA
:10CFB4002285F2406244D24405618280854715C1CE
:10CFC4008DC105C28147B306F5003387F50083C6DA
:10CFD4000600034707006398E6008507E315F6FE9D
:10CFE40085473E8582808147EDBF9307F6FFBE9556
:10CFF4002A966313C5008280FD1583C715000505B5
:10D00400A30FF5FEFDB7AA87014581CF09CE3E9651
:10D01400850703C7F7FF6317B700E39BC7FE054502
:10D0240082808280014582807971975700009387BE
:10D03400674222D4804306D626D24AD04ECE52CC62
:10D0440056CA5AC85EC662C45DCC37C9C901814B91
:10D05400175A0000130A8A44975400009384C43F6B
:10D064001309F937975A0000938A8A39B709C0A877
:10D07400370B40578357240095E35C44639D0B00B2
:10D08400175700002328F73C032CC4002285EF1017
:10D09400A057628499A823A6FB00FDB783270A0042
:10D0A4008297838664011C4463DB06063307F540DC
:10D0B4006367E9089757000023AC073483552400BD
:10D0C40003450400973002E0E780A0435C405844E5
:10D0D400A9CF1444B6978386640163C5060063E34D
:10D0E4003701DA971CC4A28B3A8449F4975700009D
:10D0F400938707319C4B09476378F706F91717574D
:10D1040000002327F730B250225492540259F249B6
:10D11400624AD24A424BB24B224C45618280E37749
:10D12400F5F83387F9402A9761B763970B0097574F
:10D13400000023A1E73289BF23A6EB00B1B7D85082
:10D1440009CF63DF06003385A74083A70A0163760E
:10D15400F5009757000023ADA72AA28B404471B76E
:10D16400E3F3A7FECE97C5B79757000023A2072A7B
:10D1740059BF411122C4175400001304642B1C40EE
:10D1840006C626C24AC091C782979757000023A1BA
:10D19400072A5C4091C382971C406391071C9757F0
:10D1A400000083C77747858B9DC797570000A385E9
:10D1B40007461757000003475746954763FDE700A6
:10D1C400EF0010379757000083C73745F5178A07D4
:10D1D400A2979C438297175900001309A9478347D4
:10D1E400C900918B99C3EF1060281C4491C38297A6
:10D1F400975400009384C4259840175600000346B2
:10D2040036209757000083C7A71F93961700BA9636
:10D2140083D60600D5CA9757000083C7671E63EFFD
:10D22400C70A97570000238D071C1C4063980712F8
:10D234009757000083C7973E91CF9757000083C745
:10D24400D73D89EB97570000A38A073C978003E0FA
:10D25400E780C04197570000938747249C43638F1E
:10D26400070EB707C0A8175700002323F71A6D3B12
:10D27400975700009387471EDC53EDC317570000F0
:10D2840013070718184B9757000083C7371E6367A7
:10D29400F70C1757000003475738954763E0E70C2E
:10D2A4008347C900918BDDEB90409756000083C6FD
:10D2B400361563CBD70A2244B24092440249410155
:10D2C400173302E067000301850793F7F70F9756BA
:10D2D40000002387F612E3E6C7F235BF86073E97C0
:10D2E4008355070023100700975700002390071663
:10D2F40097570000938787139C43175500000345F5
:10D30400251013172500BA979C438297975700005E
:10D3140083D7C713175700000347870E93C7F7FF38
:10D324007D8D9317170098403E97835707005D8DB6
:10D334002310A7009757000083C7870C91C7850760
:10D3440017570000230EF70A175700000347470B2F
:10D354009757000083C7D70AE375F7ECB24022441D
:10D364009244024941018280139717003297035770
:10D3740007006DF7850735BFAD6737C70040BD07A8
:10D384002326F7200F1000009757000093874707C4
:10D39400C84F83278726BD66BD0693C7F7FF9983C9
:10D3A4006A052326D7205D8D82804111B71700407E
:10D3B400985F3AC6945F3247E39CE6FE32454101EA
:10D3C400828082800327851163000712411122C4E1
:10D3D40006C68347C5008345C5042A8493F7C70F4F
:10D3E4002306F500834697000356C700139586016C
:10D3F400618563F1C508635A05060345870093F602
:10D40400F607A304D700054693E627006314C50076
:10D4140093E617002306D4005C4389075CC3A30A80
:10D42400B400032504112E864C43090501368327D5
:10D43400841103465401D44303D7C700B296118F15
:10D44400D4C32396E7008947A30DF400034744039C
:10D454009757000083C767016378F7048347C400C4
:10D4640093E707012306F40081A093E7170023063E
:10D47400F40075B79376F60F635D050203458700E4
:10D48400854513E627006314B50013E61700230649
:10D49400C400A30AD400A30407008547A30DF40025
:10D4A400832784119C43DDF3B240224401454101AA
:10D4B400828093E717002306F400A30AD400A30490
:10D4C4000700032504114C4309058D348327841177
:10D4D40003465401D44303D7C700B296118FD4C373
:10D4E4002396E7008D475DBF05458280975700006E
:10D4F4009387C7109C43411122C406C6858B2A8496
:10D50400C5EF4165130525F5972003E0E780602901
:10D5140045C58347A5002315F50083270412BDE7FD
:10D524002320A4122322A41285472310F4042320C9
:10D5340005008347640154412316F5000347D400D2
:10D544002304E5000547A304E5001757000013076B
:10D55400670C184F1385170215811C437D1513752D
:10D56400F50F9CC25C43DCC21C479CC65C47DCC60E
:10D574001C4B9CCA5C4BDCCA1C4F9CCE5C4FDCCE63
:10D5840019CD9386060213070702C1BF83274412ED
:10D5940088C3835704042322A412850779B79757B5
:10D5A400000083D7A7148507175700002310F7142A
:10D5B400B2402244410182808347C400230904000D
:10D5C400054593C747002306F400DDB7834785016B
:10D5D40093F7E70FD5EF83479501DDEB034625016C
:10D5E4008346C50009CA834545031757000003470E
:10D5F400D7E763E7E50013F7060141CF014709C602
:10D60400C18A0357651C81C68356A51C369751C32E
:10D614001307C71217550000035505E1B335A702D8
:10D6240037460F00411113060624814622C426C240
:10D6340006C67D543305A702973004E0E78000A6B0
:10D644009757000083C7D7E2B384A7009757000019
:10D654009387470903A707098327070963F387000B
:10D664003E84184375FB97570000938727E39C4338
:10D67400829781476364A400B307A440B240224464
:10D68400B3B7970093C7170092443E854101828047
:10D6940081473E858280797126D206D622D44AD02B
:10D6A4004ECE52CC56CA5AC85EC68347350303448D
:10D6B4007513AA843E941374F40F9307400263F61F
:10D6C40087001304B4FD1374F40F03AA841383AA0C
:10D6D400C413A38B841222865285D685973004E026
:10D6E400E7804096058915E503CBD41201498149A9
:10D6F400337B6403930B50024A865285D685973058
:10D7040004E0E7802094058915C5639169031374C7
:10D71400F90F238B8412B250225492540259F249C5
:10D72400624AD24A424BB24B456182808509E20982
:10D7340093D989410509E31179FDE1BF832785095F
:10D744000356E503797193D60701BD8EC206C182E3
:10D75400358E1357764093575640898B058B5D8FD2
:10D7640093573640918B5D8F93571640A18B5D8FF5
:10D7740093171600C18B5D8F9317360093F707023A
:10D784005D8F931756009355860093F707041E0682
:10D794005D8F1376F60F518F93D7554013D63540CE
:10D7A400118A898BD18F13D67540D18F13D615402A
:10D7B400218AD18F13961500418AD18F1396350093
:10D7C40013760602D18F13965500137606049E0530
:10D7D400D18F93F5F50FCD8FA20745465D8F3307A3
:10D7E400C70222D42A8426D252CC56CA032A8413CE
:10D7F400832AC4135AC806D63697420741839357DF
:10D804007740135557400989858BC98F1355374085
:10D814001189C98F135517402189C98F1315170012
:10D824004189C98F1315370013750502C98F131564
:10D83400570093558700137505041E07C98F137786
:10D84400F70FD98F13D5354013D755401189098B5C
:10D85400498F13D57540498F13D515402189498FB8
:10D86400139515004189498F1395350013750502E9
:10D87400498F13955500137505049E05498F93F53B
:10D88400F50F4D8F2207D98FB387C7024AD04ECEEA
:10D894005EC662C4B697C207C18313D7774013D557
:10D8A40057400989058B498F13D537401189498F12
:10D8B40013D517402189498F139517004189498F42
:10D8C4001395370013750502498F1395570093D5A7
:10D8D4008700137505049E07498F93F7F70FD98FB7
:10D8E40013D5354013D755401189098B498F13D56A
:10D8F4007540498F13D515402189498F139515001B
:10D904004189498F1395350013750502498F139585
:10D914005500137505049E05498F93F5F50F4D8F3A
:10D924002207D98FB387C702130650025285D685C2
:10D93400B697BD8E93940601C18033F6C402137B5F
:10D94400F60F972004E0E780E06F05890DED83472B
:10D95400D41201498149B3849702130C5002C18047
:10D964004A865285D685972004E0E780A06D058914
:10D97400937BF90F11C563863403850993F9F90F75
:10D984000509E31F89FD230B6413B25022549254FA
:10D994000259F249624AD24A424BB24B224C456187
:10D9A40082805E8BCDB7011197570000938787D390
:10D9B40022CC03A4470B26CA06CE2AC42EC685440D
:10D9C40019E40145F2406244D244056182808347F0
:10D9D400910003471400858B6304F7000044CDB71E
:10D9E40019469305A10013052400EFF02FDDE3177A
:10D9F40095FE0545C1BF011122CC17540000130444
:10DA040024C318402AC62EC432C206CE3C4B93F718
:10DA1400F7F73CCB978003E0E78000C218409756A5
:10DA24000000938626BE3C4B93E707083CCB9C4200
:10DA34003245A24523A007000347150003482500EB
:10DA440022074208429703480500429703483500DD
:10DA54006208429798D70347550003486500220798
:10DA640042084297034845004297034875006208FC
:10DA74004297D8D7034795000348A50022074208D8
:10DA840042970348850042970348B50062084297CD
:10DA940098DB0347D5000348E50022074208429774
:10DAA4000348C5000345F500429762052A97D8DB71
:10DAB40003C7150003C52500220742052A9703C59D
:10DAC40005002A9703C5350062052A9798CF03C736
:10DAD400550003C56500220742052A9703C5450082
:10DAE4002A9703C5750062052A97D8CF03C7950006
:10DAF40003C5A500220742052A9703C585002A9776
:10DB040003C5B50062052A9798D303C7D50003C59A
:10DB1400E500220742052A9703C5C50083C5F50021
:10DB24002A97E2052E97D8D3D843759BD8C3D843F8
:10DB340013671700D8C398431367170098C3124696
:10DB440098425C43858BD1E71C4F01452300F600C6
:10DB54009C429C4FA183A300F6009C429C4FC1832E
:10DB64002301F6009C429C4FE183A301F6009C42F2
:10DB7400D84F2302E600D84F2183A302E600D84FF2
:10DB840041832303E600D84F6183A303E60098533F
:10DB94002304E60098532183A304E60098534183A9
:10DBA4002305E60098536183A305E600D8532306B2
:10DBB400E600D8532183A306E600D8534183230704
:10DBC400E600DC53E183A307F600F24062440561FA
:10DBD40082800100B5B7175700001307E7A214436A
:10DBE400411122C49C5E4AC006C6998326C2858B15
:10DBF4003A84175900001309E9A0D1CB9C5E9754CD
:10DC04000000938424A193F7F7F99CDE17570000D2
:10DC14000347A7A093070008631BF70083270900A5
:10DC24009C4393F70704175700002308F79E83C704
:10DC3400040093F707049DC3975700009387078652
:10DC44009C4382979757000023AEA79C83C7040088
:10DC540093F7F70B17570000230EF79A83C7440076
:10DC640093F707048DE7854717570000A306F79A33
:10DC7400975700009387C79B9C43096798C713076E
:10DC840000FC975600002389E698D844F8D31C403A
:10DC9400985F1183058B09CB985F3D9B98DF0547FF
:10DCA40097560000238AE696985F1D83058B11CB57
:10DCB400985F1377F7F798DF854717570000230D10
:10DCC400F79483270900D8430583058B19C7D843E4
:10DCD400759BD8C3D843799BD8C3B240224492449D
:10DCE400024941018280397106DE16DC1ADA1ED837
:10DCF4002AD62ED432D236D03ACE3ECC42CA46C8E8
:10DD040072C676C47AC27EC0F935F250E2525253DA
:10DD1400C2533255A255125682567247E2475248B0
:10DD2400C248324EA24E124F824F216173002030FE
:10DD3400975700009387C78F9443975700009387A2
:10DD4400678D03C70700058B11CB97570000238508
:10DD5400078C97570000A381078C828003C71700A4
:10DD6400058B65F7F85271FF83C75700DDB7175865
:10DD7400000013086889032708001C5F9583858BBE
:10DD8400D1E709C61C5BBD832300F60085CA83273F
:10DD94000800985B4607935767016356070093E7AB
:10DDA40007C0C207C18303970600C207C18709C71A
:10DDB400BA970947B3C7E7022390F60085CD834796
:10DDC40015008DCB9756000083C6268593F606046E
:10DDD4001387970089478DCA3A95034705008546FE
:10DDE40099471376F7066311D60262076187B9472C
:10DDF400634C0700832708009C5FED838D8B1757C6
:10DE04000000A30EF78081473E8582808547EDBFE1
:10DE1400411122C406C6175400001304648118403B
:10DE240049E9AE877453FDFE3E85B28597470000ED
:10DE34002383077E977003E0E7800056974700002E
:10DE44009387877C9C43B70680009843558F98C37B
:10DE5400D857719BD8D797470000A38F077A974765
:10DE64000000A389077A1C40094798C3B7F700E06C
:10DE740003A707D16D9B23A8E7D003A707D15D9B18
:10DE840023A8E7D07300501014401747000013076D
:10DE9400677883472700858B89EB83473700858B19
:10DEA400D9C79747000023890776B240224441012D
:10DEB40082808D476310F502974700009387C774EB
:10DEC4009C43B70680009843558F98C3D857719BDD
:10DED400D8D75DBF8547E319F5FAB567BD075CC7B9
:10DEE4000F1000001C400967094698C7130700F883
:10DEF400974600002382E672174700001307C77095
:10DF04001443984231830D8B6319C7001307E04310
:10DF1400F8D33D673D07D8C785BF984231830D8B41
:10DF240001E713076019EDB71307E01BD5B7FC52DF
:10DF3400ADF3A5BF5D7152DC174A0000130ACA6C29
:10DF440003270A0086C6A2C4A6C2CAC04EDE1C436A
:10DF54009749000093898972174900001309496D94
:10DF640093F7F7E793E707081CC383A6090037076D
:10DF7400CEFF7D179C46130680022A84F98F9CC627
:10DF840083270900130700082800B8CBAE84930543
:10DF94001008EFE03FFD977003E0E780E0699770B9
:10DFA40003E0E780E07683270A009376F41F370FB7
:10DFB400FCFF23A40700984B4E88CA881367F70315
:10DFC40098CBF84F130510F8D285137707E0558FD7
:10DFD400F8CF9843F576FD16758F98C39843B70626
:10DFE4003300B70204001377F7E798C39843930309
:10DFF400401F7D1F1377F7E71367071098C303A724
:10E004000900930F800285491C47D58F1CC78327BD
:10E0140009001307900D3400B8CB1149014713537D
:10E02400370026938347030013767700B3D7C7409E
:10E03400858BDDCF9C41832E0800239C070423900D
:10E04400070603AECE02137EDEFF23A6CE0383AE05
:10E054000700137EF70793FE0EF833EECE0123A0DC
:10E06400C70103AE4702336E5E0023A2C70383AE2B
:10E074000800014E23A27E0603DA070663074E0357
:10E0840003AE0703038A0600135EFE00620E135EEE
:10E094008E416358CA0103AE0703135EFE0023805A
:10E0A400C60103DE0706137EFE0F03AA4E066306AF
:10E0B4000A0003DA8705E37F49FB03AE4702337E98
:10E0C400EE0123A2C70383870600635CF400034EBA
:10E0D40003003396C9001346F6FF3376C6012300C6
:10E0E400C3003E8663D3A7002A8613158601618583
:10E0F40005071377F70F8506E313F7F3B6402644B5
:10E1040096440649F259625A61618280974600003A
:10E11400938606529C42D84713161701635506028C
:10E12400984713161701635006027D57B8D717474F
:10E1340000001307E72C584F050717460000232F4C
:10E14400E62C116798C798470D83058B1DC31747A5
:10E1540000000347474C1367170017460000230CC1
:10E16400E64A130700F8174600002307E64A21474A
:10E1740098C79847058B09CF17470000034797496D
:10E184001367170017460000A306E648054798C71B
:10E1940098470983058B09E798470583058B31CF99
:10E1A4009847174600001306E64617450000130576
:10E1B400A5450983058B6303071018411843318370
:10E1C4000D8B75EBAC4B184E93F505020347170006
:10E1D400CDCD79EF13077006D8CF03470600136738
:10E1E4001700174600002307E642114798C7184155
:10E1F4005C57F19B93E717005CD79C4298479316B2
:10E20400370163D606029746000083C6E654C18AE6
:10E21400174700001307074DC5CE03474707136789
:10E224000702974600002389E652056798C7984776
:10E234009316270163D10602174700000347C73D21
:10E2440062076187635707000547974600002385E7
:10E25400E63C096798C798479316070163D60602F8
:10E264009746000083C6564F858A17470000130758
:10E274006747ADCE0347570713672700974600004B
:10E28400A38CE64C216798C7828029D785456315FE
:10E29400B7001307B00689B789456315B70013079C
:10E2A400F0061DBF8D456315B700130730072DB762
:10E2B4001307500715B71307600739BF0347360024
:10E2C4001367170017460000A307E634094739BF50
:10E2D400834647070946BD8A6388C6000347470744
:10E2E4008D463D8BE313D7F4114725BF834657076B
:10E2F400918AC9DA034757071367870041B7397111
:10E3040006DE16DC1ADA1ED82AD62ED432D236D03D
:10E314003ACE3ECC42CA46C872C676C47AC27EC0E1
:10E32400F533F250E2525253C2533255A2551256AB
:10E3340082567247E2475248C248324EA24E124FAA
:10E34400824F216173002030174700001307872E86
:10E354008346B7019747000083C797304C4BB69765
:10E36400FD8B33D7F50097460000A385F62C97461E
:10E374000000A387F62E058B15EF1747000003470F
:10E38400772EB3F7E702814601471305000233D61F
:10E39400E500058A1378F70F19CA6397D7009747E2
:10E3A4000000A38907298280850693F6F60F0507E6
:10E3B400E31FA7FC8280974700009387270E9C43A6
:10E3C400011122CC4EC606CE26CA4AC852C456C231
:10E3D4008297974700009387E72780478149630521
:10E3E400A406BE8497470000938707070387670145
:10E3F4003E8963550706018D135455009747000065
:10E4040083C7E7249379F501636DF402370AC0A842
:10E41400B70A4057153F9C449746000083C62623FD
:10E42400139756003E9783076901158C63C507004F
:10E434006363470156979747000023A1E722E37BD4
:10E44400D4FC1604B3693401F24062444E85D244CC
:10E454004249B249224A924A05618280E37D85F8A5
:10E46400B707C0A833848740229579B7974700003F
:10E474009387C7029C43411122C406C626C28297D1
:10E48400974700009387071D80476309A406BE844D
:10E4940097470000938747FC8387670163D8070485
:10E4A400018D135455009747000083C7471A6367CB
:10E4B400F404593D98449747000083C7471993963D
:10E4C400570036971D8C9746000023A9E618E3727F
:10E4D400F4FE2244B24092441745000003459515CA
:10E4E40081454101177303E06700A369E37A85FA64
:10E4F400B707C0A833848740229565B7B240224449
:10E5040092444101828097470000938727179843DC
:10E51400B75702009387079F83260709139656006F
:10E5240063580600832607091396660063440600B1
:10E53400FD17FDF3828071C5AA870145E9C58D07E2
:10E54400C207C183F19BC207C18313074003636FF2
:10E55400F70217470000130767180843174700001E
:10E564001307471714436398A602174700001307BD
:10E57400A7EE185B014541CB4111C20706C605450C
:10E58400DD8D0297B24001454101828017470000AA
:10E5940013078714D9B70357650035E303574500BC
:10E5A400636FF704B306F7402146637CD602032861
:10E5B4000500938687001D8FAA96611717460000F1
:10E5C400035666E42392E60023A006012393060083
:10E5D40014C12312F500130786FF97460000239405
:10E5E400E6E22313B5009745000083D5C5E1B38760
:10E5F400F540174700002318F7E021058280084101
:10E604009DB70145828082800DC1974700009387A2
:10E61400E70C03A30700974700009387A70B83A881
:10E62400070081469A8763E31701828003A80700E5
:10E63400636DF50A636BA80A13878700E367E5FE39
:10E6440003D66700216705076317E60003C78196B1
:10E6540005072384E19697450000938565DA03D680
:10E66400470003D76500239307003297420741838D
:10E67400174500002319E5D8638A6702174500008F
:10E684001305850508416303F50203D5660019EDFA
:10E6940083D7460023A0060121073E962106239234
:10E6A400C600974700002390E7D6B6879843E30E49
:10E6B40017F797460000938626029442E307D7F69D
:10E6C40083566700BDF283D64700035647001843BC
:10E6D400A106B2962392D70098C383D76500A107F9
:10E6E400174700002311F7D28280BE86C28725BF58
:10E6F4000111974700009387E7FE22CC03A4C70BC0
:10E7040026CA4AC84EC606CEAA84130925008549DE
:10E7140015C083C7140003473400858B6304F700D6
:10E72400405CFDB71946930544004A85EFE01F8914
:10E73400E31835FF2285F2406244D2444249B2498B
:10E74400056182804111974700009387A7F922C48D
:10E7540003A4C70B26C24AC006C693042500054974
:10E7640001E82285B2402244924402494101828058
:10E77400A6851305A402971004E0E780E041E302B4
:10E7840025FF405CF1BF411197470000938787F54F
:10E7940022C403A4C70B26C24AC006C6930425009C
:10E7A400054901E82285B2402244924402494101CC
:10E7B4008280A6851305A401971004E0E780C03D7C
:08E7C400E30225FF405CF1BFF8
:10E7D0009751FF1F938181B117A1FF1F1301818200
:10E7E00017E5FFFF130545829725FF1F9385858158
:10E7F0001746FF1F130686FD63FAC5008322050036
:10E8000023A0550011059105E3EAC5FE1725040074
:10E81000130585FF9745FF1F938545FB13860185EB
:10E8200063FAC5008322050023A055001105910558
:10E83000E3EAC5FE138501859785FF1F938585FC57
:10E840006377B500232005001105E36DB5FEFD4299
:10E85000739002BC8D4273904280B7220000938275
:10E86000828873A002309712FF1F9382A27993E2ED
:10E870003200739052309722010093826295739018
:10E880001234730020303D432A876373C3029377A9
:10E89000F700BDEFADE5937606FF3D8ABA960CC34F
:10E8A0004CC30CC74CC74107E36BD7FE11E2828013
:10E8B000B306C3408A069702000096966780A600BA
:10E8C0002307B700A306B7002306B700A305B700C8
:10E8D0002305B700A304B7002304B700A303B700C0
:10E8E0002303B700A302B7002302B700A301B700B8
:10E8F0002301B700A300B7002300B700828093F57F
:10E90000F50F93968500D58D93960501D58D61B74A
:10E91000939627009702000096968682E78086FAF3
:10E920009680C1171D8F3E96E374C3F8A5B7336771
:10E93000B500FD530D8B79E7B7877F7F9387F7F796
:10E9400010419441B372F6003363F600BE92B3E215
:10E9500062006397720C6318D6065041D441B372BB
:10E96000F6003363F600BE92B3E262006398720A67
:10E97000631BD60410459445B372F6003363F6006A
:10E98000BE92B3E262006391720A631ED6025045E2
:10E99000D445B372F6003363F600BE92B3E2620070
:10E9A000639A72086311D60210499449B372F60053
:10E9B0003363F600BE92B3E26200639372085105BE
:10E9C000D105E30FD6F61317060193970601631CD2
:10E9D000F7001357060193D706013305F7409375E7
:10E9E000F50F91E982804183C1833305F740937528
:10E9F000F50F91E182801377F70F93F7F70F330547
:10EA0000F74082800346050083C60500050585059D
:10EA10006313D60065FA3305D6408280110591054F
:10EA2000E312D6FE014582802105A105E31CD6FC38
:10EA3000014582803105B105E316D6FC014582808F
:10EA40004105C105E310D6FC01458280014711460E
:10EA50004148B386E5008147B308F50083C8080044
:10EA60008507C10623A816FFE398C7FE1107110505
:10EA7000E31107FF8280935785019CC1935705419D
:10EA800093F7F70FDCC19357854093F7F70F137592
:10EA9000F50F9CC5C8C582801C41411113070501B3
:10EAA0003EC05C413EC21C453EC45C453EC6939799
:10EAB00025001408B69783A707FF85051105232EA7
:10EAC000F5FE8D89E315E5FE41018280397122DC76
:10EAD00041661384419E06DE26DA4AD84ED652D4C9
:10EAE00056D25AD05ECE93050501A2863708FF00A4
:10EAF0007D1683070500034735001105E207D98F0E
:10EB00000307D5FF9106420733770701D98F030723
:10EB1000E5FF2207718FD98F23AEF6FEE39BA5FC9C
:10EB200081499144930A010117CB0300130BCB24B5
:10EB300097CB0300938BCB21130AC00293F73400C9
:10EB4000032904004844BDE78A85353785450A8591
:10EB5000A1370A871C43110793F6F70093F7070FB5
:10EB6000DA97B69783C70700232EF7FEE394EAFEF1
:10EB7000024592476205C2075D8DB2475D8DA2478F
:10EB8000A2075D8D93972900DE979C4385093D8DF3
:10EB90003345250108C885041104E39144FBF25074
:10EBA0006254D2544259B259225A925A025BF24BE1
:10EBB000216182803345A90008C8F1BF797122D450
:10EBC00026D24AD04ECE52CC56CA06D62A8A93991D
:10EBD00045000144938A419E13090101C144B307D2
:10EBE0003401D69788438A85793533078A008A8726
:10EBF0001443904391074107B18E2328D7FEE39930
:10EC000027FF1104E31D94FCB25022549254025980
:10EC1000F249624AD24A45618280397122DC13048A
:10EC2000050106DE22878147C1460C433306F10009
:10EC300011070CC24C4710083E960CC24C4F1010E6
:10EC40003E960CC29107E392D7FE85450A85A93509
:10EC50008945080891358D4508103D3D814741475C
:10EC6000B306F10094421104232ED4FE1408BE967C
:10EC7000944254C41410BE969442910754CCE3912C
:10EC8000E7FEF250625421618280060593770510F9
:10EC900089C71375F50F1345B5018280411106C66A
:10ECA000ED37B2404101D5B781471148C14833869D
:10ECB000F500B306F500014703AE06003303E60096
:10ECC00005072300C301C106E31807FF9107E3907E
:10ECD00017FF82809306050117C603001306C609B5
:10ECE00013050505138706FF1C43110793F5F7006D
:10ECF00093F7070FB297AE9783C70700232EF7FE4F
:10ED0000E394E6FEC106E31FD5FC8280411122C4D4
:10ED100006C626C285472E846301F502894763181B
:10ED2000F5002244B24092442E854101B9BF8D477F
:10ED3000631BF5002E85913F298C2285B240224429
:10ED4000924441018280A5476315F5002E85B937AD
:10ED5000DDB7AD47631AF5002E8589373D37AA84A4
:10ED600022852537258DC9BFB5476316F5002E8549
:10ED70003537AA84FDB7B947E311F5FC2E85393F35
:10ED8000AA842137A98C228509373344950075B7A9
:10ED90006382051493F7F500639E07121571D6C3BD
:10EDA000AA8A3285A2CDA6CB86CFCAC9CEC7D2C584
:10EDB000DAC15EDF62DD66DB6AD96ED73284AE848B
:10EDC000EF80931CC147631EF50022850133014982
:10EDD000130A010697CB0300938B0B0E294C63415A
:10EDE0009902FE406E44DE444E49BE492E4A9E4A78
:10EDF0000E4BFA5B6A5CDA5C4A5DBA5D2D6182801B
:10EE0000338B2A010C105A859131814508107D33CE
:10EE100085490810C135081009351C10D2863E8777
:10EE200010434107C10623A8C6FE032647FF23AAB5
:10EE3000C6FE032687FF23ACC6FE0326C7FF23AE0C
:10EE4000C6FEE31FEAFC17C703001307E702032807
:10EE50000700832D4700032D8700832CC7005284B1
:10EE6000138607010C4042853ECE3ACC32CA42C8D6
:10EE7000713D0C482AC66E85513DB2460C501104B6
:10EE8000A98E6A8536C65935B2464C54A98E668518
:10EE900036C6AD3DB246F2475246358D88C391071E
:10EEA00042486247E310F6FC4107B287E391EBFA70
:10EEB000CE85081085091933E39D89F50810193DA1
:10EEC0000810A13BA9450810D539DA850810E93B9F
:10EED000410931B782809307F00F6384F60A2D71E0
:10EEE000232A911023282111B284232631111306DD
:10EEF00000102E89AA89930530020A85232E11104D
:10EF0000232C811036844132A2852685EFD0805093
:10EF100013178500935785003365F7002310A10070
:10EF2000A685228613053100930434002301810055
:10EF300093F4F40FEF70332E93F6F40089C64D046A
:10EF4000158C9374F40F1C02A697A6850A8517C624
:10EF50000300130666F6238007F01D3D26868A858A
:10EF60004E85EF70532B230099008320C111032499
:10EF7000811183244111032901118329C1101561D5
:10EF800082808280130101CD232481322322913299
:10EF90002A84AE84130620038145480023261132BB
:10EFA000DD302686A2856809EFD0F0151305D1095A
:10EFB000EF80837D93150501C1811305D109EFD041
:10EFC000102197C50300938565191305D109EFD06A
:10EFD000E0641DC5054597C503009385A518EFD0CE
:10EFE00020471765FF1F034555ABEF6080718320F5
:10EFF000C1320324813283244132130101338280E0
:10F0000097C50300938545171305D109EFD000611B
:10F0100019CD97C503009385A5160545EFD040434C
:10F020001765FF1F034575A7EF606070C9B797C5E7
:10F0300003009385E5151305D109EFD0205E0DC1BE
:10F04000371700408327C70AA16697C50300938539
:10F05000A514D58F2326F70A2545EFD0603F41BF81
:10F0600097C50300938505141305D109EFD0005B04
:10F0700011CD371700408327870AA16697C5030083
:10F080009385C512D58F2324F70AF9B797C50300D6
:10F09000938545121305D109EFD0405811CD37178C
:10F0A00000408327C70A97C503009385651193E73E
:10F0B00007202326F70A4DB797C50300938545110E
:10F0C0001305D109EFD0805511CD371700408327A4
:10F0D000870A97C503009385651093E707202324CB
:10F0E000F70A9DBF97C50300938545101305D10905
:10F0F000EFD0C05211CD371700408327870A8966A9
:10F1000097C503009385450FD58F2324F70AA9B728
:10F1100097C503009385050F1305D109EFD0005063
:10F1200011CD371700408327C70A896697C50300AA
:10F130009385050ED58F2326F70A39BF97C503009F
:10F140009385C50D1305D109EFD0404D11C937176F
:10F1500000408327870CA166D58F2324F70C41BD7F
:10F1600097C503009385050C1305D109EFD0004B1B
:10F1700011C9371700408327C70CA166D58F2326F6
:10F18000F70CB5B597C503009385450A1305D1095A
:10F19000EFD0C04811C59767FF1F23A1079281BD1B
:10F1A00097C50300938545091305D109EFD00047A2
:10F1B00001C5EF70603525BD97C5030093858508AF
:10F1C0001305D109EFD0804501C5EF70003A05B5B0
:10F1D00097C503009385C5071305D109EFD00044F7
:10F1E00001C5EF70802621B597C5030093850507FB
:10F1F0001305D109EFD0804201C5EFA0D016C5BBE1
:10F2000097C50300938505061305D109EFD000418A
:10F2100009C50545EFA0802CD9BB97C50300938590
:10F22000E5041305D109EFD0603F19C10145DDB7F1
:10F2300097C50300938505041305D109EFD0003E5F
:10F24000E31705DA97C50300938545031305D10934
:10F25000EFD0C03CE31D05D897C503009385850218
:10F260001305D109EFD0803B01CDB716004083A72D
:10F27000860C056713070780D98F23A4F60C85BB7E
:10F2800097C50300938585001305D109EFD0003998
:10F2900001CDB716004083A7C60C0567130707808A
:10F2A000D98F23A6F60CA1B397C50300938585FEDD
:10F2B0001305D109EFD0803601C91305D10EEF70C7
:10F2C000C372EF10214325B397C50300938505FD55
:10F2D0001305D109EFD0803401C5EF10E14401BB23
:10F2E00097C50300938545FC1305D109EFD0003382
:10F2F00001C5EF10A14CE5B997C50300938545FB07
:10F300001305D109EFD0803101CD19469305D10EF7
:10F310004800EF7043704800230501003125C1B952
:10F3200097C50300938545F91305D109EFD0002F48
:10F3300009C51145EFE0E0485DB997C50300938525
:10F3400025F81305D109EFD0602D01CDEF60F01C39
:10F350002A8697C50300938525F72545EFD000241D
:10F3600079B197C503009385A5F61305D109EFD0B0
:10F37000E02A0DC53018930521000A85EF601002C0
:10F3800003178103831621000316010097C50300AC
:10F39000938585F42545EFD0602091B997C503008A
:10F3A000938585F41305D109EFD0402701C5EF10EF
:10F3B000610C35B997F503009385C5071305D1098D
:10F3C000EFD0C0250DC13D469305D10E1755FF1F47
:10F3D000130505C0EF7023649757FF1FA38107C073
:10F3E000EF90202329B197C50300938525F01305DD
:10F3F000D109EFD0A0220DC92C1805461305D10E56
:10F40000EFD0A0630348B1038347A10303479103EF
:10F41000834681030306D10E97C50300938585EDCE
:10F420002545EFD0A017E1B697C50300938585ED7C
:10F430001305D109EFD0801E01C94145EFE04033EB
:10F440001945EF80905765B60346D109A5471306C5
:10F4500006FD1376F60FE3ECC7B89757FF1FA38698
:10F46000C76497C503009385A5EACDBD411106C6C3
:10F47000EF802072B240AA8617C703001307C7A9FE
:10F480001756FF1F1306C6B497C50300938505AA38
:10F49000114541016FD08010317122DD4AD906DF5C
:10F4A00026DB4ED752D556D35AD1034705009307D2
:10F4B00010042A892E846315F73A03471500930731
:10F4C0004005631FF738034725009307E0056319DC
:10F4D000F7382E86AA852545EFD0E0011306D00324
:10F4E000A2854A85EFD0C019AA84635A0500354623
:10F4F000A2854A85EFD0C018AA8463450508938980
:10F50000D4FF9307100363CF37074E869305390066
:10F510006808EF80432B1C11BE9917CA0300130A19
:10F520006ABA238E09F6D28A81494D4B83254A0057
:10F530006808EFD0A00E0DC18E09D69983D70900B7
:10F540004947636FF70017C70300130727988A0717
:10F55000BA979C43BA9782878509210AE39869FD87
:10F5600097C50300938545B525452DAA9305F4FF5E
:10F57000858D13851400C20581460146C1814A95D7
:10F58000EF306004FA506A54DA544A59BA592A5A88
:10F590009A5A0A5B296182809305F4FF858D138551
:10F5A0001400C205C1814A95EFF0DF9DE1BF13064B
:10F5B000F4FF058E138514004206418297C50300AF
:10F5C000938585794A95EFD020191754FF1F1304AE
:10F5D000E44B29C597C50300938585968808EF807D
:10F5E00083198808EF80431A1316050141828C089D
:10F5F0001385C17AEF90B01F97C5030093850597D7
:10F600001145EFC0F0641C40414593E717001757C0
:10F61000FF1F232DF746EFD0F038ADB797C5030095
:10F62000938585951145EFC0B0627D55EFD0703A56
:10F630001C40F99B1757FF1F232AF744A1B73D35FC
:10F6400091B71306F4FF058E13851400420641821C
:10F6500097C50300938545704A95EFD0E00F175486
:10F66000FF1F1304A44231C11C4097C503009385BA
:10F670006591880893E717001757FF1F2328F74065
:10F68000EF80630F8808EF802310131605018C08A4
:10F6900041821385C17AEF90901597C50300938539
:10F6A00025901145EFC0D05AF1BD97C50300938551
:10F6B000E58F8808EF80230C8808EF80E30C131691
:10F6C00005018C0841821385C17AEF9050121C40CD
:10F6D00097C503009385458FF99B1757FF1F232775
:10F6E000F73AC1B7EF80004A9757FF1F9387073A51
:10F6F000A853EF706306AE862A8697C503009385EC
:10F70000658D1145EFC09069B5BDEF60A0309DBD1E
:10F7100017C603001306C66497C503009385458C7E
:10F720001145EFC0B067B9BDEF80204D97C503000C
:10F730009385C58B3DF597C503009385258C95B7BB
:10F740000945EFA06037AA84EF7003012A86AE86D0
:10F75000254597C503009385A58BEFC0306497B707
:10F7600003009387A77D8843A6851754FF1F1304C2
:10F77000249EEF6013142320A422EF8090640325BD
:10F780000422EF60737DAE862A8697C503009385B9
:10F79000E58885BF81450D45EF601037EF80A03EBD
:10F7A0002A8697C503009385258A9DBF8145194503
:10F7B000EF609035814513055002EF60F03497C536
:10F7C0000300938565891D45EF601034EF80003C90
:10F7D0002AC6EF80603CB2462A871746FF1F1306F1
:10F7E000267F97C50300938565871145EFC0105BA1
:10F7F00051BB1757FF1F035767B79756FF1F9386D5
:10F80000469F1746FF1F1306A67C97C503009385E6
:10F810002587E1BF85471757FF1F2301F7B6EF8004
:10F82000505A97C503009385E586A5BD1757FF1F5E
:10F830000347C7B4854797C5030093852586E31220
:10F84000F7E6C5B79757FF1F93874724E84FEF6048
:10F85000B370AE862A8697C503009385A58455B5F7
:10F860000146A2854A85EF60F00729BBB147230016
:10F87000F50093871600A300F5002301B5002A8741
:10F880008D4711C2B9EE0146814605069375F60F04
:10F8900063EBF5043306F70013852700850793F71C
:10F8A000F70F2300D600BA971375F50FB5462380DE
:10F8B000D7002A972300070082803305B60003454E
:10F8C000050085052380A70013F5F50F9307350084
:10F8D00093F7F70FBA97E362D5FE8D0693F7F60F0D
:10F8E0005DB78145D5B7B305C70083C50500AE96A2
:10F8F00093F6F60F59BF797122D42304B1002A84FC
:10F90000A304C1008946300093050008680006D6AC
:10F91000B13F131605016C0022854182EF001151A1
:10F92000B2502254456182801D71AA851946480053
:10F9300086CEA2CC231201002303010002C402C61A
:10F9400002C802CA02CCEFC0106F8D46500093056A
:10F95000A00A2800213F131605012A846C082800FC
:10F960004182EFC0D068980893171400BA977408C2
:10F97000228697C503009385A5A71545238607FC16
:10F98000EFC0D041F6406644256182801171A6DB4C
:10F990001306C003AA8481450A8586DFA2DDCAD981
:10F9A000EFE07FEE1306C00381456818EFE0BFED7E
:10F9B000130680078145A818EFE0FFEC2685EF10BD
:10F9C000017119ED268697C503009385A5B81545E5
:10F9D000EFC0D03CFE506E54DE544E59116182800F
:10F9E000930700032300F1000A8781479745FF1F13
:10F9F0009385055EBD463386B7000346060085073E
:10FA000005072300C700E398D7FE9757FF1F83C75A
:10FA1000C7132308F100C54685C71757FF1F1307F3
:10FA2000E706C547930600028345F70B3306F1004E
:10FA300085072300B6000507E398D7FE930600026A
:10FA40000A8693050008681815351319050113591E
:10FA500009014A866C182A842685EF00313D4A86C2
:10FA6000AC186818EFC0B0589C1906043E94B4183E
:10FA7000268697C50300938565B01545230404F8D1
:10FA8000EFC0D03181BF1171A6DB1306C003AA8479
:10FA900081450A8586DFA2DDCAD9EFE0DFDE1306E5
:10FAA000C00381456818EFE01FDE1306800781451B
:10FAB000A818EFE05FDD2685EF10616119ED26865D
:10FAC00097C50300938505A91545EFC0302DFE505D
:10FAD0006E54DE544E591161828093071003230047
:10FAE000F10097C70300938767A58C439757FF1FC3
:10FAF0009387C7F9E84FEF60D317EF609340420553
:10FB0000418193578500A300F1002301A100EFA0DC
:10FB1000C0699747FF1F9387A74B83D7470699462E
:10FB2000A301A10013978700A183D98F0A869305AB
:10FB3000000868182312F100153B13190501135929
:10FB400009012A844A866C182685EF00312E4A86E0
:10FB5000AC186818EFC0B049931714009819BA97F9
:10FB6000B418228697C503009385859D2545238477
:10FB700007F8EFC0B022A1BF2D71232A91102328CE
:10FB8000211123263111AA84AE89328981451306B9
:10FB9000C0036800232E1110232C81103684EFE05F
:10FBA0009FCE1306C0038145A800EFE0DFCD13060A
:10FBB000900781454801EFE01FCD2685EF102151C8
:10FBC0000DE5268697C503009385C5981545EFC0BA
:10FBD000F01C8320C11103248111832441110329C6
:10FBE00001118329C11015618280930720033D46CE
:10FBF0009755FF1F938575F54E852306F100EF702D
:10FC0000D33951E19757FF1F238187F41756FF1F00
:10FC10001306B6F397B503009385857E1545EFC0AF
:10FC2000F0172285CA85EF00313D05449757FF1F25
:10FC300083C7A7F199C3EFE0806B894670009305F5
:10FC40000008A800A30681001531131905011359F6
:10FC500009014A86AC002A842685EF00311D4A86B8
:10FC60004C01A800EFC0B0381C0206043E945401B9
:10FC7000268697C50300938525841545230204F83D
:10FC8000EFC0D011B9B79757FF1F83C707ECA5E79F
:10FC900039C085471757FF1F2309F7EA1757FF1F7A
:10FCA0001307C7DE8147BD463386F90003460600C9
:10FCB00085070507230FC70AE398D7FE9757FF1F4D
:10FCC000238D07E81756FF1F130636E897B5030084
:10FCD00093850576A1B71756FF1F130616E797B54C
:10FCE0000300938525771545EFC0500BCA85014564
:10FCF000EF00913025BF1756FF1F130616E597B585
:10FD00000300938565781545EFC05009CA85014504
:10FD1000EF00912E014419BF1D71A2CCCAC8D6C2F2
:10FD200086CEA6CACEC6D2C4DAC05EDE62DC66DA91
:10FD30006AD86ED62A842E89B28A02CC231E01008C
:10FD4000EF00712F93178501E18763D9070222869F
:10FD500097B503009385C5771545EFC03004F6408D
:10FD60006644D6444649B649264A964A064BF25B53
:10FD7000625CD25C425DB25D256182809374F50F56
:10FD80002685EF10A1332AC68147354C975CFF1FAB
:10FD9000938CCCCF130B1003130D2003930DA00AEB
:10FDA000E3FF57FB3306F90003470600B146631C27
:10FDB000D70693854700E3D455FB034A1600938981
:10FDC000370033874901635057074A9703470700B5
:10FDD000631B8705014781463305E600034515008F
:10FDE00005071377F70FAA9693F6F60FE376EAFE68
:10FDF00033074601034727006317D70203A7CC0345
:10FE0000B2468907B30BF900239AE60003C70B003B
:10FE10006300670B636DEB00930700036306F7084D
:10FE2000D29993F7F90F850793F7F70F95BF6304FE
:10FE3000A709E317B7FF19462C0833053901EFC0AE
:10FE4000101B19469745FF1F938525562808230F39
:10FE500001009710FF1FE780A01605476313E50216
:10FE60002285EF10212083C50B0022850546EFF087
:10FE70009FA897B50300938525691545EFC0405DA0
:10FE800045B783C50B0022850146EFF0DFA69746F4
:10FE9000FF1F93868651300897B503009385456808
:10FEA0001545EFC0A06FADBF2285EFF03FAE8DBF0F
:10FEB0002285D13EB5B783463600CA95268622856F
:10FEC0006539B9BF411122C4216493050480994664
:10FED0000146254506C69710FF1FE780C0CE930553
:10FEE00004802244B2409946138601852945410188
:10FEF0001713FF1F670023CD99E10145828075DD4F
:10FF0000011152C403DA418526CA93548A0085043C
:10FF1000A204C204C18056C2B38A4441C20A22CCA0
:10FF20004AC82E862E842A8997B503009385857446
:10FF3000254593DA0A014EC606CE93890185EFC0A6
:10FF4000E06563ED8A0883D5418593F7F50FB1CF5E
:10FF50008D6783D5418593870780A2864A86BE95A3
:10FF600029459710FF1FE78000C61375F50F29ED8F
:10FF700083D749001566A297239AF18403D7418558
:10FF800083D721856309F70063F3E700B297998F60
:10FF9000139607014182254597B503009385056FA8
:10FFA000EFC0C05F1375F40F0DA08D6793870780B6
:10FFB000930600100146BE9525459710FF1FE78068
:10FFC00080C01375F50F49D50145F2406244D24413
:10FFD0004249B249224A924A05618280B30794405D
:10FFE000D297C207C183A18303C74900850793F74E
:10FFF000F70F9396870011EB9386170093740AF01E
:020000021000EC
:10000000A206C204C206C180C18283D7218563F6DD
:10001000F40033879600E3C9E7FA0D6A130A0A80F1
:100020000146B385440125459710FF1FE780A0B91D
:100030001375F50F51F983D54185A2864A86D2956D
:1000400005B7411122C413840185228581451946D3
:1000500006C69710FF1FE78020F19307B0FA230030
:10006000F4008D352244B24097B5030093850559BD
:10007000254541016FC0C03DA165411199461386D8
:100080000185938505802D4506C69710FF1FE780E3
:1000900080B303C701859307B00A6303F7005537A0
:1000A000B24083D6418503D6218597B50300938559
:1000B000A555254541016FC0604E83D741A9014533
:1000C000638F071003D561A96366F50023AA01A811
:1000D000014582803385A740D1473355F50213751A
:1000E000F50F01E5239A01A88280130101BD2324A5
:1000F0008142232611422322914223202143232E91
:100100003141232C4141232A514195471374F50F66
:1001100063F3A7001544228697B503009385C5585D
:100120002545EFC0A04701498144938981A9514ADF
:10013000A14A9377F90F03D561A91747FF1F03471A
:10014000C71763EC8704D1473304F4022A94239B36
:1001500081A8A147631FF706A6850808EF4010068F
:1001600003D761A983D741A96364F70023AA01A833
:100170008320C1420324814203D541A98324414203
:10018000032901428329C141032A8141832A414134
:100190003335A000130101438280B30749031408DB
:1001A000AA97CE9733859600631E5701BE85EF4010
:1001B00070202317A1008357E1000509BE94C204F3
:1001C000C18085BFAA851306E1003E85EFA0A05D32
:1001D000DDB726860C080145EF60103051B78280EC
:1001E000011106CE22CC26CA4AC84EC691E9014466
:1001F0002285F2406244D2444249B249056182807C
:10020000AA8975D583D7418503D621852E84956427
:10021000638AC7006374F60015673A961D8E9314BF
:100220000601C180268697B503009385253A2545AA
:10023000EFC0C036938714F06356F4009307F00FB5
:1002400063EA970097B503009385C5392545EFC04C
:10025000E03471BF83D4418533878400956763C7D9
:10026000E700A2854E854939B13959B71569330977
:100270009940420913590901CA854E85B53925D9D6
:10028000ED75A695A295C205239A0184C181338597
:100290002901D1BF83D641A981EA97B5030093858F
:1002A000E53A25456FC0C01A03D661A94111918E68
:1002B00097B503009385853A254506C6EFC0002E05
:1002C000138741A98355070083D761A9138581A9A5
:1002D0009D8DC2053E95C1812137B24023AA01A858
:1002E00041018280411183D741A922C426C206C69A
:1002F000AE9713070020AA842E84635AF700593F53
:1003000097B50300938545322545EFC0601483D728
:1003100041A9138581A92286A6853E95EF60A36F2A
:1003200003D641A9229642062244B2409244418219
:10033000239AC1A897B503009385853025454101CF
:100340006FC0C025011126CA06CE22CC4AC84EC6AF
:1003500052C456C2814459C1D1C183D7218503D427
:100360004185638D870663F587081D8C42044180B3
:10037000AE892A89228697B503009385A521014578
:10038000EFC0C021A28463F38900CE84C2040D6A49
:1003900083D7218503D74185C180938A0185130ABC
:1003A0000A8063FAE704A6864A86B38547012D458D
:1003B0009710FF1FE780208183D72A00A6972399F3
:1003C000F184EFF03FB083D6418503D6218597B500
:1003D00003009385651D2545EFC0401CF240624433
:1003E00026854249D244B249224A924A0561828016
:1003F00015673A949DBF15671D8FB385470163D577
:10040000E400A6864A8665B79569B389F9406D749C
:100410003E94C20993D909012694CE864A864204A5
:100420002D459700FF1FE780007A4180A2863306A2
:100430003901D2852D45239901849700FF1FE7805C
:10044000807883D72A003E94239981849DBF938727
:10045000018503D5270083D747001D8D133515006F
:100460008280397126DA4AD84ED652D456D25AD022
:1004700006DE22DC62CE66CC2A89EF70E33093740C
:10048000F50F8149254BE54A17BA0300130A8A275D
:1004900091ECF25062544E85D2544259B259225ACC
:1004A000925A025B724CE24C216182800347090040
:1004B000930707FD93F7F70F637CFB009307F7F9AA
:1004C00093F7F70F63E2FA06930797FA93F7F70F9C
:1004D000139487016184FD14230089002685EF5061
:1004E000B32F2A86AE8603250A0083254A0093F49B
:1004F000F40F0509EF00B1782AC422852EC6EF500B
:10050000B32D2246B246EF40D35D2A8C4E85AE8C89
:10051000EF50B3332A86AE866285E685EF3053719D
:10052000EF50D325AA89ADB79306F7FB93F6F60FE4
:100530008147E3EFDAF8930797FC49BF411122C4E2
:1005400006C6830795022A8499C713059502EF60B2
:10055000C3492389A1088307D41291CB1305D41270
:10056000EF604348EF60032A93870106C8D3B24087
:10057000224441018280011126CA9304150022CC35
:1005800097B503009385C51D2A84268506CE4AC8E3
:100590004EC6EFC0A010631E051097B503009385EB
:1005A000651C2685EFC0800F6302050E8544830716
:1005B000D4036386070C13059402EF600343854957
:1005C0001379F50F1305D4036387340F8947638CC0
:1005D000F418EF608341A38AA108631A39017946B0
:1005E00081451385710B238B0184EFE0CFA983072D
:1005F000D40885C31305D408EF60233F03C7618582
:1006000093071700238BF18493870106BA97A38B76
:10061000A7048307D40D85C31305D40DEF60E33C15
:1006200003C7618593071700238BF1849387010625
:10063000BA97A38BA7048307D41285C31305D412DA
:10064000EF60A33A03C7618593071700238BF184FA
:1006500093870106BA97A38BA7048307D41785C392
:100660001305D417EF60633803C76185930717003C
:10067000238BF18493870106BA97A38BA704F240DA
:100680006244D2444249B2490561828097B5030071
:100690009385850D2685EFC06000E31905F026855A
:1006A00097B503009385850CEFB0507F8944E31024
:1006B00005F08144EDBDEF604333238BA108631A3D
:1006C00099007946814513859109238B0184EFE0D8
:1006D0008F9B8307D40885C31305D408EF60E330EC
:1006E00003C7618593071700238BF1849387010665
:1006F000BA97A38CA7028307D40D85C31305D40D25
:10070000EF60A32E03C7618593071700238BF18445
:1007100093870106BA97A38CA7028307D41285C3D7
:100720001305D412EF60632C03C76185930717008C
:10073000238BF18493870106BA97A38CA7028307C2
:10074000D417E38E07F21305D417EF60032A03C70B
:10075000618593071700238BF18493870106BA976D
:10076000A38CA70229BFEF604328A38BA10801BF78
:10077000411122C406C6830795072A8499C7130529
:100780009507EF608326A389A1088307D40899C73A
:100790001305D408EF606325238AA1088307540B4F
:1007A00091CB1305540BEF60E323EF60A305938710
:1007B000010688D7B240224441018280411122C4FF
:1007C00006C6030715058147014419C703444505BB
:1007D000130404FD1374F40F0307550619C713051A
:1007E0005506EF6083209377F50F1374B40F0D4710
:1007F0006311E4021D47637EF7009747FF1F93874D
:10080000E7289C4337072000D98F1747FF1F232F66
:10081000F726B240224441018280011126CA814656
:10082000B284014652C456C206CE22CC4AC84EC635
:100830002A8AAE8AEF40130E41CD9307E004638607
:10084000F400930730056395F40897B90300938982
:10085000E9EE03A6090083A649005285D685EF403C
:10086000532837949800EF506371130404682A8961
:1008700033758502EF50637D03A6090083A6490006
:10088000EF40032E97B703009387C7EB9043D44301
:10089000EF40032D2A8A33558902AE8AEF50E37A5E
:1008A0002A86AE865285D685EF30933813073005F9
:1008B000AE876395E400B7070080AD8FF2406244D5
:1008C000D2444249B249224A924ABE850561828099
:1008D00001458147E5B7011126CA8146B284014628
:1008E00052C456C206CE22CC4AC84EC62A8AAE8A06
:1008F000EF40530241CD930750046386F400930701
:1009000070056395F40897B90300938929E303A65A
:10091000090083A649005285D685EF40931C379481
:100920009800EF50A365130404682A893375850283
:10093000EF50A37103A6090083A64900EF404322AC
:1009400097B70300938707E09043D443EF404321D8
:100950002A8A33558902AE8AEF50236F2A86AE86E3
:100960005285D685EF30D32C13077005AE8763957B
:10097000E400B7070080AD8FF2406244D2444249A0
:10098000B249224A924ABE8505618280014581476B
:10099000E5B7135785009357050113D88500937663
:1009A000F50F01111377F70F93F7F70F618593F5A3
:1009B000F50F1378F80F99C211C3B9E3230CD100D6
:1009C000A30CE100230DF100A30DA100034591014B
:1009D000834781010347A1012205A30E01014207BC
:1009E000C98F230EB1000345B101D98F0347D1014F
:1009F0008345C101620522075D8DD98D0561828025
:100A000032951375F50F13138501135383415D461A
:100A10006357660861463363C30285071376D70FB1
:100A2000114593F7F70F6305A6002545631AA60045
:100A30007946637FF60205071377F70F85470DA800
:100A400009466312C7041386067D93084006B368FF
:100A500016036385080013F5360011C51305001948
:100A60003366A60219EE75466374F60085470D4796
:100A7000230CD100A30CE100230DF100A30D6100B4
:100A8000B1B77146D5B77D46E374F6FEB147E314BE
:100A9000F7FA850693F6F60F85470547D1BFE35968
:100AA00003FC6105FD171313850193F7F70F13532B
:100AB0008341DDFF7D171377F70F1146F947E309EF
:100AC000C7FA1946E306C7FA2546E303C7FA2D46D7
:100AD000E300C7FA89476316F7021386067D93077A
:100AE0004006B367F60291C793F83600F547E381F5
:100AF00008F893070019B367F60293B71700F107D8
:100B000085BFFD4735F7FD1693F6F60F31478DB7D4
:100B100083471500034705000111A2075D8F834736
:100B200025008346350083454500C207D98F03471A
:100B3000550022CC1734FF1F1304846103062420C0
:100B4000E206220733E5F600D98D06CE9935135813
:100B500085001356050193D7850013F7F50F93F71A
:100B6000F70F935685011376F60F9375F80F1375EB
:100B7000F50FEF80305183471400054793F7B70F07
:100B80006397E7006244F24005616F80305FF24096
:100B90006244056182804971232481161384010611
:100BA0008307340083C8510603C8410603C72106E2
:100BB00083C6110603C6010697B50300938505BDDC
:100BC0004810232611162322911623202117232EA5
:100BD0003115EF60F3354810EF60133B18485C485F
:100BE000030604033AC03EC2030814035C441844DD
:100BF000541097B50300938565BB3695EF6053336A
:100C00004810EF6073385C103E958307640017B698
:100C10000300130626B789C717B60300130606B6E6
:100C200097B5030093850578EF6093304810EF6027
:100C3000B335544C104C5C1097B50300938505B840
:100C40003E95EF60F32E4810EF6013340306340333
:100C50005C103E9597B50300938505B7EF60532D63
:100C60004810EF60733203072403AA8448503ACE39
:100C700013840106EF50532E72475C10AE862A860D
:100C800097B50300938545B533859700EF60532AE8
:100C90004810EF60732F5C1003C6410997B503003D
:100CA000938505B53E95EF60B3284810EF60D32DCE
:100CB0005C1097B503009385A5B43E95EF60B32B08
:100CC0001389E107A28497B90300938969FA03C6DF
:100CD000740519CA481032CEEF60132B72465C10AF
:100CE000CE853E95EF60D3248504E39224FF48101F
:100CF000EF6093295C1097B503009385E5B03E95AE
:100D0000EF60732797B40300938484F6034694033B
:100D100019CA481032CEEF60332772465C10A685A0
:100D20003E95EF60F3200504E31224FF4C102545A7
:100D3000EFB000728320C11603248116832441166C
:100D4000032901168329C11575618280411122C4CE
:100D500006C626C2830755012A84B9C7A9469387C8
:100D600007FDB387D70203476501130707FDBA974D
:100D7000A381F1060307750183478501130707FD6A
:100D80003307D702938707FD3E972382E106830747
:100D900095010347A501938707FDB387D702130782
:100DA00007FDBA97A382F1068307940281CB13074C
:100DB00010046390E71485472383F1068307D40367
:100DC0009384010699C71305D403EF50B34188C437
:100DD000CCC40306140509CA8844CC442388C1083E
:100DE000EFF0BFA388C4CCC48307540699C713058A
:100DF0005406EF50333F88C8CCC80306940709CA8D
:100E00008848CC48A388C108EFF0FFAC88C8CCC89C
:100E10008307D40899CF1305D408EF50B33C97B794
:100E20000300938727959043D443EF40834B88CCAE
:100E3000CCCC8307140A99C71305140AEF50F33A70
:100E40002390A1088307540BB9C7A946938707FDD0
:100E5000B387D7020347640B130707FDBA972381B3
:100E6000F1060307740B8347840B130707FD330751
:100E7000D702938707FD3E97A380E1068307940B73
:100E80000347A40B938707FDB387D702130707FD1A
:100E9000BA972380F10683853400856703C641062F
:100EA000938707E11307C0033307E60283C65106A1
:100EB000B387F502BA97B69723A6F1081747FF1F25
:100EC0001307C7BC1C433A8413F5870039E1038537
:100ED00064000547631FE50203C7210611EF88443C
:100EE000CC4401468146EF40E32205E92383010615
:100EF000B9A023830106D9B5FDD175D2EDD293E710
:100F00008700138501061747FF1F2321F7B8EFF06D
:100F10003FC083876400E1F7D1BF8848CC480146D1
:100F20008146EF40231F79D183C72106E1D3130601
:100F3000800793850106138581FEEF50D32D03C5ED
:100F400081C99D4705053365F50213068007938522
:100F50000106238CA1C8930780073305F502938708
:100F600001CA3E95EF50332BEFF0FFC25C5C224488
:100F7000B24092441747FF1F232CF7B41306800793
:100F800081451385010641016FD0FF8F0171232C2C
:100F9000811E232A911E1306101E2A84AE84680027
:100FA0008145232E111E2328211FEFD0DF8D81457F
:100FB0008147014701465148CD485D43634196084A
:100FC00099C12306F1001306A002A6852285EFB081
:100FD000206B8347C10051473386A440B387E702A3
:100FE0009305150078007D16A29585073305F70057
:100FF000EF5073221306A002A68522850349140030
:10100000EFB00068894763C4A7080345C100D14712
:101010003305F5027C0005053E95EFF08FC4631D96
:10102000A904194697A50300938545721305D100BD
:10103000EFB080722DC56800EFF05FD135A8B30620
:10104000C40003C50600930665FD93F6D60F91EA2A
:10105000850793F7F70F6361F3028545014705069E
:10106000B1BFB3860703130E011FF296BA96A38E83
:10107000A6E00507E3D5E8FE8320C11F0324811FF6
:101080008324411F0329011F13010120828033079C
:10109000F4000347070085073349E900ADB7194657
:1010A00097A503009385C56A1305D100EFB0C06A08
:1010B00039E9194697A503009385C5691305D10041
:1010C000EFB080690DED194697A503009385C568BB
:1010D0001305D100EFB0406819ED194697A503003C
:1010E0009385C5671305D100EFB0006751D568003F
:1010F000EFF0CFEC51B76800EFF0EFC7B5BF680075
:10110000EFF00FE795BF6800EFF04FC3B5B775710B
:1011100022C526C34AC1CEDED2DCD6DADAD806C76B
:10112000AA892E89814401448147130A4002854AD5
:10113000354B139704014183636C2701BA402A445D
:101140009A440A49F659665AD65A465B49618280E2
:10115000338799000347070063004703639C5701E7
:10116000631D67019C18A297A2856800238E07F86B
:10117000313D8147850475BF01449C18A297050441
:101180001374F40F238EE7F893373406E5B7411153
:1011900006C6138581C9834705001307800781456B
:1011A000B387E70213068007A1073E95EFD0AFEDA6
:1011B000B2408145214541016FB01076138581C948
:1011C0008347050013078007B387E702A1073E9511
:1011D0008280138581FE8280397126DA97A403000C
:1011E0009384C44F62CC66CA328CB68C9040D44093
:1011F00006DE22DC4AD84ED652D456D25AD05ECE23
:101200006AC842C046C217A403001304A44D3AC4DE
:101210003EC6EF40030D1040544017AD0300130DC0
:10122000ED4CEF30F3132247B2479040D4402A8A66
:10123000AE8A3A85BE85EF40C30A10405440EF3075
:1012400033122A89AE892A86AE865285D685EF402A
:10125000C35403260D0083264D00EF408308EF00A2
:10126000E10C2A8BAE8B5285D685EF0001032A8ACA
:10127000AE8A4A85CE85EF004102024892482A890B
:101280004286C686AE896285E685EF40035190406E
:10129000D440EF40030510405440EF30730C032658
:1012A0000D0083264D00EF40C303EF0021082A8480
:1012B000AE844A86CE865285D685EF40830222864A
:1012C000A686EF4003022286A686EF4083012A8489
:1012D000AE845A86DE865A85DE85EF4083002A86F4
:1012E000AE862285A685EF30A314EF00A14BEF0058
:1012F000210D2A86AE86EF30A31397A703009387AC
:10130000673F9043D443EF30D37D97A70300938783
:10131000E73E9043D443EF30D37CF2506254D25432
:101320004259B259225A925A025BF24B624CD24C49
:10133000424D2161828018419387810D104598C3E9
:1013400003574500544590C72392E700585510496C
:10135000D4C7544998CF97A503009385A53C05476A
:10136000254590CBD4CB238EE7006FB0600E238A47
:10137000010E82801305800783C781C9B387A70246
:10138000938681C97D55B385F6000387E50025CF97
:10139000197186DEA2DCA6DA03C6410F1387810D20
:1013A00019EAA1073385F60079377955F650665466
:1013B000D65409618280032887008328C7005C4BCC
:1013C0009049184BD449884DCC4DEFF0FFE02A8668
:1013D000AE862A84AE84680097A503009385052E07
:1013E000EF6003356C002545EFB080061735FF1F11
:1013F000034515E0EF40533E2286A686EF30136387
:101400001325050065B782809737FF1F83C7B7682C
:1014100081CF9737FF1F83D7E7F3FD17C207C1833B
:101420001307A0036375F70023AC01848280597110
:10143000CECE9389818583A70900D6CA938A81C9B4
:101440008507A2D4A6D2D2CCDAC8DEC6E2C4E6C2F0
:10145000EAC086D6CAD023ACF18483C481C9014ACC
:10146000130C8007568497AC0300938C2C2A054DEF
:101470009D4B154B3389840356998307E900E1CFCF
:1014800003A60C0083A64C0003250902832549020C
:10149000EF30D3596341050C83470904638DA70BD3
:1014A00093171A005808BA97035789022390E70048
:1014B0007C00D29723809700050A9904B3E4740353
:1014C000E31A6AFB0357C10183574101998F13D770
:1014D000F741B98F998F939407011307400BC1808F
:1014E0006358F70093078016B3849740C204C18005
:1014F000268697A503009385E5210810EF60432316
:101500000C102545EFA0D074938714FFC207C18348
:101510007947636CF70A0349D100130A80078545B0
:10152000014533094903210922994A86EF90501455
:101530008344F10085450145B3844403A104A2948A
:101540002686EF90F012CA850D45EF30E068A6853B
:101550000D45EF30606883A709001737FF1F035759
:1015600067DF63E6E704EFF0FFE085476311F5040A
:101570009304800703C681C9330696028545014559
:1015800021062296EF90D00E83C581C9B3859502BE
:101590000D45A105A295EF30206403C581C933052F
:1015A000950221052295EFF01FD923AC0184B65096
:1015B000265496540659F649664AD64A464BB64BC7
:1015C000264C964C064D656182809307D002E3F469
:1015D00097F8834BC100930A80078545B38B5B0363
:1015E0000145138C8B00229C6286EF907008034BA0
:1015F000D10085450145330B5B03A29B210B229B48
:101600005A86EF90F006034AE10085450145330A0A
:101610005A03210A229A5286EF9090050349F1005D
:101620008545014533095903210922994A86EF90DE
:1016300030048344010185450145B3845403A1046A
:10164000A2942686EF90D002E2850D45EF30C05877
:10165000DA850D45EF304058D2850D45EF30C05743
:10166000CA850D45EF304057A6850D45EF30C05671
:1016700083C781C9B38A570303A74B03A29A83A7E1
:101680004A03E31AF7EC85472380FA04E9B591474A
:1016900063E5C70E17A703001307C7170A063A9694
:1016A0001C42317122DD4AD94ED706DF26DBBA97BC
:1016B0003684AE892A89828797C503009385058E73
:1016C0001145EFA0F058CA851145EFA0705897C595
:1016D00003009385658E1145EFA09057FA506A5428
:1016E000DA544A59BA5929618280EDDA9042EF50B2
:1016F00000690146975500009385856E3D45EF30A2
:10170000B05CE9BFE1DE2314B40048C003C5A60005
:1017100036869545EF90C075D1B7E9D21306C0095A
:1017200081454800EFD02F9693078009CE8463F45B
:101730003701930480094A8697C503009385C589BC
:1017400048008D04EF50D37EC204C1801C11A697BF
:101750005000A68697C5030093858588254523827A
:1017600007F6EFA0B0630345B40026864C00EFE017
:10177000F06BADB7EF30F01595B78280411106C61A
:10178000EFA0000CB24041016F90B0505D71A6C255
:101790009714FF1F938484359C40A2C486C67D5451
:1017A00063808704AA856800EF50F37CEF90702A6D
:1017B0006800EF50737D9387C185904393150501B1
:1017C0009726FF1F9386467FC1816800EFF03FECAC
:1017D00003C50400EF30B05F9717FF1F23A88730C1
:1017E000B64026449644616182809717FF1F938715
:1017F000E72F9843FD576301F702411117B5030026
:101800001305459806C65937B240FD571717FF1FF5
:10181000232EF72C41018280FD571717FF1F232726
:10182000F72C82805571130660098145281086C700
:10183000EFD06F85930751025810930631021306BB
:1018400021029305110213056102EF70907DEFF004
:10185000FF96030305039305E004835661020347E3
:101860001102834721020348310283484102034E9B
:10187000510217E60300130666B26316B30017C6DB
:101880000300130626B3830E150313035004032F1E
:101890008500832FC50097C503009385A5B1638696
:1018A0006E0097E50300938565AF0323050183234D
:1018B00045017AC41ACC1ECE7EC672C02EC832C272
:1018C00097B50300938585861726FF1F130646707C
:1018D0002810EF50F365EF90F0002810EF50D36A16
:1018E000938701869043931505019386810F2810F5
:1018F000C181EFF0DFD9BE4069618280411106C627
:1019000023A0B18601CA1C4223ACF10E8347A60076
:101910002381F11083071505B9E30545EFB0503D6C
:101920000545EFB0106A0545EFB0D00797A5030055
:10193000938505FD2545EFA0B0310545EFB0506317
:101940009737FF1F938787149C43B24093E70701A3
:101950001737FF1F232CF71241016F90E077130711
:10196000F003E38CE7FA13051505EF5003088947E8
:10197000E3D5A7FAB24041018280411122C42A84F2
:101980008307140506C626C22E8589C71307F003F0
:10199000639CE7029737FF1F83C777851737FF1FC1
:1019A0001307D7819726FF1F9386367E1726FF1FC2
:1019B0001306967A97A503009385C5FF2244B2408B
:1019C000924441016F50D3569727FF1FA386077893
:1019D0009727FF1FA38B077A9727FF1FA380077EF8
:1019E000034704008547AE8463FAE70093051405B6
:1019F0001725FF1F13055576EF50F3578307140A79
:101A000091CF03470400894763FAE7009305140A5E
:101A10001725FF1F13057577EF50F3558307140F34
:101A200091CF034704008D4763FAE7009305140F35
:101A30001725FF1F13059578EF50F35383071414F0
:101A400091CF03470400914763FAE700130514148C
:101A5000EF40B3799727FF1FA38BA77801469755CF
:101A600000009385C5B013052003EF30F025EF602B
:101A700050359727FF1F83C797771727FF1F130737
:101A8000F7739726FF1F938656701726FF1F1306BE
:101A9000B66C97A50300938525F5268505B74111FA
:101AA00026C206C622C4034705008947AE8463F7F1
:101AB000E702930515052A84130620031725FF1F47
:101AC00013058562EF5033501305140AEF40F3718C
:101AD0009727FF1F239CA766EF603029EF60F02C4B
