:040000006F20807974
:10000400000000000000000090000020EA0800202A
:10001400A9BDF9F5940000200000000000000000D4
:10002400960000209800002000000000000000005E
:100034009A000020000000009C0000200000000046
:100044009E0000201603002044030020A40000208A
:10005400A6000020A8000020AA000020AC00002078
:10006400AE000020B0000020C60000205A0100208D
:1000740066090020B8000020BA000020BC0000205F
:10008400BE000020EE01002082020020C4000020F7
:1000940001A001A001A001A001A001A001A001A054
:1000A40001A001A001A001A001A001A001A001A044
:1000B40001A001A001A001A001A001A001A001A034
:1000C40001A001A001A037370040834747009946AB
:1000D4004111BD8B638CD70231476384E706114716
:1000E400639EE702A30301001746000003468651FE
:1000F40037370040834771006315F6022C001385DF
:10010400817797C000E0E780E0A709A883475700FC
:1001140093F7F70F2304F100834781004101730033
:10012400203083477100834687000C08AE97238CE8
:10013400D7FE83477100850793F7F70FA303F100F8
:1001440055BF2800972001E0E780805F1375F50F05
:10015400A303A1000346710055B737370040834716
:10016400474099464111BD8B638CD7023147638464
:10017400E7061147639EE702A30301001746000048
:100184000346664837370040834771006315F6021B
:100194002C001385C17897C000E0E780A09E09A8D1
:1001A4008347574093F7F70F2304F10083478100F7
:1001B40041017300203083477100834687400C0857
:1001C400AE97238CD7FE83477100850793F7F70F0B
:1001D400A303F10055BF2800972001E0E7800068E1
:1001E4001375F50FA303A1000346710055B73747F4
:1001F40000408347478099464111BD8B638CD702E9
:1002040031476384E7061147639EE702A3030100B5
:10021400174600000346163F3747004083477100E6
:100224006315F6022C001385017A97C000E0E7807D
:10023400609509A88347578093F7F70F2304F100CB
:100244008347810041017300203083477100834656
:1002540087800C08AE97238CD7FE834771008507EF
:1002640093F7F70FA303F10055BF2800972001E08F
:10027400E78080701375F50FA303A1000346710096
:1002840055B737470040834747C099464111BD8B56
:10029400638CD70231476384E7061147639EE70204
:1002A400A3030100174600000346A6763747004023
:1002B400834771006315F6022C001385417B97C0B8
:1002C40000E0E780208C09A8834757C093F7F70F15
:1002D4002304F100834781004101730020308347E8
:1002E4007100834687C00C08AE97238CD7FE8347E2
:1002F4007100850793F7F70FA303F10055BF28009A
:10030400972001E0E78000791375F50FA303A1009E
:100314000346710055B7411122C637140040835774
:10032400C40993F7074099CBA1450145971001E013
:10033400E780A0DA93070040231EF4083244410109
:1003440073002030B717004003D7E70903D7E70944
:100354009316170163D50604175700000347478B0C
:100364000507975600002385E68A17470000130700
:10037400677E1843136707409746000023ACE67C6A
:100384001167239FE70803A7470C9166131617010B
:100394006359060003A7C70C558F23A6E70C730007
:1003A400203003A7870C558F23A4E70CCDBF9747B4
:1003B40000009387277A984393760740B9C2411186
:1003C40022C406C63E849317470163C107028D45C4
:1003D4000945971001E0E78040D09145174500009A
:1003E40003457579977001E0E78060D91C40B240FD
:1003F400224493F7F7BF17470000232DF7744101F8
:10040400828082804111814601468145114506C69C
:10041400EF00A077B727004011472383E780B7F7A1
:1004240000E003A707D16D9B23A8E7D003A707D15A
:100434005D9B23A8E7D07300501001000100B24077
:10044400410182804111814681450146114506C61C
:100454002D2FB727004011472383E780B7170040AB
:1004640003C7E70283C5E70483D78703916613773D
:10047400F70F93E5350063E5D700719B1367170009
:10048400B7170040130670052380C704930680FA4B
:100494002380D70401000100238207022380C704BC
:1004A4002380D704010001002387E7022387B704D0
:1004B4002380C7042380D7040100010003C7B704C5
:1004C40013670702A385E7042380070437F700E0D6
:1004D400832507D193E545002328B7D0832507D189
:1004E400DD992328B7D07300501001000100238048
:1004F400C7042380D7040100010003C7B70413779E
:10050400F70DA385E70423800704B24041018280EC
:100514000111B7F5070022CC8146E1052A840A8639
:10052400194506CE26CA02C023120100B92DB717F9
:10053400004003C7E70283C5E70483D787039166B6
:100544001377F70F93E5350063E5D700719B1367C5
:100554001700B7170040130670052380C7049306DD
:1005640080FA2380D704010001002382070223803C
:10057400C7042380D704010001002387E7022387EF
:10058400B70423800704B7F500E003A705D1136778
:10059400470023A8E5D003D5070265771107137533
:1005A4000560418D598D4205418101002380C704B6
:1005B4002380D7040100010003C7F70037F40700C4
:1005C400B7F400E013670704A387E70003C7B70481
:1005D400610413670702A385E7042390A70283A796
:1005E40004D1DD9B23A8F4D0730050100100010056
:1005F40013056004352E81463000A285194502C4D6
:1006040023160100592322478247E31AF7FCB71740
:100614000040130770052380E704130780FA238042
:10062400E7040100010003C7B7041377F70DA3859E
:10063400E70423800704F2406244D24405618280C7
:1006440001114EC681460146AA898145114506CE4F
:1006540022CC26CA4AC8152BB716004083C7E60227
:1006640003C7E60483D68603116693F7F70F13676F
:10067400370063E5C600F19B93E717003714004089
:100684001309700523002405930480FA23009404BD
:100694000100010023020402230024052300940422
:1006A400010001002307F4022307E40423000404E7
:1006B400130550025920B7F700E003A707D11367C9
:1006C400470023A8E7D02300240523009404010055
:1006D40001000347F40013670704A307E4002300A1
:1006E400240523009404010001002567B3E9E9000F
:1006F4002310340303A707D15D9B23A8E7D073001D
:100704005010010001008146014681451145B5297B
:10071400230024052300940401000100834764049A
:1007240093E717002303F40423000404F240624413
:10073400D2444249B24905618280B717004093060A
:1007440070052380D704130780FA2380E70401008F
:10075400010003C6B7041376F60DA385C7042380EE
:100764000704137605024DC203C6A700118A1DE2D1
:100774002380D7042380E7040100010003C7A700F6
:10078400136747002385E7009307004B010001002E
:10079400FD17EDFFB7170040930670052380D704BB
:1007A400130780FA2380E704010001007D89239464
:1007B400A700010001000100010023800704238039
:1007C400D7042380E704010001000100010037275A
:1007D400004093061005A303D78023800704B717AE
:1007E4000040130770052380E704130780FA238071
:1007F400E7040100010003C7B70413670708A385D2
:10080400E7042380070482801376050441C603C6E7
:10081400A700418A1DE22380D7042380E704010056
:10082400010003C7A700136707012385E7009307A7
:10083400007D01000100FD17EDFFB717004093068E
:1008440070052380D704130780FA2380E70401008E
:1008540001001376F501136606042394C700010012
:10086400010001000100238007042380D70413063C
:1008740060042380E7046318C500010001003727E2
:100884000040894689BF01000100372700409306D4
:10089400200591B72380D7042380E70401000100D9
:1008A40003D787001367070C2394E7000DBF41119A
:1008B400814601468145114506C6C12CB717004043
:1008C400130770052380E704130780FA2380E704E5
:1008D4000100010003C76704136717002383E704BB
:1008E40023800704B240410182808146014681454C
:1008F4001145612CB7170040930670052380D70477
:10090400130780FA2380E704010001007D56239633
:10091400C7022380D7042380E7040100010003C732
:100924006704136717002383E7042380070401A0E7
:10093400BD473305F50201007D1575FD8280411127
:1009440022C426C206C6AA84014463179400B24096
:10095400224492444101828005041305803E4204EE
:10096400C13F4180DDB7B717004013070003238858
:10097400E7028547174700002328F72C730020302F
:10098400397122DC4ED656D237140040E57AB7F9D5
:10099400070026DA52D45AD05ECE06DE4AD862CC9C
:1009A4002A8B916B93040404130A7005910AE109DC
:1009B4008347E4020347E4048356840393F7F70F61
:1009C4001367370063E57601F19B93E717002380F3
:1009D4004401130980FA2380240101000100230249
:1009E4000402238044012380240101000100230721
:1009F400F4022307E4042380040037F700E083278C
:100A040007D193E747002328F7D08357040293F7CD
:100A14000760B3E76701B3E75701C207C183010069
:100A24002380440123802401010001008346F40053
:100A3400130CB40493E60604A307D4008346B40459
:100A440093E60602A305D4042310F402832707D1F6
:100A5400DD9B2328F7D0730050100100010013051B
:100A64006004F9353000CE858146194502C4231649
:100A74000100212A1146974500009385651D280031
:100A840011231DD5930770052380F40023802401CE
:100A94000100010083470C0093F7F70D2300FC00CD
:100AA40023800400F2506254D2544259B259225A5B
:100AB400925A025BF24B624C21618280411106C65C
:100AC400AD2DF53097C000E0E780A028D5BF230303
:100AD400048015472303E48001002302A48082805C
:100AE40083076480E3CE07FE2303048082808307A8
:100AF4006480E3CE07FE03454480828083076480DC
:100B0400E3CE07FE2302A4808280411126C44AC298
:100B14004EC006C61377F50BAD47AA892E899544B6
:100B24006306F70019456537653F8D444E854537A3
:100B3400FD59FD1463983401B240A244124982491C
:100B440041018280135509011375F50F453F2209B0
:100B5400CDB7011126CC06CEB70408005137154590
:100B6400BD37713769372AC6A53F324593771500DB
:100B740089EB136515001375F50FF240E244056126
:100B84008280FD14E9FC0145CDBF397126DC4ADAC7
:100B94004ED852D656D45AD25ED006DE62CE66CC39
:100BA400B7E700E07D5783AA070022C603AA4700DF
:100BB40023A0E71823A2E718B7170040130770050E
:100BC4002380E704130780FA2380E70483C74704DC
:100BD400930B75FFB684E20793FBFB0F8546AA8946
:100BE4002E8B328937240040E187015763FA76015E
:100BF4006308D5008946130700026313D500015723
:100C0400D98F93F7F70FB71C00402382FC041147D8
:100C14002303E4801305F00F5D3D094CD135636D6A
:100C24007C11B7050700DA9537870700795563F219
:100C3400E504B3879500636EF702370B0800A947F4
:100C440033EB65016399F90689E48144513D2685B6
:100C54000DA0DA850945553D05090345F9FFFD1445
:100C6400050B693D81C49377FB0FFDF7DD3569FD05
:100C74007D55B7170040130770052380E704130759
:100C840080FA2380E70403C74704418B2382E704E7
:100C9400F250B7E700E023A0571123A24711E25412
:100CA40032445259C259325AA25A125B825B724C74
:100CB400E24C21618280A5476395F9068569130991
:100CC400F00FB3069900B3742B01B6941349F9FFDE
:100CD400B3749900856B33796901416B9387F9FF8C
:100CE400B3F7270199E363FC340193D94900C14761
:100CF400E3E637FF99BF0569C1697D19D9B71305C3
:100D0400800D63886901130500026384790113056A
:100D14001008CA85DD3B353D21DD4E99B38434414D
:100D2400D9B7DA852D45D533CA94E30099F205097C
:100D34007D3BA30FA9FED5BF9387F9FF93F7F70F68
:100D44006361FC0C83C71C0413073008631FF7049A
:100D540037070800636BEB04B3079B00B70610006A
:100D640063F5D704334BEB0089476393F906898015
:100D7400D549E38C04ECDA850945413B1109032785
:100D8400C9FF91472320E48003076480E34E07FEF4
:100D940023033481FD17EDFBFD14110B81C49377FC
:100DA400FB0FE9FF7D3371F5E1B5B717004003C7C9
:100DB4005704B70708001377070219E3B78707003A
:100DC4007955E378FBEA33079B00E3FFE7F855B571
:100DD4008547E382F9F2DA852D45053B9389F4FFD3
:100DE400E38504E6293393F7390091EB83260480E5
:100DF4000327090093074900E39AE6E43E89CE8479
:100E0400F1BFB5476396F9001305900BC93135BDA1
:100E1400B1471305B00AE38BF9FE99476391F904CE
:100E2400B7050800B365BB002D45C53181448D4B22
:100E3400A149753963967401832704802320F9003E
:100E44008504E39834FF8327048013172B0163552B
:100E540007002312F900D5BB2322F900FDB39D47F7
:100E64006399F90281451305B0044531BD4423203B
:100E7400090023220900FD599D3993F77400CA978C
:100E840003C70700FD14398D2380A700E39634FFC0
:100E94006DBBA1476392F9046D398144630D0B0066
:100EA4008D479304C0036308FB00930400056304A7
:100EB4008B01930440041375C507E30895D81945BD
:100EC400393139390545213126850D3909453D31F9
:100ED4004931E31C05D669BB91476399F9001305B1
:100EE4006006F536F53E130590090DB7E38F09D476
:100EF400F154A9BB19CD91CD09CE81473387F500B3
:100F0400834607003307F50085072300D700E3175E
:100F1400F6FE828019C991C909CA910583A7C5FF44
:100F240011057D16232EF5FEC5BF828001C919C6A1
:100F34002A960505A30FB5FEE31DA6FE8280814710
:100F44003307F5000307070019E33E858280850710
:100F5400C5BF01112E8626CAAA841315060193055E
:100F6400F004418122CC06CE32C6EF1040592A84C7
:100F740001C53246A685BD3F2285F2406244D24473
:100F840005618280854715C18DC105C28147B306BD
:100F9400F5003387F50083C606000347070063980E
:100FA400E6008507E315F6FE85473E858280814786
:100FB400EDBF9307F6FFBE952A966313C5008280A2
:100FC400FD1583C715000505A30FF5FEFDB7AA8718
:100FD400014581CF09CE3E96850703C7F7FF631706
:100FE400B700E39BC7FE054582808280014582806D
:100FF4007971975700009387675022D4804306D6AF
:1010040026D24AD04ECE52CC56CA5AC85EC662C404
:101014005DCC37C9C901814B175A0000130A8A52A3
:10102400975400009384C44D1309F937975A00006C
:10103400938A8A47B709C0A8370B405783572400BF
:1010440095E35C44639D0B00175700002328F74A7F
:10105400032CC4002285EF10A057628499A823A60C
:10106400FB00FDB783270A008297838664011C4432
:1010740063DB06063307F5406367E908975700000A
:1010840023AC07428355240003450400976001E024
:10109400E780E00E5C405844A9CF1444B697838699
:1010A400640163C5060063E33701DA971CC4A28BAD
:1010B4003A8449F4975700009387073F9C4B0947AC
:1010C4006378F706F917175700002327F73EB25045
:1010D400225492540259F249624AD24A424BB24BC8
:1010E400224C45618280E377F5F83387F9402A97EB
:1010F40061B763970B009757000023A1E74089BFAE
:1011040023A6EB00B1B7D85009CF63DF06003385BF
:10111400A74083A70A016376F5009757000023AD23
:10112400A738A28B404471B7E3F3A7FECE97C5B7A7
:101134009757000023A2073859BF411122C41754FE
:101144000000130464391C4006C626C24AC091C775
:1011540082979757000023A107385C4091C3829778
:101164001C406391071C9757000083C77755858BF4
:101174009DC797570000A3850754175700000347DE
:101184005754954763FDE700EF0010379757000069
:1011940083C73753F5178A07A2979C438297175939
:1011A40000001309A9558347C900918B99C3EF1017
:1011B40060281C4491C38297975400009384C433DD
:1011C4009840175600000346362E9757000083C7F1
:1011D400A72D93961700BA9683D60600D5CA9757BB
:1011E400000083C7672C63EFC70A97570000238D5D
:1011F400072A1C40639807129757000083C7974C2F
:1012040091CF9757000083C7D74B89EB97570000BE
:10121400A38A074A97B002E0E780000D97570000C1
:10122400938747329C43638F070EB707C0A81757AD
:1012340000002323F7286D3B975700009387472C22
:10124400DC53EDC31757000013070726184B9757B5
:10125400000083C7372C6367F70C17570000034758
:101264005746954763E0E70C8347C900918BDDEB54
:1012740090409756000083C6362363CBD70A224496
:10128400B240924402494101176301E0670043CC34
:10129400850793F7F70F975600002387F620E3E6B8
:1012A400C7F235BF86073E97835507002310070012
:1012B40097570000239007249757000093878721AE
:1012C4009C43175500000345251E13172500BA97A4
:1012D4009C4382979757000083D7C7211757000074
:1012E4000347871C93C7F7FF7D8D9317170098401A
:1012F4003E97835707005D8D2310A7009757000082
:1013040083C7871A91C7850717570000230EF7185C
:1013140017570000034747199757000083C7D7188A
:10132400E375F7ECB24022449244024941018280C1
:10133400139717003297035707006DF7850735BFDA
:10134400AD6737C70040BD072326F7200F10000004
:101354009757000093874715C84F83278726BD6694
:10136400BD0693C7F7FF99836A052326D7205D8DB1
:1013740082804111B7170040985F3AC6945F3247A4
:10138400E39CE6FE32454101828082800327851179
:1013940063000712411122C406C68347C500834572
:1013A400C5042A8493F7C70F2306F50083469700E4
:1013B4000356C70013958601618563F1C508635A16
:1013C40005060345870093F6F607A304D7000546F0
:1013D40093E627006314C50093E617002306D400A0
:1013E4005C4389075CC3A30AB400032504112E8659
:1013F4004C43090501368327841103465401D44321
:1014040003D7C700B296118FD4C32396E700894748
:10141400A30DF400034744039757000083C7670FE5
:101424006378F7048347C40093E707012306F400B5
:1014340081A093E717002306F40075B79376F60F9F
:10144400635D050203458700854513E627006314A1
:10145400B50013E617002306C400A30AD400A304AE
:1014640007008547A30DF400832784119C43DDF313
:10147400B240224401454101828093E717002306CC
:10148400F400A30AD400A3040700032504114C4369
:1014940009058D348327841103465401D44303D7AB
:1014A400C700B296118FD4C32396E7008D475DBF62
:1014B40005458280975700009387C71E9C434111BE
:1014C40022C406C6858B2A84C5EF4165130525F51C
:1014D400975002E0E780A0F445C58347A500231593
:1014E400F50083270412BDE72320A4122322A412AB
:1014F40085472310F40423200500834764015441E5
:101504002316F5000347D4002304E5000547A3048C
:10151400E500175700001307671A184F13851702C1
:1015240015811C437D151375F50F9CC25C43DCC209
:101534001C479CC65C47DCC61C4B9CCA5C4BDCCA83
:101544001C4F9CCE5C4FDCCE19CD9386060213074C
:101554000702C1BF8327441288C38357040423228C
:10156400A412850779B79757000083D7A722850768
:10157400175700002310F722B24022444101828011
:101584008347C40023090400054593C74700230685
:10159400F400DDB78347850193F7E70FD5EF834761
:1015A4009501DDEB034625018346C50009CA834541
:1015B4004503175700000347D7F563E7E50013F722
:1015C400060141CF014709C6C18A0357651C81C67C
:1015D4008356A51C369751C31307C712175500002D
:1015E400035505EFB335A70237460F004111130623
:1015F4000624814622C426C206C67D543305A702AA
:10160400975003E0E78040719757000083C7D7F0F5
:10161400B384A700975700009387471703A70709C8
:101624008327070963F387003E84184375FB9757A4
:101634000000938727F19C43829781476364A40049
:10164400B307A440B2402244B3B7970093C717002E
:1016540092443E854101828081473E858280797132
:1016640026D206D622D44AD04ECE52CC56CA5AC816
:101674005EC68347350303447513AA843E941374EA
:10168400F40F9307400263F687001304B4FD137448
:10169400F40F03AA841383AAC413A38B841222868F
:1016A4005285D685975003E0E7808061058915E56A
:1016B40003CBD41201498149337B6403930B500259
:1016C4004A865285D685975003E0E780605F058996
:1016D40015C5639169031374F90F238B8412B250F7
:1016E400225492540259F249624AD24A424BB24BB2
:1016F400456182808509E20993D989410509E3118D
:1017040079FDE1BF832785090356E503797193D6F3
:101714000701BD8EC206C182358E1357764093579A
:101724005640898B058B5D8F93573640918B5D8F27
:1017340093571640A18B5D8F93171600C18B5D8F55
:101744009317360093F707025D8F9317560093554E
:10175400860093F707041E065D8F1376F60F518FEC
:1017640093D7554013D63540118A898BD18F13D620
:101774007540D18F13D61540218AD18F1396150049
:10178400418AD18F1396350013760602D18F1396B2
:101794005500137606049E05D18F93F5F50FCD8F72
:1017A400A20745465D8F3307C70222D42A8426D276
:1017B40052CC56CA032A8413832AC4135AC806D6A1
:1017C4003697420741839357774013555740098909
:1017D400858BC98F135537401189C98F135517400D
:1017E4002189C98F131517004189C98F1315370033
:1017F40013750502C98F1315570093558700137588
:1018040005041E07C98F1377F70FD98F13D53540F9
:1018140013D755401189098B498F13D57540498FCA
:1018240013D515402189498F139515004189498F96
:101834001395350013750502498F139555001375DB
:1018440005049E05498F93F5F50F4D8F2207D98F17
:10185400B387C7024AD04ECE5EC662C4B697C207EB
:10186400C18313D7774013D557400989058B498F16
:1018740013D537401189498F13D517402189498FD2
:10188400139517004189498F139537001375050285
:10189400498F1395570093D58700137505049E0748
:1018A400498F93F7F70FD98F13D5354013D7554088
:1018B4001189098B498F13D57540498F13D515406C
:1018C4002189498F139515004189498F1395350056
:1018D40013750502498F13955500137505049E056C
:1018E400498F93F5F50F4D8F2207D98FB387C70220
:1018F400130650025285D685B697BD8E9394060181
:10190400C18033F6C402137BF60F975003E0E780DF
:10191400203B05890DED8347D41201498149B384E5
:101924009702130C5002C1804A865285D68597507F
:1019340003E0E780E0380589937BF90F11C56386DE
:101944003403850993F9F90F0509E31F89FD230B76
:101954006413B250225492540259F249624AD24A50
:10196400424BB24B224C456182805E8BCDB7011154
:1019740097570000938787E122CC03A4470B26CA1C
:1019840006CE2AC42EC6854419E40145F2406244B9
:10199400D244056182808347910003471400858BFC
:1019A4006304F7000044CDB719469305A10013055D
:1019B4002400EFF02FDDE31795FE0545C1BF0111AB
:1019C40022CC17540000130424D118402AC62EC474
:1019D40032C206CE3C4B93F7F7F73CCB97B002E00C
:1019E400E780408D184097560000938626CC3C4BE8
:1019F40093E707083CCB9C423245A24523A007004D
:101A0400034715000348250022074208429703486C
:101A140005004297034835006208429798D7034768
:101A240055000348650022074208429703484500D1
:101A340042970348750062084297D8D70347950038
:101A44000348A500220742084297034885004297AD
:101A54000348B5006208429798DB0347D500034862
:101A6400E5002207420842970348C5000345F500F4
:101A7400429762052A97D8DB03C7150003C52500E2
:101A8400220742052A9703C505002A9703C5350096
:101A940062052A9798CF03C7550003C5650022073E
:101AA40042052A9703C545002A9703C575006205B8
:101AB4002A97D8CF03C7950003C5A500220742057E
:101AC4002A9703C585002A9703C5B50062052A979E
:101AD40098D303C7D50003C5E500220742052A971A
:101AE40003C5C50083C5F5002A97E2052E97D8D310
:101AF400D843759BD8C3D84313671700D8C39843FA
:101B04001367170098C3124698425C43858BD1E74C
:101B14001C4F01452300F6009C429C4FA183A30067
:101B2400F6009C429C4FC1832301F6009C429C4FCB
:101B3400E183A301F6009C42D84F2302E600D84F6C
:101B44002183A302E600D84F41832303E600D84F44
:101B54006183A303E60098532304E600985321838A
:101B6400A304E600985341832305E6009853618358
:101B7400A305E600D8532306E600D8532183A30621
:101B8400E600D85341832307E600DC53E183A3072F
:101B9400F600F2406244056182800100B5B7175730
:101BA40000001307E7B01443411122C49C5E4AC0ED
:101BB40006C6998326C2858B3A84175900001309F7
:101BC400E9AED1CB9C5E97540000938424AF93F785
:101BD400F7F99CDE175700000347A7AE93070008E8
:101BE400631BF700832709009C4393F707041757E7
:101BF40000002308F7AC83C7040093F707049DC3D0
:101C040097570000938707949C4382979757000047
:101C140023AEA7AA83C7040093F7F70B1757000056
:101C2400230EF7A883C7440093F707048DE785477D
:101C340017570000A306F7A8975700009387C7A972
:101C44009C43096798C7130700FC97560000238933
:101C5400E6A6D844F8D31C40985F1183058B09CBC2
:101C6400985F3D9B98DF054797560000238AE6A4BA
:101C7400985F1D83058B11CB985F1377F7F798DF77
:101C8400854717570000230DF7A283270900D8437F
:101C94000583058B19C7D843759BD8C3D843799B53
:101CA400D8C3B2402244924402494101828039712E
:101CB40006DE16DC1ADA1ED82AD62ED432D236D054
:101CC4003ACE3ECC42CA46C872C676C47AC27EC0F8
:101CD400F935F250E2525253C2533255A2551256BC
:101CE40082567247E2475248C248324EA24E124FC1
:101CF400824F216173002030975700009387C79D5E
:101D04009443975700009387679B03C70700058B8D
:101D140011CB975700002385079A97570000A3819A
:101D2400079A828003C71700058B65F7F85271FF85
:101D340083C75700DDB717580000130868970327B7
:101D440008001C5F9583858BD1E709C61C5BBD83A6
:101D54002300F60085CA83270800985B460793573B
:101D640067016356070093E707C0C207C18303975F
:101D74000600C207C18709C7BA970947B3C7E70274
:101D84002390F60085CD834715008DCB9756000030
:101D940083C6269393F606041387970089478DCA52
:101DA4003A9503470500854699471376F70663116C
:101DB400D60262076187B947634C0700832708008E
:101DC4009C5FED838D8B17570000A30EF78E814720
:101DD4003E8582808547EDBF411122C406C6175453
:101DE40000001304648F184049E9AE877453FDFE64
:101DF4003E85B285975700002383078C97A002E0A5
:101E0400E7804021975700009387878A9C43B70651
:101E140080009843558F98C3D857719BD8D797574C
:101E24000000A38F078897570000A38907881C40E8
:101E3400094798C3B7F700E003A707D16D9B23A810
:101E4400E7D003A707D15D9B23A8E7D07300501008
:101E54001440175700001307678683472700858BB4
:101E640089EB83473700858BD9C7975700002389AF
:101E74000784B2402244410182808D476310F502F9
:101E8400975700009387C7829C43B7068000984306
:101E9400558F98C3D857719BD8D75DBF8547E31931
:101EA400F5FAB567BD075CC70F1000001C40096751
:101EB400094698C7130700F8975600002382E68066
:101EC400174700001307C77E1443984231830D8BD4
:101ED4006319C7001307E043F8D33D673D07D8C72C
:101EE40085BF984231830D8B01E713076019EDB765
:101EF4001307E01BD5B7FC52ADF3A5BF5D7152DCEF
:101F0400174A0000130ACA7A03270A0086C6A2C425
:101F1400A6C2CAC04EDE1C4397590000938989802B
:101F2400174900001309497B93F7F7E793E707087C
:101F34001CC383A609003707CEFF7D179C461306F2
:101F440080022A84F98F9CC683270900130700089E
:101F54002800B8CBAE8493051008EFE03FFD97A0AE
:101F640002E0E780203597A002E0E7802042832743
:101F74000A009376F41F370FFCFF23A40700984B45
:101F84004E88CA881367F70398CBF84F130510F8E7
:101F9400D285137707E0558FF8CF9843F576FD1671
:101FA400758F98C39843B7063300B70204001377BC
:101FB400F7E798C398439303401F7D1F1377F7E710
:101FC4001367071098C303A70900930F800285497C
:101FD4001C47D58F1CC7832709001307900D3400B5
:101FE400B8CB1149014713533700269383470300A5
:101FF40013767700B3D7C740858BDDCF9C41832E02
:102004000800239C07042390070603AECE02137E28
:10201400DEFF23A6CE0383AE0700137EF70793FEED
:102024000EF833EECE0123A0C70103AE4702336E90
:102034005E0023A2C70383AE0800014E23A27E06DE
:1020440003DA070663074E0303AE0703038A060099
:10205400135EFE00620E135E8E416358CA0103AE26
:102064000703135EFE002380C60103DE0706137E0A
:10207400FE0F03AA4E0663060A0003DA8705E37F10
:1020840049FB03AE4702337EEE0123A2C7038387D5
:102094000600635CF400034E03003396C900134644
:1020A400F6FF3376C6012300C3003E8663D3A70040
:1020B4002A8613158601618505071377F70F8506B0
:1020C400E313F7F3B640264496440649F259625A9C
:1020D4006161828097460000938606609C42D847DF
:1020E4001316170163550602984713161701635018
:1020F40006027D57B8D7174700001307E73A584F31
:10210400050717460000232FE63A116798C798473A
:102114000D83058B1DC3174700000347475A1367F8
:10212400170017460000230CE658130700F817465B
:1021340000002307E658214798C79847058B09CF25
:102144001747000003479757136717001746000007
:10215400A306E656054798C798470983058B09E700
:1021640098470583058B31CF98471746000013061F
:10217400E654174500001305A5530983058B630333
:1021840007101841184331830D8B75EBAC4B184E77
:1021940093F5050203471700CDCD79EF13077006B9
:1021A400D8CF03470600136717001746000023071C
:1021B400E650114798C718415C57F19B93E7170005
:1021C4005CD79C4298479316370163D6060297461C
:1021D400000083C6E662C18A174700001307075B45
:1021E400C5CE0347470713670702974600002389B4
:1021F400E660056798C798479316270163D10602DE
:10220400174700000347C74B6207618763570700FE
:102214000547974600002385E64A096798C798470B
:102224009316070163D606029746000083C6565DDF
:10223400858A1747000013076755ADCE0347570734
:102244001367270097460000A38CE65A216798C7B6
:10225400828029D785456315B7001307B00689B76F
:1022640089456315B7001307F0061DBF8D45631537
:10227400B700130730072DB71307500715B7130717
:10228400600739BF0347360013671700174600007D
:10229400A307E642094739BF834647070946BD8A73
:1022A4006388C600034747078D463D8BE313D7F485
:1022B400114725BF83465707918AC9DA0347570751
:1022C4001367870041B7397106DE16DC1ADA1ED8A7
:1022D4002AD62ED432D236D03ACE3ECC42CA46C8C2
:1022E40072C676C47AC27EC0F533F250E2525253BB
:1022F400C2533255A255125682567247E24752488B
:10230400C248324EA24E124F824F216173002030D8
:10231400174700001307873C8346B701974700001F
:1023240083C7973E4C4BB697FD8B33D7F500974642
:102334000000A385F63A97460000A387F63C058B78
:1023440015EF174700000347773CB3F7E7028146D0
:1023540001471305000233D6E500058A1378F70F09
:1023640019CA6397D70097470000A389073782806B
:10237400850693F6F60F0507E31FA7FC82809747AF
:1023840000009387271C9C43011122CC4EC606CE25
:1023940026CA4AC852C456C28297974700009387F8
:1023A400E735804781496305A406BE84974700004A
:1023B40093870715038767013E8963550706018DD7
:1023C400135455009747000083C7E7329379F5010A
:1023D400636DF402370AC0A8B70A4057153F9C44FE
:1023E4009746000083C62631139756003E9783070D
:1023F4006901158C63C507006363470156979747C6
:10240400000023A1E730E37BD4FC1604B369340154
:10241400F24062444E85D2444249B249224A924A29
:1024240005618280E37D85F8B707C0A833848740BF
:10243400229579B7974700009387C7109C434111B1
:1024440022C406C626C28297974700009387072BAB
:1024540080476309A406BE84974700009387470A10
:102464008387670163D80704018D13545500974788
:10247400000083C747286367F404593D984497478D
:10248400000083C747279396570036971D8C9746BD
:10249400000023A9E626E372F4FE2244B2409244EB
:1024A40017450000034595238145410117A302E028
:1024B4006700E334E37A85FAB707C0A8338487401A
:1024C400229565B7B24022449244410182809747E5
:1024D4000000938727259843B75702009387079FE7
:1024E40083260709139656006358060083260709B6
:1024F4001396660063440600FD17FDF3828071C5E0
:10250400AA870145E9C58D07C207C183F19BC207AC
:10251400C18313074003636FF702174700001307D3
:102524006726084317470000130747251443639899
:10253400A602174700001307A7FC185B014541CB0F
:102544004111C20706C60545DD8D0297B24001451B
:10255400410182801747000013078722D9B7035728
:10256400650035E303574500636FF704B306F7408E
:102574002146637CD60203280500938687001D8FBD
:10258400AA96611717460000035666F22392E600E6
:1025940023A006012393060014C12312F500130798
:1025A40086FF974600002394E6F02313B500974571
:1025B400000083D5C5EFB387F54017470000231803
:1025C400F7EE2105828008419DB701458280828013
:1025D4000DC1974700009387E71A03A307009747A5
:1025E40000009387A71983A8070081469A8763E3AD
:1025F4001701828003A80700636DF50A636BA80ABC
:1026040013878700E367E5FE03D6670021670507A4
:102614006317E60003C7019605072380E1969745F3
:102624000000938565E803D6470003D7650023932C
:102634000700329742074183174500002319E5E656
:10264400638A670217450000130585130841630375
:10265400F50203D5660019ED83D7460023A00601D1
:1026640021073E9621062392C60097470000239037
:10267400E7E4B6879843E30E17F79746000093867E
:1026840026109442E307D7F683566700BDF283D63B
:102694004700035647001843A106B2962392D70079
:1026A40098C383D76500A107174700002311F7E0FB
:1026B4008280BE86C28725BF011197470000938799
:1026C400E70C22CC03A4C70B26CA4AC84EC606CEC2
:1026D400AA8413092500854915C083C7140003473C
:1026E4003400858B6304F700405CFDB719469305FD
:1026F40044004A85EFE01F89E31835FF2285F24044
:102704006244D2444249B2490561828041119747EB
:1027140000009387A70722C403A4C70B26C24AC09C
:1027240006C693042500054901E82285B2402244E7
:102734009244024941018280A6851305A402974070
:1027440003E0E780200DE30225FF405CF1BF411167
:10275400974700009387870322C403A4C70B26C2AC
:102764004AC006C693042500054901E82285B24003
:1027740022449244024941018280A6851305A401A2
:10278400974003E0E7800009E30225FF405CF1BFC6
:1027980097110020938181B11761002013010186F0
:1027A8001305400097E5FF1F938545851706002010
:1027B8001306C6FD63FAC5008322050023A0550051
:1027C80011059105E3EAC5FE170504001305C53890
:1027D80097050020938585FB1386018563FAC5005C
:1027E8008322050023A0550011059105E3EAC5FEE3
:1027F80013850185974500209385C50A6377B50041
:10280800232005001105E36DB5FEFD42739002BC5F
:102818008D4273904280B72200009382828873A011
:10282800023097D2FF1F9382627D93E23200739049
:102838005230970201009382026B73901234730036
:1028480020303D432A876373C3029377F700BDEFB7
:10285800ADE5937606FF3D8ABA960CC34CC30CC708
:102868004CC74107E36BD7FE11E28280B306C34031
:102878008A069702000096966780A6002307B7008D
:10288800A306B7002306B700A305B7002305B700C2
:10289800A304B7002304B700A303B7002303B700BA
:1028A800A302B7002302B700A301B7002301B700B2
:1028B800A300B7002300B700828093F5F50F939625
:1028C8008500D58D93960501D58D61B79396270020
:1028D8009702000096968682E78086FA9680C1174E
:1028E8001D8F3E96E374C3F8A5B73367B500FD5353
:1028F8000D8B79E7B7877F7F9387F7F7104194416E
:10290800B372F6003363F600BE92B3E262006397D7
:10291800720C6318D6065041D441B372F600336383
:10292800F600BE92B3E262006398720A631BD60493
:1029380010459445B372F6003363F600BE92B3E2D5
:1029480062006391720A631ED6025045D445B37281
:10295800F6003363F600BE92B3E26200639A72082F
:102968006311D60210499449B372F6003363F60036
:10297800BE92B3E26200639372085105D105E30F7A
:10298800D6F61317060193970601631CF700135731
:10299800060193D706013305F7409375F50F91E9C2
:1029A80082804183C1833305F7409375F50F91E128
:1029B80082801377F70F93F7F70F3305F74082807C
:1029C8000346050083C60500050585056313D60083
:1029D80065FA3305D640828011059105E312D6FECB
:1029E800014582802105A105E31CD6FC01458280B2
:1029F8003105B105E316D6FC014582804105C105C4
:102A0800E310D6FC01458280014711464148B38650
:102A1800E5008147B308F50083C808008507C106AB
:102A280023A816FFE398C7FE11071105E31107FF56
:102A38008280935785019CC19357054193F7F70FFF
:102A4800DCC19357854093F7F70F1375F50F9CC5B5
:102A5800C8C582801C414111130705013EC05C4175
:102A68003EC21C453EC45C453EC6939725001408EB
:102A7800B69783A707FF85051105232EF5FE8D89D7
:102A8800E315E5FE41018280397122DC4166138439
:102A9800C19D06DE26DA4AD84ED652D456D25AD02E
:102AA8005ECE93050501A2863708FF007D168307D1
:102AB8000500034735001105E207D98F0307D5FF45
:102AC8009106420733770701D98F0307E5FF2207ED
:102AD800718FD98F23AEF6FEE39BA5FC8149914403
:102AE800930A010117BB0300130B4BF097BB0300BC
:102AF800938B4BED130AC00293F7340003290400AB
:102B08004844BDE78A85353785450A85A1370A8750
:102B18001C43110793F6F70093F7070FDA97B69758
:102B280083C70700232EF7FEE394EAFE0245924787
:102B38006205C2075D8DB2475D8DA247A2075D8D14
:102B480093972900DE979C4385093D8D33452501E0
:102B580008C885041104E39144FBF2506254D2542E
:102B68004259B259225A925A025BF24B2161828031
:102B78003345A90008C8F1BF797122D426D24AD0BA
:102B88004ECE52CC56CA06D62A8A9399450001449D
:102B9800938AC19D13090101C144B3073401D69733
:102BA80088438A85793533078A008A871443904396
:102BB80091074107B18E2328D7FEE39927FF110417
:102BC800E31D94FCB250225492540259F249624ACD
:102BD800D24A45618280397122DC1304050106DE80
:102BE80022878147C1460C433306F10011070CC206
:102BF8004C4710083E960CC24C4F10103E960CC223
:102C08009107E392D7FE85450A85A93589450808C5
:102C180091358D4508103D3D81474147B306F10088
:102C280094421104232ED4FE1408BE96944254C430
:102C38001410BE969442910754CCE391E7FEF250EB
:102C480062542161828006059377051089C7137540
:102C5800F50F1345B5018280411106C6ED37B24024
:102C68004101D5B781471148C1483386F500B306FD
:102C7800F500014703AE06003303E600050723000D
:102C8800C301C106E31807FF9107E39017FF82808D
:102C98009306050117B60300130646D51305050567
:102CA800138706FF1C43110793F5F70093F7070FE7
:102CB800B297AE9783C70700232EF7FEE394E6FE8C
:102CC800C106E31FD5FC8280411122C406C626C274
:102CD80085472E846301F50289476318F50022446D
:102CE800B24092442E854101B9BF8D47631BF50060
:102CF8002E85913F298C2285B2402244924441017D
:102D08008280A5476315F5002E85B937DDB7AD4735
:102D1800631AF5002E8589373D37AA842285253721
:102D2800258DC9BFB5476316F5002E853537AA84AA
:102D3800FDB7B947E311F5FC2E85393FAA84213741
:102D4800A98C228509373344950075B76382051429
:102D580093F7F500639E07121571D6C3AA8A3285C8
:102D6800A2CDA6CB86CFCAC9CEC7D2C5DAC15EDF8F
:102D780062DD66DB6AD96ED73284AE84EF70036891
:102D8800C147631EF500228501330149130A010674
:102D980097BB0300938B8BD9294C63419902FE4062
:102DA8006E44DE444E49BE492E4A9E4A0E4BFA5B9B
:102DB8006A5CDA5C4A5DBA5D2D618280338B2A01D8
:102DC8000C105A859131814508107D3385490810CA
:102DD800C135081009351C10D2863E8710434107BB
:102DE800C10623A8C6FE032647FF23AAC6FE03265C
:102DF80087FF23ACC6FE0326C7FF23AEC6FEE31F2C
:102E0800EAFC17B70300130767CE03280700832DD2
:102E18004700032D8700832CC700528413860701BF
:102E28000C4042853ECE3ACC32CA42C8713D0C486D
:102E38002AC66E85513DB2460C501104A98E6A858A
:102E480036C65935B2464C54A98E668536C6AD3D50
:102E5800B246F2475246358D88C3910742486247C9
:102E6800E310F6FC4107B287E391EBFACE85081030
:102E780085091933E39D89F50810193D0810A13B10
:102E8800A9450810D539DA850810E93B410931B759
:102E980082809307F00F6384F60A2D71232A91101C
:102EA80023282111B28423263111130600102E89FC
:102EB800AA89930530020A85232E1110232C81102C
:102EC80036844132A2852685EFC0407113178500EC
:102ED800935785003365F7002310A100A685228645
:102EE80013053100930434002301810093F4F40F97
:102EF800EF60A37993F6F40089C64D04158C93749A
:102F0800F40F1C02A697A6850A8517B603001306B8
:102F1800E6C1238007F01D3D26868A854E85EF6031
:102F2800C376230099008320C111032481118324CF
:102F38004111032901118329C11015618280828002
:102F4800130101D723248128232291282A84AE84BF
:102F5800130620038145480023261128DD302686E4
:102F6800A2856809EFC0B0361305D109EF7003498F
:102F780093150501C1811305D109EFC0D04197B55B
:102F880003009385E5E41305D109EFC0B0051DC51D
:102F9800054597B50300938525E4EFC0E06717253D
:102FA8000020034585BBEF6040038320C12803242C
:102FB80081288324412813010129828097B50300C1
:102FC8009385C5E21305D109EFC0D00119CD97B596
:102FD8000300938525E20545EFC00064172500200E
:102FE8000345A5B7EF602002C9B797B503009385DD
:102FF80065E11305D109EFC0E07E0DC13717004028
:103008008327C70AA16697B50300938525E0D58F66
:103018002326F70A2545EFC0206041BF97B5030076
:10302800938585DF1305D109EFC0C07B11CD371714
:1030380000408327870AA16697B50300938545DE7C
:10304800D58F2324F70AF9B797B503009385C5DD13
:103058001305D109EFC0007911CD37170040832738
:10306800C70A97B503009385E5DC93E70720232675
:10307800F70A4DB797B503009385C5DC1305D10949
:10308800EFC0407611CD371700408327870A97B5E0
:1030980003009385E5DB93E707202324F70A9DBF08
:1030A80097B503009385C5DB1305D109EFC080737D
:1030B80011CD371700408327870A896697B5030023
:1030C8009385C5DAD58F2324F70AA9B797B50300E6
:1030D800938585DA1305D109EFC0C07011CD371774
:1030E80000408327C70A896697B50300938585D969
:1030F800D58F2326F70A39BF97B50300938545D99D
:103108001305D109EFC0006E11C937170040832796
:10311800870CA166D58F2324F70C41BD97B5030012
:10312800938585D71305D109EFC0C06B11C937172F
:1031380000408327C70CA166D58F2326F70CB5B5A9
:1031480097B503009385C5D51305D109EFC08069EC
:1031580011C59727002023A107A281BD97B50300B9
:103168009385C5D41305D109EFC0C06701C5EF60C9
:10317800B03125BD97B50300938505D41305D10952
:10318800EFC0406601C5EF60303705B597B503005D
:10319800938545D31305D109EFC0C06401C5EF601D
:1031A800702421B597B50300938585D21305D109FD
:1031B800EFC0406301C5EF907037C5BB97B50300FA
:1031C800938585D11305D109EFC0C06109C50545AF
:1031D800EF90E048D9BB97B50300938565D01305F8
:1031E800D109EFC0206019C10145DDB797B50300CB
:1031F800938585CF1305D109EFC0C05EE31705DAC3
:1032080097B503009385C5CE1305D109EFC0805D3E
:10321800E31D05D897B50300938505CE1305D1099D
:10322800EFC0405C01CDB716004083A7860C056748
:1032380013070780D98F23A4F60C85BB97B5030025
:10324800938505CC1305D109EFC0C05901CDB71638
:10325800004083A7C60C056713070780D98F23A6EC
:10326800F60CA1B397B50300938505CA1305D109D8
:10327800EFC0405701C91305910DEF60433EEF00C1
:10328800A11D25B397B50300938585C81305D109FA
:10329800EFC0405501C5EF00611F01BB97B50300A2
:1032A8009385C5C71305D109EFC0C05301C5EF0009
:1032B8002127E5B997B503009385C5C61305D1093C
:1032C800EFC0405201CD19469305910D4800EF60BB
:1032D800C33B4800230501006D2BC1B997B5030016
:1032E8009385C5C41305D109EFC0C04F09C5114561
:1032F800EFD0607B5DB997B503009385A5C313052F
:10330800D109EFC0204E01CDEF60802C2A8697B5F9
:1033180003009385A5C22545EFC0C04479B197B590
:103328000300938525C21305D109EFC0A04B0DC535
:103338003018930521000A85EF60E01A031781030E
:10334800831621000316010097B50300938505C075
:103358002545EFC0204191B997B50300938505C075
:103368001305D109EFC0004801C5EFF0F06735B982
:1033780097B503009385C5BE1305D109EFC08046F4
:103388000DC92C1805461305910DEFC09007034889
:10339800B1038347A10303479103834681030306CF
:1033A800910D97B50300938525BC2545EFC0803B5B
:1033B800EDBE0346D109A547130606FD1376F60FA1
:1033C800E3E5C7BE971700202381C77A97B50300A6
:1033D800938585BA014589B7411106C6EF707047D4
:1033E800B240AA8617A703001307477A17160020CA
:1033F800130686BA97A503009385857A114541017E
:103408006FC04036317122DD4AD906DF26DB4ED740
:1034180052D556D35AD103470500930710042A8979
:103428002E846314F73A0347150093074005631E7B
:10343800F738034725009307E0056318F7382E8609
:10344800AA852545EFC0A0271306D003A2854A8583
:10345800EFC0803FAA84635A05003546A2854A8595
:10346800EFC0803EAA84634505089389D4FF93077B
:10347800100363CF37074E86930539006808EF605D
:10348800D37B1C11BE9917BA0300130AEA8A238E4C
:1034980009F6D28A81494D4B83254A006808EFC056
:1034A80060340DC18E09D69983D709004947636FE7
:1034B800F70017A703001307A7688A07BA979C4362
:1034C800BA9782878509210AE39869FD97B50300B1
:1034D8009385C585254525AA9305F4FF858D138514
:1034E8001400C20581460146C1814A95EF20906AC1
:1034F800FA506A54DA544A59BA592A5A9A5A0A5BFB
:10350800296182809305F4FF858D13851400C20517
:10351800C1814A953534E9BF1306F4FF058E13853A
:1035280014004206418297B50300938525434A95C6
:10353800EFC0003F171400201304446129C597A564
:103548000300938525678808EF60336A8808EF6071
:10355800F36A1316050141828C081385417BEF80BD
:10356800503D97A503009385A5671145EFC0C00A94
:103578001C40414593E71700171700202328F75CE4
:10358800EFC05062B5B797A503009385256611452E
:10359800EFC080087D55EFC0D0631C40F99B17171A
:1035A80000202325F75AA9B7053D99B71306F4FF5C
:1035B800058E138514004206418297B50300938552
:1035C800E5394A95EFC0C035171400201304045894
:1035D80031C11C4097A5030093850562880893E7CD
:1035E8001700171700202323F756EF601360880889
:1035F800EF60D360131605018C0841821385417B67
:10360800EF80303397A503009385C5601145EFC05F
:10361800A000F9BD97A50300938585608808EF6031
:10362800D35C8808EF60935D131605018C0841820E
:103638001385417BEF80F02F1C4097A503009385ED
:10364800E55FF99B171700202322F750C1B7EF70E9
:10365800701F971700209387674FA84FEF50135795
:10366800AE862A8697A503009385055E1145EFC0AF
:10367800600FBDBDEF501042A5BD17B6030013067D
:10368800662E97A503009385E55C1145EFC0800D74
:1036980085B5EF70B02197A503009385655C3DF56E
:1036A80097A503009385C55C95B70945EF90205D04
:1036B800AA84EF50B3512A86AE86254597A5030004
:1036C8009385455CEFC0000A97A703009387474E90
:1036D8008843A68517140020130404A4EF50A3649C
:1036E8002320A422EF80600703250422EF50134E05
:1036F800AE862A8697A503009385855985BF81459F
:103708000D45EF60003DEF7010142A8697A5030061
:103718009385C55A9DBF81451945EF60803B81451A
:1037280013055002EF60E03A97A503009385055A08
:103738001D45EF60003AEF7070112AC6EF70D01186
:10374800B2462A87171600201306068597A5030098
:10375800938505581145EFC0E00059BB17170020A5
:10376800035747BD97160020938626A517160020F5
:103778001306868297A503009385C557E1BF854741
:10378800171700202300F7BCEF70307D97A50300C2
:1037980093858557A5BD171700200347A7BA854706
:1037A80097A503009385C556E312F7E6C5B79717A3
:1037B80000209387A739E84BEF505341AE862A86FD
:1037C80097A503009385455555B50146A2854A85B9
:1037D800EF60600F31BBB1472300F50093871600F7
:1037E800A300F5002301B5002A878D4711C2B9EE61
:1037F8000146814605069375F60F63EBF50433061B
:10380800F70013852700850793F7F70F2300D600E5
:10381800BA971375F50FB5462380D7002A9723006A
:10382800070082803305B60003450500850523801F
:10383800A70013F5F50F9307350093F7F70FBA971D
:10384800E362D5FE8D0693F7F60F5DB78145D5B7D0
:10385800B305C70083C50500AE9693F6F60F59BFAA
:10386800797122D42304B1002A84A304C1008946B3
:10387800300093050008680006D6B13F131605010D
:103888006C0022854182EFF0B030B250225445617D
:1038980082801D71AA851946480086CEA2CC2312C3
:1038A80001002303010002C402C602C802CA02CCF6
:1038B800EFC0E0148D4650009305A00A2800213F70
:1038C800131605012A846C0828004182EFC0A00E57
:1038D800980893171400BA977408228697A50300CE
:1038E800938505792545238607FCEFB0B067F64038
:1038F8006644256182801171A6DB1306C003AA8481
:1039080081450A8586DFA2DDCAD9EFE09FF3130659
:10391800C00381456818EFE0DFF213068007814590
:10392800A818EFE01FF22685EF00E14A19ED268678
:1039380097B50300938505841545EFB0B062FE5036
:103948006E54DE544E5911618280930700032300A0
:10395800F1000A878147970500209385E563BD46F6
:103968003386B70003460600850705072300C7000E
:10397800E398D7FE8347A500C5460A869305000845
:1039880068182308F100813D13190501135909012D
:103998002A844A866C182685EFF0901F4A86AC1850
:1039A8006818EFC04001931714009819BA97B41813
:1039B800228697A503009385657E2545238407F80D
:1039C800EFB0505AADBF1171A6DB1306C003AA842D
:1039D80081450A8586DFA2DDCAD9EFE09FE6130696
:1039E800C00381456818EFE0DFE5130680078145CD
:1039F800A818EFE01FE52685EF00E13D19ED2686C2
:103A080097A50300938505771545EFB0B055FE508F
:103A18006E54DE544E5911618280930710032300BF
:103A2800F10097A70300938767738C4397170020CB
:103A38009387C711E84BEF50036BEF50D313420540
:103A4800418193578500A300F1002301A100EF9065
:103A5800D00C970700209387275483D747069946A9
:103A6800A301A10013978700A183D98F0A86930524
:103A7800000868182312F100B93B131905011359FE
:103A880009012A844A866C182685EFF070104A8648
:103A9800AC186818EFB03072931714009819BA97D9
:103AA800B418228697A503009385856B2545238442
:103AB80007F8EFB0304BA1BF1D71A6CACEC6D6C25B
:103AC80086CEA2CCCAC8D2C4DAC05EDE62DC66DAB0
:103AD8006AD86ED6AA84AE89B28A02CC231E0100A7
:103AE800EFF0D02793178501E18763D9070226866F
:103AF80097A503009385C5582545EFB0B046F64015
:103B08006644D6444649B649264A964A064BF25B6D
:103B1800625CD25C425DB25D256182801375F50FEF
:103B2800EF00C129AA8C0144354D171B0020130B47
:103B3800EB01930B200397AD0300938D6D6117ACD8
:103B48000300130C6C51E37C54FBB386890083C7D4
:103B580006003147639EE70693074400E3D157FB0D
:103B680003CA160013093400B307490163D2570783
:103B7800CE9783C70700639DA70581470147338612
:103B8800F60003461600850793F7F70F3297137769
:103B9800F70FE376FAFEB387460183C727006399D8
:103BA800E70283274B0309044E94239BFC008347B9
:103BB80004006385771D63E1FB0213070003638933
:103BC800E71A130710036388E71A52991374F90F59
:103BD80005041374F40F85BF1307000B6381E7080E
:103BE8001307100B638DE7101307A00AE39FE7FC88
:103BF80019462C0833852901EFB0F05B1946970563
:103C08000020938505772808230F010097D0FF1F10
:103C1800E780003785476312F5022685EF00811497
:103C28008345040026850546253997A50300938515
:103C3800A5482545EFB0501E49BF83450400268599
:103C480001463939970600209386A672300897A551
:103C580003009385E5472545EFB0D030BDB703C7CE
:103C6800360085476312F706054536C6EF80301FD4
:103C7800B246054583C7460017170020230EF7F202
:103C8800EFC0105C13051002EFC0C0711145EF6062
:103C9800400B83270B0093E7070117170020232702
:103CA800F7EAEFA08059171600200346E6F097A51B
:103CB80003009385A5432545EFB0D02A834504002A
:103CC80005462685713E11B7EFC050591945EF607A
:103CD80020097D55EFC0E06F97170020238E07EC71
:103CE80083270B0097A503009385C5432545BD9BF6
:103CF80017170020232CF7E4EFB0D026C1B783C7ED
:103D080036001547FD1793F7F70F636DF7028A071B
:103D1800E2979C43E29782870545EFC0A0688547F4
:103D280017070020A30AF73E170600200346D63ED1
:103D380097A50300938585402545EFB0B022EF7025
:103D4800D021ADBF0545EFC0E0658947D1BF054526
:103D5800EFC040658D47E9B79147D9B70545EFC032
:103D68006064954775BF0545EFC0C06399474DBF6F
:103D78002685513699BD2685B93181BD26850146EE
:103D880093052003EFF0DFADEE852545EFB0901DDC
:103D98002DBD411122C42164930504809946014632
:103DA800254506C697D0FF1FE780E0DD9305048010
:103DB8002244B2409946138601852945410117D30B
:103DC800FF1F670043DC99E10145828075DD011121
:103DD80052C403DA418526CA93548A008504A20492
:103DE800C204C18056C2B38A4441C20A22CC4AC81E
:103DF8002E862E842A8997A5030093856549254533
:103E080093DA0A014EC606CE93890185EFB0901564
:103E180063ED8A0883D5418593F7F50FB1CF8D6798
:103E280083D5418593870780A2864A86BE95294512
:103E380097D0FF1FE78020D51375F50F29ED83D79D
:103E480049001566A297239AF18403D7418583D741
:103E580021856309F70063F3E700B297998F1396FA
:103E680007014182254597A503009385E543EFB0F7
:103E7800700F1375F40F0DA08D6793870780930655
:103E880000100146BE95254597D0FF1FE780A0CFBB
:103E98001375F50F49D50145F2406244D2444249B1
:103EA800B249224A924A05618280B3079440D29768
:103EB800C207C183A18303C74900850793F7F70F9A
:103EC8009396870011EB9386170093740AF0A20665
:103ED800C204C206C180C18283D7218563F6F4007B
:103EE80033879600E3C9E7FA0D6A130A0A80014688
:103EF800B3854401254597D0FF1FE780C0C81375D7
:103F0800F50F51F983D54185A2864A86D29505B722
:103F1800411122C41384018522858145194606C6AC
:103F280097D0FF1FE78040009307B0FA2300F40002
:103F38008D352244B24097A503009385E52D25458C
:103F480041016FB0606DA1654111994613860185E5
:103F5800938505802D4506C697D0FF1FE780A0C230
:103F680003C701859307B00A6303F7005537B240CA
:103F780083D6418503D6218597A503009385852A95
:103F8800254541016FB0007E83D7C1A80145638FE5
:103F9800071003D5E1A86366F50023A601A801452B
:103FA80082803385A740D1473355F5021375F50F45
:103FB80001E5239601A88280130101BD23248142D3
:103FC800232611422322914223202143232E3141CB
:103FD800232C4141232A514195471374F50F63F36C
:103FE800A7001544228697A503009385A52D25458E
:103FF800EFB0407701498144938901A9514AA14A08
:104008009377F90F03D5E1A817070020034767271F
:1040180063EC8704D1473304F4022A94239781A8D8
:10402800A147631FF706A6850808EF40A02603D717
:10403800E1A883D7C1A86364F70023A601A8832059
:10404800C1420324814203D5C1A8832441420329E4
:1040580001428329C141032A8141832A41413335E1
:10406800A000130101438280B30749031408AA97EB
:10407800CE9733859600631E5701BE85EF400041F9
:104088002317A1008357E1000509BE94C204C1802B
:1040980085BFAA851306E1003E85EF90D007DDB7FE
:1040A80026860C080145EF60402351B78280011134
:1040B80006CE22CC26CA4AC84EC691E901442285BA
:1040C800F2406244D2444249B24905618280AA89D9
:1040D80075D583D7418503D621852E849564638A57
:1040E800C7006374F60015673A961D8E931406018F
:1040F800C180268697A503009385050F2545EFB057
:104108006066938714F06356F4009307F00F63EA30
:10411800970097A503009385A50E2545EFB0806409
:1041280071BF83D4418533878400956763C7E700EF
:10413800A2854E854939B13959B71569330999406E
:10414800420913590901CA854E85B53925D9ED7536
:10415800A695A295C205239A0184C18133852901B8
:10416800D1BF83D6C1A881EA97A503009385C50F5F
:1041780025456FB0604A03D6E1A84111918E97A5F5
:1041880003009385650F254506C6EFB0A05D13872C
:10419800C1A88355070083D7E1A8138501A99D8D80
:1041A800C2053E95C1812137B24023A601A841012D
:1041B8008280411183D7C1A822C426C206C6AE9701
:1041C80013078025AA842E84635AF700593F97A5C0
:1041D8000300938525072545EFB0004483D7C1A880
:1041E800138501A92286A6853E95EF50034A03D67A
:1041F800C1A8229642062244B240924441822396A4
:10420800C1A897A5030093856505254541016FB0B1
:104218006055011126CA06CE22CC4AC84EC652C4E1
:1042280056C2814459C1D1C183D7218503D4418560
:10423800638D870663F587081D8C42044180AE892B
:104248002A89228697A50300938585F60145EFB054
:104258006051A28463F38900CE84C2040D6A83D7B7
:10426800218503D74185C180938A0185130A0A8075
:1042780063FAE704A6864A86B38547012D4597D099
:10428800FF1FE780409083D72A00A6972399F184DF
:10429800EFF03FB083D6418503D6218597A503006B
:1042A800938545F22545EFB0E04BF2406244268500
:1042B8004249D244B249224A924A0561828015672E
:1042C8003A949DBF15671D8FB385470163D5E400F8
:1042D800A6864A8665B79569B389F9406D743E9498
:1042E800C20993D909012694CE864A8642042D45EF
:1042F80097D0FF1FE78020894180A28633063901C5
:10430800D2852D452399018497D0FF1FE780A08788
:1043180083D72A003E94239981849DBF9387018582
:1043280003D5270083D747001D8D133515008280DC
:10433800397126DA4AD84ED652D456D25AD006DE29
:1043480022DC62CE66CC2A89EF60430B9374F50FAA
:104358008149254BE54A17AA0300130A2AFC91EC68
:10436800F25062544E85D2544259B259225A925A46
:10437800025B724CE24C216182800347090093077B
:1043880007FD93F7F70F637CFB009307F7F993F7A3
:10439800F70F63E2FA06930797FA93F7F70F139468
:1043A80087016184FD14230089002685EF40130AE4
:1043B8002A86AE8603250A0083254A0093F4F40F63
:1043C8000509EFF010532AC422852EC6EF401308C2
:1043D8002246B246EF3033382A8C4E85AE8CEF40F9
:1043E800130E2A86AE866285E685EF20B34BEF4032
:1043F8003300AA89ADB79306F7FB93F6F60F81470A
:10440800E3EFDAF8930797FC49BF411122C406C6C7
:10441800830795022A8499C713059502EF50232430
:104428002381A10E8307D41291CB1305D412EF5028
:10443800A322EF5063049387010BC8D3B2402244F0
:1044480041018280011126CA9304150022CC97A548
:104458000300938565F22A84268506CE4AC84EC68F
:10446800EFB04040631E051097A50300938505F142
:104478002685EFB0203F6302050E85448307D403E9
:104488006386070C13059402EF50631D8549137961
:10449800F50F1305D4036387340F8947638CF41829
:1044A800EF50E31BA382A10E631A390179468145B7
:1044B80013857110238B0184EFE0AFB88307D4080C
:1044C80085C31305D408EF50831903C76185930783
:1044D8001700238BF1849387010BBA97A38BA7044A
:1044E8008307D40D85C31305D40DEF50431703C7B5
:1044F800618593071700238BF1849387010BBA9783
:10450800A38BA7048307D41285C31305D412EF50D5
:10451800031503C7618593071700238BF1849387DD
:10452800010BBA97A38BA7048307D41785C3130578
:10453800D417EF50C31203C7618593071700238B65
:10454800F1849387010BBA97A38BA704F2406244C6
:10455800D2444249B2490561828097A503009385F8
:1045680025E22685EFB00030E31905F0268597A5EA
:104578000300938525E1EFB0E02E8944E31005F0B0
:104588008144EDBDEF50A30D2383A10E631A99005A
:10459800794681451385910E238B0184EFE06FAA3C
:1045A8008307D40885C31305D408EF50430B03C70A
:1045B800618593071700238BF1849387010BBA97C2
:1045C800A38CA7028307D40D85C31305D40DEF5020
:1045D800030903C7618593071700238BF184938729
:1045E800010BBA97A38CA7028307D41285C31305BE
:1045F800D412EF50C30603C7618593071700238BB6
:10460800F1849387010BBA97A38CA7028307D41769
:10461800E38E07F21305D417EF50630403C76185CF
:1046280093071700238BF1849387010BBA97A38C08
:10463800A70229BFEF50A302A383A10E01BF411116
:1046480022C406C6830795072A8499C713059507C8
:10465800EF50E300A381A10E8307D40899C713057F
:10466800D408EF40D37F2382A10E8307540B91CB4C
:104678001305540BEF40537EEF4013609387010BF3
:1046880088D7B240224441018280411122C406C623
:10469800030715058147014419C703444505130459
:1046A80004FD1374F40F0307550619C713055506BF
:1046B800EF40F37A9377F50F1374B40F0D47631136
:1046C800E4021D47637EF700970700209387074899
:1046D8009C4337072000D98F170700202328F74667
:1046E800B240224441018280011126CA8146B28427
:1046F800014652C456C206CE22CC4AC84EC62A8AA1
:10470800AE8AEF30636841CD9307E0046386F40016
:10471800930730056395F40897A90300938989C323
:1047280003A6090083A649005285D685EF30B30257
:1047380037949800EF40C34B130404682A893375F3
:104748008502EF40C35703A6090083A64900EF304E
:10475800630897A70300938767C09043D443EF305B
:1047680063072A8A33558902AE8AEF4043552A8661
:10477800AE865285D685EF20F31213073005AE8733
:104788006395E400B7070080AD8FF2406244D244DD
:104798004249B249224A924ABE8505618280014552
:1047A8008147E5B7011126CA8146B284014652C441
:1047B80056C206CE22CC4AC84EC62A8AAE8AEF30E6
:1047C800A35C41CD930750046386F40093077005FA
:1047D8006395F40897A903009389C9B703A609004C
:1047E80083A649005285D685EF30E3763794980042
:1047F800EF400340130404682A8933758502EF40AB
:10480800034C03A6090083A64900EF20B37C97A7B1
:1048180003009387A7B49043D443EF20B37B2A8A3D
:1048280033558902AE8AEF4083492A86AE8652857F
:10483800D685EF20330713077005AE876395E4002C
:10484800B7070080AD8FF2406244D2444249B24972
:10485800224A924ABE850561828001458147E5B7B3
:10486800135785009357050113D885009376F50FE4
:1048780001111377F70F93F7F70F618593F5F50F8C
:104888001378F80F99C211C3B9E3230CD100A30C14
:10489800E100230DF100A30DA10003459101834719
:1048A80081010347A1012205A30E01014207C98F17
:1048B800230EB1000345B101D98F0347D1018345C8
:1048C800C101620522075D8DD98D0561828032950F
:1048D8001375F50F13138501135383415D46635711
:1048E800660861463363C30285071376D70F1145FF
:1048F80093F7F70F6305A6002545631AA6007946C6
:10490800637FF60205071377F70F85470DA8094659
:104918006312C7041386067D93084006B36816031E
:104928006385080013F5360011C5130500193366B1
:10493800A60219EE75466374F60085470D47230CE9
:10494800D100A30CE100230DF100A30D6100B1B764
:104958007146D5B77D46E374F6FEB147E314F7FA1E
:10496800850693F6F60F85470547D1BFE35903FC43
:104978006105FD171313850193F7F70F135383414F
:10498800DDFF7D171377F70F1146F947E309C7FADB
:104998001946E306C7FA2546E303C7FA2D46E3009E
:1049A800C7FA89476316F7021386067D9307400600
:1049B800B367F60291C793F83600F547E38108F824
:1049C80093070019B367F60293B71700F10785BF7D
:1049D800FD4735F7FD1693F6F60F31478DB7834738
:1049E8001500034705000111A2075D8F83472500C5
:1049F8008346350083454500C207D98F03475500D4
:104A080022CC17F4FF1F1304247103062420E206A6
:104A1800220733E5F600D98D06CE9935135885005F
:104A28001356050193D7850013F7F50F93F7F70F82
:104A3800935685011376F60F9375F80F1375F50FD6
:104A4800EF80A00083471400054793F7B70F6397DB
:104A5800E7006244F24005616F80A00EF2406244B4
:104A6800056182804971232481161384010B830711
:104A7800340083C8510B03C8410B03C7210B83C6FD
:104A8800110B03C6010B97A503009385A591481048
:104A9800232611162322911623202117232E3115A0
:104AA800EF5053104810EF50731518485C48030630
:104AB80004033AC03EC2030814035C44184454106B
:104AC80097A50300938505903695EF50B30D4810D0
:104AD800EF50D3125C103E958307640017A60300BD
:104AE8001306C68B89C717A603001306A68A97A5BF
:104AF80003009385E543EF50F30A4810EF50131075
:104B0800544C104C5C1097A503009385A58C3E95DA
:104B1800EF5053094810EF50730E030634035C102E
:104B28003E9597A503009385A58BEF50B3074810D2
:104B3800EF50D30C03072403AA8448503ACE1384B9
:104B4800010BEF40B30872475C10AE862A8697A522
:104B580003009385E58933859700EF50B304481027
:104B6800EF50D3095C1003C6410E97A50300938547
:104B7800A5893E95EF5013034810EF5033085C1099
:104B880097A50300938545893E95EF501306138931
:104B9800E10CA28497A90300938989CE03C6740502
:104BA80019CA481032CEEF50730572465C10CE8594
:104BB8003E95EF50237F8504E39224FF4810EF5081
:104BC800F3035C1097A50300938585853E95EF5008
:104BD800D30197A403009384A4CA0346940319CA73
:104BE800481032CEEF50930172465C10A6853E9570
:104BF800EF50437B0504E31224FF4C102545EFA03A
:104C0800B0218320C1160324811683244116032969
:104C180001168329C11575618280411122C406C617
:104C280026C2830755012A84B9C7A946938707FD79
:104C3800B387D70203476501130707FDBA97A3890E
:104C4800F10A0307750183478501130707FD330739
:104C5800D702938707FD3E97238AE10A83079501C8
:104C68000347A501938707FDB387D702130707FDFD
:104C7800BA97A38AF10A8307940281CB1307100419
:104C88006390E7148547238BF10A8307D403938441
:104C9800010B99C71305D403EF40131C88C4CCC477
:104CA8000306140509CA8844CC442380C10EEFF0DA
:104CB800BFA388C4CCC48307540699C713055406F8
:104CC800EF40931988C8CCC80306940709CA8848D6
:104CD800CC48A380C10EEFF0FFAC88C8CCC88307CE
:104CE800D40899CF1305D408EF40131797970300FA
:104CF8009387C7699043D443EF30E32588CCCCCC65
:104D08008307140A99C71305140AEF40531523980B
:104D1800A10C8307540BB9C7A946938707FDB3872E
:104D2800D7020347640B130707FDBA972389F10AD3
:104D38000307740B8347840B130707FD3307D70258
:104D4800938707FD3E97A388E10A8307940B0347DF
:104D5800A40B938707FDB387D702130707FDBA97FC
:104D68002388F10A83853400856703C6410B93873E
:104D780007E11307C0033307E60283C6510BB38765
:104D8800F502BA97B69723AEF10C17070020130760
:104D9800E7DB1C433A8413F5870039E10385640097
:104DA8000547631FE50203C7210B11EF8844CC4474
:104DB80001468146EF20537D05E9238B010AB9A0FE
:104DC800238B010AD9B5FDD175D2EDD293E78700BF
:104DD8001385010B17070020232AF7D6EFF03FC0F1
:104DE80083876400E1F7D1BF8848CC4801468146F3
:104DF800EF20937979D183C7210BE1D3130680077C
:104E08009385010B13858103EF40330803C581CED9
:104E18009D4705053365F502130680079385010B49
:104E28002384A1CE930780073305F502938701CF2A
:104E38003E95EF409305EFF0FFC25C582244B24024
:104E48009244170700202321F7D4130680078145D1
:104E58001385010B41016FD0DF9E0171232C811E48
:104E6800232A911E1306101E2A84AE8468008145E9
:104E7800232E111E2328211FEFD0BF9C8145814777
:104E8800014701465148CD485D436341960899C1A1
:104E98002306F1001306A002A6852285EFA0D01AEA
:104EA8008347C10051473386A440B387E70293057F
:104EB800150078007D16A29585073305F700EF40A9
:104EC800C37C1306A002A685228503491400EFA01F
:104ED800B017894763C4A7080345C100D147330504
:104EE800F5027C0005053E95EFF08FC4631DA9040B
:104EF8001946979503009385E5461305D100EFA061
:104F080030222DC56800EFF05FD135A8B306C40084
:104F180003C50600930665FD93F6D60F91EA85074B
:104F280093F7F70F6361F302854501470506B1BFA3
:104F3800B3860703130E011FF296BA96A38EA6E056
:104F48000507E3D5E8FE8320C11F0324811F8324BE
:104F5800411F0329011F1301012082803307F40038
:104F68000347070085073349E900ADB71946979508
:104F780003009385653F1305D100EFA0701A39E946
:104F88001946979503009385653E1305D100EFA058
:104F980030190DED1946979503009385653D130566
:104FA800D100EFA0F01719ED1946979503009385E6
:104FB800653C1305D100EFA0B01651D56800EFF09D
:104FC800CFEC51B76800EFF0EFC7B5BF6800EFF05E
:104FD8000FE795BF6800EFF04FC3B5B7757122C5ED
:104FE80026C34AC1CEDED2DCD6DADAD806C7AA8909
:104FF8002E89814401448147130A4002854A354B72
:10500800139704014183636C2701BA402A449A44E8
:105018000A49F659665AD65A465B496182803387EF
:1050280099000347070063004703639C5701631D0A
:1050380067019C18A297A2856800238E07F8313D66
:105048008147850475BF01449C18A2970504137411
:10505800F40F238EE7F893373406E5B7411106C6F7
:10506800138581CE83470500130780078145B387E1
:10507800E70213068007A1073E95EFD08FFCB240E8
:105088008145114541016FB0E028138581CE8347E2
:10509800050013078007B387E702A1073E958280C2
:1050A800138581038280397126DA979403009384EB
:1050B800642462CC66CA328CB68C9040D44006DE3A
:1050C80022DC4AD84ED652D456D25AD05ECE6AC8BE
:1050D80042C046C217940300130444223AC43EC691
:1050E800EF20736710405440179D0300130D8D2166
:1050F800EF20436E2247B2479040D4402A8AAE8AB6
:105108003A85BE85EF20336510405440EF20836C0C
:105118002A89AE892A86AE865285D685EF30232F16
:1051280003260D0083264D00EF20F362EFE0506761
:105138002A8BAE8B5285D685EFE0705D2A8AAE8ABF
:105148004A85CE85EFE0B05C024892482A894286BB
:10515800C686AE896285E685EF30632B9040D440E1
:10516800EF20735F10405440EF20C36603260D0004
:1051780083264D00EF20335EEFE090622A84AE84F0
:105188004A86CE865285D685EF20F35C2286A6868F
:10519800EF20735C2286A686EF20F35B2A84AE8418
:1051A8005A86DE865A85DE85EF20F35A2A86AE8631
:1051B8002285A685EF10136FEFF00026EFE09067C9
:1051C8002A86AE86EF10136E97970300938707140D
:1051D8009043D443EF20335897970300938787135E
:1051E8009043D443EF203357F2506254D25442597B
:1051F800B259225A925A025BF24B624CD24C424D3F
:1052080021618280184193878112104598C3035702
:105218004500544590C72392E70058551049D4C714
:10522800544998CF9795030093854511054725451F
:1052380090CBD4CB238EE7006FA0003E23820114CD
:1052480082801305800783C781CEB387A702938620
:1052580081CE7D55B385F6000387E50025CF19710A
:1052680086DEA2DCA6DA03C641141387811219EA86
:10527800A1073385F60079377955F6506654D65428
:1052880009618280032887008328C7005C4B904906
:10529800184BD449884DCC4DEFF0FFE02A86AE86F6
:1052A8002A84AE846800979503009385E502EF5041
:1052B800630F6C002545EFA0203617F5FF1F034547
:1052C800B5EFEF30B3182286A686EF20733D13257D
:1052D800050065B782809707002083C7C78781CFFD
:1052E80097F7FF1F83D78703FD17C207C1831307EB
:1052F800A0036375F70023AC018482805971CECE78
:105308009389818583A70900D6CA938A81CE8507A8
:10531800A2D4A6D2D2CCDAC8DEC6E2C4E6C2EAC0BB
:1053280086D6CAD023ACF18483C481CE014A130C3B
:1053380080075684979C0300938CCCFE054D9D4BAB
:10534800154B3389840356998307E900E1CF03A6F7
:105358000C0083A64C000325090283254902EF208F
:1053680033346341050C83470904638DA70B9317F6
:105378001A005808BA97035789022390E7007C005F
:10538800D29723809700050A9904B3E47403E31ABB
:105398006AFB0357C10183574101998F13D7F7411E
:1053A800B98F998F939407011307400BC1806358F5
:1053B800F70093078016B3849740C204C1802686FD
:1053C80097950300938585F60810EF40B37D0C1080
:1053D8002545EFA06024938714FFC207C18379474E
:1053E800636CF70A0349D100130A80078545014514
:1053F80033094903210922994A86EF80703E834484
:10540800F10085450145B3844403A104A29426868E
:10541800EF80103DCA850D45EF308009A6850D4502
:10542800EF30000983A7090017F7FF1F035707EF9D
:1054380063E6E704EFF0FFE085476311F5049304A2
:10544800800703C681CE33069602854501452106AD
:105458002296EF80F03883C581CEB38595020D453D
:10546800A105A295EF30C00403C581CE330595028E
:1054780021052295EFF01FD923AC0184B65026549C
:1054880096540659F649664AD64A464BB64B264CB8
:10549800964C064D656182809307D002E3F497F835
:1054A800834BC100930A80078545B38B5B03014595
:1054B800138C8B00229C6286EF809032034BD100C4
:1054C80085450145330B5B03A29B210B229B5A8622
:1054D800EF801031034AE10085450145330A5A033C
:1054E800210A229A5286EF80B02F0349F1008545A0
:1054F800014533095903210922994A86EF80502E24
:105508008344010185450145B3845403A104A29451
:105518002686EF80F02CE2850D45EF207079DA853C
:105528000D45EF20F078D2850D45EF207078CA85BB
:105538000D45EF20F077A6850D45EF20707783C7DE
:1055480081CEB38A570303A74B03A29A83A74A03C2
:10555800E31AF7EC85472380FA04E9B5914763E33A
:10556800C70A17970300130767EC0A063A961C4206
:10557800411122C406C6BA972A84828797A50300D8
:10558800938545201145EFA02009A2851145EFA07C
:10559800A0082244B24097A50300938565201145D1
:1055A80041016FA06007B9CA9042EF40105F2244E2
:1055B800B240014697550000938545E43D454101B9
:1055C8006F30007E85CE2244C8C2B24003C5A60013
:1055D8002394B6003686954541016F80702099CE98
:1055E8002244B2402E86AA8503C5B60041016FD079
:1055F800305A2244B24041016F30203BB24022442D
:10560800410182808280411106C6EF90803AB24003
:1056180041016F80307D557113066009814528105E
:1056280086C7EFD00FA29307510258109306310294
:10563800130621029305110213056102EF70C03AA7
:10564800EFF0BFA4030305039305E004835661024A
:10565800034711028347210203483102834841026C
:10566800034E510217C603001306860C6316B300D7
:1056780017B6030013064682830E1503130350045E
:10568800032F8500832FC50097B503009385C58038
:1056980063866E0097C5030093858509032305017A
:1056A800832345017AC41ACC1ECE7EC672C02EC88A
:1056B80032C2979503009385256617F6FF1F1306D8
:1056C800A68D2810EF40134EEF80F0372810EF40DA
:1056D800F3529387C18590439315050193868114EE
:1056E8002810C181EFF09FE7BE4069618280717127
:1056F80022D526D34AD12A842E89B284814513061D
:105708006009280006D7EFD0CF9323AE218581C842
:105718009C4023A4F11483C7A4002389F1148307B0
:10572800D403A9E30545EFA0F047979503009385B7
:1057380065DC2545EF90506E0545EF40806097F792
:10574800FF1F9387A7409C4393E7070117F7FF1FA5
:10575800232EF73EEF80702EBA502A549A540A59D5
:105768004D6182801307F003E38EE7FA9304D403B4
:105778002685EF30D36E8947E3D6A7FA268597F7B3
:10578800FF1F239C0742EF30936D97F7FF1F238578
:10579800A74213059407EF30936C1375F50F3DC5B9
:1057A80097F7FF1FA38AA7440545EFB060291305A3
:1057B8001002EFA0303F1145EF40A05897F6FF1FA9
:1057C80083C6964317F6FF1F0346063F97950300C7
:1057D800938505D42800EF40F33C2800EF4013429E
:1057E800131605012C0041822545EF90506D2800C5
:1057F800EF40D3409387C185904393150501938665
:105808008114C1812800EFF07FD5B9B7A94717F7F0
:10581800FF1FA303F73E49BF411122C42A8483070F
:10582800D40306C626C22E8589C71307F003639CD6
:10583800E70297F7FF1F83C7179817F7FF1F13078C
:10584800779497F6FF1F9386D69017F6FF1F1306D7
:10585800368D97950300938525D92244B24092440A
:1058680041016F40333497F7FF1FA38B078A97F7DF
:10587800FF1FA380078E97F7FF1FA3850790034795
:1058880004008547AE8463FAE7009305D40317F54F
:10589800FF1F1305F588EF4053358307940791CF11
:1058A80003470400894763FAE7009305940717F54F
:1058B800FF1F1305158AEF4053338307540B91CF0D
:1058C800034704008D4763FAE7009305540B17F567
:1058D800FF1F1305358BEF4053318307140F91CF0A
:1058E80003470400914763FAE7001305140FEF30EC
:1058F800135797F7FF1FA380A78C01469745000011
:105908009385C53F13052003EF308049EF50F064BD
:1059180097F7FF1F83C7378A17F7FF1F1307978665
:1059280097F6FF1F9386F68217E6FF1F1306567F2A
:1059380097950300938585CE268505B7411126C224
:1059480006C622C4034705008947AE8463F7E70209
:105958009305D5032A841306200317E5FF1F1305B3
:105968002575EF40932D13059407EF30534F97E7B4
:10597800FF1F2391A77AEF50D058EF50905C97E61D
:10598800FF1F83D6267917E6FF1F130666729795C1
:1059980003009385652F2685EF40D320854797E53B
:1059A800FF1F9385655F17E5FF1F1305256F17E731
:1059B800FF1FA309F764EF40532397E5FF1F938563
:1059C800357617E5FF1F13050564EF40132297E5A9
:1059D800FF1F9385157817E5FF1F1305E565EF4051
:1059E800D32097E5FF1F9385F57917E5FF1F13056A
:1059F800C567EF40931F978503009385251917E521
:105A0800FF1F1305056EEF40531EEF50904F0146E0
:105A180097B500009385C5FA7945EF306038224480
:105A2800B24092440146977500009385659013052E
:105A3800000541016F30C036411122C426C24AC058
:105A480006C68307D503AE8417990300130989F2A4
:105A580017F4FF1F1304840F89C71307F00363911A
:105A6800E70417E5FF1F03452575EF30231E0326BE
:105A7800090083264900EF10F355EF30F31F68CC77
:105A8800EF30D314AE862A8697950300938505EFE9
:105A98002244B24002492685924441016F40931046
:105AA8001305D503EF30B33B97E7FF1F2386A77095
:105AB8001375F50FEF308319032609008326490073
:105AC800EF105351EF30531B68CCEF501049684C1E
:105AD800EF30D30FAE862A8697950300938505ECA1
