:04C000006F20007D30
:10C004000000000000000000900000202209002031
:10C01400A9BDF9F594000020000000000000000014
:10C02400960000209800002000000000000000009E
:10C034009A000020000000009C0000200000000086
:10C044009E0000201603002044030020A4000020CA
:10C05400A6000020A8000020AA000020AC000020B8
:10C06400AE000020B0000020C60000205A010020CD
:10C074009E090020B8000020BA000020BC00002067
:10C08400BE000020EE01002082020020C400002037
:10C0940001A001A001A001A001A001A001A001A094
:10C0A40001A001A001A001A001A001A001A001A084
:10C0B40001A001A001A001A001A001A001A001A074
:10C0C40001A001A001A037370040834747009946EB
:10C0D4004111BD8B638CD70231476384E706114756
:10C0E400639EE702A3030100174600000346067897
:10C0F40037370040834771006315F6022C0013851F
:10C10400815C979001E0E780801709A88347570076
:10C1140093F7F70F2304F100834781004101730073
:10C12400203083477100834687000C08AE97238C28
:10C13400D7FE83477100850793F7F70FA303F10038
:10C1440055BF2800970002E0E780A0231375F50F80
:10C15400A303A1000346710055B737370040834756
:10C16400474099464111BD8B638CD70231476384A4
:10C17400E7061147639EE702A30301001746000088
:10C184000346E66E37370040834771006315F602B5
:10C194002C001385C15D979001E0E780400E09A84B
:10C1A4008347574093F7F70F2304F1008347810037
:10C1B40041017300203083477100834687400C0897
:10C1C400AE97238CD7FE83477100850793F7F70F4B
:10C1D400A303F10055BF2800970002E0E780202C5C
:10C1E4001375F50FA303A1000346710055B7374734
:10C1F40000408347478099464111BD8B638CD70229
:10C2040031476384E7061147639EE702A3030100F5
:10C214001746000003469665374700408347710080
:10C224006315F6022C001385015F979001E0E78007
:10C23400000509A88347578093F7F70F2304F100FB
:10C244008347810041017300203083477100834696
:10C2540087800C08AE97238CD7FE8347710085072F
:10C2640093F7F70FA303F10055BF2800970002E0EE
:10C27400E780A0341375F50FA303A10003467100F2
:10C2840055B737470040834747C099464111BD8B96
:10C29400638CD70231476384E7061147639EE70244
:10C2A400A3030100175600000346268D37470040BC
:10C2B400834771006315F6022C0013854160979043
:10C2C40001E0E780C0FB09A8834757C093F7F70F45
:10C2D4002304F10083478100410173002030834728
:10C2E4007100834687C00C08AE97238CD7FE834722
:10C2F4007100850793F7F70FA303F10055BF2800DA
:10C30400970002E0E780203D1375F50FA303A10019
:10C314000346710055B7411122C6371400408357B4
:10C32400C40993F7074099CBA145014597E001E083
:10C33400E78080B193070040231EF4083244410192
:10C3440073002030B717004003D7E70903D7E70984
:10C354009316170163D5060417570000034747A433
:10C36400050797560000238DE6A217570000130710
:10C37400E7941843136707409756000023A0E694F8
:10C384001167239FE70803A7470C9166131617014B
:10C394006359060003A7C70C558F23A6E70C730047
:10C3A400203003A7870C558F23A4E70CCDBF411180
:10C3B40022C417540000130464901C4006C613F7EB
:10C3C40007401DCB13974701634107028D4509457B
:10C3D40097E001E0E78040A7914517550000034529
:10C3E4003590975002E0E78040B01C4093F7F7BFC8
:10C3F400175700002324F78C975700009387079E54
:10C404009C438DCB1C401397470163410702A94508
:10C41400094597E001E0E78020A391451755000006
:10C424000345158C975002E0E78020AC9757000035
:10C4340023A6079AB24022444101828041118146D9
:10C4440001468145114506C6EF00A077B727004095
:10C4540011472383E780B7F700E003A707D16D9B5B
:10C4640023A8E7D003A707D15D9B23A8E7D07300D7
:10C47400501001000100B240410182804111814607
:10C4840081450146114506C62D2FB72700401147A7
:10C494002383E780B717004003C7E70283C5E70497
:10C4A40083D7870391661377F70F93E5350063E528
:10C4B400D700719B13671700B71700401306700568
:10C4C4002380C704930680FA2380D7040100010067
:10C4D400238207022380C7042380D70401000100BC
:10C4E4002387E7022387B7042380C7042380D70464
:10C4F4000100010003C7B70413670702A385E7041B
:10C504002380070437F700E0832507D193E545002E
:10C514002328B7D0832507D1DD992328B7D073000A
:10C524005010010001002380C7042380D7040100B8
:10C53400010003C7B7041377F70DA385E70423802D
:10C544000704B240410182800111B7F5070022CCF3
:10C554008146E1052A840A86194506CE26CA02C008
:10C5640023120100B92DB717004003C7E70283C5A2
:10C57400E70483D7870391661377F70F93E53500B4
:10C5840063E5D700719B13671700B71700401306C4
:10C5940070052380C704930680FA2380D704010022
:10C5A4000100238207022380C7042380D7040100EB
:10C5B40001002387E7022387B70423800704B7F524
:10C5C40000E003A705D11367470023A8E5D003D5EE
:10C5D40007026577110713750560418D598D420572
:10C5E400418101002380C7042380D7040100010096
:10C5F40003C7F70037F40700B7F400E01367070434
:10C60400A387E70003C7B704610413670702A38580
:10C61400E7042390A70283A704D1DD9B23A8F4D0C9
:10C62400730050100100010013056004352E81468B
:10C634003000A285194502C423160100592322475C
:10C644008247E31AF7FCB7170040130770052380ED
:10C65400E704130780FA2380E7040100010003C7FD
:10C66400B7041377F70DA385E70423800704F2408A
:10C674006244D2440561828001114EC6814601465E
:10C68400AA898145114506CE22CC26CA4AC8152B53
:10C69400B716004083C7E60203C7E60483D68603C1
:10C6A400116693F7F70F1367370063E5C600F19B34
:10C6B40093E717003714004013097005230024057D
:10C6C400930480FA2300940401000100230204026D
:10C6D4002300240523009404010001002307F4022D
:10C6E4002307E40423000404130550025920B7F778
:10C6F40000E003A707D11367470023A8E7D023006E
:10C70400240523009404010001000347F400136787
:10C714000704A307E4002300240523009404010074
:10C7240001002567B3E9E9002310340303A707D107
:10C734005D9B23A8E7D073005010010001008146DF
:10C74400014681451145B52923002405230094049D
:10C75400010001008347640493E717002303F404F2
:10C7640023000404F2406244D2444249B2490561C0
:10C774008280B7170040930670052380D7041307FF
:10C7840080FA2380E7040100010003C6B70413768E
:10C79400F60DA385C70423800704137605024DC252
:10C7A40003C6A700118A1DE22380D7042380E7046F
:10C7B4000100010003C7A700136747002385E700B2
:10C7C4009307004B01000100FD17EDFFB717004070
:10C7D400930670052380D704130780FA2380E704A7
:10C7E400010001007D892394A700010001000100DC
:10C7F4000100238007042380D7042380E704010079
:10C804000100010001003727004093061005A3032F
:10C81400D78023800704B7170040130770052380CF
:10C82400E704130780FA2380E7040100010003C72B
:10C83400B70413670708A385E704238007048280ED
:10C844001376050441C603C6A700418A1DE223806E
:10C85400D7042380E7040100010003C7A70013677E
:10C8640007012385E7009307007D01000100FD1700
:10C87400EDFFB7170040930670052380D704130714
:10C8840080FA2380E704010001001376F5011366A2
:10C8940006042394C7000100010001000100238065
:10C8A40007042380D704130660042380E704631875
:10C8B400C5000100010037270040894689BF0100F7
:10C8C4000100372700409306200591B72380D70441
:10C8D4002380E7040100010003D787001367070CD6
:10C8E4002394E7000DBF411181460146814511455E
:10C8F40006C6C12CB7170040130770052380E70450
:10C90400130780FA2380E7040100010003C76704CA
:10C91400136717002383E70423800704B24041010F
:10C9240082808146014681451145612CB71700403C
:10C93400930670052380D704130780FA2380E70445
:10C94400010001007D562396C7022380D70423806B
:10C95400E7040100010003C767041367170023837A
:10C96400E7042380070401A0BD473305F502010055
:10C974007D1575FD8280411122C426C206C6AA8493
:10C98400014463179400B2402244924441018280DE
:10C9940005041305803E4204C13F4180DDB7B7174B
:10C9A4000040130700032388E70285471747000068
:10C9B4002324F74273002030397122DC4ED656D23C
:10C9C40037140040E57AB7F9070026DA52D45AD072
:10C9D4005ECE06DE4AD862CC2A8B916B93040404A3
:10C9E400130A7005910AE1098347E4020347E4044A
:10C9F4008356840393F7F70F1367370063E57601D3
:10CA0400F19B93E7170023804401130980FA2380E4
:10CA14002401010001002302040223804401238035
:10CA24002401010001002307F4022307E404238006
:10CA3400040037F700E0832707D193E74700232852
:10CA4400F7D08357040293F70760B3E76701B3E7AE
:10CA54005701C207C18301002380440123802401BC
:10CA6400010001008346F400130CB40493E60604A9
:10CA7400A307D4008346B40493E60602A305D404B2
:10CA84002310F402832707D1DD9B2328F7D07300FA
:10CA940050100100010013056004F9353000CE8503
:10CAA4008146194502C423160100212A11469745DF
:10CAB40000009385E532280011231DD593077005E6
:10CAC4002380F400238024010100010083470C002B
:10CAD40093F7F70D2300FC0023800400F250625406
:10CAE400D2544259B259225A925A025BF24B624CC6
:10CAF40021618280411106C6AD2D553897A001E011
:10CB0400E780A08ED5BF2303048015472303E48068
:10CB140001002302A480828083076480E3CE07FEA1
:10CB240023030480828083076480E3CE07FE0345E9
:10CB34004480828083076480E3CE07FE2302A480BE
:10CB44008280411126C44AC24EC006C61377F50B33
:10CB5400AD47AA892E8995446306F70019456537C0
:10CB6400653F8D444E854537FD59FD146398340166
:10CB7400B240A244124982494101828013550901FD
:10CB84001375F50F453F2209CDB7011126CC06CE0A
:10CB9400B704080051371545BD37713769372AC6C0
:10CBA400A53F32459377150089EB1365150013757E
:10CBB400F50FF240E24405618280FD14E9FC014571
:10CBC400CDBF397126DC4ADA4ED852D656D45AD261
:10CBD4005ED006DE62CE66CCB7E700E07D5783AA5E
:10CBE400070022C603AA470023A0E71823A2E718D8
:10CBF400B7170040130770052380E704130780FA72
:10CC04002380E70483C74704930B75FFB684E207C8
:10CC140093FBFB0F8546AA892E8B3289372400406B
:10CC2400E187015763FA76016308D5008946130743
:10CC340000026313D5000157D98F93F7F70FB71C80
:10CC440000402382FC0411472303E4801305F00F02
:10CC54005D3D094CD135636D7C11B7050700DA954C
:10CC640037870700795563F2E504B3879500636E4F
:10CC7400F702370B0800A94733EB65016399F906FE
:10CC840089E48144513D26850DA0DA850945553D49
:10CC940005090345F9FFFD14050B693D81C493772C
:10CCA400FB0FFDF7DD3569FD7D55B7170040130710
:10CCB40070052380E704130780FA2380E70403C781
:10CCC4004704418B2382E704F250B7E700E023A036
:10CCD400571123A24711E25432445259C259325ACD
:10CCE400A25A125B825B724CE24C21618280A5479E
:10CCF4006395F90685691309F00FB3069900B374B7
:10CD04002B01B6941349F9FFB3749900856B3379F9
:10CD14006901416B9387F9FFB3F7270199E363FC3A
:10CD2400340193D94900C147E3E637FF99BF056948
:10CD3400C1697D19D9B71305800D6388690113058D
:10CD440000026384790113051008CA85DD3B353D73
:10CD540021DD4E99B3843441D9B7DA852D45D533D5
:10CD6400CA94E30099F205097D3BA30FA9FED5BF40
:10CD74009387F9FF93F7F70F6361FC0C83C71C04D7
:10CD840013073008631FF70437070800636BEB04CD
:10CD9400B3079B00B706100063F5D704334BEB00D1
:10CDA40089476393F9068980D549E38C04ECDA85D5
:10CDB4000945413B11090327C9FF91472320E4801A
:10CDC40003076480E34E07FE23033481FD17EDFB64
:10CDD400FD14110B81C49377FB0FE9FF7D3371F5CB
:10CDE400E1B5B717004003C75704B7070800137726
:10CDF400070219E3B78707007955E378FBEA33079D
:10CE04009B00E3FFE7F855B58547E382F9F2DA853D
:10CE14002D45053B9389F4FFE38504E6293393F715
:10CE2400390091EB83260480032709009307490006
:10CE3400E39AE6E43E89CE84F1BFB5476396F900F0
:10CE44001305900BC93135BDB1471305B00AE38B07
:10CE5400F9FE99476391F904B7050800B365BB006F
:10CE64002D45C53181448D4BA149753963967401B3
:10CE7400832704802320F9008504E39834FF832763
:10CE8400048013172B01635507002312F900D5BB47
:10CE94002322F900FDB39D476399F90281451305E7
:10CEA400B0044531BD442320090023220900FD5963
:10CEB4009D3993F77400CA9703C70700FD14398D91
:10CEC4002380A700E39634FF6DBBA1476392F90466
:10CED4006D398144630D0B008D479304C0036308CF
:10CEE400FB009304000563048B0193044004137551
:10CEF400C507E30895D81945393139390545213134
:10CF040026850D3909453D314931E31C05D669BBF8
:10CF140091476399F90013056006F536F53E13054C
:10CF240090090DB7E38F09D4F154A9BB19CD91CD64
:10CF340009CE81473387F500834607003307F500A0
:10CF440085072300D700E317F6FE828019C991C92B
:10CF540009CA910583A7C5FF11057D16232EF5FE89
:10CF6400C5BF828001C919C62A960505A30FB5FE5F
:10CF7400E31DA6FE828081473307F50003070700FF
:10CF840019E33E8582808507C5BF01112E8626CA16
:10CF9400AA84131506019305F004418122CC06CE20
:10CFA40032C6EF1040592A8401C53246A685BD3FDA
:10CFB4002285F2406244D24405618280854715C1CE
:10CFC4008DC105C28147B306F5003387F50083C6DA
:10CFD4000600034707006398E6008507E315F6FE9D
:10CFE40085473E8582808147EDBF9307F6FFBE9556
:10CFF4002A966313C5008280FD1583C715000505B5
:10D00400A30FF5FEFDB7AA87014581CF09CE3E9651
:10D01400850703C7F7FF6317B700E39BC7FE054502
:10D0240082808280014582807971975700009387BE
:10D03400A76522D4804306D626D24AD04ECE52CCFF
:10D0440056CA5AC85EC662C45DCC37C9C901814B91
:10D05400175A0000130ACA679754000093840463A4
:10D064001309F937975A0000938ACA5CB709C0A814
:10D07400370B40578357240095E35C44639D0B00B2
:10D08400175700002322F760032CC4002285EF10F9
:10D09400A057628499A823A6FB00FDB783270A0042
:10D0A4008297838664011C4463DB06063307F540DC
:10D0B4006367E9089757000023A60758835524009F
:10D0C40003450400974002E0E78020E25C405844B6
:10D0D400A9CF1444B6978386640163C5060063E34D
:10D0E4003701DA971CC4A28B3A8449F4975700009D
:10D0F400938747549C4B09476378F706F9171757EA
:10D1040000002321F754B250225492540259F24998
:10D11400624AD24A424BB24B224C45618280E37749
:10D12400F5F83387F9402A9761B763970B0097574F
:10D13400000023ABE75489BF23A6EB00B1B7D85056
:10D1440009CF63DF06003385A74083A70A0163760E
:10D15400F5009757000023A7A74EA28B404471B750
:10D16400E3F3A7FECE97C5B79757000023AC074C4F
:10D1740059BF411122C4175400001304A44E1C408B
:10D1840006C626C24AC091C782979757000023ABB0
:10D19400074C5C4091C382971C406391071C9757CE
:10D1A400000083C7B76A858B9DC797570000A38F7C
:10D1B40007681757000003479769954763FDE70021
:10D1C400EF0010379757000083C77768F5178A0771
:10D1D400A2979C438297175900001309E96A834771
:10D1E400C900918B99C3EF1060281C4491C38297A6
:10D1F400975400009384044998401756000003464E
:10D2040076439757000083C7E74293961700BA9670
:10D2140083D60600D5CA9757000083C7A74163EF9A
:10D22400C70A97570000238707401C4063980712DA
:10D234009757000083C7D76191CF9757000083C7E2
:10D24400176189EB97570000A3840760979003E068
:10D25400E78040E097570000938787479C43638F9C
:10D26400070EB707C0A817570000232DF73C6D3BE6
:10D274009757000093878741DC53EDC3175700008D
:10D284001307473B184B9757000083C777416367E1
:10D29400F70C175700000347975B954763E0E70CCB
:10D2A4008347C900918BDDEB90409756000083C6FD
:10D2B400763863CBD70A2244B240924402494101F2
:10D2C400174302E06700839F850793F7F70F97568C
:10D2D40000002381F636E3E6C7F235BF86073E97A2
:10D2E400835507002310070097570000239A073837
:10D2F400975700009387C7369C4317550000034592
:10D30400653313172500BA979C43829797570000FB
:10D3140083D70737175700000347C73193C7F7FF71
:10D324007D8D9317170098403E97835707005D8DB6
:10D334002310A7009757000083C7C72F91C78507FD
:10D34400175700002308F72E175700000347872EAE
:10D354009757000083C7172EE375F7ECB2402244B9
:10D364009244024941018280139717003297035770
:10D3740007006DF7850735BFAD6737C70040BD07A8
:10D384002326F7200F100000975700009387872A61
:10D39400C84F83278726BD66BD0693C7F7FF9983C9
:10D3A4006A052326D7205D8D82804111B71700407E
:10D3B400985F3AC6945F3247E39CE6FE32454101EA
:10D3C400828082800327851163000712411122C4E1
:10D3D40006C68347C5008345C5042A8493F7C70F4F
:10D3E4002306F500834697000356C700139586016C
:10D3F400618563F1C508635A05060345870093F602
:10D40400F607A304D700054693E627006314C50076
:10D4140093E617002306D4005C4389075CC3A30A80
:10D42400B400032504112E864C43090501368327D5
:10D43400841103465401D44303D7C700B296118F15
:10D44400D4C32396E7008947A30DF400034744039C
:10D454009757000083C7A7246378F7048347C40061
:10D4640093E707012306F40081A093E7170023063E
:10D47400F40075B79376F60F635D050203458700E4
:10D48400854513E627006314B50013E61700230649
:10D49400C400A30AD400A30407008547A30DF40025
:10D4A400832784119C43DDF3B240224401454101AA
:10D4B400828093E717002306F400A30AD400A30490
:10D4C4000700032504114C4309058D348327841177
:10D4D40003465401D44303D7C700B296118FD4C373
:10D4E4002396E7008D475DBF05458280975700006E
:10D4F400938707349C43411122C406C6858B2A8432
:10D50400C5EF4165130525F5973003E0E780E0C7D3
:10D5140045C58347A5002315F50083270412BDE7FD
:10D524002320A4122322A41285472310F4042320C9
:10D5340005008347640154412316F5000347D400D2
:10D544002304E5000547A304E5001757000013076B
:10D55400A72F184F1385170215811C437D151375CA
:10D56400F50F9CC25C43DCC21C479CC65C47DCC60E
:10D574001C4B9CCA5C4BDCCA1C4F9CCE5C4FDCCE63
:10D5840019CD9386060213070702C1BF83274412ED
:10D5940088C3835704042322A412850779B79757B5
:10D5A400000083D7A7378507175700002318F736DD
:10D5B400B2402244410182808347C400230904000D
:10D5C400054593C747002306F400DDB7834785016B
:10D5D40093F7E70FD5EF83479501DDEB034625016C
:10D5E4008346C50009CA834545031757000003470E
:10D5F400170B63E7E50013F7060141CF014709C69E
:10D60400C18A0357651C81C68356A51C369751C32E
:10D614001307C7121755000003554504B335A70275
:10D6240037460F00411113060624814622C426C240
:10D6340006C67D543305A702973004E0E780804492
:10D644009757000083C71706B384A70097570000B5
:10D654009387472C03A707098327070963F38700E8
:10D664003E84184375FB97570000938767069C43D5
:10D67400829781476364A400B307A440B240224464
:10D68400B3B7970093C7170092443E854101828047
:10D6940081473E858280797126D206D622D44AD02B
:10D6A4004ECE52CC56CA5AC85EC68347350303448D
:10D6B4007513AA843E941374F40F9307400263F61F
:10D6C40087001304B4FD1374F40F03AA841383AA0C
:10D6D400C413A38B841222865285D685973004E026
:10D6E400E780C034058915E503CBD412014981498B
:10D6F400337B6403930B50024A865285D685973058
:10D7040004E0E780A032058915C5639169031374A9
:10D71400F90F238B8412B250225492540259F249C5
:10D72400624AD24A424BB24B456182808509E20982
:10D7340093D989410509E31179FDE1BF832785095F
:10D744000356E503797193D60701BD8EC206C182E3
:10D75400358E1357764093575640898B058B5D8FD2
:10D7640093573640918B5D8F93571640A18B5D8FF5
:10D7740093171600C18B5D8F9317360093F707023A
:10D784005D8F931756009355860093F707041E0682
:10D794005D8F1376F60F518F93D7554013D63540CE
:10D7A400118A898BD18F13D67540D18F13D615402A
:10D7B400218AD18F13961500418AD18F1396350093
:10D7C40013760602D18F13965500137606049E0530
:10D7D400D18F93F5F50FCD8FA20745465D8F3307A3
:10D7E400C70222D42A8426D252CC56CA032A8413CE
:10D7F400832AC4135AC806D63697420741839357DF
:10D804007740135557400989858BC98F1355374085
:10D814001189C98F135517402189C98F1315170012
:10D824004189C98F1315370013750502C98F131564
:10D83400570093558700137505041E07C98F137786
:10D84400F70FD98F13D5354013D755401189098B5C
:10D85400498F13D57540498F13D515402189498FB8
:10D86400139515004189498F1395350013750502E9
:10D87400498F13955500137505049E05498F93F53B
:10D88400F50F4D8F2207D98FB387C7024AD04ECEEA
:10D894005EC662C4B697C207C18313D7774013D557
:10D8A40057400989058B498F13D537401189498F12
:10D8B40013D517402189498F139517004189498F42
:10D8C4001395370013750502498F1395570093D5A7
:10D8D4008700137505049E07498F93F7F70FD98FB7
:10D8E40013D5354013D755401189098B498F13D56A
:10D8F4007540498F13D515402189498F139515001B
:10D904004189498F1395350013750502498F139585
:10D914005500137505049E05498F93F5F50F4D8F3A
:10D924002207D98FB387C702130650025285D685C2
:10D93400B697BD8E93940601C18033F6C402137B5F
:10D94400F60F973004E0E780600E05890DED8347FC
:10D95400D41201498149B3849702130C5002C18047
:10D964004A865285D685973004E0E780200C0589E5
:10D97400937BF90F11C563863403850993F9F90F75
:10D984000509E31F89FD230B6413B25022549254FA
:10D994000259F249624AD24A424BB24B224C456187
:10D9A40082805E8BCDB7011197570000938787F66D
:10D9B40022CC03A4470B26CA06CE2AC42EC685440D
:10D9C40019E40145F2406244D244056182808347F0
:10D9D400910003471400858B6304F7000044CDB71E
:10D9E40019469305A10013052400EFF02FDDE3177A
:10D9F40095FE0545C1BF011122CC17540000130444
:10DA040064E618402AC62EC432C206CE3C4B93F7B5
:10DA1400F7F73CCB978003E0E78080601840975687
:10DA24000000938666E13C4B93E707083CCB9C429D
:10DA34003245A24523A007000347150003482500EB
:10DA440022074208429703480500429703483500DD
:10DA54006208429798D70347550003486500220798
:10DA640042084297034845004297034875006208FC
:10DA74004297D8D7034795000348A50022074208D8
:10DA840042970348850042970348B50062084297CD
:10DA940098DB0347D5000348E50022074208429774
:10DAA4000348C5000345F500429762052A97D8DB71
:10DAB40003C7150003C52500220742052A9703C59D
:10DAC40005002A9703C5350062052A9798CF03C736
:10DAD400550003C56500220742052A9703C5450082
:10DAE4002A9703C5750062052A97D8CF03C7950006
:10DAF40003C5A500220742052A9703C585002A9776
:10DB040003C5B50062052A9798D303C7D50003C59A
:10DB1400E500220742052A9703C5C50083C5F50021
:10DB24002A97E2052E97D8D3D843759BD8C3D843F8
:10DB340013671700D8C398431367170098C3124696
:10DB440098425C43858BD1E71C4F01452300F600C6
:10DB54009C429C4FA183A300F6009C429C4FC1832E
:10DB64002301F6009C429C4FE183A301F6009C42F2
:10DB7400D84F2302E600D84F2183A302E600D84FF2
:10DB840041832303E600D84F6183A303E60098533F
:10DB94002304E60098532183A304E60098534183A9
:10DBA4002305E60098536183A305E600D8532306B2
:10DBB400E600D8532183A306E600D8534183230704
:10DBC400E600DC53E183A307F600F24062440561FA
:10DBD40082800100B5B717570000130727C6144306
:10DBE400411122C49C5E4AC006C6998326C2858B15
:10DBF4003A8417590000130929C4D1CB9C5E975469
:10DC04000000938464C493F7F7F99CDE175700006F
:10DC14000347E7C393070008631BF7008327090042
:10DC24009C4393F70704175700002302F7C283C7E6
:10DC3400040093F707049DC397570000938747A9EF
:10DC44009C4382979757000023A8A7C083C704006A
:10DC540093F7F70B175700002308F7BE83C7440058
:10DC640093F707048DE7854717570000A300F7BE15
:10DC740097570000938707BF9C43096798C713070A
:10DC840000FC975600002383E6BCD844F8D31C401C
:10DC9400985F1183058B09CB985F3D9B98DF0547FF
:10DCA400975600002384E6BA985F1D83058B11CB39
:10DCB400985F1377F7F798DF854717570000230716
:10DCC400F7B883270900D8430583058B19C7D843C0
:10DCD400759BD8C3D843799BD8C3B240224492449D
:10DCE400024941018280397106DE16DC1ADA1ED837
:10DCF4002AD62ED432D236D03ACE3ECC42CA46C8E8
:10DD040072C676C47AC27EC0F935F250E2525253DA
:10DD1400C2533255A255125682567247E2475248B0
:10DD2400C248324EA24E124F824F216173002030FE
:10DD340097570000938707B394439757000093873E
:10DD4400A7B003C70700058B11CB97570000238F9B
:10DD540007AE97570000A38B07AE828003C7170056
:10DD6400058B65F7F85271FF83C75700DDB7175865
:10DD740000001308A8AC032708001C5F9583858B5B
:10DD8400D1E709C61C5BBD832300F60085CA83273F
:10DD94000800985B4607935767016356070093E7AB
:10DDA40007C0C207C18303970600C207C18709C71A
:10DDB400BA970947B3C7E7022390F60085CD834796
:10DDC40015008DCB9756000083C666A893F606040B
:10DDD4001387970089478DCA3A95034705008546FE
:10DDE40099471376F7066311D60262076187B9472C
:10DDF400634C0700832708009C5FED838D8B1757C6
:10DE04000000A308F7A481473E8582808547EDBFC3
:10DE1400411122C406C6175400001304A4A41840D8
:10DE240049E9AE877453FDFE3E85B28597570000DD
:10DE3400238D07A0978003E0E78080F497570000C4
:10DE44009387C79F9C43B70680009843558F98C318
:10DE5400D857719BD8D797570000A389079E975727
:10DE64000000A383079E1C40094798C3B7F700E04E
:10DE740003A707D16D9B23A8E7D003A707D15D9B18
:10DE840023A8E7D07300501014401757000013075D
:10DE9400A79B83472700858B89EB83473700858BB6
:10DEA400D9C7975700002383079AB24022444101FF
:10DEB40082808D476310F502975700009387079877
:10DEC4009C43B70680009843558F98C3D857719BDD
:10DED400D8D75DBF8547E319F5FAB567BD075CC7B9
:10DEE4000F1000001C400967094698C7130700F883
:10DEF40097560000238CE6941757000013070794E5
:10DF04001443984231830D8B6319C7001307E04310
:10DF1400F8D33D673D07D8C785BF984231830D8B41
:10DF240001E713076019EDB71307E01BD5B7FC52DF
:10DF3400ADF3A5BF5D7152DC175A0000130A0A90B5
:10DF440003270A0086C6A2C4A6C2CAC04EDE1C436A
:10DF5400975900009389C9951759000013098990AE
:10DF640093F7F7E793E707081CC383A6090037076D
:10DF7400CEFF7D179C46130680022A84F98F9CC627
:10DF840083270900130700082800B8CBAE84930543
:10DF94001008EFE03FFD978003E0E780600897807A
:10DFA40003E0E780601583270A009376F41F370F98
:10DFB400FCFF23A40700984B4E88CA881367F70315
:10DFC40098CBF84F130510F8D285137707E0558FD7
:10DFD400F8CF9843F576FD16758F98C39843B70626
:10DFE4003300B70204001377F7E798C39843930309
:10DFF400401F7D1F1377F7E71367071098C303A724
:10E004000900930F800285491C47D58F1CC78327BD
:10E0140009001307900D3400B8CB1149014713537D
:10E02400370026938347030013767700B3D7C7409E
:10E03400858BDDCF9C41832E0800239C070423900D
:10E04400070603AECE02137EDEFF23A6CE0383AE05
:10E054000700137EF70793FE0EF833EECE0123A0DC
:10E06400C70103AE4702336E5E0023A2C70383AE2B
:10E074000800014E23A27E0603DA070663074E0357
:10E0840003AE0703038A0600135EFE00620E135EEE
:10E094008E416358CA0103AE0703135EFE0023805A
:10E0A400C60103DE0706137EFE0F03AA4E066306AF
:10E0B4000A0003DA8705E37F49FB03AE4702337E98
:10E0C400EE0123A2C70383870600635CF400034EBA
:10E0D40003003396C9001346F6FF3376C6012300C6
:10E0E400C3003E8663D3A7002A8613158601618583
:10E0F40005071377F70F8506E313F7F3B6402644B5
:10E1040096440649F259625A61618280974600003A
:10E11400938646759C42D847131617016355060229
:10E12400984713161701635006027D57B8D717474F
:10E13400000013072750584F0507174600002329EE
:10E14400E650116798C798470D83058B1DC3174781
:10E1540000000347876F1367170017460000230664
:10E16400E66E130700F8174600002301E66E214708
:10E1740098C79847058B09CF174700000347D76C0A
:10E184001367170017460000A300E66C054798C7FD
:10E1940098470983058B09E798470583058B31CF99
:10E1A4009847174600001306266A17450000130512
:10E1B400E5680983058B630307101841184331830D
:10E1C4000D8B75EBAC4B184E93F505020347170006
:10E1D400CDCD79EF13077006D8CF03470600136738
:10E1E4001700174600002301E666114798C7184137
:10E1F4005C57F19B93E717005CD79C4298479316B2
:10E20400370163D606029746000083C6E677C18AC3
:10E214001747000013070770C5CE03474707136766
:10E224000702974600002381E676056798C798475A
:10E234009316270163D106021747000003470761BD
:10E244006207618763570700054797460000238FDD
:10E25400E65E096798C798479316070163D60602D6
:10E264009746000083C65672858A17470000130735
:10E27400676AADCE03475707136727009746000028
:10E28400A384E670216798C7828029D785456315E2
:10E29400B7001307B00689B789456315B70013079C
:10E2A400F0061DBF8D456315B700130730072DB762
:10E2B4001307500715B71307600739BF0347360024
:10E2C4001367170017460000A301E658094739BF32
:10E2D400834647070946BD8A6388C6000347470744
:10E2E4008D463D8BE313D7F4114725BF834657076B
:10E2F400918AC9DA034757071367870041B7397111
:10E3040006DE16DC1ADA1ED82AD62ED432D236D03D
:10E314003ACE3ECC42CA46C872C676C47AC27EC0E1
:10E32400F533F250E2525253C2533255A2551256AB
:10E3340082567247E2475248C248324EA24E124FAA
:10E34400824F216173002030174700001307C75123
:10E354008346B7019747000083C7D7534C4BB69702
:10E36400FD8B33D7F50097460000A38FF64E9746F2
:10E374000000A381F652058B15EF174700000347F1
:10E38400B751B3F7E702814601471305000233D6BC
:10E39400E500058A1378F70F19CA6397D7009747E2
:10E3A4000000A383074D8280850693F6F60F0507C8
:10E3B400E31FA7FC828097470000938767319C4343
:10E3C400011122CC4EC606CE26CA4AC852C456C231
:10E3D4008297974700009387274B804781496305BD
:10E3E400A406BE84974700009387472A03876701E2
:10E3F4003E8963550706018D135455009747000065
:10E4040083C727489379F501636DF402370AC0A8DE
:10E41400B70A4057153F9C449746000083C666469A
:10E42400139756003E9783076901158C63C507004F
:10E434006363470156979747000023ABE744E37BA8
:10E44400D4FC1604B3693401F24062444E85D244CC
:10E454004249B249224A924A05618280E37D85F8A5
:10E46400B707C0A833848740229579B7974700003F
:10E47400938707269C43411122C406C626C282976D
:10E48400974700009387474080476309A406BE84EA
:10E49400974700009387871F8387670163D8070422
:10E4A400018D135455009747000083C7873D636768
:10E4B400F404593D98449747000083C7873C9396DA
:10E4C400570036971D8C9746000023A3E63CE37261
:10E4D400F4FE2244B2409244174500000345D53867
:10E4E40081454101178303E067002308E37A85FA35
:10E4F400B707C0A833848740229565B7B240224449
:10E50400924441018280974700009387673A984379
:10E51400B75702009387079F83260709139656006F
:10E5240063580600832607091396660063440600B1
:10E53400FD17FDF3828071C5AA870145E9C58D07E2
:10E54400C207C183F19BC207C18313074003636FF2
:10E55400F702174700001307A73B084317470000BB
:10E564001307873A14436398A6021747000013075A
:10E57400E711185B014541CB4111C20706C60545A9
:10E58400DD8D0297B24001454101828017470000AA
:10E594001307C737D9B70357650035E30357450059
:10E5A400636FF704B306F7402146637CD602032861
:10E5B4000500938687001D8FAA96611717460000F1
:10E5C4000356A6072392E60023A006012393060020
:10E5D40014C12312F500130786FF97460000239EFB
:10E5E400E6042313B5009745000083D50505B387DA
:10E5F400F540174700002312F704210582800841E3
:10E604009DB70145828082800DC1974700009387A2
:10E61400273003A30700974700009387E72E83A8BA
:10E62400070081469A8763E31701828003A80700E5
:10E63400636DF50A636BA80A13878700E367E5FE39
:10E6440003D66700216705076317E60003C7019730
:10E6540005072388E196974500009385A5FD03D619
:10E66400470003D76500239307003297420741838D
:10E67400174500002313E5FC638A67021745000071
:10E684001305C52808416303F50203D5660019ED97
:10E6940083D7460023A0060121073E962106239234
:10E6A400C60097470000239AE7F8B6879843E30E1D
:10E6B40017F797460000938666259442E307D7F63A
:10E6C40083566700BDF283D64700035647001843BC
:10E6D400A106B2962392D70098C383D76500A107F9
:10E6E40017470000231BF7F48280BE86C28725BF2C
:10E6F4000111974700009387E72122CC03A4C70B9D
:10E7040026CA4AC84EC606CEAA84130925008549DE
:10E7140015C083C7140003473400858B6304F700D6
:10E72400405CFDB71946930544004A85EFE01F8914
:10E73400E31835FF2285F2406244D2444249B2498B
:10E74400056182804111974700009387A71C22C46A
:10E7540003A4C70B26C24AC006C693042500054974
:10E7640001E82285B2402244924402494101828058
:10E77400A6851305A402972004E0E78060E0E30285
:10E7840025FF405CF1BF411197470000938787182C
:10E7940022C403A4C70B26C24AC006C6930425009C
:10E7A400054901E82285B2402244924402494101CC
:10E7B4008280A6851305A401972004E0E78040DC4D
:08E7C400E30225FF405CF1BFF8
:10E7D0009751FF1F938181B117A1FF1F1301818200
:10E7E00017E5FFFF130545829725FF1F9385858158
:10E7F0001746FF1F130686FD63FAC5008322050036
:10E8000023A0550011059105E3EAC5FE1735040064
:10E81000130505B99745FF1F938545FB13860185B1
:10E8200063FAC5008322050023A055001105910558
:10E83000E3EAC5FE138501859785FF1F9385851F34
:10E840006377B500232005001105E36DB5FEFD4299
:10E85000739002BC8D4273904280B7220000938275
:10E86000828873A002309712FF1F9382A27993E2ED
:10E87000320073905230972201009382622B739082
:10E880001234730020303D432A876373C3029377A9
:10E89000F700BDEFADE5937606FF3D8ABA960CC34F
:10E8A0004CC30CC74CC74107E36BD7FE11E2828013
:10E8B000B306C3408A069702000096966780A600BA
:10E8C0002307B700A306B7002306B700A305B700C8
:10E8D0002305B700A304B7002304B700A303B700C0
:10E8E0002303B700A302B7002302B700A301B700B8
:10E8F0002301B700A300B7002300B700828093F57F
:10E90000F50F93968500D58D93960501D58D61B74A
:10E91000939627009702000096968682E78086FAF3
:10E920009680C1171D8F3E96E374C3F8A5B7336771
:10E93000B500FD530D8B79E7B7877F7F9387F7F796
:10E9400010419441B372F6003363F600BE92B3E215
:10E9500062006397720C6318D6065041D441B372BB
:10E96000F6003363F600BE92B3E262006398720A67
:10E97000631BD60410459445B372F6003363F6006A
:10E98000BE92B3E262006391720A631ED6025045E2
:10E99000D445B372F6003363F600BE92B3E2620070
:10E9A000639A72086311D60210499449B372F60053
:10E9B0003363F600BE92B3E26200639372085105BE
:10E9C000D105E30FD6F61317060193970601631CD2
:10E9D000F7001357060193D706013305F7409375E7
:10E9E000F50F91E982804183C1833305F740937528
:10E9F000F50F91E182801377F70F93F7F70F330547
:10EA0000F74082800346050083C60500050585059D
:10EA10006313D60065FA3305D6408280110591054F
:10EA2000E312D6FE014582802105A105E31CD6FC38
:10EA3000014582803105B105E316D6FC014582808F
:10EA40004105C105E310D6FC01458280014711460E
:10EA50004148B386E5008147B308F50083C8080044
:10EA60008507C10623A816FFE398C7FE1107110505
:10EA7000E31107FF8280935785019CC1935705419D
:10EA800093F7F70FDCC19357854093F7F70F137592
:10EA9000F50F9CC5C8C582801C41411113070501B3
:10EAA0003EC05C413EC21C453EC45C453EC6939799
:10EAB00025001408B69783A707FF85051105232EA7
:10EAC000F5FE8D89E315E5FE41018280397122DC76
:10EAD00041661384C19E06DE26DA4AD84ED652D449
:10EAE00056D25AD05ECE93050501A2863708FF00A4
:10EAF0007D1683070500034735001105E207D98F0E
:10EB00000307D5FF9106420733770701D98F030723
:10EB1000E5FF2207718FD98F23AEF6FEE39BA5FC9C
:10EB200081499144930A010117DB0300130B4BC683
:10EB300097DB0300938B4BC3130AC00293F7340097
:10EB4000032904004844BDE78A85353785450A8591
:10EB5000A1370A871C43110793F6F70093F7070FB5
:10EB6000DA97B69783C70700232EF7FEE394EAFEF1
:10EB7000024592476205C2075D8DB2475D8DA2478F
:10EB8000A2075D8D93972900DE979C4385093D8DF3
:10EB90003345250108C885041104E39144FBF25074
:10EBA0006254D2544259B259225A925A025BF24BE1
:10EBB000216182803345A90008C8F1BF797122D450
:10EBC00026D24AD04ECE52CC56CA06D62A8A93991D
:10EBD00045000144938AC19E13090101C144B30752
:10EBE0003401D69788438A85793533078A008A8726
:10EBF0001443904391074107B18E2328D7FEE39930
:10EC000027FF1104E31D94FCB25022549254025980
:10EC1000F249624AD24A45618280397122DC13048A
:10EC2000050106DE22878147C1460C433306F10009
:10EC300011070CC24C4710083E960CC24C4F1010E6
:10EC40003E960CC29107E392D7FE85450A85A93509
:10EC50008945080891358D4508103D3D814741475C
:10EC6000B306F10094421104232ED4FE1408BE967C
:10EC7000944254C41410BE969442910754CCE3912C
:10EC8000E7FEF250625421618280060593770510F9
:10EC900089C71375F50F1345B5018280411106C66A
:10ECA000ED37B2404101D5B781471148C14833869D
:10ECB000F500B306F500014703AE06003303E60096
:10ECC00005072300C301C106E31807FF9107E3907E
:10ECD00017FF82809306050117D60300130646AB83
:10ECE00013050505138706FF1C43110793F5F7006D
:10ECF00093F7070FB297AE9783C70700232EF7FE4F
:10ED0000E394E6FEC106E31FD5FC8280411122C4D4
:10ED100006C626C285472E846301F502894763181B
:10ED2000F5002244B24092442E854101B9BF8D477F
:10ED3000631BF5002E85913F298C2285B240224429
:10ED4000924441018280A5476315F5002E85B937AD
:10ED5000DDB7AD47631AF5002E8589373D37AA84A4
:10ED600022852537258DC9BFB5476316F5002E8549
:10ED70003537AA84FDB7B947E311F5FC2E85393F35
:10ED8000AA842137A98C228509373344950075B7A9
:10ED90006382051493F7F500639E07121571D6C3BD
:10EDA000AA8A3285A2CDA6CB86CFCAC9CEC7D2C584
:10EDB000DAC15EDF62DD66DB6AD96ED73284AE848B
:10EDC000EF90033BC147631EF500228501330149E3
:10EDD000130A010697DB0300938B8BAF294C634129
:10EDE0009902FE406E44DE444E49BE492E4A9E4A78
:10EDF0000E4BFA5B6A5CDA5C4A5DBA5D2D6182801B
:10EE0000338B2A010C105A859131814508107D33CE
:10EE100085490810C135081009351C10D2863E8777
:10EE200010434107C10623A8C6FE032647FF23AAB5
:10EE3000C6FE032687FF23ACC6FE0326C7FF23AE0C
:10EE4000C6FEE31FEAFC17D70300130767A40328D5
:10EE50000700832D4700032D8700832CC7005284B1
:10EE6000138607010C4042853ECE3ACC32CA42C8D6
:10EE7000713D0C482AC66E85513DB2460C501104B6
:10EE8000A98E6A8536C65935B2464C54A98E668518
:10EE900036C6AD3DB246F2475246358D88C391071E
:10EEA00042486247E310F6FC4107B287E391EBFA70
:10EEB000CE85081085091933E39D89F50810193DA1
:10EEC0000810A13BA9450810D539DA850810E93B9F
:10EED000410931B782809307F00F6384F60A2D71E0
:10EEE000232A911023282111B284232631111306DD
:10EEF00000102E89AA89930530020A85232E11104D
:10EF0000232C811036844132A2852685EFD0F04D26
:10EF100013178500935785003365F7002310A10070
:10EF2000A685228613053100930434002301810055
:10EF300093F4F40FEF80A34C93F6F40089C64D04CC
:10EF4000158C9374F40F1C02A697A6850A8517D614
:10EF500003001306E697238007F01D3D26868A8569
:10EF60004E85EF80C349230099008320C1110324FB
:10EF7000811183244111032901118329C1101561D5
:10EF8000828082801971A2DCA6DA2E8413064006E4
:10EF90008145AA84680086DEFD3097D503009385FD
:10EFA000A5A61757FF1F0357674F9756FF1F938656
:10EFB00046371756FF1F130666136800EF90C315F8
:10EFC0006C001145EFD0304601CC6800EF90431A39
:10EFD00093150501A2862686C1816800EF20506C3A
:10EFE000F6506654D654096182801971A2DCA6DA03
:10EFF000130640062E84AA848145680086DEEFF061
:10F000009F889767FF1F938767CBA853EF804313B1
:10F010002A86AE86680097D50300938525A1EF90D8
:10F02000A30F6C001145EFD0104001CC6800EF90A9
:10F03000231493150501A2862686C1816800EF205E
:10F040003066F6506654D65409618280011126CA92
:10F0500097D403009384C4A922CC4AC84EC652C494
:10F0600006CE2A8A01442689CD49CC405285EFD06C
:10F07000505809CD0E044A9403150400F24062442E
:10F08000D2444249B249224A056182800504A10462
:10F09000E31D34FD7D55DDB7130101CD23248132FD
:10F0A000232291322A84AE8413062003814548002E
:10F0B00023261132EFF02FFD2686A2856809EFE0A6
:10F0C000E0011305D109EF90A30A93150501C18151
:10F0D0001305D109EFE0000D97D503009385C5AA6C
:10F0E0001305D109EFD0F0501DC5054597D5030094
:10F0F000938505AAEFD030331765FF1F034505BD83
:10F10000EF6010768320C1320324813283244132A0
:10F1100013010133828097D503009385A5A81305B9
:10F12000D109EFD0104D19CD97D50300938505A8CF
:10F130000545EFD0502F1765FF1F034525B9EF6038
:10F14000F074C9B797D50300938545A71305D10976
:10F15000EFD0304A0DC1371700408327C70AA16698
:10F1600097D50300938505A6D58F2326F70A254555
:10F17000EFD0702B41BF97D50300938565A513058C
:10F18000D109EFD0104711CD371700408327870AE8
:10F19000A16697D50300938525A4D58F2324F70A6C
:10F1A000F9B797D503009385A5A31305D109EFD02F
:10F1B000504411CD371700408327C70A97D5030065
:10F1C0009385C5A293E707202326F70A4DB797D565
:10F1D00003009385A5A21305D109EFD0904111CD6D
:10F1E000371700408327870A97D503009385C5A169
:10F1F00093E707202324F70A9DBF97D50300938543
:10F20000A5A11305D109EFD0D03E11CD371700408D
:10F210008327870A896697D503009385A5A0D58F94
:10F220002324F70AA9B797D50300938565A0130592
:10F23000D109EFD0103C11CD371700408327C70A02
:10F24000896697D503009385659FD58F2326F70A96
:10F2500039BF97D503009385259F1305D109EFD0BA
:10F26000503911C9371700408327870CA166D58F05
:10F270002324F70C41BD97D503009385659D1305A5
:10F28000D109EFD0103711C9371700408327C70CB9
:10F29000A166D58F2326F70CB5B597D503009385C6
:10F2A000A59B1305D109EFD0D03411C59767FF1F77
:10F2B00023AE07A281BD97D503009385A59A1305B8
:10F2C000D109EFD0103301C5EF70F02725BD97D5D8
:10F2D00003009385E5991305D109EFD0903101C55D
:10F2E000EF70902C05B597D50300938525991305EC
:10F2F000D109EFD0103001C5EF70101921B597D5A5
:10F300000300938565981305D109EFD0902E01C5B0
:10F31000EFB0C00BC5BB97D5030093856597130568
:10F32000D109EFD0102D09C50545EFA09021D9BB1B
:10F3300097D50300938545961305D109EFD0702B1F
:10F3400019C10145DDB797D5030093856595130570
:10F35000D109EFD0102AE31705DA97D5030093857A
:10F36000A5941305D109EFD0D028E31D05D897D572
:10F3700003009385E5931305D109EFD0902701C9C8
:10F38000371700408327870C93E70740D5B597D5FB
:10F390000300938565921305D109EFD0902501C92B
:10F3A000371700408327C70C93E70740E5B597D58B
:10F3B00003009385E5901305D109EFD0902301C593
:10F3C000EFE0205F81B397D503009385E58F1305A8
:10F3D000D109EFD0102201C5EFE0806525B397D5A4
:10F3E00003009385E58E1305D109EFD0902001C964
:10F3F0001305D10EEF70F37DEF10D14521B397D5F2
:10F4000003009385658D1305D109EFD0901E01C5CA
:10F41000EF109147C5B997D503009385A58C1305C7
:10F42000D109EFD0101D01C5EF10514FE1B997D5AB
:10F4300003009385A58B1305D109EFD0901B09CD4F
:10F4400019469305D10E4800EF70737B48002305E1
:10F450000100EF0010297DB197D5030093858589C0
:10F460001305D109EFD0F01809C51145EFE090342C
:10F4700051B997D50300938565881305D109EFD05D
:10F48000501701CDEF70800A2A8697D50300938527
:10F4900065872545EFD0F00DB5B197D5030093856D
:10F4A000E5861305D109EFD0D0140DC530189305AA
:10F4B00021000A85EF60B06F0317810383162100D6
:10F4C0000316010097D503009385C5842545EFD029
:10F4D000500A0DB997D503009385C5841305D1094A
:10F4E000EFD0301101C5EF10F10E29B997050400D6
:10F4F000938545B11305D109EFD0B00F0DC13D463D
:10F500009305D10E1755FF1F130545BEEF70336FDE
:10F510009757FF1FA38307BEEF901013E5B697D54B
:10F520000300938565801305D109EFD0900C0DC9B8
:10F530002C1805461305D10EEFD090540348B103A3
:10F540008347A10303479103834681030306D10E3A
:10F5500097C503009385C57D2545EFD090015DB625
:10F5600097C503009385C57D1305D109EFD07008B9
:10F5700001C94145EFE0F01E1945EF90E04559B64D
:10F580000346D109A547130606FD1376F60FE3EBF4
:10F59000C7B69757FF1F2383C77497C5030093858A
:10F5A000E57ACDBD1971A2DCA6DA2E84AA84814544
:10F5B00013064006680086DEEFF0EFAC1757FF1F1A
:10F5C0000347C7EE854797C503009385653E6306ED
:10F5D000F70097C503009385253E6800EF80333818
:10F5E0006C001145EFD0206401CC6800EF805338E7
:10F5F00093150501A2862686C1816800EF20500A76
:10F60000F6506654D654096182805171A2D5A6D3B2
:10F61000D2CDAE842A848145328A28001306800C1C
:10F6200086D7CAD1CECF3689D6CBDAC9EFF0AFA50F
:10F63000268697D50300938525262285EFD0300FA7
:10F640009754FF1F938484676300050EEF20E00B3F
:10F650002A840545EF200056114597C50300938580
:10F660002545EFD0405C9C40414593E71700175774
:10F67000FF1F2325F764EFE0E02C630D090897C511
:10F6800003009385A543280093047405EF80332D70
:10F69000930A5407A68917DB0300130B6B1183C76A
:10F6A000040091CB2800EF80B32C3C004E86DA8515
:10F6B0003E95EF8073268504E39354FF2800EF8086
:10F6C000332B3C0097C503009385C53F3E9513043B
:10F6D0009403EF80D328A28497DA0300938A4A0D1B
:10F6E0008347040091CB2800EF8093283C002686B6
:10F6F000D6853E95EF8053220504E39389FE2800CA
:10F70000EF80132793150501CA865286C181280010
:10F71000EF200079BE502E549E540E59FE496E4A79
:10F72000DE4A4E4B6D61828097C503009385053A92
:10F730001145EFD0404F7D55EFE0A0239C40F99B51
:10F740001757FF1F232CF756F1B75D7113062003DF
:10F75000A2C4CAC02E842A898145680086C6A6C272
:10F76000EFF06F92EF8090439754FF1F93840455FE
:10F77000E850EF70F31C2A86AE86114597C503004A
:10F780009385C527EFD0E05E05C8E850EF70531BA6
:10F790002A86AE86680097C5030093852526EF80EC
:10F7A000B3176800EF80D31C93150501A2864A8623
:10F7B000C1816800EF20C06EB640264496440649D9
:10F7C000616182805D71A2C4A6C213062003AA846F
:10F7D0002E846800814586C6EFF0EF8AEF80D04323
:10F7E00097C503009385C52509E597C50300938553
:10F7F00025266800EF80B3166C001145EFD0A042BB
:10F8000001CC6800EF80D31693150501A2862686E9
:10F81000C1816800EF20C068B6402644964461610B
:10F82000828075711306400622C54AC12E842A893A
:10F830008145680006C726C3CEDEEFF0CF840945B8
:10F84000EFA0F02DAA89EF70B30F2A86AE8625456A
:10F8500097C5030093850517EFD0A05197C7030004
:10F86000938707168843CE859754FF1F938444A13E
:10F87000EF70A32223A0A422EF90005803A5042236
:10F88000EF70130C2A86AE86680097C50300938537
:10F890002514EF8073086C001145EFD0C03801CCFF
:10F8A0006800EF80F30C93150501A2864A86C1819A
:10F8B0006800EF20E05EBA402A449A440A49F659AB
:10F8C000496182801971A2DCA6DA130640062E84F3
:10F8D000AA848145680086DEEFE0FFFA8547175766
:10F8E000FF1F2305F7BCEF90205197C503009385B8
:10F8F000250C6800EF80B3066C001145EFD0A032F4
:10F9000001CC6800EF80D30693150501A2862686F8
:10F91000C1816800EF20C058F6506654D654096182
:10F9200082805D7113062003A2C4A6C22E84AA841D
:10F930008145680086C6EFE01FF581450D45EF70F3
:10F940008020EF80D0252A8697C503009385050D7A
:10F950006800EF80637C6C001145EFD0C02C01CCB7
:10F960006800EF80F30093150501A2862686C18109
:10F970006800EF20E052B6402644964461618280E0
:10F9800075711306400622C526C32E84AA848145BC
:10F99000680806C7EFE03FEF81451945EF70A01AF0
:10F9A000814513055002EF70001A97C50300938537
:10F9B000650B1D45EF702019EF80D01E2AC6EF8021
:10F9C000301FB2462A8797C503009385E50917467D
:10F9D000FF1F1306A6716808EF8003746C081145B9
:10F9E000EFD0602401CC6808EF808378931505017F
:10F9F000A2862686C1816808EF20804ABA402A4440
:10FA00009A44496182801971A2DCA6DA1306400685
:10FA10002E84AA848145680086DEEFE0DFE6EF8071
:10FA2000D018AA8617C70300130747061746FF1FFB
:10FA30001306C66B97C50300938585061145EFD065
:10FA4000403315CCEF807016AA861746FF1F1306A9
:10FA5000E66997C503009385A50417C7030013073C
:10FA6000E7026800EF80436B6800EF8063709315D6
:10FA70000501A2862686C1816800EF206042F6500B
:10FA80006654D654096182801D71A2CCCAC886CE44
:10FA9000A6CACEC603470500930710042A892E8400
:10FAA0006310F7180347150093074005631AF7160C
:10FAB000034725009307E0056314F7162E86AA85F1
:10FAC0002545EFD0A0201306D003A2854A85EFD0AC
:10FAD0008038AA84635A05003546A2854A85EFD04E
:10FAE0008037AA84634005069389D4FF93071003E7
:10FAF00063CA37054E86930539006800EF80236B93
:10FB00009C00BE996800238609FCEFF02FD41317E0
:10FB100005014183C94763EDE70E17C703001307CB
:10FB200067DC0A053A951C41BA9782879305F4FF72
:10FB3000858D13851400C20581460146C1814A9511
:10FB4000EF30C02CF6406644D6444649B64925619C
:10FB500082809305F4FF858D13851400C205C18151
:10FB60004A95EFF06FD3F9BF9305F4FF858D1385A8
:10FB70001400C20581460146C1814A95EFF0FFA8F5
:10FB8000D1B781450145413575BF9305F4FF858D9A
:10FB900013851400C20581460146C1814A95EFF0E4
:10FBA000DFA64DB7814501454D3669BFEF60A067BF
:10FBB00051BF17D603001306A6CE97C50300938541
:10FBC000A5F11145EFD0E01AB5BF81450145DD3EF5
:10FBD00095BF81450145B131B5B7814501459133A7
:10FBE00095B781450145693BB1BF81450145EFF0BE
:10FBF0006FB989BF81450145F131A9B781450145FB
:10FC0000EFF05F9A81B781450145EFF00FBE1DBF50
:10FC100097C50300938505ED2545EFD0C0001DB7BE
:10FC20000146A2854A85EF60D04F29BF5571A2C514
:10FC30004EDF86C7A6C3CAC152DD0347050093073E
:10FC40001004AA892E84631AF71C03471500930732
:10FC500040056314F71C034725009307E005631E66
:10FC6000F71A32892E86AA85254536C6EFD00006BA
:10FC70001306D003A2854E85EFD0E01DAA84B246BC
:10FC800063530500A284138AD4FF9307100363CB48
:10FC90004705528693853900280836C6EF802351E0
:10FCA0001C193E9A280823040AF6EFF02FBA1317FE
:10FCB00005014183C94763EAE71417C70300130727
:10FCC00027C70A053A951C41B246BA978287930521
:10FCD000F4FF858D13851400C2054A86C1814E95B7
:10FCE000EF30C012BE402E449E440E49FA596A5A63
:10FCF000696182809305F4FF858D13851400C20528
:10FD0000C1814E95EFF04FB9F1BF9305F4FF858D9A
:10FD100013851400C2054A86C1814E95EFF0FF8E0F
:10FD2000D1B7B6854A85C53175BF9305F4FF858D7A
:10FD300013851400C2054A86C1814E95EFF0FF8CF1
:10FD400055B7B6854A85EFF05FA069BF1306400638
:10FD50008145E80036C6EFE01FB3EF60C04CB24605
:10FD60002A86C9D2FD57631AF50097C5030093850B
:10FD7000E5C0E800EF80A33EB5B797C503009385C3
:10FD8000A5C1E80036C6EF802339E800EF80433E86
:10FD9000B246931505014A86C181E800EF20401064
:10FDA00091B717D603001306A6AF97C50300938536
:10FDB000A5D21145EFC0F07B35B7B6854A85EFF087
:10FDC0007FA00DB7B6854A85EFF0BFA521BFB685E8
:10FDD0004A85EFF01FB539B7B6854A85EFF05FBAAF
:10FDE00011B7B6854A85EFF0EF99EDBDB6854A8526
:10FDF000EFF05FADC5BDB6854A85EFF0AFFADDB572
:10FE0000B6854A85EFF06F9EF1BD97C503009385D7
:10FE100065CD2545EFC03061F1B50146A2854E851F
:10FE2000EF603030C1B5B1472300F500938716006D
:10FE3000A300F5002301B5002A878D4711C2B9EE52
:10FE40000146814605069375F60F63EBF50433060C
:10FE5000F70013852700850793F7F70F2300D600D7
:10FE6000BA971375F50FB5462380D7002A9723005C
:10FE7000070082803305B600034505008505238011
:10FE8000A70013F5F50F9307350093F7F70FBA970F
:10FE9000E362D5FE8D0693F7F60F5DB78145D5B7C2
:10FEA000B305C70083C50500AE9693F6F60F59BF9C
:10FEB000797122D42304B1002A84A304C1008946A5
:10FEC000300093050008680006D6B13F13160501FF
:10FED0006C0022854182EF10610BB25022544561C3
:10FEE00082801D71AA851946480086CEA2CC2312B5
:10FEF00001002303010002C402C602C802CA02CCE8
:10FF0000EFD0C0108D4650009305A00A2800213F75
:10FF1000131605012A846C0828004182EFD0800A5C
:10FF2000980893171400BA977408228697C503009F
:10FF30009385C5EF1545238607FCEFC09063F64017
:10FF40006644256182801171A6DB1306C003AA8472
:10FF500081450A8586DFA2DDCAD9EFE0DF9213066C
:10FF6000C00381456818EFE01F92130680078145A2
:10FF7000A818EFE05F912685EF10512F19ED268626
:10FF800097C503009385C5001545EFC0905EFE50F0
:10FF90006E54DE544E591161828093070003230092
:10FFA000F1000A8781479745FF1F93852514BD46B9
:10FFB0003386B70003460600850705072300C70000
:10FFC000E398D7FE9757FF1F83C767DB2308F1002D
:10FFD000C54685C71757FF1F130747CEC54793066A
:10FFE00000028345370C3306F10085072300B60075
:10FFF0000507E398D7FE930600020A8693050008DA
:020000021000EC
:100000006818153513190501135909014A866C182A
:100010002A842685EF0091774A86AC186818EFC0CD
:10002000707A9C1906043E94B418268697C503007E
:10003000938585F81545230404F8EFC0905381BFDC
:100040001171A6DB1306C003AA8481450A8586DFE9
:10005000A2DDCAD9EFE03F831306C00381456818CB
:10006000EFE07F82130680078145A818EFE0BF818B
:100070002685EF10B11F19ED268697C503009385DD
:1000800025F11545EFC0F04EFE506E54DE544E592A
:1000900011618280930710032300F10097C70300CA
:1000A000938787ED8C439757FF1F938727C1A853EA
:1000B000EF60B35AEF7063034205418193578500A7
:1000C000A300F1002301A100EFA050179747FF1FE5
:1000D0009387C70183D707079946A301A100139708
:1000E0008700A183D98F0A86930500086818231218
:1000F000F100153B13190501135909012A844A8699
:100100006C182685EF0091684A86AC186818EFC015
:10011000706B931714009819BA97B418228697C574
:1001200003009385A5E52545238407F8EFC07044B7
:10013000A1BF2D71232A91102328211123263111CB
:10014000AA84AE89328981451306C0036800232E34
:100150001110232C81103684EFE0EFF21306C00358
:100160008145A800EFE02FF2130690078145480172
:10017000EFE06FF12685EF10710F0DE5268697C52C
:1001800003009385E5E01545EFC0B03E8320C11123
:100190000324811183244111032901118329C110F2
:1001A00015618280930720033D469755FF1F938575
:1001B00015BD4E852306F100EF70B37C59E19757CA
:1001C000FF1F238E87BA1756FF1F130656BB97C50E
:1001D00003009385A5C61545EFC0B0392285CA85B1
:1001E000EF00917705449757FF1F83C747B999C31D
:1001F000EFE0B0178946700093050008A800A30639
:100200008100EFF05FC213190501135909014A86F5
:10021000AC002A842685EF0071574A864C01A8005D
:10022000EFC0505A1C0206043E945401268697C51E
:100230000300938525CC1545230204F8EFC07033E5
:10024000B1B79757FF1F83C787B3A5E739C0854765
:100250001757FF1F2305F7B21757FF1F130707A6EE
:100260008147BD463386F90003460600850705072A
:100270002301C70CE398D7FE9757FF1F238907B0C8
:100280001756FF1F1306B6AF97C50300938505BE2B
:1002900099B71756FF1F130696AE97C503009385AF
:1002A00025BF1545EFC0F02CCA850145EF00D16A86
:1002B0001DBF1756FF1F130696AC97C50300938505
:1002C00065C01545EFC0F02ACA850145EF00D16829
:1002D000014411BF1D71A2CCCAC8D6C286CEA6CA1F
:1002E000CEC6D2C4DAC05EDE62DC66DA6AD86ED60A
:1002F0002A842E89B28A02CC231E0100EF00B16944
:1003000093178501E18763D90702228697C5030009
:100310009385C5BF1545EFC0D025F6406644D64449
:100320004649B649264A964A064BF25B625CD25C65
:10033000425DB25D256182809374F50F2685EF10D2
:10034000C1712AC68147354C975CFF1F938C0C976F
:10035000130B1003130D2003930DA00AE3FF57FBAB
:100360003306F90003470600B146631CD7069385A0
:100370004700E3D455FB034A1600938937003387BF
:100380004901635057074A9703470700631B8705D6
:10039000014781463305E60003451500050713773D
:1003A000F70FAA9693F6F60FE376EAFE33074601B7
:1003B000034727006317D70203A7CC03B246890778
:1003C000B30BF900239AE60003C70B006300670B29
:1003D000636DEB00930700036306F708D29993F768
:1003E000F90F850793F7F70F95BF6305A709E31783
:1003F000B7FF19462C0833053901EFC0B03C194648
:100400009745FF1F9385750D2808230F010097104E
:10041000FF1FE780E0BA05476313E5022285EF106E
:10042000415E83C50B0022850546EFF07FA897C586
:100430000300938525B11545EFC0E07E45B783C520
:100440000B0022850146EFF0BFA69746FF1F93865B
:10045000D608300897C50300938545B01545EFC011
:100460005011ADBF2285EFF01FAE8DBF2285EFF09A
:100470003FBDADB783463600CA9526862285EFF08C
:100480005FCBA9BF411122C4216493050480994622
:100490000146254506C69700FF1FE780C0729305F9
:1004A00004802244B24099461386018529454101C2
:1004B0001703FF1F6700237199E10145828075DDF5
:1004C000011152C403DA418526CA93548A00850477
:1004D000A204C204C18056C2B38A4441C20A22CCDB
:1004E0004AC82E862E842A8997C50300938545BC69
:1004F000254593DA0A014EC606CE93890185EFC0E1
:10050000500763ED8A0883D5418593F7F50FB1CF86
:100510008D6783D5418593870780A2864A86BE95DD
:1005200029459700FF1FE780006A1375F50F29ED35
:1005300083D749001566A297239AF18403D7418592
:1005400083D721856309F70063F3E700B297998F9A
:10055000139607014182254597C503009385C5B6CB
:10056000EFC030011375F40F0DA08D6793870780DE
:10057000930600100146BE9525459700FF1FE780B2
:1005800080641375F50F49D50145F2406244D244A9
:100590004249B249224A924A05618280B307944097
:1005A000D297C207C183A18303C74900850793F788
:1005B000F70F9396870011EB9386170093740AF058
:1005C000A206C204C206C180C18283D7218563F618
:1005D000F40033879600E3C9E7FA0D6A130A0A802C
:1005E0000146B385440125459700FF1FE780A05DC4
:1005F0001375F50F51F983D54185A2864A86D295A8
:1006000005B7411122C4138401852285814519460D
:1006100006C69710FF1FE78020959307B0FA2300C6
:10062000F4008D352244B24097C503009385C5A0E0
:10063000254541016FC0205FA16541119946138690
:100640000185938505802D4506C69700FF1FE7802D
:10065000805703C701859307B00A6303F700553736
:10066000B24083D6418503D6218597C50300938583
:10067000659D254541016FC0C06F83D7C1A9014564
:10068000638F071003D5E1A96366F50023AE01A8C7
:10069000014582803385A740D1473355F502137554
:1006A000F50F01E5239E01A88280130101BD2324DB
:1006B0008142232611422322914223202143232ECB
:1006C0003141232C4141232A514195471374F50FA1
:1006D00063F3A7001544228697C50300938585A080
:1006E0002545EFC0006901498144938901AA514A17
:1006F000A14A9377F90F03D5E1A91747FF1F0347D5
:10070000C7CE63EC8704D1473304F4022A94239FB5
:1007100081A8A147631FF706A6850808EF40F03FB0
:1007200003D7E1A983D7C1A96364F70023AE01A869
:100730008320C1420324814203D5C1A983244142BD
:10074000032901428329C141032A8141832A41416E
:100750003335A000130101438280B3074903140815
:10076000AA97CE9733859600631E5701BE85EF404A
:10077000505A2317A1008357E1000509BE94C20413
:10078000C18085BFAA851306E1003E85EFA0D00A8F
:10079000DDB726860C080145EF60F05751B782801F
:1007A000011106CE22CC26CA4AC84EC691E90144A0
:1007B0002285F2406244D2444249B24905618280B6
:1007C000AA8975D583D7418503D621852E84956462
:1007D000638AC7006374F60015673A961D8E9314FA
:1007E0000601C180268697C503009385E5812545CE
:1007F000EFC02058938714F06356F4009307F00F6E
:1008000063EA970097C50300938585812545EFC06E
:10081000405671BF83D4418533878400956763C98F
:10082000E700A2854E85EFF03FC9EFF0BFC549B79D
:10083000156933099940420913590901CA854E8542
:10084000EFF09FC72DD5ED75A695A295C205239A09
:100850000184C18133852901F9B783D6C1A981EA11
:1008600097C503009385458225456FC0C03B03D6DD
:10087000E1A94111918E97C503009385E581254536
:1008800006C6EFC0004F1387C1A98355070083D761
:10089000E1A9138501AA9D8DC2053E95C181093745
:1008A000B24023AE01A841018280411183D7C1A982
:1008B00022C426C206C6AE9713070010AA842E844F
:1008C000635AF700593F97B503009385A5792545ED
:1008D000EFC0603583D7C1A9138501AA2286A685FA
:1008E0003E95EF60D33103D6C1A922964206224439
:1008F000B24092444182239EC1A897B503009385DC
:10090000E577254541016FC0C046011126CA06CED4
:1009100022CC4AC84EC652C456C2814459C1D1C124
:1009200083D7218503D44185638D870663F58708C6
:100930001D8C42044180AE892A89228697B5030026
:10094000938505690145EFC0C042A28463F3890025
:10095000CE84C2040D6A83D7218503D74185C18027
:10096000938A0185130A0A8063FAE704A6864A86F9
:10097000B38547012D459700FF1FE780C02483D72B
:100980002A00A6972399F184EFF0DFAF83D6418543
:1009900003D6218597B503009385C5642545EFC02F
:1009A000403DF240624426854249D244B249224A3F
:1009B000924A0561828015673A949DBF15671D8F25
:1009C000B385470163D5E400A6864A8665B7956975
:1009D000B389F9406D743E94C20993D909012694F4
:1009E000CE864A8642042D459700FF1FE780A01D52
:1009F0004180A28633063901D2852D452399018491
:100A00009700FF1FE780201C83D72A003E9423997C
:100A100081849DBF9387018503D5270083D7470035
:100A20001D8D133515008280397126DA4AD84ED6CD
:100A300052D456D25AD006DE22DC62CE66CC2A8947
:100A4000EF7003739374F50F8149254BE54A17BA8C
:100A50000300130AAA6A91ECF25062544E85D254F4
:100A60004259B259225A925A025B724CE24C2161AD
:100A7000828003470900930707FD93F7F70F637C14
:100A8000FB009307F7F993F7F70F63E2FA06930772
:100A900097FA93F7F70F139487016184FD142300ED
:100AA00089002685EF50D3712A86AE8603250A0079
:100AB00083254A0093F4F40F0509EF10C13A2AC4C4
:100AC00022852EC6EF50D36F2246B246EF50E31F69
:100AD0002A8C4E85AE8CEF50D3752A86AE86628501
:100AE000E685EF406333EF50F367AA89ADB793060D
:100AF000F7FB93F6F60F8147E3EFDAF8930797FCDD
:100B000049BF411122C406C6830795022A8499C7AA
:100B100013059502EF60F30B238DA1F88307D41220
:100B200091CB1305D412EF60730AEF60236C9387A7
:100B300081F6C8D3B240224441018280011126CA05
:100B40009304150022CC97B50300938525722A845F
:100B5000268506CE4AC84EC6EFC0A031631E0510DA
:100B600097B503009385C5702685EFC0803063027A
:100B7000050E85448307D4036386070C130594028E
:100B8000EF60330585491379F50F1305D4036387A7
:100B9000340F8947638CF418EF60B303A38EA1F878
:100BA000631A3901794681451385F1FB238B018452
:100BB000EFD07FCD8307D40885C31305D408EF6039
:100BC000530103C7618593071700238BF184938733
:100BD00081F6BA97A38BA7048307D40D85C31305A9
:100BE000D40DEF60037F03C7618593071700238B44
:100BF000F184938781F6BA97A38BA7048307D41255
:100C000085C31305D412EF60C37C03C761859307C6
:100C10001700238BF184938781F6BA97A38BA704DF
:100C20008307D41785C31305D417EF60837A03C7EE
:100C3000618593071700238BF184938781F6BA9718
:100C4000A38BA704F2406244D2444249B2490561F1
:100C5000828097B503009385E5612685EFC060210A
:100C6000E31905F0268597B503009385E560EFC08D
:100C700040208944E31005F08144EDBDEF606375C9
:100C8000238FA1F8631A990079468145138511FADB
:100C9000238B0184EFD03FBF8307D40885C313059E
:100CA000D408EF60037303C7618593071700238B94
:100CB000F184938781F6BA97A38CA7028307D40D9A
:100CC00085C31305D40DEF60C37003C76185930717
:100CD0001700238BF184938781F6BA97A38CA70220
:100CE0008307D41285C31305D412EF60836E03C744
:100CF000618593071700238BF184938781F6BA9758
:100D0000A38CA7028307D417E38E07F21305D41729
:100D1000EF60236C03C7618593071700238BF18471
:100D2000938781F6BA97A38CA70229BFEF60636A05
:100D3000A38FA1F801BF411122C406C683079507FE
:100D40002A8499C713059507EF60A368A38DA1F8BE
:100D50008307D40899C71305D408EF608367238EEF
:100D6000A1F88307540B91CB1305540BEF60036676
:100D7000EF60C347938781F688D7B2402244410190
:100D80008280011126CA8146B284014652C456C2ED
:100D900006CE22CC4AC84EC62A8AAE8AEF401356E7
:100DA00041CD9307E0046386F40093073005639513
:100DB000F40897B903009389694903A6090083A63B
:100DC00049005285D685EF40537037949800EF5014
:100DD0007339130404682A8933758502EF5073450B
:100DE00003A6090083A64900EF40037697B70300E6
:100DF000938747469043D443EF4003752A8A33557F
:100E00008902AE8AEF50F3422A86AE865285D68595
:100E1000EF40830013073005AE876395E400B70702
:100E20000080AD8FF2406244D2444249B249224A26
:100E3000924ABE850561828001458147E5B701116F
:100E400026CA8146B284014652C456C206CE22CC7E
:100E50004AC84EC62A8AAE8AEF40534A41CD93070C
:100E600050046386F400930770056395F40897B9FE
:100E700003009389A93D03A6090083A64900528572
:100E8000D685EF40936437949800EF50B32D130448
:100E900004682A8933758502EF50B33903A6090027
:100EA00083A64900EF40436A97B703009387873AC8
:100EB0009043D443EF4043692A8A33558902AE8A6E
:100EC000EF5033372A86AE865285D685EF30D374FD
:100ED00013077005AE876395E400B7070080AD8FF8
:100EE000F2406244D2444249B249224A924ABE8503
:100EF0000561828001458147E5B713578500935707
:100F0000050113D885009376F50F01111377F70FBC
:100F100093F7F70F618593F5F50F1378F80F99C2E2
:100F200011C3B9E3230CD100A30CE100230DF100A0
:100F3000A30DA10003459101834781010347A1014E
:100F40002205A30E01014207C98F230EB1000345FC
:100F5000B101D98F0347D1018345C1016205220741
:100F60005D8DD98D0561828032951375F50F131350
:100F70008501135383415D466357660861463363B9
:100F8000C30285071376D70F114593F7F70F630553
:100F9000A6002545631AA6007946637FF602050779
:100FA0001377F70F85470DA809466312C704138608
:100FB000067D93084006B36816036385080013F5A1
:100FC000360011C5130500193366A60219EE7546E1
:100FD0006374F60085470D47230CD100A30CE10094
:100FE000230DF100A30D6100B1B77146D5B77D4661
:100FF000E374F6FEB147E314F7FA850693F6F60FAD
:1010000085470547D1BFE35903FC6105FD1713135D
:10101000850193F7F70F13538341DDFF7D17137796
:10102000F70F1146F947E309C7FA1946E306C7FA6D
:101030002546E303C7FA2D46E300C7FA894763163E
:10104000F7021386067D93074006B367F60291C741
:1010500093F83600F547E38108F893070019B36762
:10106000F60293B71700F10785BFFD4735F7FD1668
:1010700093F6F60F31478DB78347150003470500F8
:101080000111A2075D8F8347250083463500834504
:101090004500C207D98F0347550022CC1734FF1FE4
:1010A0001304041E03062420E206220733E5F6009B
:1010B000D98D06CE9935135885001356050193D75F
:1010C000850013F7F50F93F7F70F93568501137605
:1010D000F60F9375F80F1375F50FEF900001834726
:1010E0001400054793F7B70F6397E7006244F24097
:1010F00005616F90000FF240624405618280497182
:1011000023248116138481F68307340083C8D1F623
:1011100003C8C1F603C7A1F683C691F603C681F6DC
:1011200097B503009385051748102326111623222F
:10113000911623202117232E3115EF60F37D4810DF
:10114000EF70030318485C48030604033AC03EC22C
:10115000030814035C441844541097B503009385A6
:1011600065153695EF60537B4810EF7063005C1097
:101170003E958307640017B603001306261189C73E
:1011800017B603001306061097C50300938545D4D0
:10119000EF6093784810EF60B37D544C104C5C10B6
:1011A00097B50300938505123E95EF60F3764810DE
:1011B000EF60137C030634035C103E9597B5030083
:1011C00093850511EF6053754810EF60737A03073C
:1011D0002403AA8448503ACE138481F6EF50537604
:1011E00072475C10AE862A8697B503009385450F3B
:1011F00033859700EF6053724810EF6073775C108F
:1012000003C6C1F997B503009385050F3E95EF60BE
:10121000B3704810EF60D3755C1097B503009385E9
:10122000E5893E95EF60B373138961F8A28497B99D
:1012300003009389E95703C6740519CA481032CED2
:10124000EF60137372465C10CE853E95EF60D36CF1
:101250008504E39224FF4810EF6093715C1097B50A
:1012600003009385650A3E95EF60736F97B40300A2
:10127000938404540346940319CA481032CEEF6095
:10128000336F72465C10A6853E95EF60F3680504E7
:10129000E31224FF4C102545EFB0F0188320C1164F
:1012A0000324811683244116032901168329C115BD
:1012B00075618280411122C406C626C2830755018A
:1012C0002A84B9C7A946938707FDB387D702034786
:1012D0006501130707FDBA97A385F1F603077501AA
:1012E00083478501130707FD3307D702938707FD5F
:1012F0003E972386E1F6830795010347A50193876F
:1013000007FDB387D702130707FDBA97A386F1F647
:101310008307940281CB130710046390E714854779
:101320002387F1F68307D403938481F699C71305C5
:10133000D403EF60A30988C4CCC40306140509CA0A
:101340008844CC44238CC1F8EFF0BFA388C4CCC43C
:101350008307540699C713055406EF60230788C80E
:10136000CCC80306940709CA8848CC48A38CC1F8A6
:10137000EFF0FFAC88C8CCC88307D40899CF130519
:10138000D408EF60A30497B70300938727EF904337
:10139000D443EF40931388CCCCCC8307140A99C76D
:1013A0001305140AEF60E3022394A1F88307540B9A
:1013B000B9C7A946938707FDB387D7020347640BD4
:1013C000130707FDBA972385F1F60307740B8347CC
:1013D000840B130707FD3307D702938707FD3E975A
:1013E000A384E1F68307940B0347A40B938707FDBF
:1013F000B387D702130707FDBA972384F1F68385D5
:101400003400856703C6C1F6938707E11307C0035D
:101410003307E60283C6D1F6B387F502BA97B697CB
:1014200023AAF1F81747FF1F130747891C433A8483
:1014300013F5870039E1038564000547631FE50262
:1014400003C7A1F611EF8844CC4401468146EF4022
:10145000E36A05E9238701F6B9A0238701F6D9B528
:10146000FDD175D2EDD293E78700138581F617473A
:10147000FF1F2325F784EFF03FC083876400E1F767
:10148000D1BF8848CC4801468146EF40236779D1D7
:1014900083C7A1F6E1D313068007938581F61385F0
:1014A00001EFEF50D37503C501BA9D4705053365BC
:1014B000F50213068007938581F62380A1BA93076E
:1014C00080073305F502938781BA3E95EF50337359
:1014D000EFF0FFC25C5C2244B24092441747FF1F0A
:1014E0002320F782130680078145138581F6410189
:1014F0006FD06FB90171232C811E232A911E130610
:10150000101E2A84AE8468008145232E111E2328D4
:10151000211FEFD04FB78145814701470146514810
:10152000CD485D436341960899C12306F100130637
:10153000A002A6852285EFB010128347C100514753
:101540003386A440B387E7029305150078007D1623
:10155000A29585073305F700EF50736A1306A002C2
:10156000A685228503491400EFB0F00E894763C4B5
:10157000A7080345C100D1473305F5027C000505E6
:101580003E95EFF06FCA631DA904194697B5030095
:101590009385C5CC1305D100EFB070192DC5680037
:1015A000EFF05FD135A8B306C40003C5060093066B
:1015B00065FD93F6D60F91EA850793F7F70F636100
:1015C000F302854501470506B1BFB3860703130E35
:1015D000011FF296BA96A38EA6E00507E3D5E8FEB2
:1015E0008320C11F0324811F8324411F0329011F5E
:1015F0001301012082803307F400034707008507A9
:101600003349E900ADB7194697B50300938545C541
:101610001305D100EFB0B0110DED194697B50300D9
:10162000938545C41305D100EFB0701019ED19462C
:1016300097B50300938545C31305D100EFB0300F74
:1016400045D16800EFF08FCF61BF6800EFF0AFEEDB
:1016500041BF6800EFF0EFCA61B7757122C526C3BC
:101660004AC1CEDED2DCD6DADAD806C7AA892E89FC
:10167000814401448147130A4002854A354B139740
:1016800004014183636C2701BA402A449A440A4901
:10169000F659665AD65A465B49618280338799006B
:1016A0000347070063014703639D5701631E6701FA
:1016B0009C18A297A2856800238E07F8EFF09FE39D
:1016C000814785046DBF01449C18A29705041374DB
:1016D000F40F238EE7F893373406E5B7411106C6B9
:1016E000138501BA83470500130780078145B38737
:1016F000E70213068007A1073E95EFD0CF98B240CE
:101700008145214541016FC0601B138501BA8347A4
:10171000050013078007B387E702A1073E95828083
:10172000138501EF82801841938701FE104598C30D
:1017300003574500544590C72392E7005855104978
:10174000D4C7544998CF97B50300938565AE054734
:10175000254590CBD4CB238EE7006FB0C04C973794
:10176000FF1F83C7675681CF9737FF1F83D787D166
:10177000FD17C207C1831307A0036375F70023ACED
:101780000184828031714ED79389818583A70900B6
:1017900056D3938A01BA850722DD26DB52D55AD16A
:1017A0005ECF62CD66CB6AC906DF4AD96EC723AC6D
:1017B000F18483C401BA014A130C8007568497BC94
:1017C0000300938CAC9D054D9D4B154B33898403D1
:1017D00056998307E900E1CF03A60C0083A64C00CD
:1017E0000325090283254902EF40C3426341050CEA
:1017F00083470904638DA70B93171A001808BA973B
:10180000035789022390E7003C00D297238097007A
:10181000050A9904B3E47403E31A6AFB03578101D0
:1018200083570101998F13D7F741B98F998F9394FB
:1018300007011307400BC1806358F7009307801618
:10184000B3849740C204C180268697B50300938570
:10185000E5976808EF60530C6C082545EFB0A03C95
:10186000938714FFC207C1837947636EF708034962
:101870009100130A80078545014533094903210971
:1018800022994A86EF90D04A8344B10085450145AC
:10189000B3844403A104A2942686EF907049CA85BC
:1018A0000D45EF305049A6850D45EF30D04883A750
:1018B00009001737FF1F0357E7BC63E7E70203C5BB
:1018C00001BA9304800733059502B30DA400838702
:1018D000ED0099CB83C7C1FF138901FE6397070E03
:1018E00021052295EFF03FE4FA506A54DA544A5940
:1018F000BA592A5A9A5A0A5BFA4B6A4CDA4C4A4D40
:10190000BA4D296182809307D002E3F297FA834BA4
:101910008100930A80078545B38B5B030145138CD7
:101920008B00229C6286EF90B040034B910085456E
:101930000145330B5B03A29B210B229B5A86EF9040
:10194000303F034AA10085450145330A5A03210A65
:10195000229A5286EF90D03D0349B100854501455A
:1019600033095903210922994A86EF90703C834438
:10197000C10085450145B3845403A104A294268681
:10198000EF90103BE2850D45EF30F03ADA850D45DA
:10199000EF30703AD2850D45EF30F039CA850D45EC
:1019A000EF307039A6850D45EF30F03883C701BAA6
:1019B000B38A570303A74B03A29A83A74A03E318EA
:1019C000F7EE85472380FA04DDB517AD0300130D4C
:1019D0006D7D03260D0083264D0003A50D0183A513
:1019E0004D0197A903009389697CEF40032E03A65C
:1019F000090083A64900EF3033352A8BAE8B0326CE
:101A00000D0083264D00032589008325C900EF4082
:101A1000C32B03A6090083A64900EF30F3322A8ABC
:101A2000AE8A2A86AE865A85DE85EF40837597A7F3
:101A30000300938727789043D443EF400329EF00B6
:101A4000612D2A8CAE8C5A85DE85EF0081232A8B8E
:101A5000AE8B5285D685EF00C1220326090183266D
:101A600049012A8AAE8A03A58D0183A5CD01EF40E5
:101A7000437103260D0083264D00EF40032503A686
:101A8000090083A64900EF30332C97A70300938702
:101A900067729043D443EF404323EF00A1272A8984
:101AA000AE895286D6865A85DE85EF4003224A8665
:101AB000CE86EF4083214A86CE86EF4003212A89D5
:101AC000AE896286E6866285E685EF4003202A8637
:101AD000AE864A85CE85EF302334EF00216BEF00D0
